S01100002E2E2F50726F746575732E73313966
S32D0000C000000000205DC2000011C3000017C300001DC3000023C3000029C3000000000000000000000000000073
S32D0000C028000000002FC3000035C30000000000003BC3000041C30000C5F40000D1F40000DDF40000E9F40000D2
S32D0000C050F5F4000001F500000DF5000019F5000025F5000031F500003DF5000049F5000055F5000061F5000083
S32D0000C0786DF5000079F5000085F5000091F500009DF50000A9F50000B5F50000C1F50000CDF50000D9F50000AA
S32D0000C0A0E5F50000F1F50000FDF5000009F6000015F6000021F600002DF6000039F6000045F6000051F60000CB
S32D0000C0C85DF6000069F6000075F6000081F600008DF6000099F60000A5F60000B1F60000BDF60000C9F60000F0
S32D0000C0F0D5F600005D4E0100E1F60000EDF60000F9F6000005F7000011F700001DF7000029F7000035F700009E
S32D0000C11841F700004DF7000059F7000065F7000071F700007DF7000089F7000095F70000A1F70000ADF70000AD
S32D0000C140B9F70000C5F70000D1F70000DDF70000C51E0100E9F70000F5F7000001F800000DF8000019F800000A
S32D0000C16825F8000031F800003DF8000049F8000055F8000061F800006DF8000079F8000085F8000091F800006B
S32D0000C1909DF80000A9F80000B5F80000DD1B0100A51A0100411B010049F200007D1C0100C1F80000CDF8000035
S32D0000C1B8D9F80000906F020000000020D0160000906F02000000FF1F00000000D0160020680400000000FF1FD2
S32D0000C1E00000000080B489B000AFF860B9607A60BB68FB61FB68BB6100237B617A697B689A420BD2BA69131DFB
S32D0000C208BB61FB69191DF96112681A607B6904337B61EFE700BF2437BD4680BC704780B485B000AF786039609E
S32D0000C2307B68FB600023BB60BA683B689A4208D2FB681A1DFA6000221A60BB680433BB60F2E700BF1437BD46FE
S32D0000C25880BC704780B586B000AF72B6234B4CF220521A80214B4DF628121A80204B4FF4E9721A801F4B7B615F
S32D0000C2807B691F4A934214D27B691A1D7A611B683B617B691A1D7A611B68FB607B691A1D7A611B68BB60BA68E9
S32D0000C2A8F9683869FFF79AFFE6E77B69134A93420ED27B691A1D7A611B68FB607B691A1D7A611B68BB60B9688B
S32D0000C2D0F868FFF7A8FFECE70B4B7B600B4A7B681A6012F0AFF962B603F076F800F0B2FEFEE700BF0E200540B3
S32D0000C2F800200540BCC10000D4C10000E4C1000008ED00E000C0000080B400AFFEE780B400AFFEE780B400AFF4
S32D0000C320FEE780B400AFFEE780B400AFFEE780B400AFFEE780B400AFFEE780B400AFFEE780B400AFFEE780B426
S32D0000C34800AFFEE7FFFFFFFFFFFFFFFFFFFFFFFFFFFFFFFFFFFFFFFFFFFFFFFFFFFFFFFFFFFFFFFFFFFFFFFF57
S32D0000C370FFFFFFFFFFFFFFFFFFFFFFFFFFFFFFFFFFFFFFFFFFFFFFFFFFFFFFFFFFFFFFFFFFFFFFFFFFFFFFFFC7
S32D0000C398FFFFFFFFFFFFFFFFFFFFFFFFFFFFFFFFFFFFFFFFFFFFFFFFFFFFFFFFFFFFFFFFFFFFFFFFFFFFFFFF9F
S32D0000C3C0FFFFFFFFFFFFFFFFFFFFFFFFFFFFFFFFFFFFFFFFFFFFFFFFFFFFFFFFFFFFFFFFFFFFFFFFFFFFFFFF77
S32D0000C3E8FFFFFFFFFFFFFFFFFFFFFFFFFFFFFFFFFFFFFFFFFFFFFFFFFFFFFFFFFFFFFFFFFFFFFFFFFEFFFFFF50
S32D0000C44010B5054C237833B9044B13B10448AFF300800123237010BDD016002000000000F06D020008B5034BBC
S32D0000C4681BB103490348AFF3008008BD00000000D4160020F06D020080B483B000AF786039603B6818460C3728
S32D0000C490BD4680BC704780B483B000AF78607B685B685A1C7B685A6000BF0C37BD4680BC704780B582B000AFD3
S32D0000C4B878607B685B685A1E7B685A607B685B68002B0CBF01230023DBB2002B19D07B681B6808331B6878683B
S32D0000C4E098477B689B685A1E7B689A607B689B68002B0CBF01230023DBB2002B05D07B681B680C331B6878685C
S32D0000C508984700BF0837BD4680BD000080B400AF024B1846BD4680BC704700BF204E020080B582B000AF786047
S32D0000C5303960386800F0E3FE0346184605F042FF00BF0837BD4680BDB0B586B000AFF860B9607A604FF49F73CE
S32D0000C5587B6100233B61786910F064FC0346B968184610F0B3FC0346184610F017F804460D46786810F012F825
S32D0000C5800BA3D3E9002310F065F802460B462046294610F089F902460B461046194610F0F3FA03463B613B69EF
S32D0000C5A818461837BD46B0BD182D4454FB211940B0B5ADF5787D06AF07F57273A3F57173186007F57273A3F5F7
S32D0000C5D0727319604FF0FF33C7F8C4334FF00003C7F8BC334FF00003C7F8B833002387F8C333524806F0CFFEE7
S32D0000C5F807F1080303241D46002C05DB284608F068F8EC35013CF7E707F108006FF07F4305934FF47F03049365
S32D0000C62007F57273A3F572731B68039305230293052301930A2300930A230222022108F095FA97F8C333002B91
S32D0000C64871D107F56E7207F56F731946394806F05BFF0346002BF0D0D7F8BC13D7F8B82307F10800002308F001
S32D0000C67049F90346002B14BF01230023DBB2002B06D00023C7F8C433012387F8C333D8E7D7F8BC13D7F8B823C5
S32D0000C69807F1080303F1EC00002308F02FF90346002B14BF01230023DBB2002B06D00123C7F8C433012387F8B5
S32D0000C6C0C333BEE7D7F8BC13D7F8B82307F1080303F5EC70002308F015F90346002B14BF01230023DBB2002BA3
S32D0000C6E806D00223C7F8C433012387F8C333A4E7D7F8BC13D7F8B82307F1080303F53170002308F0FBF8034614
S32D0000C710002B14BF01230023DBB2002B91D04FF0FF33C7F8C433012387F8C33389E7D7F8C433184607F5727764
S32D0000C738BD46B0BDCC19002080B582B000AF786039603B681A687B681A607B681A1D3B6804331946104600F0BC
S32D0000C760E6FD7B6818460837BD4680BD80B582B000AF78607B680433184600F0EFFD7B6818460837BD4680BD06
S32D0000C78880B582B000AF786039607B683A6811461846FFF7D1FF7B6818460837BD4680BD80B582B000AF78604E
S32D0000C7B07B681846FFF7DAFF7B6818460837BD4680BD80B582B000AF786039603B681A687B681A607B681A1D68
S32D0000C7D83B6804331946104600F0A5FD7B6818460837BD4680BD80B582B000AF78607B680433184600F0AEFD51
S32D0000C8007B6818460837BD4680BD80B582B000AF786039607B683A6811461846FFF7D1FF7B6818460837BD4640
S32D0000C82880BD80B582B000AF78607B681846FFF7DAFF7B6818460837BD4680BD90B58DB002AFF860B9607A6069
S32D0000C8503B6097F83C30002B10D1B86800F05BFD03463968184603F0BFF8786800F053FD03463968184603F063
S32D0000C878B7F80FE0B86800F04AFD0346B96B184603F0AEF8786800F042FD0346B96B184603F0A6F8796CF86889
S32D0000C8A000F04EF8044607F11003396C1846FFF76BFF07F1180379681846FFF7A6FF07F12003B9681846FFF7FF
S32D0000C8C8A0FF07F1100207F12003019307F1180300931346BA6C2146F86800F057F807F120031846FFF79DFFB4
S32D0000C8F007F118031846FFF798FF07F110031846FFF752FF00BF2C37BD4690BD80B584B000AFF860B9607A6097
S32D0000C918B86800F0FCFC0346184603F01FF8786800F0F5FC0346184603F018F800BF1037BD4680BD0000000087
S32D0000C94080B584B000AF7860396038680FF02AFE4FF000020E4B0FF0A7FF02460B461046194609A3D3E9002361
S32D0000C9680FF074FE02460B461046194610F050F90346FB60FB6818461037BD4680BD00BFCDCCCCCCCC4C37402E
S32D0000C9900080764080B58AB000AFF860B9607A603B607A68B968F868FFF7CEFD7862386800F0E6FC0346184628
S32D0000C9B805F0BEF9386800F0DFFC0346184605F0A5F902467B6A9342CCBF01230023DBB2002B00D0EEE707F1D7
S32D0000C9E01403796B1846FFF710FF07F11C03396B1846FFF70AFF07F11C0207F114031946F868FFF783FF07F15F
S32D0000CA081C031846FFF70DFF07F114031846FFF708FF00BF2837BD4680BD80B582B000AF78607B680433184653
S32D0000CA3000F094FC7B6818460837BD4680BD80B582B000AF78607B681846FFF7EAFF7B6818460837BD4680BDCA
S32D0000CA5880B582B000AF78607B680433184600F079FC7B6818460837BD4680BD80B582B000AF78607B681846F6
S32D0000CA80FFF7EAFF7B6818460837BD4680BD80B582B000AF786039603B681A687B681A607B681A1D3B680433EC
S32D0000CAA81946104600F0A8FC7B6818460837BD4680BD80B582B000AF786039607B683A6811461846FFF7DFFFC2
S32D0000CAD07B6818460837BD4680BD80B582B000AF786039603B681A687B681A607B681A1D3B68043319461046C6
S32D0000CAF800F082FC7B6818460837BD4680BD80B582B000AF786039607B683A6811461846FFF7DFFF7B6818460C
S32D0000CB200837BD4680BD80B582B000AF786039603B681A687B681A607B681A1D3B6804331946104600F05CFC6E
S32D0000CB487B6818460837BD4680BD80B582B000AF786039607B683A6811461846FFF7DFFF7B6818460837BD46E7
S32D0000CB7080BD80B582B000AF786039603B681A687B681A607B681A1D3B6804331946104600F036FC7B68184645
S32D0000CB980837BD4680BD80B582B000AF786039607B683A6811461846FFF7DFFF7B6818460837BD4680BD00009B
S32D0000CBC080B584B000AFF860B9607A603B60FB682D4A5A60FB682D4A9A60FB682C4ADA60FB682C4A1A61FB6817
S32D0000CBE84FF07F525A61FB6801229A61FB680022DA61FB682033184600F0CAFBFB682833184600F0C5FBFB681B
S32D0000CC103033184600F0CDFBFB683833184600F0D5FBFB684033184600F0D0FBFB684833184600F0D8FBFB6840
S32D0000CC382033B9681846FFF73CFFFB68283379681846FFF736FFFB68303339681846FFF756FFFB683833B969A3
S32D0000CC601846FFF776FFFB684033F9691846FFF770FFFB684833396A1846FFF790FFFB6818461037BD4680BD36
S32D0000CC880000204200000C42000020C200000CC22DE9F041A0B006AF78607E687B6803F1200207F108031146C1
S32D0000CCB01846FFF7AAFD7B6803F1280207F1100311461846FFF7A1FD7B68D3F808807B681C697B689B69002B56
S32D0000CCD814BF01230023DDB27B6803F1400207F1180311461846FFF74BFD7B685B6907F1100207F1080104931D
S32D0000CD00854B039307F1180302930195009443463046FFF797FD07F118031846FFF744FD07F110031846FFF73D
S32D0000CD2880FD07F108031846FFF77BFD4FF000004FF0804104F016FD7E687B6803F1200207F12003114618469C
S32D0000CD50FFF75BFD7B6803F1280207F1280311461846FFF752FD7B68D3F808807B681C697B68DB69002B14BF86
S32D0000CD7801230023DDB27B6803F1400207F1300311461846FFF7FCFC7B685B6907F1280207F1200104935F4BAD
S32D0000CDA0039307F1300302930195009443463046FFF748FD07F130031846FFF7F5FC07F128031846FFF731FD96
S32D0000CDC807F120031846FFF72CFD4FF00000524904F0C8FC7E687B6803F1200207F1380311461846FFF70DFD4C
S32D0000CDF07B6803F1280207F1400311461846FFF704FD7B68D3F808807B681C697B689B69002B14BF0123002363
S32D0000CE18DDB27B6803F1400207F1480311461846FFF7AEFC7B685B6907F1400207F1380104933A4B039307F1F0
S32D0000CE40480302930195009443463046FFF7FAFC07F148031846FFF7A7FC07F140031846FFF7E3FC07F13803F4
S32D0000CE681846FFF7DEFC4FF000004FF0804104F079FC7E687B6803F1200207F1500311461846FFF7BEFC7B6854
S32D0000CE9003F1280207F1580311461846FFF7B5FC7B68D3F808807B681C697B68DB69002B14BF01230023DDB20E
S32D0000CEB87B6803F1400207F1600311461846FFF75FFC7B685B6907F1580207F150010493134B039307F16003AA
S32D0000CEE002930195009443463046FFF7ABFC07F160031846FFF758FC07F158031846FFF794FC07F150031846E6
S32D0000CF08FFF78FFC00BF6837BD46BDE8F08100BF0000B4420000344300000840000007430000344280B582B068
S32D0000CF3000AF786039603B681A687B681A607B681A1D3B6804331946104600F0F0F97B6818460837BD4680BDEF
S32D0000CF5880B582B000AF786039607B683A6811461846FFF7DFFF7B6818460837BD4680BD90B585B000AF786055
S32D0000CF8039600C4806F007FA7C6807F1080339681846FFF7E1FF07F1080319462046FFF7C3FA07F10803184607
S32D0000CFA8FFF764FD00BF1437BD4690BDCC19002080B582B000AF786039603B681A687B681A607B681A1D3B68DF
S32D0000CFD004331946104600F0AAF97B6818460837BD4680BD80B582B000AF786039607B683A6811461846FFF73D
S32D0000CFF8DFFF7B6818460837BD4680BD80B582B000AF78607B6848331846FFF72FFD7B6840331846FFF7C4FB38
S32D0000D0207B6838331846FFF7BFFB7B6830331846FFF705FD7B6828331846FFF7F6FB7B6820331846FFF7F1FBF1
S32D0000D0487B6818460837BD4680BD000090B5D3B004AF9D4BC7F830319C4A07F1840311465022184611F05CFE90
S32D0000D070002387F8D7304FF00002974BC7E9362307F17C0307F1D80207F1D701184600F0DBF9012387F8E730C8
S32D0000D0984FF000028E4BC7E93A2307F1740307F1E80207F1E701184600F0CAF9082387F8F43007F16C0307F1D4
S32D0000D0C0F4021146184600F0E2F9072387F8F53007F1640307F1F5021146184600F0F5F9002387F8F63007F15D
S32D0000D0E85C0307F1F6021146184600F0EAF9002387F8F73007F1540307F1F7021146184600F0FDF907F1540350
S32D0000D110184600F0F4F8034640F20A51184605F09BF807F15403184600F0E9F8034640F62501184605F0ADF8E0
S32D0000D13807F17C0207F1F80311461846FFF761FB07F1740207F5807311461846FFF759FB07F16C0207F58473A4
S32D0000D16011461846FFF73EFF07F1640207F5887311461846FFF708FB07F15C0207F58C7311461846FFF700FBBF
S32D0000D18807F1540207F5907311461846FFF7E0FE07F5847407F5807207F1F801384607F59073029307F58C73C3
S32D0000D1B0019307F5887300932346FFF701FD07F590731846FFF756FC07F58C731846FFF7EBFA07F588731846A8
S32D0000D1D8FFF7E6FA07F584731846FFF72CFC07F580731846FFF71DFB07F1F8031846FFF718FB6FF00103C7F80D
S32D0000D2003431D7F83431B3F1FF3F38D007F1840207F1500311461846FFF7CEF9C7F83401D7F83431022B11D00C
S32D0000D228D7F83431022B22DCD7F83431002B04D0D7F83431012B1CD019E03B461846FFF727FD17E007F15402C3
S32D0000D25007F5947311461846FFF77EFE07F594723B4611461846FFF787FE07F594731846FFF700FC02E000BFDF
S32D0000D278C3E700BFC1E700243B461846FFF7BEFE07F154031846FFF7F1FB07F15C031846FFF786FA07F16403A9
S32D0000D2A01846FFF781FA07F16C031846FFF7C7FB07F174031846FFF7B8FA07F17C031846FFF7B3FA2346184660
S32D0000D2C807F59E77BD4690BD00004842284E02000000224080B582B000AF78607B68002B05D07B681B68043305
S32D0000D2F01B687868984700BF0837BD4680BD80B582B000AF7860786800F03CF9034618460837BD4680BD80B542
S32D0000D31882B000AF7860786800F03CF9034618460837BD4680BD80B582B000AF786039603B681A687B681A60FA
S32D0000D3407B681B68002B04D07B681B681846FFF7A2F87B6818460837BD4680BD80B582B000AF78607B681B68F2
S32D0000D368002B04D07B681B681846FFF79EF87B6818460837BD4680BD80B582B000AF7860786800F013F9034675
S32D0000D39018460837BD4680BD80B582B000AF78607B68184600F012F97B6818460837BD4680BD80B582B000AF92
S32D0000D3B878607B68184600F016F97B6818460837BD4680BD80B582B000AF78607B68184600F01AF97B681846FC
S32D0000D3E00837BD4680BD80B582B000AF78607B68184600F01EF97B6818460837BD4680BD80B584B000AF7860BA
S32D0000D40839603B681B68FB607B681B68FA689A4211D0FB68002B02D0F868FFF738F87B681B68002B04D07B6829
S32D0000D4301B681846FFF73DF87B68FA681A607B6818461037BD4680BD90B587B000AFF860B9607A6007F11403B6
S32D0000D458184600F0FBF8B86800F010F90446786800F016F90346F86807F11401224600F019F907F11403184696
S32D0000D48000F0F4F800BFF8681C37BD4690BD80B584B000AF7860396007F10C03184600F01EF9386800F033F92F
S32D0000D4A802467B6807F10C01184600F036F907F10C03184600F01BF900BF78681037BD4680BD80B584B000AF02
S32D0000D4D07860396007F10C03184600F036F9386800F015F902467B6807F10C01184600F044F907F10C0318467B
S32D0000D4F800F033F900BF78681037BD4680BD80B584B000AF7860396007F10C03184600F044F9386800F059F9C7
S32D0000D52002467B6807F10C01184600F05CF907F10C03184600F041F900BF78681037BD4680BD000080B483B0EE
S32D0000D54800AF7860044A7B681A607B6818460C37BD4680BC704700BFF04E020080B582B000AF78607868FFF746
S32D0000D570E9FF0C21786807F091FE7B6818460837BD4680BD80B582B000AF7860786800F03EF903461846083777
S32D0000D598BD4680BD80B582B000AF7860786800F03DF9034618460837BD4680BD80B582B000AF7860786800F04D
S32D0000D5C03CF9034618460837BD4680BD80B582B000AF78607B6800221A607B680433184600F036F97B6818469D
S32D0000D5E80837BD4680BD80B582B000AF78607B6800221A607B680433184600F025F97B6818460837BD4680BDE3
S32D0000D61080B582B000AF78607B6800221A607B680433184600F014F97B6818460837BD4680BD80B582B000AF34
S32D0000D63878607B6800221A607B680433184600F003F97B6818460837BD4680BD80B582B000AF7860786800F08B
S32D0000D66004F97B6818460837BD4680BD80B582B000AF7860786800F002F97B6818460837BD4680BD80B483B0FF
S32D0000D68800AF78607B6818460C37BD4680BC704780B483B000AF78607B6818460C37BD4680BC7047B0B584B072
S32D0000D6B000AFF860B9607A603B60BC687868FFF7E1FF05463868FFF7E7FF03462A462146F86800F0DEF8F86870
S32D0000D6D81037BD46B0BD80B582B000AF7860786800F0EDF87B6818460837BD4680BD80B582B000AF786078683C
S32D0000D70000F0EBF87B6818460837BD4680BD80B483B000AF78607B6818460C37BD4680BC704790B585B000AFD7
S32D0000D728F860B9607A60BC687868FFF7ECFF03461A462146F86800F0D6F8F8681437BD4690BD80B582B000AF64
S32D0000D7507860786800F0E0F87B6818460837BD4680BD80B582B000AF7860786800F0DEF87B6818460837BD4654
S32D0000D77880BD90B585B000AFF860B9607A60BC687868FFF7C0FF03461A462146F86800F0D3F8F8681437BD4640
S32D0000D7A090BD80B582B000AF7860786800F0DDF87B6818460837BD4680BD80B582B000AF7860786800F0DBF82A
S32D0000D7C87B6818460837BD4680BD80B483B000AF78607B6818460C37BD4680BC704790B585B000AFF860B96071
S32D0000D7F07A60BC687868FFF7ECFF03461A462146F86800F0C6F8F8681437BD4690BD80B483B000AF78607B6862
S32D0000D8181B6818460C37BD4680BC704780B483B000AF78607B681B6818460C37BD4680BC704780B483B000AFC7
S32D0000D84078607B681B6818460C37BD4680BC704780B483B000AF78607B6800221A607B6818460C37BD4680BCB5
S32D0000D868704780B483B000AF78607B6818460C37BD4680BC704780B483B000AF78607B6818460C37BD4680BCC2
S32D0000D8907047B0B584B000AFF860B9607A603B60FC687868FFF7EEFE05463868FFF7F4FE03462A46B96820464C
S32D0000D8B800F080F8FB6818461037BD46B0BD80B483B000AF78607B6818460C37BD4680BC704780B483B000AFE4
S32D0000D8E078607B6818460C37BD4680BC704790B585B000AFF860B9607A60FC687868FFF706FF03461A46B9684B
S32D0000D908204600F07EF8FB6818461437BD4690BD80B483B000AF78607B6818460C37BD4680BC704780B483B0FA
S32D0000D93000AF78607B6818460C37BD4680BC704790B585B000AFF860B9607A60FC687868FFF7DDFE03461A4696
S32D0000D958B968204600F075F8FB6818461437BD4690BD80B483B000AF78607B6818460C37BD4680BC704780B4C5
S32D0000D98083B000AF78607B6818460C37BD4680BC704790B585B000AFF860B9607A60FC687868FFF716FF034639
S32D0000D9A81A46B968204600F06CF8FB6818461437BD4690BDF0B587B002AFF860B9607A603B60FB6800221A6048
S32D0000D9D0FB681C1DFD687868FFF754FE06463868FFF75AFE034600933346BA682946204600F06BF8FB681B6841
S32D0000D9F81946F86800F0C4F8FB6818461437BD46F0BDB0B584B000AFF860B9607A60FB6800221A60FB681C1DAC
S32D0000DA20FD687868FFF773FE0346BA682946204600F0B4F8FB681B681946F86800F006F9FB6818461037BD46B1
S32D0000DA48B0BDB0B584B000AFF860B9607A60FB6800221A60FB681C1DFD687868FFF753FE0346BA682946204649
S32D0000DA7000F0F6F8FB681B681946F86800F048F9FB6818461037BD46B0BDB0B584B000AFF860B9607A60FB6866
S32D0000DA9800221A60FB681C1DFD687868FFF795FE0346BA682946204600F038F9FB681B681946F86800F08AF9E1
S32D0000DAC0FB6818461037BD46B0BD2DE9F0418AB000AFF860B9607A603B607A6807F118031146184600F080F997
S32D0000DAE807F1100307F118021146184600F091F907F11003184600F0B4F978627A6807F11C031146184600F046
S32D0000DB10BAF907F11C053868FFF7B4FD0646386CFFF7BAFD80467B6A19461420FEF7A8FC0446434632462946A6
S32D0000DB38204600F0CBF93C6207F11C031846FFF791FD07F110030021184600F0F9F9FB683A6A1A60386A00F08F
S32D0000DB6001FA0246BB681A6007F11003184600F067F907F11803184600F043F9FB6818462837BD46BDE8F08128
S32D0000DB8880B483B000AF7860396000BF0C37BD4680BC7047F0B58BB000AFF860B9607A603B607A6807F1180386
S32D0000DBB01146184600F0E4F907F1100307F118021146184600F0F5F907F11003184600F018FA78627A6807F1F6
S32D0000DBD81C031146184600F01EFA07F11C053868FFF791FD06467B6A19461020FEF744FC04463246294620467A
S32D0000DC0000F034FA3C6207F11C031846FFF773FD07F110030021184600F05EFAFB683A6A1A60386A00F066FA1A
S32D0000DC280246BB681A6007F11003184600F0D0F907F11803184600F0ACF9FB6818462C37BD46F0BD80B483B086
S32D0000DC5000AF7860396000BF0C37BD4680BC7047F0B58BB000AFF860B9607A603B607A6807F11803114618466F
S32D0000DC7800F04AFA07F1100307F118021146184600F05BFA07F11003184600F07EFA78627A6807F11C03114638
S32D0000DCA0184600F084FA07F11C053868FFF72FFD06467B6A19461020FEF7E2FB044632462946204600F09AFA02
S32D0000DCC83C6207F11C031846FFF747FD07F110030021184600F0C4FAFB683A6A1A60386A00F0CCFA0246BB6865
S32D0000DCF01A6007F11003184600F036FA07F11803184600F012FAFB6818462C37BD46F0BD80B483B000AF7860D4
S32D0000DD18396000BF0C37BD4680BC7047F0B58BB000AFF860B9607A603B607A6807F118031146184600F0B0FA93
S32D0000DD4007F1100307F118021146184600F0C1FA07F11003184600F0E4FA78627A6807F11C031146184600F089
S32D0000DD68EAFA07F11C053868FFF72FFD06467B6A19461820FEF780FB044632462946204600F000FB3C6207F17E
S32D0000DD901C031846FFF711FD07F110030021184600F02AFBFB683A6A1A60386A00F032FB0246BB681A6007F128
S32D0000DDB81003184600F09CFA07F11803184600F078FAFB6818462C37BD46F0BD80B483B000AF7860396000BF59
S32D0000DDE00C37BD4680BC704780B582B000AF78603960786800F01CFB7B6818460837BD4680BD80B582B000AF98
S32D0000DE087860786800F01AFB7B6818460837BD4680BD80B582B000AF786039600121386800F016FB03461A467C
S32D0000DE303968786800F01FFB78680837BD4680BD80B582B000AF78607B685B68002B07D07B6818687B685B683B
S32D0000DE580122194600F01FFB7B6818460837BD4680BD80B582B000AF78607B685B68184600F020FB03461846AC
S32D0000DE800837BD4680BD80B582B000AF786039603968786800F01CFB7B6818460837BD4680BD80B582B000AF10
S32D0000DEA878607868FFF7DEFB7B6818460837BD4680BD80B582B000AF78607868FFF7EDFF7B6818460837BD46D2
S32D0000DED080BD0000B0B586B000AFF860B9607A603B60FB68184600F0FFFA164AFB681A60FB6803F10C0407F171
S32D0000DEF81403B9681846FFF7C2FF07F114031946204600F003FB07F114031846FFF7AAFBF86800F023F8044630
S32D0000DF207868FFF7AFFB05463868FFF7B5FB03462A462146B86800F0FBFAFB6818461837BD46B0BDD44E0200F9
S32D0000DF4880B483B000AF786039607B6800225A607B6818460C37BD4680BC704780B582B000AF78607B680C33DB
S32D0000DF70184600F0F5FA034618460837BD4680BD80B582B000AF78603960786800F0F4FA7B6818460837BD4658
S32D0000DF9880BD80B582B000AF7860786800F0F2FA7B6818460837BD4680BD80B582B000AF78603960012138686B
S32D0000DFC000F0EEFA03461A463968786800F0F7FA78680837BD4680BD80B582B000AF78607B685B68002B07D05B
S32D0000DFE87B6818687B685B680122194600F0F7FA7B6818460837BD4680BD80B582B000AF78607B685B681846ED
S32D0000E01000F0F8FA034618460837BD4680BD80B582B000AF786039603968786800F0F4FA7B6818460837BD4671
S32D0000E03880BD80B582B000AF78607868FFF757FB7B6818460837BD4680BD80B582B000AF78607868FFF7EDFFF7
S32D0000E0607B6818460837BD4680BD000090B587B000AFF860B9607A60FB68184600F034FA144AFB681A60FB68DF
S32D0000E08803F10C0407F11403B9681846FFF7C3FF07F114031946204600F0C5FA07F114031846FFF724FBF868BB
S32D0000E0B000F020F804467868FFF729FB03461A462146B86800F0C1FAFB6818461C37BD4690BD00BFB84E0200F0
S32D0000E0D880B483B000AF786039607B6800225A607B6818460C37BD4680BC704780B582B000AF78607B680C334A
S32D0000E100184600F0B5FA034618460837BD4680BD80B582B000AF78603960786800F0B4FA7B6818460837BD4646
S32D0000E12880BD80B582B000AF7860786800F0B2FA7B6818460837BD4680BD80B582B000AF786039600121386819
S32D0000E15000F0AEFA03461A463968786800F0B7FA78680837BD4680BD80B582B000AF78607B685B68002B07D049
S32D0000E1787B6818687B685B680122194600F0B7FA7B6818460837BD4680BD80B582B000AF78607B685B6818469B
S32D0000E1A000F0B8FA034618460837BD4680BD80B582B000AF786039603968786800F0B4FA7B6818460837BD4660
S32D0000E1C880BD80B582B000AF78607868FFF7C5FA7B6818460837BD4680BD80B582B000AF78607868FFF7EDFFF9
S32D0000E1F07B6818460837BD4680BD000090B587B000AFF860B9607A60FB68184600F06CF9144AFB681A60FB6817
S32D0000E21803F10C0407F11403B9681846FFF7C3FF07F114031946204600F085FA07F114031846FFF792FAF868FC
S32D0000E24000F020F804467868FFF761FA03461A462146B86800F081FAFB6818461C37BD4690BD00BF9C4E020083
S32D0000E26880B483B000AF786039607B6800225A607B6818460C37BD4680BC704780B582B000AF78607B680C33B8
S32D0000E290184600F075FA034618460837BD4680BD80B582B000AF78603960786800F074FA7B6818460837BD4635
S32D0000E2B880BD80B582B000AF7860786800F072FA7B6818460837BD4680BD80B582B000AF7860396001213868C8
S32D0000E2E000F06EFA03461A463968786800F077FA78680837BD4680BD80B582B000AF78607B685B68002B07D038
S32D0000E3087B6818687B685B680122194600F077FA7B6818460837BD4680BD80B582B000AF78607B685B68184649
S32D0000E33000F078FA034618460837BD4680BD80B582B000AF786039603968786800F074FA7B6818460837BD464E
S32D0000E35880BD80B582B000AF78607868FFF729FA7B6818460837BD4680BD80B582B000AF78607868FFF7EDFF03
S32D0000E3807B6818460837BD4680BD000090B587B000AFF860B9607A60FB68184600F0A4F8144AFB681A60FB684E
S32D0000E3A803F10C0407F11403B9681846FFF7C3FF07F114031946204600F045FA07F114031846FFF7F6F9F86848
S32D0000E3D000F020F804467868FFF7FBF903461A462146B86800F041FAFB6818461C37BD4690BD00BF804E0200B5
S32D0000E3F880B483B000AF786039607B6800225A607B6818460C37BD4680BC704780B582B000AF78607B680C3327
S32D0000E420184600F035FA034618460837BD4680BD80B483B000AF78607B6818460C37BD4680BC704780B483B05C
S32D0000E44800AF78607B6818460C37BD4680BC704780B582B000AF7860396000223968786800F01EFA03461846CC
S32D0000E4700837BD4680BD80B584B000AFF860B9607A60B86800F031FA0246FB681A60FB687A685A60FB6818467C
S32D0000E4981037BD4680BD80B584B000AFF860B9607A607A68B968F86800F025FA00BF1037BD4680BD80B483B04D
S32D0000E4C000AF78607B6818460C37BD4680BC704780B483B000AF786039607B6818460C37BD4680BC704700002C
S32D0000E4E880B483B000AF7860074A7B681A607B6801225A607B6801229A607B6818460C37BD4680BC704700BF71
S32D0000E510F04E020080B582B000AF786039603968786800F0FFF97B6818460837BD4680BD90B585B000AFF8606C
S32D0000E538B9607A603B607868FFF7A0F804463868FFF7A6F803462246B968F86800F0F4F900BF1437BD4690BDD2
S32D0000E56080B582B000AF7860786800F00FFA034618460837BD4680BD80B483B000AF78607B6818460C37BD462B
S32D0000E58880BC704780B483B000AF78607B6818460C37BD4680BC704780B582B000AF78603960002239687868E0
S32D0000E5B000F0F6F9034618460837BD4680BD80B584B000AFF860B9607A60B86800F006FA0246FB681A60FB683D
S32D0000E5D87A685A60FB6818461037BD4680BD80B584B000AFF860B9607A607A68B968F86800F0FAF900BF103782
S32D0000E600BD4680BD80B483B000AF78607B6818460C37BD4680BC704780B483B000AF786039607B6818460C3739
S32D0000E628BD4680BC704780B582B000AF786039603968786800F0E8F97B6818460837BD4680BD80B584B000AF1D
S32D0000E650F860B9607A607868FFF759F803461A46B968F86800F0E2F900BF1037BD4680BD80B582B000AF786001
S32D0000E678786800F0F0F9034618460837BD4680BD80B483B000AF78607B6818460C37BD4680BC704780B483B0C6
S32D0000E6A000AF78607B6818460C37BD4680BC704780B582B000AF7860396000223968786800F0D7F903461846BA
S32D0000E6C80837BD4680BD80B584B000AFF860B9607A60B86800F0E7F90246FB681A60FB687A685A60FB6818466D
S32D0000E6F01037BD4680BD80B584B000AFF860B9607A607A68B968F86800F0DBF900BF1037BD4680BD80B483B03E
S32D0000E71800AF78607B6818460C37BD4680BC704780B483B000AF786039607B6818460C37BD4680BC704780B59C
S32D0000E74082B000AF786039603968786800F0C9F97B6818460837BD4680BD80B584B000AFF860B9607A60786823
S32D0000E768FEF7D1FF03461A46B968F86800F0C3F900BF1037BD4680BD80B582B000AF7860786800F0D1F90346D1
S32D0000E79018460837BD4680BD80B483B000AF78607B6818460C37BD4680BC704780B483B000AF78607B681846E7
S32D0000E7B80C37BD4680BC704780B582B000AF7860396000223968786800F0B8F9034618460837BD4680BD80B5D4
S32D0000E7E084B000AFF860B9607A60B86800F0CBF90246FB681A60FB687A685A60FB6818461037BD4680BD80B568
S32D0000E80884B000AFF860B9607A607A68B968F86800F0BFF900BF1037BD4680BD80B483B000AF78607B68184634
S32D0000E8300C37BD4680BC704780B483B000AF786039607B6818460C37BD4680BC704780B582B000AF78603960F9
S32D0000E8583968786800F0B0F97B6818460837BD4680BD80B584B000AFF860B9607A607868FEF7ABFF03461A462D
S32D0000E880B968F86800F0AAF900BF1037BD4680BD80B582B000AF7860786800F0B8F9034618460837BD4680BD7B
S32D0000E8A880B584B000AFF860B9607A60F86800F0B5F90246BB6893428CBF01230023DBB2002B01D006F0B8FDDB
S32D0000E8D0BA6813469B0013449B00184606F0E0FC034618461037BD4680BD80B483B000AF78607B6818460C3742
S32D0000E8F8BD4680BC704780B584B000AFF860B9607A607A6813469B0013449B001946B86806F0C0FC00BF10379A
S32D0000E920BD4680BD80B582B000AF7860396039687868FFF7A8FA7B6818460837BD4680BDB0B584B000AFF86089
S32D0000E948B9607A603B607868FEF798FE03461C783868FEF79DFE0346D3E90023104619460EF056F90546BB6803
S32D0000E97019460820FDF784FD03462A462146184600F0B2FF00BF1037BD46B0BD80B483B000AF78607B681846B9
S32D0000E9980C37BD4680BC704780B584B000AFF860B9607A60F86800F045F90246BB6893428CBF01230023DBB2C8
S32D0000E9C0002B01D006F03CFDBB681B01184606F067FC034618461037BD4680BD80B483B000AF78607B681846AB
S32D0000E9E80C37BD4680BC704780B584B000AFF860B9607A607B681B011946B86806F04AFC00BF1037BD4680BD65
S32D0000EA1080B582B000AF7860396039687868FFF7FEFA7B6818460837BD4680BD90B585B000AFF860B9607A60AE
S32D0000EA387868FEF768FE03461C78BB6819460120FDF71AFD03462146184603F083F900BF1437BD4690BD80B4DF
S32D0000EA6083B000AF78607B6818460C37BD4680BC704780B584B000AFF860B9607A60F86800F0E7F80246BB6857
S32D0000EA8893428CBF01230023DBB2002B01D006F0D3FCBB681B01184606F0FEFB034618461037BD4680BD80B4BD
S32D0000EAB083B000AF78607B6818460C37BD4680BC704780B584B000AFF860B9607A607B681B011946B86806F02D
S32D0000EAD8E1FB00BF1037BD4680BD80B582B000AF7860396039687868FFF75DFB7B6818460837BD4680BD90B593
S32D0000EB0085B000AFF860B9607A607868FEF7FFFD03461C78BB6819460120FDF7B1FC03462146184602F048FE80
S32D0000EB2800BF1437BD4690BD80B483B000AF78607B6818460C37BD4680BC704780B584B000AFF860B9607A609A
S32D0000EB50F86800F089F80246BB6893428CBF01230023DBB2002B01D006F06AFCBA6813465B001344DB001846A9
S32D0000EB7806F092FB034618461037BD4680BD80B483B000AF78607B6818460C37BD4680BC704780B584B000AF3E
S32D0000EBA0F860B9607A607A6813465B001344DB001946B86806F072FB00BF1037BD4680BD80B582B000AF78601E
S32D0000EBC8396039687868FFF7B6FB7B6818460837BD4680BD90B585B000AFF860B9607A607868FEF7F2FD03461D
S32D0000EBF01C78BB6819460C20FDF742FC03462146184603F00DFB00BF1437BD4690BD80B483B000AF78607B684F
S32D0000EC1818460C37BD4680BC7047000080B483B000AF7860024B18460C37BD4680BC70476666660680B483B0C6
S32D0000EC4000AF78606FF0784318460C37BD4680BC704780B483B000AF78606FF0784318460C37BD4680BC7047CF
S32D0000EC6880B483B000AF7860024B18460C37BD4680BC70475555550580B582B000AF7860084A7B681A607B6828
S32D0000EC900C331846FFF76DFB7B681846FEF752FC7B6818460837BD4680BD00BF804E020080B582B000AF78609A
S32D0000ECB87868FFF7E1FF1821786806F0EBFA7B6818460837BD4680BD90B583B000AF78607B680C33184600F055
S32D0000ECE0FFF904467868FFF795FB03461946204600F002FA00BF0C37BD4690BD80B586B000AF78607B680C33FE
S32D0000ED08184600F0E9F9024607F1140311461846FFF7C2FA07F1140107F10C037A681846FFF759FD7868FFF779
S32D0000ED30A7FF07F10C031846FFF7DEFA07F114031846FFF7BAFA00BF1837BD4680BD000080B584B000AF786087
S32D0000ED5839607868FFF75AFBF860FDF7D7FB02463B68934206D00949386806F04FFB0346002B01D0012300E09A
S32D0000ED800023002B01D0FB6800E0002318461037BD4680BDB450020080B582B000AF7860084A7B681A607B6875
S32D0000EDA80C331846FFF719FA7B681846FEF7C6FB7B6818460837BD4680BD00BF9C4E020080B582B000AF786047
S32D0000EDD07868FFF7E1FF1021786806F05FFA7B6818460837BD4680BD90B583B000AF78607B680C33184600F0D0
S32D0000EDF88CF904467868FFF741FA03461946204600F08FF900BF0C37BD4690BD80B586B000AF78607B680C3321
S32D0000EE20184600F076F9024607F1140311461846FFF76EF907F1140107F10C037A681846FFF745FC7868FFF73D
S32D0000EE48A7FF07F10C031846FFF78AF907F114031846FFF766F900BF1837BD4680BD000080B584B000AF786018
S32D0000EE7039607868FFF706FAF860FDF74BFB02463B68934206D00949386806F0C3FA0346002B01D0012300E0EF
S32D0000EE980023002B01D0FB6800E0002318461037BD4680BDB450020080B582B000AF7860084A7B681A607B685C
S32D0000EEC00C331846FFF7C5F87B681846FEF73AFB7B6818460837BD4680BD00BFB84E020080B582B000AF7860F4
S32D0000EEE87868FFF7E1FF1021786806F0D3F97B6818460837BD4680BD90B583B000AF78607B680C33184600F044
S32D0000EF1019F904467868FFF7EDF803461946204600F01CF900BF0C37BD4690BD80B586B000AF78607B680C3343
S32D0000EF38184600F003F9024607F1140311461846FFF71AF807F1140107F10C037A681846FFF731FB7868FFF701
S32D0000EF60A7FF07F10C031846FFF736F807F114031846FFF712F800BF1837BD4680BD000080B584B000AF7860A9
S32D0000EF8839607868FFF7B2F8F860FDF7BFFA02463B68934206D00949386806F037FA0346002B01D0012300E045
S32D0000EFB00023002B01D0FB6800E0002318461037BD4680BDB450020080B582B000AF7860084A7B681A607B6843
S32D0000EFD80C331846FEF76DFF7B681846FEF7AEFA7B6818460837BD4680BD00BFD44E020080B582B000AF78609E
S32D0000F0007868FFF7E1FF1421786806F047F97B6818460837BD4680BD90B583B000AF78607B680C33184600F0B2
S32D0000F028A6F804467868FEF799FF03461946204600F0A9F800BF0C37BD4690BD80B586B000AF78607B680C3360
S32D0000F050184600F090F8024607F1140311461846FEF7C2FE07F1140107F10C037A681846FFF701FA7868FFF7E0
S32D0000F078A7FF07F10C031846FEF7DEFE07F114031846FEF7BAFE00BF1837BD4680BD000080B584B000AF786036
S32D0000F0A039607868FEF75EFFF860FDF733FA02463B68934206D00949386806F0ABF90346002B01D0012300E093
S32D0000F0C80023002B01D0FB6800E0002318461037BD4680BDB450020080B582B000AF7860786800F05DF803464E
S32D0000F0F018460837BD4680BD80B582B000AF786039603968786800F059F800BF0837BD4680BD80B582B000AF78
S32D0000F1187860786800F058F8034618460837BD4680BD80B582B000AF786039603968786800F054F800BF083769
S32D0000F140BD4680BD80B582B000AF7860786800F053F8034618460837BD4680BD80B582B000AF7860396039680A
S32D0000F168786800F04FF800BF0837BD4680BD80B582B000AF7860786800F04EF8034618460837BD4680BD80B5C5
S32D0000F19082B000AF786039603968786800F04AF800BF0837BD4680BD80B483B000AF78607B6818460C37BD4699
S32D0000F1B880BC704780B483B000AF7860396000BF0C37BD4680BC704780B483B000AF78607B6818460C37BD4642
S32D0000F1E080BC704780B483B000AF7860396000BF0C37BD4680BC704780B483B000AF78607B6818460C37BD461A
S32D0000F20880BC704780B483B000AF7860396000BF0C37BD4680BC704780B483B000AF78607B6818460C37BD46F1
S32D0000F23080BC704780B483B000AF7860396000BF0C37BD4680BC704780B500AF0F4BD3F8A03003F48053002B70
S32D0000F25814BF01230023DBB2002B10D0094BD3F8A030084A23F48053C2F8A030064805F021FF064B1B68054A9B
S32D0000F28023F40053136000BF80BD00BF00C00440541A0020C0F00F4080B400AF124B4FF480725A63114B5B69E5
S32D0000F2A8104A43F4005353610E4B1B680D4A43F4005313600A4B0C4A1A630C4BD3F888310A4A43F08063C2F849
S32D0000F2D08831084B9B68074A43F08063936000BFBD4680BC704700BF00C00440C0F00F4003010A0000E100E061
S32D0000F2F880B400AF334B00225A70324B98221A70304B9B79DBB203F01003002B14BF01230023DBB2002B00D0EB
S32D0000F320F2E72A4B9B79DBB29B08DBB203F00303022B14BF01230023DBB2002B00D0F0E7224B18221A71214B63
S32D0000F34800225A71204B03F580531A461F4B53641C4B54225A711B4B9B79DBB203F02003002B0CBF01230023F1
S32D0000F370DBB2002B00D0F2E7144B9B79DBB203F04003002B0CBF01230023DBB2002B00D0F2E70E4B1B78DBB2C1
S32D0000F3980C4A03F03F03DBB213700A4B9B79DBB29B08DBB203F00303032B14BF01230023DBB2002B00D0F0E7E6
S32D0000F3C000231846BD4680BC704700BF00400640007004400000130180B500AF314B03F580539B6B2F4A43F4BA
S32D0000F3E8785302F580529363FFF752FFFFF780FF2B4B58221A602A4B1B684FF47A7202FB03F3284A1360274BD6
S32D0000F4101B681A46234B03F580535B6C1B0E03F00F030133B2FBF3F31A46214B1A601D4B03F58053DB6B1B4AD2
S32D0000F43843F0225302F58052D363184B03F580531B6B164A43F0006302F580521363174B4FF480721A61642080
S32D0000F46002F05AF8134B5B69124A23F010035361104B00221A600F4B10225A610E4803F017FE02F0D3FC02F093
S32D0000F48831FD0C4802F0A6F80B4805F067FE4FF4FA6002F051F900BF80BD00BF007004401819002014190020B1
S32D0000F4B01C19002000D00340CC19002010190020C41A002080B500AFFCF73DFF00BF80BD80B500AFFCF737FF5E
S32D0000F4D800BF80BD80B500AFFCF731FF00BF80BD80B500AFFCF72BFF00BF80BD80B500AFFCF725FF00BF80BD13
S32D0000F50080B500AFFCF71FFF00BF80BD80B500AFFCF719FF00BF80BD80B500AFFCF713FF00BF80BD80B500AF38
S32D0000F528FCF70DFF00BF80BD80B500AFFCF707FF00BF80BD80B500AFFCF701FF00BF80BD80B500AFFCF7FBFE3E
S32D0000F55000BF80BD80B500AFFCF7F5FE00BF80BD80B500AFFCF7EFFE00BF80BD80B500AFFCF7E9FE00BF80BD51
S32D0000F57880B500AFFCF7E3FE00BF80BD80B500AFFCF7DDFE00BF80BD80B500AFFCF7D7FE00BF80BD80B500AF77
S32D0000F5A0FCF7D1FE00BF80BD80B500AFFCF7CBFE00BF80BD80B500AFFCF7C5FE00BF80BD80B500AFFCF7BFFEB9
S32D0000F5C800BF80BD80B500AFFCF7B9FE00BF80BD80B500AFFCF7B3FE00BF80BD80B500AFFCF7ADFE00BF80BD8D
S32D0000F5F080B500AFFCF7A7FE00BF80BD80B500AFFCF7A1FE00BF80BD80B500AFFCF79BFE00BF80BD80B500AFB3
S32D0000F618FCF795FE00BF80BD80B500AFFCF78FFE00BF80BD80B500AFFCF789FE00BF80BD80B500AFFCF783FE30
S32D0000F64000BF80BD80B500AFFCF77DFE00BF80BD80B500AFFCF777FE00BF80BD80B500AFFCF771FE00BF80BDC8
S32D0000F66880B500AFFCF76BFE00BF80BD80B500AFFCF765FE00BF80BD80B500AFFCF75FFE00BF80BD80B500AFEE
S32D0000F690FCF759FE00BF80BD80B500AFFCF753FE00BF80BD80B500AFFCF74DFE00BF80BD80B500AFFCF747FEA8
S32D0000F6B800BF80BD80B500AFFCF741FE00BF80BD80B500AFFCF73BFE00BF80BD80B500AFFCF735FE00BF80BD04
S32D0000F6E080B500AFFCF72FFE00BF80BD80B500AFFCF729FE00BF80BD80B500AFFCF723FE00BF80BD80B500AF2A
S32D0000F708FCF71DFE00BF80BD80B500AFFCF717FE00BF80BD80B500AFFCF711FE00BF80BD80B500AFFCF70BFE1F
S32D0000F73000BF80BD80B500AFFCF705FE00BF80BD80B500AFFCF7FFFD00BF80BD80B500AFFCF7F9FD00BF80BD41
S32D0000F75880B500AFFCF7F3FD00BF80BD80B500AFFCF7EDFD00BF80BD80B500AFFCF7E7FD00BF80BD80B500AF68
S32D0000F780FCF7E1FD00BF80BD80B500AFFCF7DBFD00BF80BD80B500AFFCF7D5FD00BF80BD80B500AFFCF7CFFD9B
S32D0000F7A800BF80BD80B500AFFCF7C9FD00BF80BD80B500AFFCF7C3FD00BF80BD80B500AFFCF7BDFD00BF80BD7E
S32D0000F7D080B500AFFCF7B7FD00BF80BD80B500AFFCF7B1FD00BF80BD80B500AFFCF7ABFD00BF80BD80B500AFA4
S32D0000F7F8FCF7A5FD00BF80BD80B500AFFCF79FFD00BF80BD80B500AFFCF799FD00BF80BD80B500AFFCF793FD13
S32D0000F82000BF80BD80B500AFFCF78DFD00BF80BD80B500AFFCF787FD00BF80BD80B500AFFCF781FD00BF80BDB9
S32D0000F84880B500AFFCF77BFD00BF80BD80B500AFFCF775FD00BF80BD80B500AFFCF76FFD00BF80BD80B500AFDF
S32D0000F870FCF769FD00BF80BD80B500AFFCF763FD00BF80BD80B500AFFCF75DFD00BF80BD80B500AFFCF757FD8A
S32D0000F89800BF80BD80B500AFFCF751FD00BF80BD80B500AFFCF74BFD00BF80BD80B500AFFCF745FD00BF80BDF5
S32D0000F8C080B500AFFCF73FFD00BF80BD80B500AFFCF739FD00BF80BD80B500AFFCF733FD00BF80BD00000000FF
S32D0000F8E880B584B000AFF8600B467A60FB72FB68FA7A1A71FB6800225A71174978680DF0A1FC0346002B02D018
S32D0000F910134B7B600AE04FF07E5178680DF082FC0346002B02D04FF07E537B6078680CF039FE09A3D3E900236E
S32D0000F9380CF08CFE02460B46104619460DF068F90246FB681A60FB6818461037BD4680BDABAAAAAAAAAA2040A5
S32D0000F9600000404180B582B000AF78607B685B79002B09D07B6800225A717B6819791E230022034801F064FE09
S32D0000F98800BF0837BD4680BD1019002080B584B000AF786039603B687F2B02DD7F23FB7308E03B6813F1800FE7
S32D0000F9B002DA8023FB7301E03B68FB737B685B79FA7B9A4209D07B68FA7B5A717B681979FA7B1E23034801F0DF
S32D0000F9D83BFE00BF1037BD4680BD00BF10190020B0B584B000AF78603960374938680DF00BFC0346002B02D057
S32D0000FA00334B3B6008E0334938680DF01FFC0346002B01D02F4B3B6038680CF0C3FD04460D467B681B6818468C
S32D0000FA280CF0BCFD4FF00002294B0CF039FF02460B46204629460CF009FE02460B46104619460DF0E5F8034630
S32D0000FA503B604FF0000138680DF0EEFB0346002B10D038680CF09EFD17A3D3E900230CF0F1FD02460B4610462A
S32D0000FA7819460DF085F80346FB6018E038680CF08DFD4FF00002134B0CF0E0FD02460B46104619464FF00002BE
S32D0000FAA00D4B0CF001FF02460B46104619460DF06BF80346FB60F9687868FFF76BFF00BF1037BD46B0BD00BFBC
S32D0000FAC852B81E85EB51F43F0000C8C20000C842000059400000604080B483B000AF03460A46FB711346BB7187
S32D0000FAF0BB79002B03D1134B00221A7002E0114B01221A703823FB710E4B1A78FB791343FB710D4B9B78DBB2E0
S32D0000FB180B4A43F01003DBB29370094B9B78DBB2074A43F02003DBB29370054AFB79137100BF0C37BD4680BCE1
S32D0000FB40704700BFEC1600200060064080B483B000AF01237B607B68312B04DC00BF7B6801337B60F7E700BFD7
S32D0000FB680C37BD4680BC704780B582B000AF03460A46FB711346BB71134B1B7800211846FFF7AAFF00F024F87B
S32D0000FB90104AFB79137100F01FF80E4ABB79137100F01AF80B4B9B78DBB20A4A23F02003DBB29370074B9B7867
S32D0000FBB8DBB2064A23F01003DBB29370FFF7C2FF00BF0837BD4680BDED1600200060064080B483B000AF174B56
S32D0000FBE01B78002B24D100237B60154BDB78DBB203F00203002B0CBF01230023DBB2002B0DD07B6842F21072A3
S32D0000FC08934203DD0B4B01221A7004E07B6801337B6000BFE5E7084BDB78DBB2064A43F00203DBB2D37000E04A
S32D0000FC3000BF0C37BD4680BC704700BFEE1600200060064080B582B000AF0346FB71FB79184600F05FF800BF82
S32D0000FC580837BD4680BD80B582B000AF03460A46FB711346BB7100F035F8FB795B00DBB21846FFF7E3FFBB797C
S32D0000FC801846FFF7DFFF00F037F800BF0837BD4680BD80B500AFFF2000F03CF80346184680BD80B584B000AFA4
S32D0000FCA80346FB7100F016F8FB795B005BB243F001035BB2DBB21846FFF7C0FFFFF7E5FF0346FB7300F014F82E
S32D0000FCD0FB7B18461037BD4680BD000080B400AF044B9B68034A43F48013936000BFBD4680BC704740F00F4038
S32D0000FCF880B400AF044B5B68034A43F48013536000BFBD4680BC704740F00F4080B485B000AF0346FB710023FB
S32D0000FD20BB73164BDB6A03F00043012B0CBF01230023DBB2002B03D0FB7B0133FB73F0E70E4BDB6A0D4A43F0CB
S32D0000FD480043D3620B4AFB7953630A4BDB6A03F40033002B0CBF01230023DBB2002B00D0F3E7044B9B6BBB73B0
S32D0000FD70BB7B18461437BD4680BC704700C00A4080B582B000AF204B03F580531B6B1E4A43F4805302F5805279
S32D0000FD9813631C4B4FF480721A651B4B5B691A4A43F480135361FFF7A3FF164B4FF400725A65144B4FF400721F
S32D0000FDC09A65124B4FF40072DA65124B124A1A60104B124ADA6000237B607B68092B06DCFF20FFF72FFF7B6884
S32D0000FDE801337B60F5E704A1D1E9000101F0BAFC00BF0837BD4680BD9A9999999999B93F0070044000A0044096
S32D0000FE1040F00F4000C00A40000C00800500003E90B486B000AFF860B9607A60FB68534A93420AD1524B03F5B3
S32D0000FE3880535B6B504A43F4806302F58052536345E0FB684D4A93420AD14B4B03F580535B6B494A43F40063AD
S32D0000FE6002F58052536336E0FB68474A93420AD1434B03F580535B6B414A43F4805302F58052536327E0FB689E
S32D0000FE88404A93420AD13C4B03F580535B6B3A4A43F4005302F58052536318E0FB683A4A93420AD1344B03F567
S32D0000FEB080539B6A324A43F4806302F58052936209E02F4B03F580539B6A2D4A43F4006302F580529362FB6893
S32D0000FED8DB78DBB223F00C03DAB2FB68DA70FB6800229A70BB684FF47A7203FB02F27B681B0192FBF3F39CB22E
S32D0000FF00FB681B78DBB223F01F03FB75230A9BB2DBB203F01F03DAB2FB7D1343DAB2FB681A70E2B2FB685A70FB
S32D0000FF28BB684FF4FA4203FB02F27B681B0192FBF3F39AB263019BB2D31A9CB2FB689B7ADBB223F01F03FB75C3
S32D0000FF50E3B203F01F03DAB2FB7D1343DAB2FB689A72FB68DB78DBB243F00C03DAB2FB68DA7000BF1837BD46B5
S32D0000FF7890BC704700A006400070044000B0064000C0064000D0064000A00E4080B483B000AF78607B681B7959
S32D0000FFA0DBB203F02003002B0CBF01230023DBB2002B00D0F2E77B68DB79DBB218460C37BD4680BC704780B463
S32D0000FFC883B000AF78600B46FB707B681B79DBB25BB2DB43DBB2DB09DBB2002B00D0F4E77B68FA78DA7100BF33
S32D0000FFF00C37BD4680BC704780B487B000AFF860B9607A60FB687B617B685A1E7A60002B14BF01230023DBB2FF
S32D00010018002B06D07B695A1C7A61BA68D2B21A70EEE700BF1C37BD4680BC704780B584B000AF786039607B680A
S32D000100401B6BFB60FA683B689A4252D07B681B79002B35D07B6858787B6803F134010123FA6801F0F7F8034698
S32D00010068002B14BF01230023DBB2002B01D001233CE07B6800221A717B685A6A7B681B6A1344FA689A4217D23E
S32D000100907B68DB78FB72FB7A012B11D97B681B6AFA681344FB607B6858787B6803F134010123FA6801F0CEF89B
S32D000100B8FB7A013BFB72EAE73B68002B15D07B6858787B6803F1340101233A6800F0DAFF0346002B14BF0123BE
S32D000100E00023DBB2002B01D0012303E07B683A681A63002318461037BD4680BD80B584B000AF78600021786843
S32D00010108FFF794FF0346FB73FB7B002B40F093807B681B78032B7DD17B685B79002B79D07B6800221A637B6822
S32D0001013034334FF4007200211846FFF75DFF7B68552283F832227B68AA2283F833227B68522283F834207B6802
S32D00010158522283F835207B68612283F836207B68412283F837207B68722283F818227B68722283F819227B68A9
S32D00010180412283F81A227B68612283F81B227B681B69DAB27B6883F81C227B681B699BB21B0A9BB2DAB27B68F4
S32D000101A883F81D227B681B691B0CDAB27B6883F81E227B681B691B0EDAB27B6883F81F227B68DB68DAB27B6866
S32D000101D083F820227B68DB689BB21B0A9BB2DAB27B6883F821227B68DB681B0CDAB27B6883F822227B68DB6890
S32D000101F81B0EDAB27B6883F823227B6858787B6803F134017B685A69012301F01FF87B6800225A717B685B7869
S32D0001022000220021184601F0E1F80346002B14BF01230023DBB2002B01D00123FB73FB7B18461037BD4680BD40
S32D0001024880B582B000AF78600B467B807B68002B08D07B681B78002B04D07B68DB887A889A4201D0092311E0E0
S32D000102707B685B78184601F03BF9034603F00103002B14BF01230023DBB2002B01D0032300E000231846083752
S32D00010298BD4680BD80B586B000AF78607B681A687B689B8819461046FFF7CAFF0346FB75FB7D002B40F0AC806E
S32D000102C07B689B7903F02003002B00F0A5807B689B7903F04003002B1BD07B681B6858787B6803F128017B6866
S32D000102E89A69012300F0B2FF0346002B14BF01230023DBB2002B01D001238AE07B689B7923F04003DAB27B68BE
S32D000103109A717B681A687B68DB6919461046FFF789FE0346FB75FB7D002B75D17B681B6A3B613B690B331A78DB
S32D000103383B690B3342F02002D2B21A707B68DA683B691C33D2B21A707B68DB689BB21B0A9AB23B691D33D2B2D0
S32D000103601A707B68DB681A0C3B691E33D2B21A707B68DB681A0E3B691F33D2B21A707B681A693B691A33D2B268
S32D000103881A707B681B699BB21B0A9AB23B691B33D2B21A707B681B691A0C3B691433D2B21A707B681B691B0C83
S32D000103B09BB21B0A9AB23B691533D2B21A700023FB603B691633FA68D2B21A70FB689BB21B0A9AB23B6917337C
S32D000103D8D2B21A70FB681A0C3B691833D2B21A70FB681A0E3B691933D2B21A707B689B7923F02003DAB27B683D
S32D000104009A717B681B6801221A717B681B681846FFF774FE0346FB75FB7D18461837BD4680BD80B584B000AF4C
S32D0001042878607868FFF736FF0346FB73FB7B002B02D17B6800221A60FB7B18461037BD4680BD000080B588B050
S32D0001045000AF7860396080233B610F23FB604FF0FF337B610223FB61FB69B3F5807F23D80123BB61BB69102B1E
S32D000104781AD8FB69BA6902FB03F33A6803FB02F27B68D31ABB60BB68002B09DBBB687A699A4205D9BB687B6179
S32D000104A0FB693B61BB69FB60BB690133BB61E1E7FB695B00FB61D7E71D4BDB6A1C4A23F00803D3621A4BDB6A89
S32D000104C823F47F2323F47F63BB613B695B081B029AB2FB68013B1B01DBB21A43BB691343114A43F46023D3625E
S32D000104F00F4B5B6A03F00803002B0CBF01230023DBB2002B03D00A2001F01AF9F0E7084BDB6A074A43F00803CC
S32D00010518D362054B1B6B044A43F48013136300BF2037BD4680BD00BF00100B4080B582B000AF786039607B6841
S32D0001054000221A60414B424ADA62404BDB6A03F08073002B14BF01230023DBB2002B00D0F3E73A4B0022C3F8DD
S32D00010568C020384B4FF481325A60364B28229A62344B4FF001125A643B689B6833491846FFF760FF2F4B5B6AE7
S32D0001059003F00303002B14BF01230023DBB2002B00D0F3E72C4B40F243421A602A4B40F243425A60284B4FF458
S32D000105B888629A60264B40F24342DA60244B40F243421A61224B40F243425A61214B03F580531B6B1F4A43F4F1
S32D000105E0003302F580521363184B4FF6FF721A63164B1B4A5A63154BDB6A144A43F00063D362124BDB6A03F0FE
S32D000106080063002B14BF01230023DBB2002B00D0F3E70C4B5B6A03F48033002B14BF01230023DBB2002B02D024
S32D000106307B6801221A60054B1B6B044A43F080031363002318460837BD4680BD00100B400080000160CC0500BE
S32D0001065800D0044000700440B3007F0080B400AF064B5A6A40F207331340002B14BF01230023DBB21846BD468F
S32D0001068080BC704700100B4080B485B000AF7860074B1B6B7A681340FB60FB68002B00D1F6E7FB68184614375D
S32D000106A8BD4680BC704700BF00100B4080B584B000AF78607B681B7803F03F03764A52F82330FB60FB68002B32
S32D000106D005D17B681B78002B01D00123DCE0714B1B6B704A43F0800313636E4B5B6A03F00103002B14BF012314
S32D000106F80023DBB2002B00D0F3E7684A7B685B689360FB6823F44003FB607B685B789B0503F44003FA681343A3
S32D00010720FB607B685B78022B03D1FB6843F40013FB607B685B78042B16D1FB6803F44033B3F5003F08D1FB68D4
S32D0001074823F44033FB60FB6843F44033FB6007E0FB6823F44033FB60FB6843F40033FB604E4B5B684D4A9BB29E
S32D0001077053607B68DB68002B2AD0FB6803F44033B3F5403F03D0FB6843F40013FB607B681B7A002B03D0FB68B4
S32D0001079843F01003FB607B68DB68012B03D9FB6843F02003FB607B68DB68B3F1FF3F0BD03A4B5A687B68DB68FF
S32D000107C01B04384913434B60FB6843F00203FB60344B00221A60334AFB68D3603248FFF753FF0346012B14BF3B
S32D000107E801230023DBB2002B09D02C4B1B6B2B4A43F4702343F001031363012348E0274B1B6B03F08003002B3C
S32D0001081014BF01230023DBB2002B07D0214B1B6B204A43F001131363012335E01D4B1B6B03F48033002B14BF28
S32D0001083801230023DBB2002B08D0184B1B6B174A43F0011313634FF0FF3321E0FB6803F44033002B15D0114B08
S32D000108601A697B681A61FB6803F44033B3F5803F0BD10C4B5A697B685A610A4B9A697B689A61084BDA697B6811
S32D00010888DA61064B1B6B054A43F001031363002318461037BD4680BD1851020000100B4001000E0080B592B0DF
S32D000108B000AF7860396000237B643B68BB63994B7B637B6B002B02D140F601235FE3964B3B633B6B002B02D1D1
S32D000108D840F60B2357E33B6B1B68FB62FB6A002B02D140F60B234EE37B6841F20932934200F23F837B68B3F570
S32D00010900985F08D87B68032B00F01A837B68092B00F0098331E37B68A3F59853013B082B00F22B8301A252F84A
S32D0001092823F000BF510901003D0C0100990E0100530C0100910C0100B70D0100FF0D0100410D01005B0D0100F9
S32D000109507649786BFFF7EEFD78647B6C002B40F01083002387F84330002387F82B30002387F82A30002387F894
S32D000109782930002387F84230002387F8283000233B7200237B720023FB6000233B7400237B6107F10803184659
S32D000109A0FFF788FE0346002B14BF01230023DBB2002B02D001237B64E8E240F24C4000F0BFFE08233B72002361
S32D000109C87B724FF4D573FB6000233B7400237B6107F108031846FFF769FEF863FB6B002B09D1BA69FB689A4276
S32D000109F002D001237B64C9E2012387F84230012387F8283097F82830002B00F0A58037233B7200237B720023E7
S32D00010A18FB6000233B7400237B6107F108031846FFF744FEF863FB6B002B02D001237B64A8E269233B72002343
S32D00010A407B720023FB6000233B7400237B6107F108031846FFF72EFE0346002B14BF01230023DBB2002B02D0B0
S32D00010A6801237B648EE2BB6903F44013002B6FD00023FB630A2000F05FFEFB6B0133FB6337233B7200237B720D
S32D00010A900023FB6000233B7400237B6107F108031846FFF707FE0346002B14BF01230023DBB2002B02D0012350
S32D00010AB87B6428E069233B7200237B7297F84230002B02D0184BFB6002E04FF44013FB6000233B7400237B617F
S32D00010AE007F108031846FFF7E5FD0346002B14BF01230023DBB2002B02D001237B6406E0BB69002B03DBFB6B1A
S32D00010B08632B00D8B6E77B6C002B40F03882FB6B632B0BD9002387F8423019E004170020081900200C510200FF
S32D00010B3000003040012387F8433097F84230002B0AD0002387F84230BB6903F08043002B02D0012387F842300A
S32D00010B5897F82A30002B02D07B6B07221A6097F82930002B02D07B6B08221A6097F82B30002B02D07B6B04229D
S32D00010B801A6097F84330002B09D07B6B02221A6097F84230002B02D07B6B03221A6097F82B30002B0DD097F83E
S32D00010BA84330002B09D07B6B05221A6097F84230002B02D07B6B06221A60924B00221A60904B00225A608F4B90
S32D00010BD000229A608D4B0022DA608C4B00221A618A4B00225A61FB6A9A68FB6A5B6819461046FFF72BFC854B4F
S32D00010BF840F243421A60834B40F243425A60814B4FF488629A607F4B40F24342DA607D4B40F243421A617B4BF0
S32D00010C2040F243425A617A4B03F580531B6B784A43F4003302F580521363A7E1B86BFFF739FDF863FB6B002BEF
S32D00010C4800F09F8102237B649BE1BB6B002B02D10C237B6496E16D4BDB6A1B0A5B0003F4FF73FB63694BDB6A07
S32D00010C701B0903F00F035A1CFB6B02FB03F3FB63FB6A9A68FB6BB2FBF3F2BB6B1A607DE1BB6B002B02D10C234F
S32D00010C987B6477E1BB6B1B68002B02D10C237B6470E1FFF7DBFC0346002B0CBF01230023DBB2002B3CD0534B3B
S32D00010CC000221A60514B00225A60504B00229A604E4B0022DA604D4B00221A614B4B00225A61FB6A9A68BB6B10
S32D00010CE81B6819461046FFF7ADFB464B40F243421A60444B40F243425A60424B4FF488629A60404B40F243424F
S32D00010D10DA603E4B40F243421A613C4B40F243425A613B4B03F580531B6B394A43F4003302F58052136329E1B9
S32D00010D3840F60A237B6425E1BB6B002B02D10C237B641FE1314B5B68C3F30C02BB6B1A6018E1BB6B002B02D152
S32D00010D600C237B6412E1FFF77DFC0346002B0CBF01230023DBB2002B19D0BB6B1B68B3F5805F02D30C237B64BA
S32D00010D8800E1224B5B68214A23F4FF5323F01F0353601E4B5A68BB6B1B68C3F30C031B4913434B60EEE040F66D
S32D00010DB00A237B64EAE0BB6B002B02D10C237B64E4E0144B9B6A5B0803F00303FB63FB6B002B03D1BB6B00227D
S32D00010DD81A60D7E0FB6B012B03D1BB6B01221A60D0E0FB6B102B03D1BB6B02221A60C9E005237B64C6E0BB6B2D
S32D00010E00002B09D10C237B64C0E000BF00D004400070044000100B40FFF724FC0346002B0CBF01230023DBB205
S32D00010E28002B31D0BB6B1B68002B0AD1584B9B6A574A23F006039362554B554A9B6A9362A0E0BB6B1B68012BD8
S32D00010E500CD1514B9B6A504A23F0060393624E4B9B6A4D4A43F0020393628FE0BB6B1B68022B0AD1484B9B6A30
S32D00010E78474A23F006039362454B454A9B6A936280E005237B647DE040F60A237B6479E0BB6B002B02D10C23DE
S32D00010EA07B6473E03C4BDB6A3B4A43F00063D362394BDB6A03F00063002B14BF01230023DBB2002B00D0F3E70F
S32D00010EC8334B1B6B03F08003002B14BF01230023DBB2002B08D02E4B1B6B2D4A43F0800313637B6B00221A6088
S32D00010EF0294B5B6A03F48033002B14BF01230023DBB2002B07D07B6B1B68002B06D17B6B01221A6002E07B6B66
S32D00010F1800221A607B6B1A68BB6B1A6032E0BB6B1C221A60BB6B043304221A60BB6B08334FF41E721A6025E066
S32D00010F400220FFF7A1FB144B1B6B03F4E003002B14BF01230023DBB2002B07D00E4B1B6B0D4A43F4E003136375
S32D00010F6804237B640A4B1B6B094A43F03203136308E040F609237B6404E000BF02E000BF00E000BF7B6C1846F7
S32D00010F904837BD4680BD00BF00100B4080B489B000AF786039607B687B61364B3B613B69002B01D100235FE0ED
S32D00010FB83B691B68022B0BD03B691B68032B07D03B691B68072B03D03B691B68082B0BD12B4B5B6A03F0040318
S32D00010FE0002B14BF01230023DBB2002B00D0F3E73B68FB61FB69002B3DD0FB69B3F5007F28BF4FF40073FB601D
S32D00011008FB6803339B08BB61BB69002B2AD01C4B1B6B03F4E003002B14BF01230023DBB2002B09D0164B1B6B94
S32D00011030154A43F4E00343F02003136300231BE0114B5B6A03F40063002B0CBF01230023DBB2002B00D0F3E714
S32D000110580B497B691A1D7A610A6A1A60BB69013BBB61D1E7FA69FB68D31AFB61BEE7012318462437BD4680BC2D
S32D00011080704700BF0417002000100B4080B58EB000AFB9607A601A460346FB731346BB73414B7B63FB7B002B77
S32D000110A802D1BB7B002B01D1042375E03D4B1B78DBB203F00103002B14BF01230023DBB2002B01D0032367E0BD
S32D000110D0BB68002B01D1002362E07B6B1B7B002B02D17B685B027B60BB7B012B28D111233B7500237B757B68A2
S32D000110F8BB6101233B77BB7B3B6207F11403194641F20230FFF7CEFB0346002B0CBF01230023DBB2002B38D02C
S32D000111204FF40071B868FFF739FF0346002B14BF01230023DBB2002B2BD00023BB7328E012233B7500237B750C
S32D000111487B68BB6101233B77BB7B3B6207F11403194641F20230FFF7A5FB0346002B0CBF01230023DBB2002B29
S32D000111700FD0BB7B5B021946B868FFF70FFF0346002B14BF01230023DBB2002B01D00023BB73BB7B002B01D0C1
S32D00011198012300E0002300BF18463837BD4680BDF01600200000002080B487B000AF786039607B68FB603B6883
S32D000111C07B617B69002B3DD07B69B3F5007F28BF4FF400733B617A693B69D31A7B613B6903339B083B613B69B7
S32D000111E8002BEAD0184B1B6B03F4E003002B14BF01230023DBB2002B0AD0134B1B6B124A43F4E00343F01003B9
S32D0001121013634FF0FF3316E00D4B5B6A03F48063002B0CBF01230023DBB2002B00D0F3E7FB681A1DFA60064AF8
S32D000112381B6813623B69013B3B61D0E7012318461C37BD4680BC704700100B4080B58EB000AFB9607A601A46C1
S32D000112600346FB731346BB735D4B7B63FB7B002B02D1BB7B002B01D10423ADE0594B1B78DBB203F00103002B5A
S32D0001128814BF01230023DBB2002B01D003239FE0524B1B78DBB203F00403002B14BF01230023DBB2002B01D06A
S32D000112B0022391E0BB68002B01D100238CE07B6B1B7B002B02D17B685B027B60BB7B012B28D118233B750023CC
S32D000112D87B757B68BB6100233B77BB7B3B6207F11403194641F20230FFF7DCFA0346002B0CBF01230023DBB29E
S32D00011300002B38D04FF40071B868FFF751FF0346002B14BF01230023DBB2002B2BD00023BB7328E019233B75EB
S32D0001132800237B757B68BB6100233B77BB7B3B6207F11403194641F20230FFF7B3FA0346002B0CBF01230023E0
S32D00011350DBB2002B0FD0BB7B5B021946B868FFF727FF0346002B14BF01230023DBB2002B01D00023BB730D2311
S32D000113783B7500237B757B6B1B69BB6100233B7700233B6207F11403194641F20230FFF789FA0346002B14BFD5
S32D000113A001230023DBB2002B01D0012314E07A6A0D4B1340002B01D001230DE07B6A03F4F853B3F5106F00D07C
S32D000113C8D5E7BB7B002B01D0012300E0002300BF18463837BD4680BDF0160020000000200880D9FF80B58CB0FE
S32D000113F000AF03463A60FB710B46BB713A4BBB62FB79002B01D0042369E0012387F82F30364B1B78DBB203F03B
S32D000114180103002B14BF01230023DBB2002B01D0032358E0BB79032B50D801A252F823F0491401005114010027
S32D000114406114010071140100002387F82F3044E0BB6A9A683B681A60002387F82F303CE03B684FF400721A8009
S32D00011468002387F82F3034E009233B7200237B72BB6A1B69FB6000233B7400237B6107F10803194641F20230BB
S32D00011490FFF70CFA0346002B14BF01230023DBB2002B01D001231AE07B6A03F44003002B0CD13B6A9B0C03F096
S32D000114B87F035A1C7B6A1B0A03F00303013B9A403B681A60002387F82F3002E0042387F82F3097F82F301846A3
S32D000114E03037BD4680BD00BFF01600200000002080B483B000AF0346FB71FB79002B01D0012302E0034B1B780F
S32D00011508DBB218460C37BD4680BC70470000002080B483B000AF7860164B03F580539B6B144A43F0010302F5C4
S32D0001153080529363124A7B689360114B05225A600F4B1B680E4A43F0010313600C4B1B6803F08003002B0CBF30
S32D0001155801230023DBB2002B00D0F3E7064B1B68054A23F00103136000BF0C37BD4680BC704700BF00700440A3
S32D000115800000044080B582B000AF786039607B68012B07D13B684FF6FF72934202D1034800F00EF800BF08374A
S32D000115A8BD4680BD1019002080B500AF4FF6FF710120FFF7E3FF80BD80B483B000AF78607B6800221A707B685C
S32D000115D018460C37BD4680BC7047000080B582B000AF78607B681B7883F00103DBB2002B21D0134B03F58053A8
S32D000115F81A464FF400639362104B4FF440721A620E4B4FF440725A620D4B1B68DA0F13445B104FF46142194628
S32D000116200A48FEF7FDFB642000F08AF87B6801221A70012300E0002318460837BD4680BD0070044000D004400A
S32D000116481419002000B00E4080B582B000AF7860084611461A460346FB700B46BB7013467B707F210E48FEF7D6
S32D00011670AAFC08210C48FEF7A6FCFB7819460A48FEF7A1FCBB7819460748FEF79CFC7B7819460548FEF797FC46
S32D00011698FF210348FEF793FC00BF0837BD4680BD00B00E4080B487B000AFF860B9607A60FB681F4AA2FB032304
S32D000116C09B09BA6813447B61FB681B4AA2FB031292094FF47A7101FB02F29B1AFB60FB68DB03154AA2FB03235C
S32D000116E89B097A6813443B613B69DB0B7A6913447B613B69C3F30E033B610E4B1B687A699A4209D80B4B1B685E
S32D000117107A699A4206D1094B5B683A699A4201D9012300E00023002B00D0EAE700BF1C37BD4680BC704700BFEA
S32D00011738D34D621000D0034080B584B000AF7860074B1B68FB60064B5B68BB607B68BA68F9681846FFF7A6FF2F
S32D0001176000BF1037BD4680BD00D0034080B584B000AFC7E900010E4B1B68FB600C4B5B68BB604FF000020B4B35
S32D00011788D7E900010AF062FF02460B46104619460BF01EFA0346BA68F9681846FFF782FF00BF1037BD4680BDCE
S32D000117B000D0034000408F4080B584B000AF78600B46FB700B23FB73FA7BFB781946786800F094F87B681846BC
S32D000117D81037BD4680BD000080B485B000AF78607B68103B002B00DA1F335B11FB60FB68022B53D0FB68022BDC
S32D0001180075DCFB68002B03D0FB68012B25D06EE0394BD3F880217B68103B594203F01F0301F01F0158BF4B42B2
S32D00011828012101FA03F332491343C1F88031304B1A687B68103B594203F01F0301F01F0158BF4B42012101FA96
S32D0001185003F3294913430B6049E0274BD3F884217B68103B594203F01F0301F01F0158BF4B42012101FA03F38F
S32D000118781F491343C1F884311D4B5A687B68103B594203F01F0301F01F0158BF4B42012101FA03F31649134390
S32D000118A04B6024E0144BD3F888217B68103B594203F01F0301F01F0158BF4B42012101FA03F30D491343C1F88C
S32D000118C888310B4B9A687B68103B594203F01F0301F01F0158BF4B42012101FA03F3044913438B6000BF00BF2E
S32D000118F01437BD4680BC704700E100E080B584B000AF78600B46FB701346BB707B68FA781A70BB78FB737B6834
S32D000119181B781A46574B9B5C042B00F2A68001A252F823F0411901008D190100D9190100711A0100251A01000C
S32D00011940FB7B1B0403F470234D497A68127810464C4A52F8202043F4897343F0010341F82230494B5A697B68B2
S32D000119681B781946454B53F8213003F01F03012101FA03F3DB43424913404B616720FFF72BFF72E0FB7B1B04D4
S32D0001199003F470233D497A6812781046394A52F8202043F4897343F0010341F82230384B5A697B681B78194639
S32D000119B8324B53F8213003F01F03012101FA03F3DB43314913404B616820FFF705FF4CE0FB7B1B0403F470235B
S32D000119E02C497A6812781046264A52F8202043F4897343F0010341F82230274B5A697B681B7819461F4B53F8F3
S32D00011A08213003F01F03012101FA03F3DB43204913404B616920FFF7DFFE26E0FB7B1B0403F470231B497A68E9
S32D00011A3012781046134A52F8202043F4897343F0010341F82230164B5A697B681B7819460C4B53F8213003F0EC
S32D00011A581F03012101FA03F3DB430F4913404B616B20FFF7B9FE00E000BF00BF1037BD4680BD00BF185202006D
S32D00011A80009004405C52020000F00F4000A0044040F00F4000B0044080F00F4000D0044000F10F40B0B48BB06B
S32D00011AA800AF224B3C1D1D460FCD0FC495E80F0084E80F0000237B627B6A072B30DC1C4BD3F8A0207B6A9B00EC
S32D00011AD028333B4453F8243C012101FA03F31340002B14BF01230023DBB2002B18D0134A7B6A52F823305A1CC2
S32D00011AF810497B6A41F823200D4BD3F8A0207B6A9B0028333B4453F8243C012101FA03F307491340C1F8A030DE
S32D00011B207B6A01337B62CBE700BF2C37BD46B0BC704700BF6053020000A0044040190020B0B489B000AF224B1C
S32D00011B483C1D1D460FCD0FC495E8030084E803000023FB61FB69052B30DC1C4BD3F8A020FB699B0020333B4432
S32D00011B7053F81C3C012101FA03F31340002B14BF01230023DBB2002B18D0FB690833124A52F823200132104944
S32D00011B9841F823200D4BD3F8A020FB699B0020333B4453F81C3C012101FA03F307491340C1F8A030FB69013374
S32D00011BC0FB61CBE700BF2437BD46B0BC704700BF8053020000B0044040190020B0B48DB000AF234B3C461D4604
S32D00011BE80FCD0FC40FCD0FC495E8070084E807000023FB62FB6A0A2B30DC1C4BD3F8A020FB6A9B0030333B447F
S32D00011C1053F8303C012101FA03F31340002B14BF01230023DBB2002B18D0FB6A0E33124A52F823200132104988
S32D00011C3841F823200D4BD3F8A020FB6A9B0030333B4453F8303C012101FA03F307491340C1F8A030FB6A0133AD
S32D00011C60FB62CBE700BF3437BD46B0BC704700BF985302000090044040190020B0B487B000AF214B3C461D4662
S32D00011C880FCD0FC42B68236000237B617B69042B30DC1C4BD3F8A0207B699B0018333B4453F8183C012101FA53
S32D00011CB003F31340002B14BF01230023DBB2002B18D07B691933124A52F823200132104941F823200D4BD3F893
S32D00011CD8A0207B699B0018333B4453F8183C012101FA03F307491340C1F8A0307B6901337B61CBE700BF1C373E
S32D00011D00BD46B0BC704700BFC453020000D004404019002080B483B000AF78607B681B781A46044B53F8223079
S32D00011D2818460C37BD4680BC704700BF4019002080B483B000AF78607B681B781946044B002243F8212000BF4E
S32D00011D500C37BD4680BC70474019002080B483B000AF78600B46FB707B68FA781A707B6818460C37BD4680BC66
S32D00011D787047000080B586B000AF78607B681B781A46234B53F822303B617B681B781A46204B9B5CFB733B69CC
S32D00011DA0DBB203F01F03DAB21D4B1A723B69DBB203F01F03DAB21A4B5A72FB7B002B13D11749184800F0CEF9F3
S32D00011DC8164B1B6803F08003802B14BF01230023DBB2002B00D0F3E7104B1B697B6112E00D490F4800F0BAF96E
S32D00011DF00D4B1B6803F08003802B14BF01230023DBB2002B00D0F3E7074B1B697B617B6918461837BD4680BDC9
S32D00011E18DC520200385202003019002000B0034000B00B4098B500AF204B5C221A701F4B10225A701D4B41F218
S32D00011E4034225A801B4B45F278629A80194B10229A71184B0722DA71164B4FF4C022DA60144B1F221A72134BF0
S32D00011E681F225A721149124800F078F90F49114800F074F90F4800F0D2F80D4800F0CFF80A490C4800F06AF904
S32D00011E900849094800F066F9094A064B14460FCB84E80F00064B5C221A70054B0422DA7100BF98BD2019002058
S32D00011EB800B0034000B00B403019002080B500AF064B1B680133054A136000F03DF8044B0122C3F80C2100BFB8
S32D00011EE080BD00BFC41900200070034080B500AF0C4B01221A600C4800F01AF8094B0322C3F80821094BD3F87D
S32D00011F088831084A43F01003C2F88831054B9B68044A43F01003936000BF80BD00700340A086010000E100E075
S32D00011F3080B483B000AF7860044A7B68C2F8003100BF0C37BD4680BC704700BF0070034080B584B000AF174B94
S32D00011F581B68FB60FB68002B24D0FB685B78FB71FB689B68184600F023F80346BB71BB79002B13D0FB685B68AC
S32D00011F80012B0FDDFB689B681B69BB60BB68002B08D0BB685B685A1CBB685A60BB681B69BB60F3E7FB68DB6874
S32D00011FA8FB60D7E700BF1037BD4680BDC019002080B584B000AF78607868FFF7DBFEF8607B689B695B78FB7294
S32D00011FD0FB7A002B0FD17B68DB68FA689A420ADD7B689B6901225A707B685B685A1C7B685A60012313E0FB7AFE
S32D00011FF8012B0FD17B689B68FA689A420ADA7B689B6900225A707B685B685A1C7B685A60012300E00023184695
S32D000120201037BD4680BD80B485B000AF78607B681B6A23F040027B681A627B685B6A23F00B027B685A627B68B4
S32D000120485B6A43F007027B685A627B685B6A43F080027B685A627B681B6803F08003002B0CBF01230023DBB227
S32D00012070002B00D0F3E77B685B6A03F04003402B0CBF01230023DBB2002B01D0012364E00023FB817B68DB6C57
S32D00012098FB817B689B6C9AB2FB891344FB817B685B6C9AB2FB891344FB817B681B6C9AB2FB891344FB817B68D3
S32D000120C0DB6B9AB2FB891344FB817B689B6B9AB2FB891344FB81FB895B08FB81FB896FEA43436FEA5343FB814B
S32D000120E8FA897B68DA620023FB817B68DB6EFB817B689B6E9AB2FB891344FB817B685B6E9AB2FB891344FB8102
S32D000121107B681B6E9AB2FB891344FB817B68DB6D9AB2FB891344FB817B689B6D9AB2FB891344FB81FB895B084E
S32D00012138FB81FB896FEA43436FEA5343FB81FA897B681A637B685B6A23F080027B685A62002318461437BD46A0
S32D0001216080BC704780B483B000AF786039603B681B781A467B689A603B685B781A467B68DA603B685B881A468A
S32D000121887B689A613B689B881A467B68DA613B689B791A467B681A623B68DB791A467B685A623B68DA687B68D2
S32D000121B01A653B681B7A1A467B681A603B685B7A1A467B685A6000BF0C37BD4680BC704780B483B000AF786031
S32D000121D87B6818460C37BD4680BC704780B582B000AF786039607B68012B07D13B684FF6FF72934202D10348A4
S32D00012200FFF7E6FF00BF0837BD4680BDC819002080B500AF4FF6FF710120FFF7E3FF80BD80B483B000AF7860D8
S32D000122280B46FB707B68FA781A707B684FF4FA725A807B6840F6C4129A807B68034A9A607B6818460C37BD46C6
S32D0001225080BC7047000080BF80B483B000AF786039603B68B3F5FA7F04DB3B6840F6C412934204DD7B684FF478
S32D00012278FA725A8004E03B689AB27B685A8000BF00BF0C37BD4680BC704780B483B000AF786039603B68B3F5D8
S32D000122A0FA7F04DB3B6840F6C412934204DD7B6840F6C4129A8004E03B689AB27B689A8000BF00BF0C37BD46B5
S32D000122C880BC70472DE9904385B000AF786039604FF0000138680AF097FF0346002B02D04FF000033B603249A8
S32D000122F038680AF0ABFF0346002B01D02E4B3B607B689B68194638680AF078FF0346002B00D04BE07B683A68D8
S32D000123189A607B685C887B689B881A467B685B88D31A18460AF028F94FF00002214B0AF0B7FA02460B4690467C
S32D00012340994638680AF02EF902460B46404649460AF080F902460B46104619460AF03CFC03469BB22344FB81B4
S32D00012368FB897B73FB891B0A9BB23B737F211248FDF725FE05211048FDF721FE7B681B7819460D48FDF71BFE57
S32D000123903B7B19460A48FDF716FE7B7B19460848FDF711FEFF210648FDF70DFE00BF1437BD46BDE8908300BF16
S32D000123B8000034430080664000B00E40B0B5ADF5236D06AF07F61823A3F6142318604FF00003C7F8103A4FF005
S32D000123E00003C7F80C3A00219B4800F0BEFF6FF07F41994801F015F807F6340301241D46002C05DB284602F0EF
S32D0001240868F9EC35013CF7E707F61823A3F50373904A1C4615460FCD0FC40FCD0FC495E8030084E8030007F6E1
S32D0001243034006FF07F430593894B049307F60C0303930123029301230193A023009329230122022102F08AFBB3
S32D0001245807F2346301241D46002C05DB284602F038F9EC35013CF7E707F61823A3F20C437A4A1C4615460FCDEB
S32D000124800FC40FCD0FC495E8030084E8030007F234606FF07F4305934FF47F03049307F20C6303930123029363
S32D000124A8012301932823009350230222012102F059FB07F5A46300241D46002C05DB284602F007F9EC35013C1C
S32D000124D0F7E707F61823A3F20C53634A1C4615460FCD0FC42B68236007F5A4606FF07F430593FF23049307F239
S32D000124F80C530393012302930123019302230093C9230122012102F02DFB5649504801F031F955494E4801F0D5
S32D000125202DF907F61823A3F614231B68514A9A6007F61823A3F614234FF000011868FFF7C5FED7F8101AD7F8FD
S32D000125480C2A07F5A460002302F0D8F90346002B0CBF01230023DBB2002B00F0FB8007F61823A3F614231B6814
S32D000125705B881A4607F63403EC331146184602F0B9FA07F60C2207F521631946324800F0BFFF0346002BD4D002
S32D00012598D7F8101AD7F80C2A07F23460002302F0ADF90346002B14BF01230023DBB2002B63D0D7F8101AD7F88D
S32D000125C00C2A07F23460012302F09CF90346002B14BF01230023DBB2002B4DD007F61823A3F614231B685B88AD
S32D000125E8013B9AB207F61823A3F614231B685A8007F61823A3F614231B685B88B3F5FA7F07D207F61823A3F69E
S32D0001261014231B684FF4FA725A8007F61823A3F614231B68134A9A6007F61823A3F614234FF000011868FFF7B8
S32D0001263849FE07F61823A3F614231B685B881A4607F63403EC331146184602F04FFAB0E7CC190020D454020055
S32D0001266000FFFF00FC540200245502004C54020068540200000080BF07F23463184602F0FBF8D7F8101AD7F846
S32D000126880C2A07F2346303F1EC00002302F036F90346002B14BF01230023DBB2002B3FF44CAFD7F8101AD7F8FD
S32D000126B00C2A07F2346303F1EC00012302F022F90346002B14BF01230023DBB2002B3ED007F61823A3F61423C8
S32D000126D81B685B8801339AB207F61823A3F614231B685A8007F61823A3F614231B685B8840F6C412934207D959
S32D0001270007F61823A3F614231B6840F6C4125A8007F61823A3F614231B68954A9A6007F61823A3F614234FF08E
S32D0001272800011868FFF7CEFD07F61823A3F614231B685B881A4607F63403EC331146184602F0D4F9ADE707F21E
S32D000127503463EC33184602F08FF8F2E6D7F8101AD7F80C2A07F5A463184602F069F907F5A463184602F080F877
S32D0001277807F61823A3F614231B685B88A7F8163A07F61823A3F614231B685B8840F2DB52934208D807F618231B
S32D000127A0A3F614231B6840F6C4125A8007E007F61823A3F614231B684FF4FA725A8000216C4800F0D2FD07F645
S32D000127C834036B49184602F05FF907F63403184601F0BEFF07F63403EC33184601F0B8FF07F234606FF07F4308
S32D000127F005934FF47F03049307F20C63039301230293012301932823009350230222012102F0ACF907F5A46326
S32D000128185849184602F038F907F5A463184601F097FF5549514800F0A5FF54494F4800F0A1FF07F61823A3F627
S32D0001284014231B684A4A9A6007F61823A3F614234FF000011868FFF739FDD7F8101AD7F80C2A07F5A46000230C
S32D0001286802F04CF80346002B0CBF01230023DBB2002B00F0F78007F61823A3F614231B685B881A4607F6340364
S32D00012890EC331146184602F02DF907F60C2207F521631946334800F033FE0346002BD4D0D7F8101AD7F80C2A71
S32D000128B807F23460002302F021F80346002B14BF01230023DBB2002B5FD0D7F8101AD7F80C2A07F23460012312
S32D000128E002F010F80346002B14BF01230023DBB2002B49D007F61823A3F614231B685B88013B9AB207F6182342
S32D00012908A3F614231B685A8007F61823A3F614231B685B88B3F5FA7F07D207F61823A3F614231B684FF4FA72D1
S32D000129305A8007F61823A3F614231B680C4A9A6007F61823A3F614234FF000011868FFF7BDFC07F61823A3F67B
