S01100002E2E2F50726F746575732E73313966
S32D0000C000000000205DC2000011C3000017C300001DC3000023C3000029C3000000000000000000000000000073
S32D0000C028000000002FC3000035C30000000000003BC3000041C3000089FF000095FF0000A1FF0000ADFF000096
S32D0000C050B9FF0000C5FF0000D1FF0000DDFF0000E9FF0000F5FF0000010001000D00010019000100250001006E
S32D0000C078310001003D0001004900010055000100610001006D0001007900010085000100910001009D0001008A
S32D0000C0A0A9000100B5000100C1000100CD000100D9000100E5000100F1000100FD0001000901010015010100B0
S32D0000C0C8210101002D0101003901010045010100510101005D0101006901010075010100810101008D010100D0
S32D0000C0F0990101004D5B0100A5010100B1010100BD010100C9010100D5010100E1010100ED010100F901010056
S32D0000C11805020100110201001D0201002902010035020100410201004D0201005902010065020100710201008D
S32D0000C1407D0201008902010095020100A1020100A92A0100AD020100B9020100C5020100D1020100DD020100CD
S32D0000C168E9020100F5020100010301000D0301001903010025030100310301003D03010049030100550301004D
S32D0000C190610301006D030100790301009D26010065250100012601000DFD00003D27010085030100910301002A
S32D0000C1B89D030100587C020000000020D0160000587C02000000FF1F00000000D0160020680400000000FF1F58
S32D0000C1E00000000080B489B000AFF860B9607A60BB68FB61FB68BB6100237B617A697B689A420BD2BA69131DFB
S32D0000C208BB61FB69191DF96112681A607B6904337B61EFE700BF2437BD4680BC704780B485B000AF786039609E
S32D0000C2307B68FB600023BB60BA683B689A4208D2FB681A1DFA6000221A60BB680433BB60F2E700BF1437BD46FE
S32D0000C25880BC704780B586B000AF72B6234B4CF220521A80214B4DF628121A80204B4FF4E9721A801F4B7B615F
S32D0000C2807B691F4A934214D27B691A1D7A611B683B617B691A1D7A611B68FB607B691A1D7A611B68BB60BA68E9
S32D0000C2A8F9683869FFF79AFFE6E77B69134A93420ED27B691A1D7A611B68FB607B691A1D7A611B68BB60B9688B
S32D0000C2D0F868FFF7A8FFECE70B4B7B600B4A7B681A6013F027F862B603F0D8FD01F0EEFBFEE700BF0E2005409A
S32D0000C2F800200540BCC10000D4C10000E4C1000008ED00E000C0000080B400AFFEE780B400AFFEE780B400AFF4
S32D0000C320FEE780B400AFFEE780B400AFFEE780B400AFFEE780B400AFFEE780B400AFFEE780B400AFFEE780B426
S32D0000C34800AFFEE7FFFFFFFFFFFFFFFFFFFFFFFFFFFFFFFFFFFFFFFFFFFFFFFFFFFFFFFFFFFFFFFFFFFFFFFF57
S32D0000C370FFFFFFFFFFFFFFFFFFFFFFFFFFFFFFFFFFFFFFFFFFFFFFFFFFFFFFFFFFFFFFFFFFFFFFFFFFFFFFFFC7
S32D0000C398FFFFFFFFFFFFFFFFFFFFFFFFFFFFFFFFFFFFFFFFFFFFFFFFFFFFFFFFFFFFFFFFFFFFFFFFFFFFFFFF9F
S32D0000C3C0FFFFFFFFFFFFFFFFFFFFFFFFFFFFFFFFFFFFFFFFFFFFFFFFFFFFFFFFFFFFFFFFFFFFFFFFFFFFFFFF77
S32D0000C3E8FFFFFFFFFFFFFFFFFFFFFFFFFFFFFFFFFFFFFFFFFFFFFFFFFFFFFFFFFFFFFFFFFFFFFFFFFEFFFFFF50
S32D0000C44010B5054C237833B9044B13B10448AFF300800123237010BDD016002000000000B87A020008B5034BE7
S32D0000C4681BB103490348AFF3008008BD00000000D4160020B87A020080B483B000AF786039603B6818460C3753
S32D0000C490BD4680BC704780B483B000AF78607B685B685A1C7B685A6000BF0C37BD4680BC704780B582B000AFD3
S32D0000C4B878607B685B685A1E7B685A607B685B68002B0CBF01230023DBB2002B19D07B681B6808331B6878683B
S32D0000C4E098477B689B685A1E7B689A607B689B68002B0CBF01230023DBB2002B05D07B681B680C331B6878685C
S32D0000C508984700BF0837BD4680BD000080B400AF024B1846BD4680BC704700BFE05A020080B582B000AF78607B
S32D0000C5307B680433184601F051FC7B6818460837BD4680BD80B582B000AF78607B681846FFF7EAFF7B68184618
S32D0000C5580837BD4680BD80B582B000AF78607B680433184601F036FC7B6818460837BD4680BD80B582B000AFD7
S32D0000C58078607B681846FFF7EAFF7B6818460837BD4680BD80B582B000AF78607B680433184601F01BFC7B6884
S32D0000C5A818460837BD4680BD80B582B000AF78607B681846FFF7EAFF7B6818460837BD4680BD80B582B000AFA4
S32D0000C5D078607B680433184601F000FC7B6818460837BD4680BD80B582B000AF78607B681846FFF7EAFF7B684F
S32D0000C5F818460837BD4680BD80B582B000AF786039603B681A687B681A607B681A1D3B6804331946104601F095
S32D0000C62016FC7B6818460837BD4680BD80B582B000AF786039607B683A6811461846FFF7DFFF7B681846083705
S32D0000C648BD4680BD80B582B000AF786039603B681A687B681A607B681A1D3B6804331946104601F0F0FB7B6813
S32D0000C67018460837BD4680BD80B582B000AF786039607B683A6811461846FFF7DFFF7B6818460837BD4680BD6A
S32D0000C69880B582B000AF786039603B681A687B681A607B681A1D3B6804331946104601F0CAFB7B68184608378C
S32D0000C6C0BD4680BD80B582B000AF786039607B683A6811461846FFF7DFFF7B6818460837BD4680BD80B582B050
S32D0000C6E800AF786039603B681A687B681A607B681A1D3B6804331946104601F0A4FB7B6818460837BD4680BD89
S32D0000C71080B582B000AF786039607B683A6811461846FFF7DFFF7B6818460837BD4680BD80B584B000AFF86036
S32D0000C738B9607A603B60FB681433184601F03DFBFB681C33184601F038FBFB682433184601F052FBFB682C33C8
S32D0000C760184601F05AFBFB683433184601F055FBFB683C33184601F05DFBFB684433184601F058FBFB681433FF
S32D0000C788B9681846FFF74EFFFB681C3379681846FFF748FFFB68243339681846FFF768FFFB682C33B96918463B
S32D0000C7B0FFF788FFFB683433F9691846FFF782FFFB683C33396A1846FFF7A2FFFB684433796A1846FFF79CFFC7
S32D0000C7D8FB68BA6A1A60FB68FA6A5A60FB683A6B9A60FB687A6BDA60FB68BA6B1A61FB6818461037BD4680BDE2
S32D0000C800B0B586B000AFF860B9607A604FF49F737B6100233B61786911F080F90346B968184611F0CFF9034650
S32D0000C828184610F033FD04460D46786810F02EFD0BA3D3E9002310F081FD02460B462046294610F0A5FE024648
S32D0000C8500B461046194611F00FF803463B613B6918461837BD46B0BD182D4454FB21194080B586B000AFF86042
S32D0000C878B9607A603C4809F0EBF80346184610F005FD02460B464FF00000384910F080FE02460B461046194671
S32D0000C8A011F032F803467B61FB681B681946786911F088F903467B612D4809F0CDF80346184610F0E7FC024648
S32D0000C8C80B464FF00000294910F062FE02460B461046194611F014F803463B61FB689B681946386911F06AF9D6
S32D0000C8F003463B61BB68002B17D1FB681433184601F0C9FA02467B6983F000431946104603F0CAFDFB681C3340
S32D0000C918184601F0BCFA03467969184603F0C0FD19E0BB68012B16D1FB681433184601F0AEFA02463B6983F084
S32D0000C94000431946104603F0AFFDFB681C33184601F0A1FA03463969184603F0A5FD7968F86800F04FF900BF80
S32D0000C9681837BD4680BD00BF181A00200000274080B586B000AFF8600B467A60FB723A4809F066F80346184610
S32D0000C99010F080FC02460B464FF00000354910F0FBFD02460B461046194610F0ADFF03467B61FB681B6819464B
S32D0000C9B8786911F003F903467B612B4809F048F80346184610F062FC02460B464FF00000264910F0DDFD024634
S32D0000C9E00B461046194610F08FFF03463B61FB689B681946386911F0E5F803463B61FB7A002B14D1FB68143358
S32D0000CA08184601F044FA03467969184603F048FDFB681C33184601F03AFA03467969184603F03EFD13E0FB6870
S32D0000CA301433184601F02FFA03463969184603F033FDFB681C33184601F025FA03463969184603F029FD79684A
S32D0000CA58F86800F0A9F803461946F86800F0CEF800BF1837BD4680BD181A00200000274080B586B000AFF86088
S32D0000CA80B9607A603A4808F0E7FF0346184610F001FC02460B464FF00000364910F07CFD02460B461046194673
S32D0000CAA810F02EFF03467B61FB689B681946786911F084F803467B612B4808F0C9FF0346184610F0E3FB0246C6
S32D0000CAD00B464FF00000274910F05EFD02460B461046194610F010FF03463B61FB68DB681946386911F066F896
S32D0000CAF803463B61BB68002B17D1FB681433184601F0C5F902463B6983F000431946104603F0C6FCFB681C3380
S32D0000CB20184601F0B8F903467969184603F0BCFC16E0FB681433184601F0ADF902467B6983F000431946104687
S32D0000CB4803F0AEFCFB681C33184601F0A0F903463969184603F0A4FC7968F86800F04EF800BF1837BD4680BDE7
S32D0000CB70181A00200000274080B582B000AF78607B681433184601F086F90346184603F049FC7B681C33184689
S32D0000CB9801F07DF90346184603F040FC00BF0837BD4680BD0000000080B584B000AF78603960386810F06AFB66
S32D0000CBC04FF000020E4B10F0E7FC02460B461046194609A3D3E9002310F0B4FB02460B461046194610F090FE66
S32D0000CBE80346FB60FB6818461037BD4680BD00BFCDCCCCCCCC4C37400080764080B584B000AF786039607B6812
S32D0000CC101B691A4639687868FFF7F2FDF8607B683433184601F04FF90346184605F0E4FD7B683433184601F05D
S32D0000CC3846F90346184605F0C9FD0246FB689342CCBF01230023DBB2002B00D0ECE77868FFF78EFF00BF103717
S32D0000CC60BD4680BD80B584B000AFF860B9607A603B60FB6800221A60FB6801225A60FB68334A9A60FB68334A6F
S32D0000CC88DA60FB68324A1A61FB68324A5A61FB684FF07F529A61FB680122DA61FB6800221A62FB682433184608
S32D0000CCB001F087F8FB682C33184601F082F8FB683433184601F09CF8FB683C33184601F0A4F8FB6844331846B9
S32D0000CCD801F09FF8FB684C33184601F0A7F8FB685433184601F0A2F8FB682433B9681846FFF798FCFB682C337E
S32D0000CD0079681846FFF792FCFB68343339681846FFF7B2FCFB683C33B9691846FFF7D2FCFB684433F969184625
S32D0000CD28FFF7CCFCFB684C33396A1846FFF7ECFCFB685433796A1846FFF7E6FCFB6818461037BD4680BD00BF54
S32D0000CD500000204200001042000020C2000010C280B582B000AF786039603B681A687B681A607B681A1D3B6887
S32D0000CD7804331946104601F0AEF87B6818460837BD4680BD80B582B000AF786039607B683A6811461846FFF793
S32D0000CDA0DFFF7B6818460837BD4680BD80B582B000AF786039603B681A687B681A607B681A1D3B68043319466B
S32D0000CDC8104601F088F87B6818460837BD4680BD80B582B000AF786039607B683A6811461846FFF7DFFF7B683E
S32D0000CDF018460837BD4680BD80B582B000AF786039603B681A687B681A607B681A1D3B6804331946104601F095
S32D0000CE1862F87B6818460837BD4680BD80B582B000AF786039607B683A6811461846FFF7DFFF7B6818460837BD
S32D0000CE40BD4680BD80B582B000AF786039603B681A687B681A607B681A1D3B6804331946104601F03CF87B68CA
S32D0000CE6818460837BD4680BD80B582B000AF786039607B683A6811461846FFF7DFFF7B6818460837BD4680BD6A
S32D0000CE9080B582B000AF78607B6844331846FFF7A2FB7B683C331846FFF79DFB7B6834331846FFF77DFB7B6804
S32D0000CEB82C331846FFF778FB7B6824331846FFF758FB7B681C331846FFF738FB7B6814331846FFF733FB7B68FD
S32D0000CEE018460837BD4680BDF0B59BB00AAF786039603B6803F1240207F1080311461846FFF744FF3B6803F1E8
S32D0000CF082C0207F1100311461846FFF73BFF3B6803F1340207F1180311461846FFF758FF3B6803F13C0207F12E
S32D0000CF30200311461846FFF775FF3B6803F1440207F1280311461846FFF76CFF3B6803F14C0207F13003114614
S32D0000CF581846FFF789FF3B6803F1540207F1380311461846FFF780FF3B689B683A68D2683968096938684069A7
S32D0000CF803C68A46907F1180C07F1100607F108050894079006910592049307F13803039307F13003029307F12A
S32D0000CFA82803019307F1200300936346324629467868FFF7B9FB07F138031846FFF70FFB07F130031846FFF7C4
S32D0000CFD00AFB07F128031846FFF7EAFA07F120031846FFF7E5FA07F118031846FFF7C5FA07F110031846FFF700
S32D0000CFF8A5FA07F108031846FFF7A0FA00BF78684437BD46F0BD0000B0B5ADF5787D06AF07F57273A3F57173A3
S32D0000D020186007F57273A3F5727319604FF0FF33C7F8C4334FF00003C7F8BC334FF00003C7F8B833002387F8EE
S32D0000D048C333524806F095FF07F1080303241D46002C05DB284608F088F9EC35013CF7E707F108006FF07F43C3
S32D0000D07005934FF47F03049307F57273A3F572731B68039305230293052301930A2300930A230222022108F082
S32D0000D098B5FB97F8C333002B70D107F56E7207F56F731946394807F07BF80346002BF0D0D7F8BC13D7F8B82349
S32D0000D0C007F10800002308F069FA0346002B14BF01230023DBB2002B06D00023C7F8C433012387F8C333D8E777
S32D0000D0E8D7F8BC13D7F8B82307F1080303F1EC00002308F04FFA0346002B14BF01230023DBB2002B06D001234B
S32D0000D110C7F8C433012387F8C333BEE7D7F8BC13D7F8B82307F1080303F5EC70002308F035FA0346002B14BFCD
S32D0000D13801230023DBB2002B06D00223C7F8C433012387F8C333A4E7D7F8BC13D7F8B82307F1080303F5317011
S32D0000D160002308F01BFA0346002B14BF01230023DBB2002B91D00323C7F8C433012387F8C3338AE7D7F8C4331E
S32D0000D188184607F57277BD46B0BD00BFCC19002080B582B000AF7860074806F0EAFE7B684C33184600F07FFEBA
S32D0000D1B00346184605F0F8FE00BF0837BD4680BDCC19002080B5C8B004AF07F58873A3F586731860002387F87A
S32D0000D1D80F3107F10C03184608F0C7F807F10C004FF47F0303934FF47F0302933223019364230093BD23DB2234
S32D0000D200694908F0C0F8694806F0B7FE07F10C03184608F0EDF897F80F31002B40F0BE804FF00000624905F0B9
S32D0000D22801F8624808F014FCC7F80801604BC7F80431D7F80411D7F8080110F073FD03465C49184610F0BAFC98
S32D0000D2500346C7F8003100230022D7F80011534806F008FF6FF07F41504806F0CCFE64230093322346228721C4
S32D0000D2784C4807F036FB5049D7F8000110F050FE0346002B0DD04FF40041464806F0B7FE632300933123472231
S32D0000D2A08821424807F0DEFB4FE04549D7F8000110F026FE0346002B15D04249D7F8000110F032FE0346002B54
S32D0000D2C80DD04FF40041374806F099FE4A230093312360228821334807F0C0FB31E03749D7F8000110F008FEB8
S32D0000D2F00346002B14D03449D7F8000110F014FE0346002B0CD03149284806F07CFE3123009331237922882130
S32D0000D318244807F0A3FB14E02949D7F8000110F0EBFD0346002B0CD04FF47F011D4806F066FE182300933123D4
S32D0000D34092228821194807F08DFB00230022D7F80011164806F08EFE07F1F80207F1FC031946124806F020FFC6
S32D0000D3680346002B3FF453AFD7F8FC10D7F8F82007F10C00002308F00DF90346002B14BF01230023DBB2002BC1
S32D0000D3903FF441AF012387F80F313CE700BF07F58877BD4680BD00BFE85A0200CC1900200000D03F181A0020E3
S32D0000D3B8000038410000C84200009642000048420000C84100FFFF0080B582B000AF78607B685433184600F0B5
S32D0000D3E066FD03460249184605F062FDFEE700BF0000BE4280B5ADF5C06D00AF07F5C063A3F2FC531860002381
S32D0000D408C7F8FC3507F5C063A3F2FC531B684C33184600F048FD03463249184605F044FD07F5C063A3F2FC5313
S32D0000D4301B685433184600F03AFD03462C49184605F036FD4FF000004FF0804104F0EEFE07F5C063A3F2F452E2
S32D0000D45807F5C063A3F2FC5319681046FFF740FD07F5C063A3F2FC531B68196807F10C034FF07C521846FFF72A
S32D0000D480F7F907F10C031846FFF702FD07F5C063A3F5B56207F5C063A3F2FC5319681046FFF722FD07F5C06358
S32D0000D4A8A3F2FC531B68596807F158034FF07C521846FFF7D9F907F158031846FFF7E4FCD7F8FC35022B00F004
S32D0000D4D08581D7F8FC35022B00F38181D7F8FC35002B07D0D7F8FC35012B78E10000F0420000BE4207F5C0632E
S32D0000D4F8A3F25C5207F5C063A3F2FC5319681046FFF7EEFC07F5C063A3F2FC531B68196A07F1A403A34A184616
S32D0000D520FFF7AAFA07F1A4031846FFF7B1FC07F5C063A3F5A26207F5C063A3F2FC5319681046FFF7D1FC07F54F
S32D0000D548C063A3F2FC531B68DB69002B14BF01230023D9B207F1F003934A1846FFF708FA07F1F0031846FFF7BA
S32D0000D5708FFC07F5C063A3F2FC531B685433184600F095FC03468B49184605F091FC07F5C063A3F2C44207F563
S32D0000D598C063A3F2FC5319681046FFF7A1FC07F5C063A3F2FC531B68196807F59E73804A1846FFF759F907F574
S32D0000D5C09E731846FFF764FC07F5C063A3F2FC531B685433184600F06AFC03467749184605F066FC07F5C063DA
S32D0000D5E8A3F58F6207F5C063A3F2FC5319681046FFF776FC07F5C063A3F2FC531B68596807F5C4736C4A1846BC
S32D0000D610FFF72EF907F5C4731846FFF739FC07F5C063A3F2FC531B685433184600F03FFC03466449184605F034
S32D0000D6383BFC07F5C063A3F22C4207F5C063A3F2FC5319681046FFF74BFC07F5C063A3F2FC531B681B6A002B1E
S32D0000D66014BF01230023D9B207F5EA73564A1846FFF782F907F5EA731846FFF709FC07F5C063A3F5787207F5E0
S32D0000D688C063A3F2FC5319681046FFF729FC07F5C063A3F2FC531B68596807F50873494A1846FFF7E1F807F501
S32D0000D6B008731846FFF7ECFB07F5C063A3F2FC531B682433184600F0E6FB03464049184602F0EAFE07F5C06361
S32D0000D6D8A3F2FC531B682C33184600F0D8FB03463A49184602F0DCFE4FF000004FF0804104F098FD07F5C06360
S32D0000D700A3F5657207F5C063A3F2FC5319681046FFF7EAFB07F51B731846FFF72DFA07F51B731846FFF7B4FB45
S32D0000D72807F5C063A3F5527207F5C063A3F2FC5319681046FFF7D4FB07F5C063A3F2FC531B68196807F52E7315
S32D0000D7504FF080421846FFF78BF807F52E731846FFF796FB07F5C063A3F53F7207F5C063A3F2FC53196810460F
S32D0000D778FFF7B6FB07F5C063A3F2FC531B68DB69002B14BF01230023D9B207F54173104A1846FFF7EDF807F503
S32D0000D7A041731846FFF774FB19E000BF0000704100000C42000020430000204000002F43000070400000BE4248
S32D0000D7C800008242000008410000C8410000C8C10000964200BF07F5C063A3F52C7207F5C063A3F2FC53196824
S32D0000D7F01046FFF779FB07F5C063A3F2FC531B68596807F55473924A1846FFF731F807F554731846FFF73CFB9A
S32D0000D81807F5C063A3F5197207F5C063A3F2FC5319681046FFF75CFB07F5C063A3F2FC531B681B6A002B14BF70
S32D0000D84001230023D9B207F56773824A1846FFF793F807F567731846FFF71AFB07F5C063A3F5067207F5C063DA
S32D0000D868A3F2FC5319681046FFF73AFB07F5C063A3F2FC531B68196807F57A73744A1846FEF7F2FF07F57A73D1
S32D0000D8901846FFF7FDFA07F5C063A3F5E67207F5C063A3F2FC5319681046FFF71DFB07F5C063A3F2FC531B68A2
S32D0000D8B8DB69002B14BF01230023D9B207F23443644A1846FFF754F807F234431846FFF7DBFA07F5C063A3F520
S32D0000D8E0C07207F5C063A3F2FC5319681046FFF7FBFA07F5C063A3F2FC531B68196807F59063574A1846FEF739
S32D0000D908B3FF07F590631846FFF7BEFA07F5C063A3F2FC531B68514A9A6007F5C063A3F59A7207F5C063A3F2B2
S32D0000D930FC5319681046FFF7D7FA07F5C063A3F2FC531B68196807F2CC434FF080421846FEF78EFF07F2CC43E4
S32D0000D9581846FFF799FA07F5C063A3F2FC531B683F4A9A6007F5C063A3F2FC531B684C33184600F098FA034683
S32D0000D9804FF00001184605F093FA4FF000004FF0804104F04BFC07F5A36207F5C063A3F2FC5319681046FFF70E
S32D0000D9A89FFA07F5C063A3F2FC531B68596807F5A3632C4A1846FEF757FF07F5A3631846FFF762FA07F26452EF
S32D0000D9D007F5C063A3F2FC5319681046FFF784FA07F5C063A3F2FC531B681B6A002B14BF01230023D9B207F207
S32D0000D9F864531D4A1846FEF7BBFF07F264531846FFF742FA07F5B66207F5C063A3F2FC5319681046FFF764FA54
S32D0000DA2007F5C063A3F2FC531B68596807F5B6634FF082421846FEF71BFF07F5B6631846FFF726FA00BF07F5C8
S32D0000DA48C067BD4680BD00BF0000F4410000704200000841000082420000A04000005C42000020420000404135
S32D0000DA700000A04180B582B000AF78607B6854331846FEF7B0FD7B684C331846FEF7ABFD7B6844331846FEF745
S32D0000DA988BFD7B683C331846FEF786FD7B6834331846FEF766FD7B682C331846FEF746FD7B6824331846FEF74B
S32D0000DAC041FD7B6818460837BD4680BD90B5D7B004AFB14A07F1940311465022184611F09BFF002387F8E730B6
S32D0000DAE84FF00002AB4BC7E93A2307F18C0307F1E80207F1E701184600F004FA012387F8F7304FF00002A34B3E
S32D0000DB10C7E93E2307F1840307F1F80207F1F701184600F0F3F9082387F8073107F17C0307F20712114618461B
S32D0000DB3800F00BFA072387F8083107F1740307F584721146184600F01EFA002387F8093107F16C0307F2091273
S32D0000DB601146184600F013FA002387F80A3107F1640307F585721146184600F026FA072387F80B3107F15C03B5
S32D0000DB8807F20B121146184600F01BFA6FF00103C7F8443107F16403184600F084F903464FF4FA71184605F094
S32D0000DBB045F907F16403184600F079F903464FF4FA61184605F057F907F15C03184600F06EF903464FF4FA715D
S32D0000DBD8184605F02FF907F15C03184600F063F903464FF41161184605F041F907F18C0207F5867311461846E8
S32D0000DC00FFF7C4F807F1840207F58A7311461846FFF7BCF807F17C0207F58E7311461846FFF7DAF807F1740210
S32D0000DC2807F5927311461846FFF7F8F807F16C0207F5967311461846FFF7F0F807F1640207F59A731146184618
S32D0000DC50FFF70EF907F15C0207F59E7311461846FFF706F907F58E7407F58A7207F58671384607F59E73039392
S32D0000DC7807F59A73029307F59673019307F5927300932346FEF7EAFF07F59E731846FEF7A6FC07F59A73184603
S32D0000DCA0FEF7A1FC07F596731846FEF781FC07F592731846FEF77CFC07F58E731846FEF75CFC07F58A73184624
S32D0000DCC8FEF73CFC07F586731846FEF737FCD7F84431B3F1FF3F2DD007F194023B4611461846FFF791F9C7F860
S32D0000DCF04401D7F84431032B1ED801A252F823F011DD00001BDD000025DD00002FDD00003B461846FFF75CFB39
S32D0000DD180FE03B461846FFF769FB0AE03B461846FFF736FA05E03B461846FFF747FA00E000BFCCE700243B46D4
S32D0000DD401846FFF797FE07F15C031846FEF74BFC07F164031846FEF746FC07F16C031846FEF726FC07F174039C
S32D0000DD681846FEF721FC07F17C031846FEF701FC07F184031846FEF7E1FB07F18C031846FEF7DCFB2346184630
S32D0000DD9007F5A677BD4690BDF05A02000000224080B582B000AF78607B68002B05D07B681B6804331B6878687D
S32D0000DDB8984700BF0837BD4680BD80B582B000AF78607B68184600F03BF97B6818460837BD4680BD80B582B0A6
S32D0000DDE000AF78607B681B68002B04D07B681B681846FEF75EFB7B6818460837BD4680BD80B582B000AF786069
S32D0000DE087B68184600F02DF97B6818460837BD4680BD80B582B000AF78607B68184600F031F97B68184608370C
S32D0000DE30BD4680BD80B582B000AF78607B68184600F035F97B6818460837BD4680BD80B584B000AF78603960EE
S32D0000DE583B681B68FB607B681B68FA689A4211D0FB68002B02D0F868FEF711FB7B681B68002B04D07B681B680A
S32D0000DE801846FEF716FB7B68FA681A607B6818461037BD4680BD80B582B000AF7860786800F016F90346184615
S32D0000DEA80837BD4680BD80B582B000AF7860786800F016F9034618460837BD4680BD80B582B000AF786078680C
S32D0000DED000F016F9034618460837BD4680BD80B582B000AF786039603B681A687B681A607B681B68002B04D091
S32D0000DEF87B681B681846FEF7CAFA7B6818460837BD4680BD90B587B000AFF860B9607A6007F11403184600F0EC
S32D0000DF20FBF8B86800F010F90446786800F016F90346F86807F11401224600F019F907F11403184600F0F4F835
S32D0000DF4800BFF8681C37BD4690BD80B584B000AF7860396007F10C03184600F01EF9386800F033F902467B680D
S32D0000DF7007F10C01184600F036F907F10C03184600F01BF900BF78681037BD4680BD80B584B000AF78603960E9
S32D0000DF9807F10C03184600F036F9386800F015F902467B6807F10C01184600F044F907F10C03184600F033F9FD
S32D0000DFC000BF78681037BD4680BD80B584B000AF7860396007F10C03184600F044F9386800F059F902467B68E5
S32D0000DFE807F10C01184600F05CF907F10C03184600F041F900BF78681037BD4680BD000080B483B000AF7860C0
S32D0000E010044A7B681A607B6818460C37BD4680BC704700BFB85B020080B582B000AF78607868FFF7E9FF0C2110
S32D0000E038786807F0A7FF7B6818460837BD4680BD80B582B000AF78607B6800221A607B680433184600F039F976
S32D0000E0607B6818460837BD4680BD80B582B000AF78607B6800221A607B680433184600F028F97B68184608375C
S32D0000E088BD4680BD80B582B000AF78607B6800221A607B680433184600F017F97B6818460837BD4680BD80B550
S32D0000E0B082B000AF78607B6800221A607B680433184600F006F97B6818460837BD4680BD80B582B000AF7860F5
S32D0000E0D8786800F007F9034618460837BD4680BD80B582B000AF7860786800F006F9034618460837BD4680BD41
S32D0000E10080B582B000AF7860786800F005F9034618460837BD4680BD80B582B000AF7860786800F004F97B6871
S32D0000E12818460837BD4680BD80B582B000AF7860786800F002F97B6818460837BD4680BD80B483B000AF786085
S32D0000E1507B6818460C37BD4680BC704780B483B000AF78607B6818460C37BD4680BC7047B0B584B000AFF8601F
S32D0000E178B9607A603B60BC687868FFF7E1FF05463868FFF7E7FF03462A462146F86800F0DEF8F8681037BD465A
S32D0000E1A0B0BD80B582B000AF7860786800F0EDF87B6818460837BD4680BD80B582B000AF7860786800F0EBF8E0
S32D0000E1C87B6818460837BD4680BD80B483B000AF78607B6818460C37BD4680BC704790B585B000AFF860B96067
S32D0000E1F07A60BC687868FFF7ECFF03461A462146F86800F0D6F8F8681437BD4690BD80B582B000AF786078684B
S32D0000E21800F0E0F87B6818460837BD4680BD80B582B000AF7860786800F0DEF87B6818460837BD4680BD90B5B7
S32D0000E24085B000AFF860B9607A60BC687868FFF7C0FF03461A462146F86800F0D3F8F8681437BD4690BD80B56D
S32D0000E26882B000AF7860786800F0DDF87B6818460837BD4680BD80B582B000AF7860786800F0DBF87B68184698
S32D0000E2900837BD4680BD80B483B000AF78607B6818460C37BD4680BC704790B585B000AFF860B9607A60BC68E1
S32D0000E2B87868FFF7ECFF03461A462146F86800F0C6F8F8681437BD4690BD80B483B000AF78607B6800221A60F1
S32D0000E2E07B6818460C37BD4680BC704780B483B000AF78607B681B6818460C37BD4680BC704780B483B000AF95
S32D0000E30878607B681B6818460C37BD4680BC704780B483B000AF78607B681B6818460C37BD4680BC704780B4F3
S32D0000E33083B000AF78607B6818460C37BD4680BC704780B483B000AF78607B6818460C37BD4680BC7047B0B5BE
S32D0000E35884B000AFF860B9607A603B60FC687868FFF7EEFE05463868FFF7F4FE03462A46B968204600F080F82D
S32D0000E380FB6818461037BD46B0BD80B483B000AF78607B6818460C37BD4680BC704780B483B000AF78607B68BE
S32D0000E3A818460C37BD4680BC704790B585B000AFF860B9607A60FC687868FFF706FF03461A46B968204600F0DD
S32D0000E3D07EF8FB6818461437BD4690BD80B483B000AF78607B6818460C37BD4680BC704780B483B000AF7860F7
S32D0000E3F87B6818460C37BD4680BC704790B585B000AFF860B9607A60FC687868FFF7DDFE03461A46B9682046C4
S32D0000E42000F075F8FB6818461437BD4690BD80B483B000AF78607B6818460C37BD4680BC704780B483B000AF97
S32D0000E44878607B6818460C37BD4680BC704790B585B000AFF860B9607A60FC687868FFF716FF03461A46B968C7
S32D0000E470204600F06CF8FB6818461437BD4690BDF0B587B002AFF860B9607A603B60FB6800221A60FB681C1D5A
S32D0000E498FD687868FFF754FE06463868FFF75AFE034600933346BA682946204600F06BF8FB681B681946F8684B
S32D0000E4C000F0C4F8FB6818461437BD46F0BDB0B584B000AFF860B9607A60FB6800221A60FB681C1DFD68786853
S32D0000E4E8FFF773FE0346BA682946204600F0B4F8FB681B681946F86800F006F9FB6818461037BD46B0BDB0B552
S32D0000E51084B000AFF860B9607A60FB6800221A60FB681C1DFD687868FFF753FE0346BA682946204600F0F6F86A
S32D0000E538FB681B681946F86800F048F9FB6818461037BD46B0BDB0B584B000AFF860B9607A60FB6800221A60D5
S32D0000E560FB681C1DFD687868FFF795FE0346BA682946204600F038F9FB681B681946F86800F08AF9FB681846E9
S32D0000E5881037BD46B0BD2DE9F0418AB000AFF860B9607A603B607A6807F118031146184600F080F907F110037A
S32D0000E5B007F118021146184600F091F907F11003184600F0B4F978627A6807F11C031146184600F0BAF907F1D3
S32D0000E5D81C053868FFF7B4FD0646386CFFF7BAFD80467B6A19461420FDF746FF0446434632462946204600F089
S32D0000E600CBF93C6207F11C031846FFF791FD07F110030021184600F0F9F9FB683A6A1A60386A00F001FA0246CF
S32D0000E628BB681A6007F11003184600F067F907F11803184600F043F9FB6818462837BD46BDE8F08180B483B031
S32D0000E65000AF7860396000BF0C37BD4680BC7047F0B58BB000AFF860B9607A603B607A6807F118031146184665
S32D0000E67800F0E4F907F1100307F118021146184600F0F5F907F11003184600F018FA78627A6807F11C03114662
S32D0000E6A0184600F01EFA07F11C053868FFF791FD06467B6A19461020FDF7E2FE044632462946204600F034FA60
S32D0000E6C83C6207F11C031846FFF773FD07F110030021184600F05EFAFB683A6A1A60386A00F066FA0246BB68FB
S32D0000E6F01A6007F11003184600F0D0F907F11803184600F0ACF9FB6818462C37BD46F0BD80B483B000AF786098
S32D0000E718396000BF0C37BD4680BC7047F0B58BB000AFF860B9607A603B607A6807F118031146184600F04AFAEF
S32D0000E74007F1100307F118021146184600F05BFA07F11003184600F07EFA78627A6807F11C031146184600F04B
S32D0000E76884FA07F11C053868FFF72FFD06467B6A19461020FDF780FE044632462946204600F09AFA3C6207F147
S32D0000E7901C031846FFF747FD07F110030021184600F0C4FAFB683A6A1A60386A00F0CCFA0246BB681A6007F1B6
S32D0000E7B81003184600F036FA07F11803184600F012FAFB6818462C37BD46F0BD80B483B000AF7860396000BF1B
S32D0000E7E00C37BD4680BC7047F0B58BB000AFF860B9607A603B607A6807F118031146184600F0B0FA07F110030E
S32D0000E80807F118021146184600F0C1FA07F11003184600F0E4FA78627A6807F11C031146184600F0EAFA07F1E5
S32D0000E8301C053868FFF72FFD06467B6A19461820FDF71EFE044632462946204600F000FB3C6207F11C0318466A
S32D0000E858FFF711FD07F110030021184600F02AFBFB683A6A1A60386A00F032FB0246BB681A6007F11003184661
S32D0000E88000F09CFA07F11803184600F078FAFB6818462C37BD46F0BD80B483B000AF7860396000BF0C37BD46B1
S32D0000E8A880BC704780B582B000AF78603960786800F01CFB7B6818460837BD4680BD80B582B000AF7860786853
S32D0000E8D000F01AFB7B6818460837BD4680BD80B582B000AF786039600121386800F016FB03461A4639687868E1
S32D0000E8F800F01FFB78680837BD4680BD80B582B000AF78607B685B68002B07D07B6818687B685B680122194668
S32D0000E92000F01FFB7B6818460837BD4680BD80B582B000AF78607B685B68184600F020FB034618460837BD4619
S32D0000E94880BD80B582B000AF786039603968786800F01CFB7B6818460837BD4680BD80B582B000AF78607868C7
S32D0000E970FFF7DEFB7B6818460837BD4680BD80B582B000AF78607868FFF7EDFF7B6818460837BD4680BD00007A
S32D0000E998B0B586B000AFF860B9607A603B60FB68184600F0FFFA164AFB681A60FB6803F10C0407F11403B968A3
S32D0000E9C01846FFF7C2FF07F114031946204600F003FB07F114031846FFF7AAFBF86800F023F804467868FFF7BF
S32D0000E9E8AFFB05463868FFF7B5FB03462A462146B86800F0FBFAFB6818461837BD46B0BD9C5B020080B483B0C1
S32D0000EA1000AF786039607B6800225A607B6818460C37BD4680BC704780B582B000AF78607B680C33184600F021
S32D0000EA38F5FA034618460837BD4680BD80B582B000AF78603960786800F0F4FA7B6818460837BD4680BD80B561
S32D0000EA6082B000AF7860786800F0F2FA7B6818460837BD4680BD80B582B000AF786039600121386800F0EEFA32
S32D0000EA8803461A463968786800F0F7FA78680837BD4680BD80B582B000AF78607B685B68002B07D07B681868FD
S32D0000EAB07B685B680122194600F0F7FA7B6818460837BD4680BD80B582B000AF78607B685B68184600F0F8FA9B
S32D0000EAD8034618460837BD4680BD80B582B000AF786039603968786800F0F4FA7B6818460837BD4680BD80B50F
S32D0000EB0082B000AF78607868FFF757FB7B6818460837BD4680BD80B582B000AF78607868FFF7EDFF7B68184655
S32D0000EB280837BD4680BD000090B587B000AFF860B9607A60FB68184600F034FA144AFB681A60FB6803F10C0449
S32D0000EB5007F11403B9681846FFF7C3FF07F114031946204600F0C5FA07F114031846FFF724FBF86800F020F8E4
S32D0000EB7804467868FFF729FB03461A462146B86800F0C1FAFB6818461C37BD4690BD00BF805B020080B483B0E9
S32D0000EBA000AF786039607B6800225A607B6818460C37BD4680BC704780B582B000AF78607B680C33184600F090
S32D0000EBC8B5FA034618460837BD4680BD80B582B000AF78603960786800F0B4FA7B6818460837BD4680BD80B550
S32D0000EBF082B000AF7860786800F0B2FA7B6818460837BD4680BD80B582B000AF786039600121386800F0AEFA21
S32D0000EC1803461A463968786800F0B7FA78680837BD4680BD80B582B000AF78607B685B68002B07D07B681868AB
S32D0000EC407B685B680122194600F0B7FA7B6818460837BD4680BD80B582B000AF78607B685B68184600F0B8FA89
S32D0000EC68034618460837BD4680BD80B582B000AF786039603968786800F0B4FA7B6818460837BD4680BD80B5BD
S32D0000EC9082B000AF78607868FFF7C5FA7B6818460837BD4680BD80B582B000AF78607868FFF7EDFF7B68184657
S32D0000ECB80837BD4680BD000090B587B000AFF860B9607A60FB68184600F06CF9144AFB681A60FB6803F10C0481
S32D0000ECE007F11403B9681846FFF7C3FF07F114031946204600F085FA07F114031846FFF792FAF86800F020F826
S32D0000ED0804467868FFF761FA03461A462146B86800F081FAFB6818461C37BD4690BD00BF645B020080B483B07C
S32D0000ED3000AF786039607B6800225A607B6818460C37BD4680BC704780B582B000AF78607B680C33184600F0FE
S32D0000ED5875FA034618460837BD4680BD80B582B000AF78603960786800F074FA7B6818460837BD4680BD80B53E
S32D0000ED8082B000AF7860786800F072FA7B6818460837BD4680BD80B582B000AF786039600121386800F06EFA0F
S32D0000EDA803461A463968786800F077FA78680837BD4680BD80B582B000AF78607B685B68002B07D07B6818685A
S32D0000EDD07B685B680122194600F077FA7B6818460837BD4680BD80B582B000AF78607B685B68184600F078FA78
S32D0000EDF8034618460837BD4680BD80B582B000AF786039603968786800F074FA7B6818460837BD4680BD80B56C
S32D0000EE2082B000AF78607868FFF729FA7B6818460837BD4680BD80B582B000AF78607868FFF7EDFF7B68184661
S32D0000EE480837BD4680BD000090B587B000AFF860B9607A60FB68184600F0A4F8144AFB681A60FB6803F10C04B8
S32D0000EE7007F11403B9681846FFF7C3FF07F114031946204600F045FA07F114031846FFF7F6F9F86800F020F871
S32D0000EE9804467868FFF7FBF903461A462146B86800F041FAFB6818461C37BD4690BD00BF485B020080B483B0AE
S32D0000EEC000AF786039607B6800225A607B6818460C37BD4680BC704780B582B000AF78607B680C33184600F06D
S32D0000EEE835FA034618460837BD4680BD80B483B000AF78607B6818460C37BD4680BC704780B483B000AF786051
S32D0000EF107B6818460C37BD4680BC704780B582B000AF7860396000223968786800F01EFA034618460837BD463E
S32D0000EF3880BD80B584B000AFF860B9607A60B86800F031FA0246FB681A60FB687A685A60FB6818461037BD46A1
S32D0000EF6080BD80B584B000AFF860B9607A607A68B968F86800F025FA00BF1037BD4680BD80B483B000AF78603D
S32D0000EF887B6818460C37BD4680BC704780B483B000AF786039607B6818460C37BD4680BC7047000080B483B079
S32D0000EFB000AF7860074A7B681A607B6801225A607B6801229A607B6818460C37BD4680BC704700BFB85B0200F0
S32D0000EFD880B582B000AF786039603968786800F0FFF97B6818460837BD4680BD90B585B000AFF860B9607A60E7
S32D0000F0003B607868FFF7A0F804463868FFF7A6F803462246B968F86800F0F4F900BF1437BD4690BD80B582B08B
S32D0000F02800AF7860786800F00FFA034618460837BD4680BD80B483B000AF78607B6818460C37BD4680BC7047CC
S32D0000F05080B483B000AF78607B6818460C37BD4680BC704780B582B000AF7860396000223968786800F0F6F921
S32D0000F078034618460837BD4680BD80B584B000AFF860B9607A60B86800F006FA0246FB681A60FB687A685A60AD
S32D0000F0A0FB6818461037BD4680BD80B584B000AFF860B9607A607A68B968F86800F0FAF900BF1037BD4680BD0B
S32D0000F0C880B483B000AF78607B6818460C37BD4680BC704780B483B000AF786039607B6818460C37BD4680BC68
S32D0000F0F0704780B582B000AF786039603968786800F0E8F97B6818460837BD4680BD80B584B000AFF860B96019
S32D0000F1187A607868FFF759F803461A46B968F86800F0E2F900BF1037BD4680BD80B582B000AF7860786800F0CF
S32D0000F140F0F9034618460837BD4680BD80B483B000AF78607B6818460C37BD4680BC704780B483B000AF78603C
S32D0000F1687B6818460C37BD4680BC704780B582B000AF7860396000223968786800F0D7F9034618460837BD462C
S32D0000F19080BD80B584B000AFF860B9607A60B86800F0E7F90246FB681A60FB687A685A60FB6818461037BD4692
S32D0000F1B880BD80B584B000AFF860B9607A607A68B968F86800F0DBF900BF1037BD4680BD80B483B000AF78602E
S32D0000F1E07B6818460C37BD4680BC704780B483B000AF786039607B6818460C37BD4680BC704780B582B000AF70
S32D0000F208786039603968786800F0C9F97B6818460837BD4680BD80B584B000AFF860B9607A607868FEF7D1FF6C
S32D0000F23003461A46B968F86800F0C3F900BF1037BD4680BD80B582B000AF7860786800F0D1F903461846083726
S32D0000F258BD4680BD80B483B000AF78607B6818460C37BD4680BC704780B483B000AF78607B6818460C37BD466B
S32D0000F28080BC704780B582B000AF7860396000223968786800F0B8F9034618460837BD4680BD80B584B000AF64
S32D0000F2A8F860B9607A60B86800F0CBF90246FB681A60FB687A685A60FB6818461037BD4680BD80B584B000AF95
S32D0000F2D0F860B9607A607A68B968F86800F0BFF900BF1037BD4680BD80B483B000AF78607B6818460C37BD46FF
S32D0000F2F880BC704780B483B000AF786039607B6818460C37BD4680BC704780B582B000AF7860396039687868EC
S32D0000F32000F0B0F97B6818460837BD4680BD80B584B000AFF860B9607A607868FEF7ABFF03461A46B968F8685A
S32D0000F34800F0AAF900BF1037BD4680BD80B582B000AF7860786800F0B8F9034618460837BD4680BD80B584B0C0
S32D0000F37000AFF860B9607A60F86800F0B5F90246BB6893428CBF01230023DBB2002B01D006F0CEFEBA681346DF
S32D0000F3989B0013449B00184606F0F6FD034618461037BD4680BD80B483B000AF78607B6818460C37BD4680BC94
S32D0000F3C0704780B584B000AFF860B9607A607A6813469B0013449B001946B86806F0D6FD00BF1037BD4680BDAF
S32D0000F3E880B582B000AF7860396039687868FFF7A8FA7B6818460837BD4680BDB0B584B000AFF860B9607A6004
S32D0000F4103B607868FEF798FE03461C783868FEF79DFE0346D3E90023104619460EF06CFA0546BB681946082085
S32D0000F438FDF722F803462A462146184600F0B0FF00BF1037BD46B0BD80B483B000AF78607B6818460C37BD4690
S32D0000F46080BC704780B584B000AFF860B9607A60F86800F045F90246BB6893428CBF01230023DBB2002B01D03F
S32D0000F48806F052FEBB681B01184606F07DFD034618461037BD4680BD80B483B000AF78607B6818460C37BD4660
S32D0000F4B080BC704780B584B000AFF860B9607A607B681B011946B86806F060FD00BF1037BD4680BD80B582B05A
S32D0000F4D800AF7860396039687868FFF7FEFA7B6818460837BD4680BD90B585B000AFF860B9607A607868FEF76E
S32D0000F50068FE03461C78BB6819460120FCF7B8FF03462146184603F081F900BF1437BD4690BD80B483B000AF62
S32D0000F52878607B6818460C37BD4680BC704780B584B000AFF860B9607A60F86800F0E7F80246BB6893428CBF46
S32D0000F55001230023DBB2002B01D006F0E9FDBB681B01184606F014FD034618461037BD4680BD80B483B000AFF9
S32D0000F57878607B6818460C37BD4680BC704780B584B000AFF860B9607A607B681B011946B86806F0F7FC00BF8A
S32D0000F5A01037BD4680BD80B582B000AF7860396039687868FFF75DFB7B6818460837BD4680BD90B585B000AF77
S32D0000F5C8F860B9607A607868FEF7FFFD03461C78BB6819460120FCF74FFF03462146184602F046FE00BF1437EA
S32D0000F5F0BD4690BD80B483B000AF78607B6818460C37BD4680BC704780B584B000AFF860B9607A60F86800F082
S32D0000F61889F80246BB6893428CBF01230023DBB2002B01D006F080FDBA6813465B001344DB00184606F0A8FC75
S32D0000F640034618461037BD4680BD80B483B000AF78607B6818460C37BD4680BC704780B584B000AFF860B9607D
S32D0000F6687A607A6813465B001344DB001946B86806F088FC00BF1037BD4680BD80B582B000AF7860396039686B
S32D0000F6907868FFF7B6FB7B6818460837BD4680BD90B585B000AFF860B9607A607868FEF7F2FD03461C78BB68CD
S32D0000F6B819460C20FCF7E0FE03462146184603F09DFB00BF1437BD4690BD80B483B000AF78607B6818460C3763
S32D0000F6E0BD4680BC7047000080B483B000AF7860024B18460C37BD4680BC70476666660680B483B000AF78600E
S32D0000F7086FF0784318460C37BD4680BC704780B483B000AF78606FF0784318460C37BD4680BC704780B483B01C
S32D0000F73000AF7860024B18460C37BD4680BC70475555550580B582B000AF7860084A7B681A607B680C3318461F
S32D0000F758FFF76DFB7B681846FEF752FC7B6818460837BD4680BD00BF485B020080B582B000AF78607868FFF7B9
S32D0000F780E1FF1821786806F001FC7B6818460837BD4680BD90B583B000AF78607B680C33184600F0FFF90446FE
S32D0000F7A87868FFF795FB03461946204600F002FA00BF0C37BD4690BD80B586B000AF78607B680C33184600F01F
S32D0000F7D0E9F9024607F1140311461846FFF7C2FA07F1140107F10C037A681846FFF759FD7868FFF7A7FF07F157
S32D0000F7F80C031846FFF7DEFA07F114031846FFF7BAFA00BF1837BD4680BD000080B584B000AF786039607868DA
S32D0000F820FFF75AFBF860FCF775FE02463B68934206D00949386806F065FC0346002B01D0012300E00023002B3B
S32D0000F84801D0FB6800E0002318461037BD4680BD7C5D020080B582B000AF7860084A7B681A607B680C3318467E
S32D0000F870FFF719FA7B681846FEF7C6FB7B6818460837BD4680BD00BF645B020080B582B000AF78607868FFF766
S32D0000F898E1FF1021786806F075FB7B6818460837BD4680BD90B583B000AF78607B680C33184600F08CF90446ED
S32D0000F8C07868FFF741FA03461946204600F08FF900BF0C37BD4690BD80B586B000AF78607B680C33184600F0CF
S32D0000F8E876F9024607F1140311461846FFF76EF907F1140107F10C037A681846FFF745FC7868FFF7A7FF07F11B
S32D0000F9100C031846FFF78AF907F114031846FFF766F900BF1837BD4680BD000080B584B000AF7860396078686A
S32D0000F938FFF706FAF860FCF7E9FD02463B68934206D00949386806F0D9FB0346002B01D0012300E00023002B91
S32D0000F96001D0FB6800E0002318461037BD4680BD7C5D020080B582B000AF7860084A7B681A607B680C33184665
S32D0000F988FFF7C5F87B681846FEF73AFB7B6818460837BD4680BD00BF805B020080B582B000AF78607868FFF713
S32D0000F9B0E1FF1021786806F0E9FA7B6818460837BD4680BD90B583B000AF78607B680C33184600F019F90446D4
S32D0000F9D87868FFF7EDF803461946204600F01CF900BF0C37BD4690BD80B586B000AF78607B680C33184600F07F
S32D0000FA0003F9024607F1140311461846FFF71AF807F1140107F10C037A681846FFF731FB7868FFF7A7FF07F1DE
S32D0000FA280C031846FFF736F807F114031846FFF712F800BF1837BD4680BD000080B584B000AF786039607868FB
S32D0000FA50FFF7B2F8F860FCF75DFD02463B68934206D00949386806F04DFB0346002B01D0012300E00023002BE6
S32D0000FA7801D0FB6800E0002318461037BD4680BD7C5D020080B582B000AF7860084A7B681A607B680C3318464C
S32D0000FAA0FEF76DFF7B681846FEF7AEFA7B6818460837BD4680BD00BF9C5B020080B582B000AF78607868FFF7BD
S32D0000FAC8E1FF1421786806F05DFA7B6818460837BD4680BD90B583B000AF78607B680C33184600F0A6F80446B7
S32D0000FAF07868FEF799FF03461946204600F0A9F800BF0C37BD4690BD80B586B000AF78607B680C33184600F028
S32D0000FB1890F8024607F1140311461846FEF7C2FE07F1140107F10C037A681846FFF701FA7868FFF7A7FF07F1BD
S32D0000FB400C031846FEF7DEFE07F114031846FEF7BAFE00BF1837BD4680BD000080B584B000AF78603960786888
S32D0000FB68FEF75EFFF860FCF7D1FC02463B68934206D00949386806F0C1FA0346002B01D0012300E00023002B35
S32D0000FB9001D0FB6800E0002318461037BD4680BD7C5D020080B582B000AF7860786800F05DF803461846083757
S32D0000FBB8BD4680BD80B582B000AF786039603968786800F059F800BF0837BD4680BD80B582B000AF786078688A
S32D0000FBE000F058F8034618460837BD4680BD80B582B000AF786039603968786800F054F800BF0837BD4680BD0F
S32D0000FC0880B582B000AF7860786800F053F8034618460837BD4680BD80B582B000AF786039603968786800F0A7
S32D0000FC304FF800BF0837BD4680BD80B582B000AF7860786800F04EF8034618460837BD4680BD80B582B000AFE1
S32D0000FC58786039603968786800F04AF800BF0837BD4680BD80B483B000AF78607B6818460C37BD4680BC7047B4
S32D0000FC8080B483B000AF7860396000BF0C37BD4680BC704780B483B000AF78607B6818460C37BD4680BC70476F
S32D0000FCA880B483B000AF7860396000BF0C37BD4680BC704780B483B000AF78607B6818460C37BD4680BC704747
S32D0000FCD080B483B000AF7860396000BF0C37BD4680BC704780B483B000AF78607B6818460C37BD4680BC70471F
S32D0000FCF880B483B000AF7860396000BF0C37BD4680BC704780B500AF0F4BD3F8A03003F48053002B14BF01239A
S32D0000FD200023DBB2002B10D0094BD3F8A030084A23F48053C2F8A030064806F037F8064B1B68054A23F4005345
S32D0000FD48136000BF80BD00BF00C00440541A0020C0F00F4080B400AF124B4FF480725A63114B5B69104A43F4EB
S32D0000FD70005353610E4B1B680D4A43F4005313600A4B0C4A1A630C4BD3F888310A4A43F08063C2F88831084BFB
S32D0000FD989B68074A43F08063936000BFBD4680BC704700BF00C00440C0F00F4003010A0000E100E080B400AFB7
S32D0000FDC0334B00225A70324B98221A70304B9B79DBB203F01003002B14BF01230023DBB2002B00D0F2E72A4BAD
S32D0000FDE89B79DBB29B08DBB203F00303022B14BF01230023DBB2002B00D0F0E7224B18221A71214B00225A71F2
S32D0000FE10204B03F580531A461F4B53641C4B54225A711B4B9B79DBB203F02003002B0CBF01230023DBB2002B53
S32D0000FE3800D0F2E7144B9B79DBB203F04003002B0CBF01230023DBB2002B00D0F2E70E4B1B78DBB20C4A03F05D
S32D0000FE603F03DBB213700A4B9B79DBB29B08DBB203F00303032B14BF01230023DBB2002B00D0F0E700231846DB
S32D0000FE88BD4680BC704700BF00400640007004400000130180B500AF314B03F580539B6B2F4A43F4785302F5A6
S32D0000FEB080529363FFF752FFFFF780FF2B4B58221A602A4B1B684FF47A7202FB03F3284A1360274B1B681A46E2
S32D0000FED8234B03F580535B6C1B0E03F00F030133B2FBF3F31A46214B1A601D4B03F58053DB6B1B4A43F022533B
S32D0000FF0002F58052D363184B03F580531B6B164A43F0006302F580521363174B4FF480721A61642002F058F813
S32D0000FF28134B5B69124A23F010035361104B00221A600F4B10225A610E4803F0A7FE02F063FD02F0C1FD0C48D1
S32D0000FF5002F0A4F80B4805F07DFF4FF4FA6002F04FF900BF80BD00BF0070044018190020141900201C190020F8
S32D0000FF7800D00340CC19002010190020C41A002080B500AFFCF7DBF900BF80BD80B500AFFCF7D5F900BF80BDB4
S32D0000FFA080B500AFFCF7CFF900BF80BD80B500AFFCF7C9F900BF80BD80B500AFFCF7C3F900BF80BD80B500AF90
S32D0000FFC8FCF7BDF900BF80BD80B500AFFCF7B7F900BF80BD80B500AFFCF7B1F900BF80BD80B500AFFCF7ABF9EB
S32D0000FFF000BF80BD80B500AFFCF7A5F900BF80BD80B500AFFCF79FF900BF80BD80B500AFFCF799F900BF80BDA6
S32D0001001880B500AFFCF793F900BF80BD80B500AFFCF78DF900BF80BD80B500AFFCF787F900BF80BD80B500AFCA
S32D00010040FCF781F900BF80BD80B500AFFCF77BF900BF80BD80B500AFFCF775F900BF80BD80B500AFFCF76FF961
S32D0001006800BF80BD80B500AFFCF769F900BF80BD80B500AFFCF763F900BF80BD80B500AFFCF75DF900BF80BDE0
S32D0001009080B500AFFCF757F900BF80BD80B500AFFCF751F900BF80BD80B500AFFCF74BF900BF80BD80B500AF06
S32D000100B8FCF745F900BF80BD80B500AFFCF73FF900BF80BD80B500AFFCF739F900BF80BD80B500AFFCF733F9D9
S32D000100E000BF80BD80B500AFFCF72DF900BF80BD80B500AFFCF727F900BF80BD80B500AFFCF721F900BF80BD1C
S32D0001010880B500AFFCF71BF900BF80BD80B500AFFCF715F900BF80BD80B500AFFCF70FF900BF80BD80B500AF41
S32D00010130FCF709F900BF80BD80B500AFFCF703F900BF80BD80B500AFFCF7FDF800BF80BD80B500AFFCF7F7F852
S32D0001015800BF80BD80B500AFFCF7F1F800BF80BD80B500AFFCF7EBF800BF80BD80B500AFFCF7E5F800BF80BD5A
S32D0001018080B500AFFCF7DFF800BF80BD80B500AFFCF7D9F800BF80BD80B500AFFCF7D3F800BF80BD80B500AF80
S32D000101A8FCF7CDF800BF80BD80B500AFFCF7C7F800BF80BD80B500AFFCF7C1F800BF80BD80B500AFFCF7BBF8CC
S32D000101D000BF80BD80B500AFFCF7B5F800BF80BD80B500AFFCF7AFF800BF80BD80B500AFFCF7A9F800BF80BD96
S32D000101F880B500AFFCF7A3F800BF80BD80B500AFFCF79DF800BF80BD80B500AFFCF797F800BF80BD80B500AFBC
S32D00010220FCF791F800BF80BD80B500AFFCF78BF800BF80BD80B500AFFCF785F800BF80BD80B500AFFCF77FF843
S32D0001024800BF80BD80B500AFFCF779F800BF80BD80B500AFFCF773F800BF80BD80B500AFFCF76DF800BF80BDD1
S32D0001027080B500AFFCF767F800BF80BD80B500AFFCF761F800BF80BD80B500AFFCF75BF800BF80BD80B500AFF7
S32D00010298FCF755F800BF80BD80B500AFFCF74FF800BF80BD80B500AFFCF749F800BF80BD80B500AFFCF743F8BB
S32D000102C000BF80BD80B500AFFCF73DF800BF80BD80B500AFFCF737F800BF80BD80B500AFFCF731F800BF80BD0D
S32D000102E880B500AFFCF72BF800BF80BD80B500AFFCF725F800BF80BD80B500AFFCF71FF800BF80BD80B500AF33
S32D00010310FCF719F800BF80BD80B500AFFCF713F800BF80BD80B500AFFCF70DF800BF80BD80B500AFFCF707F832
S32D0001033800BF80BD80B500AFFCF701F800BF80BD80B500AFFBF7FBFF00BF80BD80B500AFFBF7F5FF00BF80BD3C
S32D0001036080B500AFFBF7EFFF00BF80BD80B500AFFBF7E9FF00BF80BD80B500AFFBF7E3FF00BF80BD80B500AF5C
S32D00010388FBF7DDFF00BF80BD80B500AFFBF7D7FF00BF80BD80B500AFFBF7D1FF00BF80BD80B584B000AFF860C2
S32D000103B00B467A60FB72FB68FA7A1A71FB6800225A71174978680DF0B9FD0346002B02D0134B7B600AE04FF039
S32D000103D87E5178680DF09AFD0346002B02D04FF07E537B6078680CF051FF09A3D3E900230CF0A4FF02460B4693
S32D00010400104619460DF080FA0246FB681A60FB6818461037BD4680BDABAAAAAAAAAA20400000404180B582B0EF
S32D0001042800AF78607B685B79002B09D07B6800225A717B6819791E230022034801F064FE00BF0837BD4680BDDF
S32D000104501019002080B584B000AF786039603B687F2B02DD7F23FB7308E03B6813F1800F02DA8023FB7301E083
S32D000104783B68FB737B685B79FA7B9A4209D07B68FA7B5A717B681979FA7B1E23034801F03BFE00BF1037BD4697
S32D000104A080BD00BF10190020B0B584B000AF78603960374938680DF023FD0346002B02D0334B3B6008E033492F
S32D000104C838680DF037FD0346002B01D02F4B3B6038680CF0DBFE04460D467B681B6818460CF0D4FE4FF00002F5
S32D000104F0294B0DF051F802460B46204629460CF021FF02460B46104619460DF0FDF903463B604FF00001386894
S32D000105180DF006FD0346002B10D038680CF0B6FE17A3D3E900230CF009FF02460B46104619460DF09DF9034649
S32D00010540FB6018E038680CF0A5FE4FF00002134B0CF0F8FE02460B46104619464FF000020D4B0DF019F802462C
S32D000105680B46104619460DF083F90346FB60F9687868FFF76BFF00BF1037BD46B0BD00BF52B81E85EB51F43F4F
S32D000105900000C8C20000C842000059400000604080B483B000AF03460A46FB711346BB71BB79002B03D1134B3E
S32D000105B800221A7002E0114B01221A703823FB710E4B1A78FB791343FB710D4B9B78DBB20B4A43F01003DBB275
S32D000105E09370094B9B78DBB2074A43F02003DBB29370054AFB79137100BF0C37BD4680BC704700BFEC1600209E
S32D000106080060064080B483B000AF01237B607B68312B04DC00BF7B6801337B60F7E700BF0C37BD4680BC704762
S32D0001063080B582B000AF03460A46FB711346BB71134B1B7800211846FFF7AAFF00F024F8104AFB79137100F09E
S32D000106581FF80E4ABB79137100F01AF80B4B9B78DBB20A4A23F02003DBB29370074B9B78DBB2064A23F01003D2
S32D00010680DBB29370FFF7C2FF00BF0837BD4680BDED1600200060064080B483B000AF174B1B78002B24D10023AF
S32D000106A87B60154BDB78DBB203F00203002B0CBF01230023DBB2002B0DD07B6842F21072934203DD0B4B012277
S32D000106D01A7004E07B6801337B6000BFE5E7084BDB78DBB2064A43F00203DBB2D37000E000BF0C37BD4680BC64
S32D000106F8704700BFEE1600200060064080B582B000AF0346FB71FB79184600F05FF800BF0837BD4680BD80B53C
S32D0001072082B000AF03460A46FB711346BB7100F035F8FB795B00DBB21846FFF7E3FFBB791846FFF7DFFF00F03A
S32D0001074837F800BF0837BD4680BD80B500AFFF2000F03CF80346184680BD80B584B000AF0346FB7100F016F83F
S32D00010770FB795B005BB243F001035BB2DBB21846FFF7C0FFFFF7E5FF0346FB7300F014F8FB7B18461037BD46EF
S32D0001079880BD000080B400AF044B9B68034A43F48013936000BFBD4680BC704740F00F4080B400AF044B5B688D
S32D000107C0034A43F48013536000BFBD4680BC704740F00F4080B485B000AF0346FB710023BB73164BDB6A03F055
S32D000107E80043012B0CBF01230023DBB2002B03D0FB7B0133FB73F0E70E4BDB6A0D4A43F00043D3620B4AFB797E
S32D0001081053630A4BDB6A03F40033002B0CBF01230023DBB2002B00D0F3E7044B9B6BBB73BB7B18461437BD463B
S32D0001083880BC704700C00A4080B582B000AF204B03F580531B6B1E4A43F4805302F5805213631C4B4FF4807275
S32D000108601A651B4B5B691A4A43F480135361FFF7A3FF164B4FF400725A65144B4FF400729A65124B4FF400724C
S32D00010888DA65124B124A1A60104B124ADA6000237B607B68092B06DCFF20FFF72FFF7B6801337B60F5E704A131
S32D000108B0D1E9000101F0BAFC00BF0837BD4680BD9A9999999999B93F0070044000A0044040F00F4000C00A40C9
S32D000108D8000C00800500003E90B486B000AFF860B9607A60FB68534A93420AD1524B03F580535B6B504A43F4FF
S32D00010900806302F58052536345E0FB684D4A93420AD14B4B03F580535B6B494A43F4006302F58052536336E0AE
S32D00010928FB68474A93420AD1434B03F580535B6B414A43F4805302F58052536327E0FB68404A93420AD13C4B9E
S32D0001095003F580535B6B3A4A43F4005302F58052536318E0FB683A4A93420AD1344B03F580539B6A324A43F4C9
S32D00010978806302F58052936209E02F4B03F580539B6A2D4A43F4006302F580529362FB68DB78DBB223F00C0348
S32D000109A0DAB2FB68DA70FB6800229A70BB684FF47A7203FB02F27B681B0192FBF3F39CB2FB681B78DBB223F0C6
S32D000109C81F03FB75230A9BB2DBB203F01F03DAB2FB7D1343DAB2FB681A70E2B2FB685A70BB684FF4FA4203FB1E
S32D000109F002F27B681B0192FBF3F39AB263019BB2D31A9CB2FB689B7ADBB223F01F03FB75E3B203F01F03DAB25A
S32D00010A18FB7D1343DAB2FB689A72FB68DB78DBB243F00C03DAB2FB68DA7000BF1837BD4690BC704700A006402E
S32D00010A400070044000B0064000C0064000D0064000A00E4080B483B000AF78607B681B79DBB203F02003002BA0
S32D00010A680CBF01230023DBB2002B00D0F2E77B68DB79DBB218460C37BD4680BC704780B483B000AF78600B4652
S32D00010A90FB707B681B79DBB25BB2DB43DBB2DB09DBB2002B00D0F4E77B68FA78DA7100BF0C37BD4680BC704731
S32D00010AB880B487B000AFF860B9607A60FB687B617B685A1E7A60002B14BF01230023DBB2002B06D07B695A1C09
S32D00010AE07A61BA68D2B21A70EEE700BF1C37BD4680BC704780B584B000AF786039607B681B6BFB60FA683B68AD
S32D00010B089A4252D07B681B79002B35D07B6858787B6803F134010123FA6801F0F7F80346002B14BF0123002366
S32D00010B30DBB2002B01D001233CE07B6800221A717B685A6A7B681B6A1344FA689A4217D27B68DB78FB72FB7A98
S32D00010B58012B11D97B681B6AFA681344FB607B6858787B6803F134010123FA6801F0CEF8FB7A013BFB72EAE7F1
S32D00010B803B68002B15D07B6858787B6803F1340101233A6800F0DAFF0346002B14BF01230023DBB2002B01D02E
S32D00010BA8012303E07B683A681A63002318461037BD4680BD80B584B000AF786000217868FFF794FF0346FB73DC
S32D00010BD0FB7B002B40F093807B681B78032B7DD17B685B79002B79D07B6800221A637B6834334FF40072002153
S32D00010BF81846FFF75DFF7B68552283F832227B68AA2283F833227B68522283F834207B68522283F835207B6846
S32D00010C20612283F836207B68412283F837207B68722283F818227B68722283F819227B68412283F81A227B6800
S32D00010C48612283F81B227B681B69DAB27B6883F81C227B681B699BB21B0A9BB2DAB27B6883F81D227B681B69FD
S32D00010C701B0CDAB27B6883F81E227B681B691B0EDAB27B6883F81F227B68DB68DAB27B6883F820227B68DB68D1
S32D00010C989BB21B0A9BB2DAB27B6883F821227B68DB681B0CDAB27B6883F822227B68DB681B0EDAB27B6883F88D
S32D00010CC023227B6858787B6803F134017B685A69012301F01FF87B6800225A717B685B7800220021184601F017
S32D00010CE8E1F80346002B14BF01230023DBB2002B01D00123FB73FB7B18461037BD4680BD80B582B000AF786012
S32D00010D100B467B807B68002B08D07B681B78002B04D07B68DB887A889A4201D0092311E07B685B78184601F0F6
S32D00010D383BF9034603F00103002B14BF01230023DBB2002B01D0032300E0002318460837BD4680BD80B586B0D9
S32D00010D6000AF78607B681A687B689B8819461046FFF7CAFF0346FB75FB7D002B40F0AC807B689B7903F0200339
S32D00010D88002B00F0A5807B689B7903F04003002B1BD07B681B6858787B6803F128017B689A69012300F0B2FFD8
S32D00010DB00346002B14BF01230023DBB2002B01D001238AE07B689B7923F04003DAB27B689A717B681A687B6860
S32D00010DD8DB6919461046FFF789FE0346FB75FB7D002B75D17B681B6A3B613B690B331A783B690B3342F0200226
S32D00010E00D2B21A707B68DA683B691C33D2B21A707B68DB689BB21B0A9AB23B691D33D2B21A707B68DB681A0C5D
S32D00010E283B691E33D2B21A707B68DB681A0E3B691F33D2B21A707B681A693B691A33D2B21A707B681B699BB22D
S32D00010E501B0A9AB23B691B33D2B21A707B681B691A0C3B691433D2B21A707B681B691B0C9BB21B0A9AB23B698C
S32D00010E781533D2B21A700023FB603B691633FA68D2B21A70FB689BB21B0A9AB23B691733D2B21A70FB681A0C74
S32D00010EA03B691833D2B21A70FB681A0E3B691933D2B21A707B689B7923F02003DAB27B689A717B681B6801226D
S32D00010EC81A717B681B681846FFF774FE0346FB75FB7D18461837BD4680BD80B584B000AF78607868FFF736FF2B
S32D00010EF00346FB73FB7B002B02D17B6800221A60FB7B18461037BD4680BD000080B588B000AF7860396080239E
S32D00010F183B610F23FB604FF0FF337B610223FB61FB69B3F5807F23D80123BB61BB69102B1AD8FB69BA6902FB98
S32D00010F4003F33A6803FB02F27B68D31ABB60BB68002B09DBBB687A699A4205D9BB687B61FB693B61BB69FB609D
S32D00010F68BB690133BB61E1E7FB695B00FB61D7E71D4BDB6A1C4A23F00803D3621A4BDB6A23F47F2323F47F6383
S32D00010F90BB613B695B081B029AB2FB68013B1B01DBB21A43BB691343114A43F46023D3620F4B5B6A03F0080320
S32D00010FB8002B0CBF01230023DBB2002B03D00A2001F01AF9F0E7084BDB6A074A43F00803D362054B1B6B044ABD
S32D00010FE043F48013136300BF2037BD4680BD00BF00100B4080B582B000AF786039607B6800221A60414B424A14
S32D00011008DA62404BDB6A03F08073002B14BF01230023DBB2002B00D0F3E73A4B0022C3F8C020384B4FF4813265
S32D000110305A60364B28229A62344B4FF001125A643B689B6833491846FFF760FF2F4B5B6A03F00303002B14BF76
S32D0001105801230023DBB2002B00D0F3E72C4B40F243421A602A4B40F243425A60284B4FF488629A60264B40F2F5
S32D000110804342DA60244B40F243421A61224B40F243425A61214B03F580531B6B1F4A43F4003302F58052136333
S32D000110A8184B4FF6FF721A63164B1B4A5A63154BDB6A144A43F00063D362124BDB6A03F00063002B14BF012318
S32D000110D00023DBB2002B00D0F3E70C4B5B6A03F48033002B14BF01230023DBB2002B02D07B6801221A60054B07
S32D000110F81B6B044A43F080031363002318460837BD4680BD00100B400080000160CC050000D0044000700440F4
S32D00011120B3007F0080B400AF064B5A6A40F207331340002B14BF01230023DBB21846BD4680BC704700100B4036
S32D0001114880B485B000AF7860074B1B6B7A681340FB60FB68002B00D1F6E7FB6818461437BD4680BC704700BF23
S32D0001117000100B4080B584B000AF78607B681B7803F03F03764A52F82330FB60FB68002B05D17B681B78002B9D
S32D0001119801D00123DCE0714B1B6B704A43F0800313636E4B5B6A03F00103002B14BF01230023DBB2002B00D00D
S32D000111C0F3E7684A7B685B689360FB6823F44003FB607B685B789B0503F44003FA681343FB607B685B78022B3D
S32D000111E803D1FB6843F40013FB607B685B78042B16D1FB6803F44033B3F5003F08D1FB6823F44033FB60FB68F8
S32D0001121043F44033FB6007E0FB6823F44033FB60FB6843F40033FB604E4B5B684D4A9BB253607B68DB68002B0F
S32D000112382AD0FB6803F44033B3F5403F03D0FB6843F40013FB607B681B7A002B03D0FB6843F01003FB607B6861
S32D00011260DB68012B03D9FB6843F02003FB607B68DB68B3F1FF3F0BD03A4B5A687B68DB681B04384913434B600F
S32D00011288FB6843F00203FB60344B00221A60334AFB68D3603248FFF753FF0346012B14BF01230023DBB2002B0A
S32D000112B009D02C4B1B6B2B4A43F4702343F001031363012348E0274B1B6B03F08003002B14BF01230023DBB2C1
S32D000112D8002B07D0214B1B6B204A43F001131363012335E01D4B1B6B03F48033002B14BF01230023DBB2002BFE
S32D0001130008D0184B1B6B174A43F0011313634FF0FF3321E0FB6803F44033002B15D0114B1A697B681A61FB68F0
S32D0001132803F44033B3F5803F0BD10C4B5A697B685A610A4B9A697B689A61084BDA697B68DA61064B1B6B054A21
S32D0001135043F001031363002318461037BD4680BDE05D020000100B4001000E0080B592B000AF78603960002356
S32D000113787B643B68BB63994B7B637B6B002B02D140F601235FE3964B3B633B6B002B02D140F60B2357E33B6BFD
S32D000113A01B68FB62FB6A002B02D140F60B234EE37B6841F20932934200F23F837B68B3F5985F08D87B68032BF9
S32D000113C800F01A837B68092B00F0098331E37B68A3F59853013B082B00F22B8301A252F823F000BF1114010068
S32D000113F0FD16010059190100131701005117010077180100BF180100011801001B1801007649786BFFF7EEFD7A
S32D0001141878647B6C002B40F01083002387F84330002387F82B30002387F82A30002387F82930002387F84230D7
S32D00011440002387F8283000233B7200237B720023FB6000233B7400237B6107F108031846FFF788FE0346002B03
S32D0001146814BF01230023DBB2002B02D001237B64E8E240F24C4000F0BFFE08233B7200237B724FF4D573FB60AB
S32D0001149000233B7400237B6107F108031846FFF769FEF863FB6B002B09D1BA69FB689A4202D001237B64C9E2F6
S32D000114B8012387F84230012387F8283097F82830002B00F0A58037233B7200237B720023FB6000233B74002344
S32D000114E07B6107F108031846FFF744FEF863FB6B002B02D001237B64A8E269233B7200237B720023FB60002333
S32D000115083B7400237B6107F108031846FFF72EFE0346002B14BF01230023DBB2002B02D001237B648EE2BB69D4
S32D0001153003F44013002B6FD00023FB630A2000F05FFEFB6B0133FB6337233B7200237B720023FB6000233B7481
S32D0001155800237B6107F108031846FFF707FE0346002B14BF01230023DBB2002B02D001237B6428E069233B72AD
S32D0001158000237B7297F84230002B02D0184BFB6002E04FF44013FB6000233B7400237B6107F108031846FFF775
S32D000115A8E5FD0346002B14BF01230023DBB2002B02D001237B6406E0BB69002B03DBFB6B632B00D8B6E77B6CB4
S32D000115D0002B40F03882FB6B632B0BD9002387F8423019E00417002008190020D45D020000003040012387F830
S32D000115F8433097F84230002B0AD0002387F84230BB6903F08043002B02D0012387F8423097F82A30002B02D065
S32D000116207B6B07221A6097F82930002B02D07B6B08221A6097F82B30002B02D07B6B04221A6097F84330002B09
S32D0001164809D07B6B02221A6097F84230002B02D07B6B03221A6097F82B30002B0DD097F84330002B09D07B6BB5
S32D0001167005221A6097F84230002B02D07B6B06221A60924B00221A60904B00225A608F4B00229A608D4B002204
S32D00011698DA608C4B00221A618A4B00225A61FB6A9A68FB6A5B6819461046FFF72BFC854B40F243421A60834B93
S32D000116C040F243425A60814B4FF488629A607F4B40F24342DA607D4B40F243421A617B4B40F243425A617A4BE5
S32D000116E803F580531B6B784A43F4003302F580521363A7E1B86BFFF739FDF863FB6B002B00F09F8102237B6440
S32D000117109BE1BB6B002B02D10C237B6496E16D4BDB6A1B0A5B0003F4FF73FB63694BDB6A1B0903F00F035A1CA9
S32D00011738FB6B02FB03F3FB63FB6A9A68FB6BB2FBF3F2BB6B1A607DE1BB6B002B02D10C237B6477E1BB6B1B683B
S32D00011760002B02D10C237B6470E1FFF7DBFC0346002B0CBF01230023DBB2002B3CD0534B00221A60514B0022EE
S32D000117885A60504B00229A604E4B0022DA604D4B00221A614B4B00225A61FB6A9A68BB6B1B6819461046FFF769
S32D000117B0ADFB464B40F243421A60444B40F243425A60424B4FF488629A60404B40F24342DA603E4B40F2434230
S32D000117D81A613C4B40F243425A613B4B03F580531B6B394A43F4003302F58052136329E140F60A237B6425E119
S32D00011800BB6B002B02D10C237B641FE1314B5B68C3F30C02BB6B1A6018E1BB6B002B02D10C237B6412E1FFF7D0
S32D000118287DFC0346002B0CBF01230023DBB2002B19D0BB6B1B68B3F5805F02D30C237B6400E1224B5B68214A62
S32D0001185023F4FF5323F01F0353601E4B5A68BB6B1B68C3F30C031B4913434B60EEE040F60A237B64EAE0BB6B1A
S32D00011878002B02D10C237B64E4E0144B9B6A5B0803F00303FB63FB6B002B03D1BB6B00221A60D7E0FB6B012BE3
S32D000118A003D1BB6B01221A60D0E0FB6B102B03D1BB6B02221A60C9E005237B64C6E0BB6B002B09D10C237B640A
S32D000118C8C0E000BF00D004400070044000100B40FFF724FC0346002B0CBF01230023DBB2002B31D0BB6B1B6871
S32D000118F0002B0AD1584B9B6A574A23F006039362554B554A9B6A9362A0E0BB6B1B68012B0CD1514B9B6A504AC3
S32D0001191823F0060393624E4B9B6A4D4A43F0020393628FE0BB6B1B68022B0AD1484B9B6A474A23F006039362D3
S32D00011940454B454A9B6A936280E005237B647DE040F60A237B6479E0BB6B002B02D10C237B6473E03C4BDB6AAF
S32D000119683B4A43F00063D362394BDB6A03F00063002B14BF01230023DBB2002B00D0F3E7334B1B6B03F08003C0
S32D00011990002B14BF01230023DBB2002B08D02E4B1B6B2D4A43F0800313637B6B00221A60294B5B6A03F480334C
S32D000119B8002B14BF01230023DBB2002B07D07B6B1B68002B06D17B6B01221A6002E07B6B00221A607B6B1A6872
S32D000119E0BB6B1A6032E0BB6B1C221A60BB6B043304221A60BB6B08334FF41E721A6025E00220FFF7A1FB144B85
S32D00011A081B6B03F4E003002B14BF01230023DBB2002B07D00E4B1B6B0D4A43F4E003136304237B640A4B1B6BD4
S32D00011A30094A43F03203136308E040F609237B6404E000BF02E000BF00E000BF7B6C18464837BD4680BD00BF87
S32D00011A5800100B4080B489B000AF786039607B687B61364B3B613B69002B01D100235FE03B691B68022B0BD069
S32D00011A803B691B68032B07D03B691B68072B03D03B691B68082B0BD12B4B5B6A03F00403002B14BF012300232F
S32D00011AA8DBB2002B00D0F3E73B68FB61FB69002B3DD0FB69B3F5007F28BF4FF40073FB60FB6803339B08BB6137
S32D00011AD0BB69002B2AD01C4B1B6B03F4E003002B14BF01230023DBB2002B09D0164B1B6B154A43F4E00343F06E
S32D00011AF82003136300231BE0114B5B6A03F40063002B0CBF01230023DBB2002B00D0F3E70B497B691A1D7A61A4
S32D00011B200A6A1A60BB69013BBB61D1E7FA69FB68D31AFB61BEE7012318462437BD4680BC704700BF04170020F3
S32D00011B4800100B4080B58EB000AFB9607A601A460346FB731346BB73414B7B63FB7B002B02D1BB7B002B01D14F
S32D00011B70042375E03D4B1B78DBB203F00103002B14BF01230023DBB2002B01D0032367E0BB68002B01D10023AD
S32D00011B9862E07B6B1B7B002B02D17B685B027B60BB7B012B28D111233B7500237B757B68BB6101233B77BB7BEA
S32D00011BC03B6207F11403194641F20230FFF7CEFB0346002B0CBF01230023DBB2002B38D04FF40071B868FFF7B7
S32D00011BE839FF0346002B14BF01230023DBB2002B2BD00023BB7328E012233B7500237B757B68BB6101233B772F
S32D00011C10BB7B3B6207F11403194641F20230FFF7A5FB0346002B0CBF01230023DBB2002B0FD0BB7B5B0219465A
S32D00011C38B868FFF70FFF0346002B14BF01230023DBB2002B01D00023BB73BB7B002B01D0012300E0002300BFD9
S32D00011C6018463837BD4680BDF01600200000002080B487B000AF786039607B68FB603B687B617B69002B3DD09E
S32D00011C887B69B3F5007F28BF4FF400733B617A693B69D31A7B613B6903339B083B613B69002BEAD0184B1B6B0E
S32D00011CB003F4E003002B14BF01230023DBB2002B0AD0134B1B6B124A43F4E00343F0100313634FF0FF3316E0D7
S32D00011CD80D4B5B6A03F48063002B0CBF01230023DBB2002B00D0F3E7FB681A1DFA60064A1B6813623B69013B2B
S32D00011D003B61D0E7012318461C37BD4680BC704700100B4080B58EB000AFB9607A601A460346FB731346BB7388
S32D00011D285D4B7B63FB7B002B02D1BB7B002B01D10423ADE0594B1B78DBB203F00103002B14BF01230023DBB21E
S32D00011D50002B01D003239FE0524B1B78DBB203F00403002B14BF01230023DBB2002B01D0022391E0BB68002B5A
S32D00011D7801D100238CE07B6B1B7B002B02D17B685B027B60BB7B012B28D118233B7500237B757B68BB610023CB
S32D00011DA03B77BB7B3B6207F11403194641F20230FFF7DCFA0346002B0CBF01230023DBB2002B38D04FF40071F6
S32D00011DC8B868FFF751FF0346002B14BF01230023DBB2002B2BD00023BB7328E019233B7500237B757B68BB61EE
S32D00011DF000233B77BB7B3B6207F11403194641F20230FFF7B3FA0346002B0CBF01230023DBB2002B0FD0BB7B53
S32D00011E185B021946B868FFF727FF0346002B14BF01230023DBB2002B01D00023BB730D233B7500237B757B6B62
S32D00011E401B69BB6100233B7700233B6207F11403194641F20230FFF789FA0346002B14BF01230023DBB2002BAC
S32D00011E6801D0012314E07A6A0D4B1340002B01D001230DE07B6A03F4F853B3F5106F00D0D5E7BB7B002B01D0BA
S32D00011E90012300E0002300BF18463837BD4680BDF0160020000000200880D9FF80B58CB000AF03463A60FB711B
S32D00011EB80B46BB713A4BBB62FB79002B01D0042369E0012387F82F30364B1B78DBB203F00103002B14BF012340
S32D00011EE00023DBB2002B01D0032358E0BB79032B50D801A252F823F0091F0100111F0100211F0100311F010053
S32D00011F08002387F82F3044E0BB6A9A683B681A60002387F82F303CE03B684FF400721A80002387F82F3034E01D
S32D00011F3009233B7200237B72BB6A1B69FB6000233B7400237B6107F10803194641F20230FFF70CFA0346002B8D
S32D00011F5814BF01230023DBB2002B01D001231AE07B6A03F44003002B0CD13B6A9B0C03F07F035A1C7B6A1B0A31
S32D00011F8003F00303013B9A403B681A60002387F82F3002E0042387F82F3097F82F3018463037BD4680BD00BF6C
S32D00011FA8F01600200000002080B483B000AF0346FB71FB79002B01D0012302E0034B1B78DBB218460C37BD4671
S32D00011FD080BC70470000002080B483B000AF7860164B03F580539B6B144A43F0010302F580529363124A7B681C
S32D00011FF89360114B05225A600F4B1B680E4A43F0010313600C4B1B6803F08003002B0CBF01230023DBB2002B66
S32D0001202000D0F3E7064B1B68054A23F00103136000BF0C37BD4680BC704700BF007004400000044080B582B024
S32D0001204800AF786039607B68012B07D13B684FF6FF72934202D1034800F00EF800BF0837BD4680BD1019002099
S32D0001207080B500AF4FF6FF710120FFF7E3FF80BD80B483B000AF78607B6800221A707B6818460C37BD4680BC32
S32D000120987047000080B582B000AF78607B681B7883F00103DBB2002B21D0134B03F580531A464FF400639362BA
S32D000120C0104B4FF440721A620E4B4FF440725A620D4B1B68DA0F13445B104FF4614219460A48FEF7FDFB64208D
S32D000120E800F08AF87B6801221A70012300E0002318460837BD4680BD0070044000D004401419002000B00E40B0
S32D0001211080B582B000AF7860084611461A460346FB700B46BB7013467B707F210E48FEF7AAFC08210C48FEF736
S32D00012138A6FCFB7819460A48FEF7A1FCBB7819460748FEF79CFC7B7819460548FEF797FCFF210348FEF793FC9C
S32D0001216000BF0837BD4680BD00B00E4080B487B000AFF860B9607A60FB681F4AA2FB03239B09BA6813447B6127
S32D00012188FB681B4AA2FB031292094FF47A7101FB02F29B1AFB60FB68DB03154AA2FB03239B097A6813443B6109
S32D000121B03B69DB0B7A6913447B613B69C3F30E033B610E4B1B687A699A4209D80B4B1B687A699A4206D1094B1A
S32D000121D85B683A699A4201D9012300E00023002B00D0EAE700BF1C37BD4680BC704700BFD34D621000D003405D
S32D0001220080B584B000AF7860074B1B68FB60064B5B68BB607B68BA68F9681846FFF7A6FF00BF1037BD4680BDBB
S32D0001222800D0034080B584B000AFC7E900010E4B1B68FB600C4B5B68BB604FF000020B4BD7E900010BF07AF87A
S32D0001225002460B46104619460BF036FB0346BA68F9681846FFF782FF00BF1037BD4680BD00D0034000408F40DC
S32D0001227880B584B000AF78600B46FB700B23FB73FA7BFB781946786800F094F87B6818461037BD4680BD000084
S32D000122A080B485B000AF78607B68103B002B00DA1F335B11FB60FB68022B53D0FB68022B75DCFB68002B03D0DE
S32D000122C8FB68012B25D06EE0394BD3F880217B68103B594203F01F0301F01F0158BF4B42012101FA03F3324904
S32D000122F01343C1F88031304B1A687B68103B594203F01F0301F01F0158BF4B42012101FA03F3294913430B6029
S32D0001231849E0274BD3F884217B68103B594203F01F0301F01F0158BF4B42012101FA03F31F491343C1F88431B9
S32D000123401D4B5A687B68103B594203F01F0301F01F0158BF4B42012101FA03F3164913434B6024E0144BD3F810
S32D0001236888217B68103B594203F01F0301F01F0158BF4B42012101FA03F30D491343C1F888310B4B9A687B689E
S32D00012390103B594203F01F0301F01F0158BF4B42012101FA03F3044913438B6000BF00BF1437BD4680BC70470E
S32D000123B800E100E080B584B000AF78600B46FB701346BB707B68FA781A70BB78FB737B681B781A46574B9B5C16
S32D000123E0042B00F2A68001A252F823F0012401004D2401009924010031250100E5240100FB7B1B0403F47023B1
S32D000124084D497A68127810464C4A52F8202043F4897343F0010341F82230494B5A697B681B781946454B53F831
S32D00012430213003F01F03012101FA03F3DB43424913404B616720FFF72BFF72E0FB7B1B0403F470233D497A68DC
S32D0001245812781046394A52F8202043F4897343F0010341F82230384B5A697B681B781946324B53F8213003F04C
S32D000124801F03012101FA03F3DB43314913404B616820FFF705FF4CE0FB7B1B0403F470232C497A68127810465D
S32D000124A8264A52F8202043F4897343F0010341F82230274B5A697B681B7819461F4B53F8213003F01F030121CF
S32D000124D001FA03F3DB43204913404B616920FFF7DFFE26E0FB7B1B0403F470231B497A6812781046134A52F818
S32D000124F8202043F4897343F0010341F82230164B5A697B681B7819460C4B53F8213003F01F03012101FA03F36C
S32D00012520DB430F4913404B616B20FFF7B9FE00E000BF00BF1037BD4680BD00BFE05E020000900440245F0200A2
S32D0001254800F00F4000A0044040F00F4000B0044080F00F4000D0044000F10F40B0B48BB000AF224B3C1D1D4644
S32D000125700FCD0FC495E80F0084E80F0000237B627B6A072B30DC1C4BD3F8A0207B6A9B0028333B4453F8243C6C
S32D00012598012101FA03F31340002B14BF01230023DBB2002B18D0134A7B6A52F823305A1C10497B6A41F82320BA
S32D000125C00D4BD3F8A0207B6A9B0028333B4453F8243C012101FA03F307491340C1F8A0307B6A01337B62CBE71D
S32D000125E800BF2C37BD46B0BC704700BF2860020000A0044040190020B0B489B000AF224B3C1D1D460FCD0FC4B2
S32D0001261095E8030084E803000023FB61FB69052B30DC1C4BD3F8A020FB699B0020333B4453F81C3C012101FA0A
S32D0001263803F31340002B14BF01230023DBB2002B18D0FB690833124A52F823200132104941F823200D4BD3F892
S32D00012660A020FB699B0020333B4453F81C3C012101FA03F307491340C1F8A030FB690133FB61CBE700BF243718
S32D00012688BD46B0BC704700BF4860020000B0044040190020B0B48DB000AF234B3C461D460FCD0FC40FCD0FC426
S32D000126B095E8070084E807000023FB62FB6A0A2B30DC1C4BD3F8A020FB6A9B0030333B4453F8303C012101FA36
S32D000126D803F31340002B14BF01230023DBB2002B18D0FB6A0E33124A52F823200132104941F823200D4BD3F8EB
S32D00012700A020FB6A9B0030333B4453F8303C012101FA03F307491340C1F8A030FB6A0133FB62CBE700BF343740
S32D00012728BD46B0BC704700BF606002000090044040190020B0B487B000AF214B3C461D460FCD0FC42B6823602E
S32D0001275000237B617B69042B30DC1C4BD3F8A0207B699B0018333B4453F8183C012101FA03F31340002B14BFFE
S32D0001277801230023DBB2002B18D07B691933124A52F823200132104941F823200D4BD3F8A0207B699B0018337D
S32D000127A03B4453F8183C012101FA03F307491340C1F8A0307B6901337B61CBE700BF1C37BD46B0BC704700BF10
S32D000127C88C60020000D004404019002080B483B000AF78607B681B781A46044B53F8223018460C37BD4680BCD7
S32D000127F0704700BF4019002080B483B000AF78607B681B781946044B002243F8212000BF0C37BD4680BC704723
S32D000128184019002080B483B000AF78600B46FB707B68FA781A707B6818460C37BD4680BC704700000000000015
S32D0001284080B586B000AF78607B681B781A463E4B53F822303B617B681B781A463B4B9B5CFB733B69DBB203F0FA
S32D000128681F03DAB2384B1A723B69DBB203F01F03DAB2354B5A72354B1022C3F88820FB7B002B13D130493248D9
S32D0001289000F05AFA304B1B6803F08003802B14BF01230023DBB2002B00D0F3E72A4B1B697B6112E02649294893
S32D000128B800F046FA274B1B6803F08003802B14BF01230023DBB2002B00D0F3E7214B1B697B611E4BD3F8883176
S32D000128E01C4A43F01003C2F888311A4B9B68194A43F0100393607B699BB218460AF0A8FC0DA3D3E900230AF0F0
S32D000129081DFD02460B46104619460BA3D3E900230AF03EFE02460B46104619460AF0F0FF0346BB60BB68184659
S32D000129301837BD4680BD00BFA4703D0AD7A30A4000000000E0FFEF40A45F0200005F02002019002000E100E07D
