S01100002E2E2F50726F746575732E73313966
S32D0000C000000000205DC2000011C3000017C300001DC3000023C3000029C3000000000000000000000000000073
S32D0000C028000000002FC3000035C30000000000003BC3000041C300009DFC0000A9FC0000B5FC0000C1FC000052
S32D0000C050CDFC0000D9FC0000E5FC0000F1FC0000FDFC000009FD000015FD000021FD00002DFD000039FD0000C7
S32D0000C07845FD000051FD00005DFD000069FD000075FD000081FD00008DFD000099FD0000A5FD0000B1FD0000EA
S32D0000C0A0BDFD0000C9FD0000D5FD0000E1FD0000EDFD0000F9FD000005FE000011FE00001DFE000029FE00000E
S32D0000C0C835FE000041FE00004DFE000059FE000065FE000071FE00007DFE000089FE000095FE0000A1FE000030
S32D0000C0F0ADFE0000BD5A0100B9FE0000C5FE0000D1FE0000DDFE0000E9FE0000F5FE000001FF00000DFF000055
S32D0000C11819FF000025FF000031FF00003DFF000049FF000055FF000061FF00006DFF000079FF000085FF0000ED
S32D0000C14091FF00009DFF0000A9FF0000B5FF0000F9270100C1FF0000CDFF0000D9FF0000E5FF0000F1FF0000F0
S32D0000C168FDFF00000900010015000100210001002D0001003900010045000100510001005D00010069000100A3
S32D0000C19075000100810001008D000100ED230100B52201005123010021FA00008D24010099000100A500010090
S32D0000C1B8B1000100988C020000000020D0160000988C02000000FF1F00000000D0160020680400000000FF1FA7
S32D0000C1E00000000080B489B000AFF860B9607A60BB68FB61FB68BB6100237B617A697B689A420BD2BA69131DFB
S32D0000C208BB61FB69191DF96112681A607B6904337B61EFE700BF2437BD4680BC704780B485B000AF786039609E
S32D0000C2307B68FB600023BB60BA683B689A4208D2FB681A1DFA6000221A60BB680433BB60F2E700BF1437BD46FE
S32D0000C25880BC704780B586B000AF72B6234B4CF220521A80214B4DF628121A80204B4FF4E9721A801F4B7B615F
S32D0000C2807B691F4A934214D27B691A1D7A611B683B617B691A1D7A611B68FB607B691A1D7A611B68BB60BA68E9
S32D0000C2A8F9683869FFF79AFFE6E77B69134A93420ED27B691A1D7A611B68FB607B691A1D7A611B68BB60B9688B
S32D0000C2D0F868FFF7A8FFECE70B4B7B600B4A7B681A6013F039FE62B603F062FC01F050FAFEE700BF0E20054098
S32D0000C2F800200540BCC10000D4C10000E4C1000008ED00E000C0000080B400AFFEE780B400AFFEE780B400AFF4
S32D0000C320FEE780B400AFFEE780B400AFFEE780B400AFFEE780B400AFFEE780B400AFFEE780B400AFFEE780B426
S32D0000C34800AFFEE7FFFFFFFFFFFFFFFFFFFFFFFFFFFFFFFFFFFFFFFFFFFFFFFFFFFFFFFFFFFFFFFFFFFFFFFF57
S32D0000C370FFFFFFFFFFFFFFFFFFFFFFFFFFFFFFFFFFFFFFFFFFFFFFFFFFFFFFFFFFFFFFFFFFFFFFFFFFFFFFFFC7
S32D0000C398FFFFFFFFFFFFFFFFFFFFFFFFFFFFFFFFFFFFFFFFFFFFFFFFFFFFFFFFFFFFFFFFFFFFFFFFFFFFFFFF9F
S32D0000C3C0FFFFFFFFFFFFFFFFFFFFFFFFFFFFFFFFFFFFFFFFFFFFFFFFFFFFFFFFFFFFFFFFFFFFFFFFFFFFFFFF77
S32D0000C3E8FFFFFFFFFFFFFFFFFFFFFFFFFFFFFFFFFFFFFFFFFFFFFFFFFFFFFFFFFFFFFFFFFFFFFFFFFEFFFFFF50
S32D0000C44010B5054C237833B9044B13B10448AFF300800123237010BDD016002000000000F88A020008B5034B97
S32D0000C4681BB103490348AFF3008008BD00000000D4160020F88A020080B483B000AF786039603B6818460C3703
S32D0000C490BD4680BC704780B483B000AF78607B685B685A1C7B685A6000BF0C37BD4680BC704780B582B000AFD3
S32D0000C4B878607B685B685A1E7B685A607B685B68002B0CBF01230023DBB2002B19D07B681B6808331B6878683B
S32D0000C4E098477B689B685A1E7B689A607B689B68002B0CBF01230023DBB2002B05D07B681B680C331B6878685C
S32D0000C508984700BF0837BD4680BD000080B400AF024B1846BD4680BC704700BF2067020080B582B000AF78602E
S32D0000C5307B680433184601F0B9FA7B6818460837BD4680BD80B582B000AF78607B681846FFF7EAFF7B681846B2
S32D0000C5580837BD4680BD80B582B000AF78607B680433184601F09EFA7B6818460837BD4680BD80B582B000AF71
S32D0000C58078607B681846FFF7EAFF7B6818460837BD4680BD80B582B000AF78607B680433184601F083FA7B681E
S32D0000C5A818460837BD4680BD80B582B000AF78607B681846FFF7EAFF7B6818460837BD4680BD80B582B000AFA4
S32D0000C5D078607B680433184601F068FA7B6818460837BD4680BD80B582B000AF78607B681846FFF7EAFF7B68E9
S32D0000C5F818460837BD4680BD80B582B000AF786039603B681A687B681A607B681A1D3B6804331946104601F095
S32D0000C6207EFA7B6818460837BD4680BD80B582B000AF786039607B683A6811461846FFF7DFFF7B68184608379F
S32D0000C648BD4680BD80B582B000AF786039603B681A687B681A607B681A1D3B6804331946104601F058FA7B68AC
S32D0000C67018460837BD4680BD80B582B000AF786039607B683A6811461846FFF7DFFF7B6818460837BD4680BD6A
S32D0000C69880B582B000AF786039603B681A687B681A607B681A1D3B6804331946104601F032FA7B681846083725
S32D0000C6C0BD4680BD80B582B000AF786039607B683A6811461846FFF7DFFF7B6818460837BD4680BD80B582B050
S32D0000C6E800AF786039603B681A687B681A607B681A1D3B6804331946104601F00CFA7B6818460837BD4680BD22
S32D0000C71080B582B000AF786039607B683A6811461846FFF7DFFF7B6818460837BD4680BD80B584B000AFF86036
S32D0000C738B9607A603B60FB681433184601F0A5F9FB681C33184601F0A0F9FB682433184601F0BAF9FB682C3396
S32D0000C760184601F0C2F9FB683433184601F0BDF9FB683C33184601F0C5F9FB684433184601F0C0F9FB68143367
S32D0000C788B9681846FFF74EFFFB681C3379681846FFF748FFFB68243339681846FFF768FFFB682C33B96918463B
S32D0000C7B0FFF788FFFB683433F9691846FFF782FFFB683C33396A1846FFF7A2FFFB684433796A1846FFF79CFFC7
S32D0000C7D8FB68BA6A1A60FB68FA6A5A60FB683A6B9A60FB687A6BDA60FB68BA6B1A61FB6818461037BD4680BDE2
S32D0000C800B0B586B000AFF860B9607A604FF49F737B6100233B61786911F092FF0346B968184611F0E1FF034620
S32D0000C828184611F045FB04460D46786811F040FB0BA3D3E9002311F093FB02460B462046294611F0B7FC024604
S32D0000C8500B461046194611F021FE03463B613B6918461837BD46B0BD182D4454FB21194080B586B000AFF8602A
S32D0000C878B9607A603C4808F0C3FF0346184611F017FB02460B464FF00000384911F092FC02460B461046194671
S32D0000C8A011F044FE03467B61FB681B681946786911F09AFF03467B612D4808F0A5FF0346184611F0F9FA024629
S32D0000C8C80B464FF00000294911F074FC02460B461046194611F026FE03463B61FB689B681946386911F07CFF95
S32D0000C8F003463B61BB68002B17D1FB681433184601F031F902467B6983F000431946104603F056FCFB681C334E
S32D0000C918184601F024F903467969184603F04CFC19E0BB68012B16D1FB681433184601F016F902463B6983F02B
S32D0000C94000431946104603F03BFCFB681C33184601F009F903463969184603F031FC7968F86800F04FF900BF03
S32D0000C9681837BD4680BD00BF181A00200000274080B586B000AFF8600B467A60FB723A4808F03EFF0346184632
S32D0000C99011F092FA02460B464FF00000354911F00DFC02460B461046194611F0BFFD03467B61FB681B68194617
S32D0000C9B8786911F015FF03467B612B4808F020FF0346184611F074FA02460B464FF00000264911F0EFFB02461C
S32D0000C9E00B461046194611F0A1FD03463B61FB689B681946386911F0F7FE03463B61FB7A002B14D1FB6814332F
S32D0000CA08184601F0ACF803467969184603F0D4FBFB681C33184601F0A2F803467969184603F0CAFB13E0FB6890
S32D0000CA301433184601F097F803463969184603F0BFFBFB681C33184601F08DF803463969184603F0B5FB79686A
S32D0000CA58F86800F0A9F803461946F86800F0CEF800BF1837BD4680BD181A00200000274080B586B000AFF86088
S32D0000CA80B9607A603A4808F0BFFE0346184611F013FA02460B464FF00000364911F08EFB02460B46104619467A
S32D0000CAA811F040FD03467B61FB681B681946786911F096FE03467B612B4808F0A1FE0346184611F0F5F9024635
S32D0000CAD00B464FF00000274911F070FB02460B461046194611F022FD03463B61FB685B681946386911F078FEDC
S32D0000CAF803463B61BB68002B17D1FB681433184601F02DF802463B6983F000431946104603F052FBFB681C338E
S32D0000CB20184601F020F803467969184603F048FB16E0FB681433184601F015F802467B6983F00043194610462E
S32D0000CB4803F03AFBFB681C33184601F008F803463969184603F030FB7968F86800F04EF800BF1837BD4680BD6A
S32D0000CB70181A00200000274080B582B000AF78607B681433184600F0EEFF0346184603F0D5FA7B681C33184692
S32D0000CB9800F0E5FF0346184603F0CCFA00BF0837BD4680BD0000000080B584B000AF78603960386811F07CF95E
S32D0000CBC04FF000020E4B11F0F9FA02460B461046194609A3D3E9002311F0C6F902460B461046194611F0A2FC33
S32D0000CBE80346FB60FB6818461037BD4680BD00BFCDCCCCCCCC4C37400080764080B584B000AF786039607B6812
S32D0000CC101B691A4639687868FFF7F2FDF8607B683433184600F0C3FF0346184605F08CFC7B683433184600F03E
S32D0000CC38BAFF0346184605F071FC0246FB689342CCBF01230023DBB2002B00D0ECE77868FFF78EFF00BF1037F6
S32D0000CC60BD4680BD80B584B000AFF860B9607A603B60FB6800221A60FB6801225A60FB68334A9A60FB68334A6F
S32D0000CC88DA60FB68324A1A61FB68324A5A61FB684FF07F529A61FB680122DA61FB6800221A62FB682433184608
S32D0000CCB000F0EFFEFB682C33184600F0EAFEFB683433184600F004FFFB683C33184600F00CFFFB684433184603
S32D0000CCD800F007FFFB684C33184600F00FFFFB685433184600F00AFFFB682433B9681846FFF798FCFB682C3334
S32D0000CD0079681846FFF792FCFB68343339681846FFF7B2FCFB683C33B9691846FFF7D2FCFB684433F969184625
S32D0000CD28FFF7CCFCFB684C33396A1846FFF7ECFCFB685433796A1846FFF7E6FCFB6818461037BD4680BD00BF54
S32D0000CD500000204200001442000020C200000CC280B582B000AF786039603B681A687B681A607B681A1D3B6887
S32D0000CD7804331946104600F022FF7B6818460837BD4680BD80B582B000AF786039607B683A6811461846FFF719
S32D0000CDA0DFFF7B6818460837BD4680BD80B582B000AF786039603B681A687B681A607B681A1D3B68043319466B
S32D0000CDC8104600F0FCFE7B6818460837BD4680BD80B582B000AF786039607B683A6811461846FFF7DFFF7B68C5
S32D0000CDF018460837BD4680BD80B582B000AF786039603B681A687B681A607B681A1D3B6804331946104600F096
S32D0000CE18D6FE7B6818460837BD4680BD80B582B000AF786039607B683A6811461846FFF7DFFF7B681846083743
S32D0000CE40BD4680BD80B582B000AF786039603B681A687B681A607B681A1D3B6804331946104600F0B0FE7B6851
S32D0000CE6818460837BD4680BD80B582B000AF786039607B683A6811461846FFF7DFFF7B6818460837BD4680BD6A
S32D0000CE9080B582B000AF78607B6844331846FFF7A2FB7B683C331846FFF79DFB7B6834331846FFF77DFB7B6804
S32D0000CEB82C331846FFF778FB7B6824331846FFF758FB7B681C331846FFF738FB7B6814331846FFF733FB7B68FD
S32D0000CEE018460837BD4680BDF0B59BB00AAF786039603B6803F1240207F1080311461846FFF744FF3B6803F1E8
S32D0000CF082C0207F1100311461846FFF73BFF3B6803F1340207F1180311461846FFF758FF3B6803F13C0207F12E
S32D0000CF30200311461846FFF775FF3B6803F1440207F1280311461846FFF76CFF3B6803F14C0207F13003114614
S32D0000CF581846FFF789FF3B6803F1540207F1380311461846FFF780FF3B689B683A68D2683968096938684069A7
S32D0000CF803C68A46907F1180C07F1100607F108050894079006910592049307F13803039307F13003029307F12A
S32D0000CFA82803019307F1200300936346324629467868FFF7B9FB07F138031846FFF70FFB07F130031846FFF7C4
S32D0000CFD00AFB07F128031846FFF7EAFA07F120031846FFF7E5FA07F118031846FFF7C5FA07F110031846FFF700
S32D0000CFF8A5FA07F108031846FFF7A0FA00BF78684437BD46F0BD0000B0B5ADF5787D06AF07F57273A3F57173A3
S32D0000D020186007F57273A3F5727319604FF0FF33C7F8C4334FF00003C7F8BC334FF00003C7F8B833002387F8EE
S32D0000D048C333524806F03DFE07F1080303241D46002C05DB284608F060F8EC35013CF7E707F108006FF07F4345
S32D0000D07005934FF47F03049307F57273A3F572731B68039305230293052301930A2300930A230222022108F082
S32D0000D0988DFA97F8C333002B70D107F56E7207F56F731946394806F0C7FE0346002BF0D0D7F8BC13D7F8B82321
S32D0000D0C007F10800002308F041F90346002B14BF01230023DBB2002B06D00023C7F8C433012387F8C333D8E7A0
S32D0000D0E8D7F8BC13D7F8B82307F1080303F1EC00002308F027F90346002B14BF01230023DBB2002B06D0012374
S32D0000D110C7F8C433012387F8C333BEE7D7F8BC13D7F8B82307F1080303F5EC70002308F00DF90346002B14BFF6
S32D0000D13801230023DBB2002B06D00223C7F8C433012387F8C333A4E7D7F8BC13D7F8B82307F1080303F5317011
S32D0000D160002308F0F3F80346002B14BF01230023DBB2002B91D00323C7F8C433012387F8C3338AE7D7F8C43348
S32D0000D188184607F57277BD46B0BD00BFCC19002080B582B000AF7860074806F092FD7B685433184600F0F3FC99
S32D0000D1B00346184605F0A0FD00BF0837BD4680BDCC19002080B588B002AF7860494806F07CFD494808F018FB43
S32D0000D1D87861484B3B613969786911F0B5FB03464549184611F0FCFA0346FB60F9683F4806F058FF41493D48D9
S32D0000D20006F02DFF6FF07F413A4806F0A4FD64230093322346228721364807F03EFA3A49F86811F093FC0346BE
S32D0000D228002B0DD04FF40041304806F090FD632300933123472288212C4807F0E7FA4AE02F49F86811F06AFC1D
S32D0000D2500346002B14D02D49F86811F077FC0346002B0DD04FF40041224806F074FD4A230093312360228821E9
S32D0000D2781E4807F0CBFA2EE02249F86811F04EFC0346002B13D02049F86811F05BFC0346002B0CD01D491548B7
S32D0000D2A006F059FD31230093312379228821114807F0B0FA13E01649F86811F033FC0346002B0CD04FF47F01A6
S32D0000D2C80A4806F044FD18230093312392228821064807F09BFA4FF000004FF0804104F02DFE00BF1837BD46E7
S32D0000D2F080BD00BFCC190020181A0020000038410000C8422867020000009642000048420000C84100FFFF0040
S32D0000D31880B582B000AF78607B685433184600F036FC03460349184605F066FC00BF0837BD4680BD0000B44291
S32D0000D34090B5ADF5697D00AF07F56873A3F5677318604FF0FF33C7F89C332249224809F053F807F56873A3F5FB
S32D0000D36867731B684C33184600F011FC03464FF00001184605F040FC07F56873A3F567731B685433184600F0A7
S32D0000D39002FC03461549184605F032FC07F56873A3F567731B683433184600F0E8FB0346184605F0EDF803461B
S32D0000D3B8012214464FF07E51184611F0CDFB0346002B01D100231C46E3B2002B0CD0044809F040FAC7F89C0351
S32D0000D3E0DCE700BF2C670200341A00200000B44207F56873A3F5657207F56873A3F5677319681046FFF770FDDB
S32D0000D40807F56873A3F567731B68196A07F10C03BE4A1846FFF72CFB07F10C031846FFF733FD07F56873A3F523
S32D0000D430527207F56873A3F5677319681046FFF753FD07F56873A3F567731B681B6A002B14BF01230023D9B283
S32D0000D45807F15803AE4A1846FFF78AFA07F158031846FFF711FD07F56873A3F53F7207F56873A3F567731968E4
S32D0000D4801046FFF731FD07F56873A3F567731B68596807F1A403A14A1846FFF7E9F907F1A4031846FFF7F4FCD4
S32D0000D4A807F56873A3F52C7207F56873A3F5677319681046FFF714FD07F56873A3F567731B681B6A002B14BFD3
S32D0000D4D001230023D9B207F1F003914A1846FFF74BFA07F1F0031846FFF7D2FC07F56873A3F5197207F568731F
S32D0000D4F8A3F5677319681046FFF7F2FC07F56873A3F567731B68196807F59E73834A1846FFF7AAF907F59E73AE
S32D0000D5201846FFF7B5FC07F56873A3F5067207F56873A3F5677319681046FFF7D5FC07F56873A3F567731B683E
S32D0000D548DB69002B14BF01230023D9B207F5C473714A1846FFF70CFA07F5C4731846FFF793FC07F56873A3F5D4
S32D0000D570E67207F56873A3F5677319681046FFF7B3FC07F56873A3F567731B68196807F5EA73654A1846FFF7C7
S32D0000D5986BF907F5EA731846FFF776FC07F56873A3F567731B685433184600F0F0FA03464FF00001184605F07B
S32D0000D5C01FFB07F56873A3F5C07207F56873A3F5677319681046FFF787FC07F56873A3F567731B68596807F560
S32D0000D5E808734FF080421846FFF73EF907F508731846FFF749FC07F56873A3F567731B685433184600F0C3FAA0
S32D0000D61003464649184605F0F3FA07F56873A3F59A7207F56873A3F5677319681046FFF75BFC07F56873A3F57D
S32D0000D63867731B681B6A002B14BF01230023D9B207F51B73344A1846FFF792F907F51B731846FFF719FC07F53C
S32D0000D6602E7207F56873A3F5677319681046FFF73BFC07F56873A3F567731B68196807F52E732B4A1846FFF7FC
S32D0000D688F3F807F52E731846FFF7FEFB07F5417207F56873A3F5677319681046FFF720FC07F56873A3F5677375
S32D0000D6B01B68DB69002B14BF01230023D9B207F54173174A1846FFF757F907F541731846FFF7DEFB07F5547261
S32D0000D6D807F56873A3F5677319681046FFF700FC07F56873A3F567731B68D96907F554730E4A1846FFF7BCF9E0
S32D0000D70007F554731846FFF7C3FB00BF07F56977BD4690BD0000CE41000002430000F4410000704200001041AF
S32D0000D7280000C0400000B442000040410000A04180B582B000AF78607B6854331846FEF74EFF7B684C331846C3
S32D0000D750FEF749FF7B6844331846FEF729FF7B683C331846FEF724FF7B6834331846FEF704FF7B682C33184691
S32D0000D778FEF7E4FE7B6824331846FEF7DFFE7B6818460837BD4680BD90B5D7B004AFB34BC7F84031B24A07F1E1
S32D0000D7A0940311465022184612F046FF002387F8E7304FF00002AD4BC7E93A2307F18C0307F1E80207F1E7010E
S32D0000D7C8184600F013FA012387F8F7304FF00002A44BC7E93E2307F1840307F1F80207F1F701184600F002FA22
S32D0000D7F0082387F8033107F17C0307F203121146184600F01AFA072387F8043107F1740307F5827211461846FD
S32D0000D81800F02DFA002387F8053107F16C0307F205121146184600F022FA002387F8063107F1640307F5837292
S32D0000D8401146184600F035FA072387F8073107F15C0307F207121146184600F02AFA07F16403184600F097F996
S32D0000D868034640F26C41184605F08CF907F16403184600F08CF903464FF4FA61184605F09EF907F15C031846DA
S32D0000D89000F081F903464FF4FA71184605F076F907F15C03184600F076F903464FF41161184605F088F907F169
S32D0000D8B88C0207F5847311461846FFF763FA07F1840207F5887311461846FFF75BFA07F17C0207F58C7311467C
S32D0000D8E01846FFF779FA07F1740207F5907311461846FFF797FA07F16C0207F5947311461846FFF78FFA07F115
S32D0000D908640207F5987311461846FFF7ADFA07F15C0207F59C7311461846FFF7A5FA07F58C7407F5887207F599
S32D0000D9308471384607F59C73039307F59873029307F59473019307F5907300932346FFF789F907F59C731846A6
S32D0000D958FEF745FE07F598731846FEF740FE07F594731846FEF720FE07F590731846FEF71BFE07F58C73184699
S32D0000D980FEF7FBFD07F588731846FEF7DBFD07F584731846FEF7D6FD6FF00103C7F84431D7F84431B3F1FF3F94
S32D0000D9A82ED007F194023B4611461846FFF72CFBC7F84401D7F84431032B1FD801A252F823F000BFDDD9000090
S32D0000D9D0E7D90000F1D90000FBD900003B461846FFF79AFC0FE03B461846FFF7A9FC0AE03B461846FFF7D0FB6D
S32D0000D9F805E03B461846FFF7E1FB00E000BFCBE700243B461846FFF793FE07F15C031846FEF7E5FD07F16403A5
S32D0000DA201846FEF7E0FD07F16C031846FEF7C0FD07F174031846FEF7BBFD07F17C031846FEF79BFD07F18403D6
S32D0000DA481846FEF77BFD07F18C031846FEF776FD2346184607F5A677BD4690BD000048423867020000002240DB
S32D0000DA7080B582B000AF78607B68002B05D07B681B6804331B687868984700BF0837BD4680BD80B582B000AF84
S32D0000DA9878607B68184600F047F97B6818460837BD4680BD80B582B000AF78607B681B68002B04D07B681B689E
S32D0000DAC01846FEF7F6FC7B6818460837BD4680BD80B582B000AF78607B68184600F039F97B6818460837BD465F
S32D0000DAE880BD80B582B000AF78607B68184600F03DF97B6818460837BD4680BD80B582B000AF78607B6818468F
S32D0000DB1000F041F97B6818460837BD4680BD80B584B000AF786039603B681B68FB607B681B68FA689A4211D06E
S32D0000DB38FB68002B02D0F868FEF7A9FC7B681B68002B04D07B681B681846FEF7AEFC7B68FA681A607B6818469D
S32D0000DB601037BD4680BD80B582B000AF7860786800F022F9034618460837BD4680BD80B582B000AF7860786843
S32D0000DB8800F022F9034618460837BD4680BD80B582B000AF7860786800F022F9034618460837BD4680BD80B50A
S32D0000DBB082B000AF7860786800F022F9034618460837BD4680BD80B582B000AF786039603B681A687B681A6074
S32D0000DBD87B681B68002B04D07B681B681846FEF756FC7B6818460837BD4680BD90B587B000AFF860B9607A6079
S32D0000DC0007F11403184600F007F9B86800F01CF90446786800F022F90346F86807F11401224600F025F907F11B
S32D0000DC281403184600F000F900BFF8681C37BD4690BD80B584B000AF7860396007F10C03184600F02AF938680D
S32D0000DC5000F03FF902467B6807F10C01184600F042F907F10C03184600F027F900BF78681037BD4680BD80B5F5
S32D0000DC7884B000AF7860396007F10C03184600F042F9386800F021F902467B6807F10C01184600F050F907F131
S32D0000DCA00C03184600F03FF900BF78681037BD4680BD80B584B000AF7860396007F10C03184600F050F93868D4
S32D0000DCC800F065F902467B6807F10C01184600F068F907F10C03184600F04DF900BF78681037BD4680BD000040
S32D0000DCF080B483B000AF7860044A7B681A607B6818460C37BD4680BC704700BF0068020080B582B000AF7860DC
S32D0000DD187868FFF7E9FF0C21786808F045FF7B6818460837BD4680BD80B582B000AF78607B6800221A607B68C6
S32D0000DD400433184600F045F97B6818460837BD4680BD80B582B000AF78607B6800221A607B680433184600F05D
S32D0000DD6834F97B6818460837BD4680BD80B582B000AF78607B6800221A607B680433184600F023F97B6818466E
S32D0000DD900837BD4680BD80B582B000AF78607B6800221A607B680433184600F012F97B6818460837BD4680BD46
S32D0000DDB880B582B000AF7860786800F013F9034618460837BD4680BD80B582B000AF7860786800F012F903463B
S32D0000DDE018460837BD4680BD80B582B000AF7860786800F011F9034618460837BD4680BD80B582B000AF78605C
S32D0000DE08786800F010F9034618460837BD4680BD80B582B000AF7860786800F00FF97B6818460837BD4680BD67
S32D0000DE3080B582B000AF7860786800F00DF97B6818460837BD4680BD80B483B000AF78607B6818460C37BD46CB
S32D0000DE5880BC704780B483B000AF78607B6818460C37BD4680BC7047B0B584B000AFF860B9607A603B60BC68EF
S32D0000DE807868FFF7E1FF05463868FFF7E7FF03462A462146F86800F0E9F8F8681037BD46B0BD80B582B000AF79
S32D0000DEA87860786800F0F8F87B6818460837BD4680BD80B582B000AF7860786800F0F6F87B6818460837BD46C5
S32D0000DED080BD80B483B000AF78607B6818460C37BD4680BC704790B585B000AFF860B9607A60BC687868FFF711
S32D0000DEF8ECFF03461A462146F86800F0E1F8F8681437BD4690BD80B582B000AF7860786800F0EBF87B681846FB
S32D0000DF200837BD4680BD80B582B000AF7860786800F0E9F87B6818460837BD4680BD90B585B000AFF860B9605B
S32D0000DF487A60BC687868FFF7C0FF03461A462146F86800F0DEF8F8681437BD4690BD80B582B000AF7860786819
S32D0000DF7000F0E8F87B6818460837BD4680BD80B582B000AF7860786800F0E6F87B6818460837BD4680BD80B463
S32D0000DF9883B000AF78607B6818460C37BD4680BC704790B585B000AFF860B9607A60BC687868FFF7ECFF034685
S32D0000DFC01A462146F86800F0D1F8F8681437BD4690BD80B483B000AF78607B6800221A607B6818460C37BD4664
S32D0000DFE880BC704780B483B000AF78607B681B6818460C37BD4680BC704780B483B000AF78607B681B6818467B
S32D0000E0100C37BD4680BC704780B483B000AF78607B681B6818460C37BD4680BC704780B483B000AF78607B68ED
S32D0000E0381B6818460C37BD4680BC704780B483B000AF78607B6818460C37BD4680BC704780B483B000AF78604A
S32D0000E0607B6818460C37BD4680BC7047B0B584B000AFF860B9607A603B60FC687868FFF7E3FE05463868FFF7EE
S32D0000E088E9FE03462A46B968204600F080F8FB6818461037BD46B0BD80B483B000AF78607B6818460C37BD46EE
S32D0000E0B080BC704780B483B000AF78607B6818460C37BD4680BC704790B585B000AFF860B9607A60FC6878682F
S32D0000E0D8FFF7FBFE03461A46B968204600F07EF8FB6818461437BD4690BD80B483B000AF78607B6818460C37C7
S32D0000E100BD4680BC704780B483B000AF78607B6818460C37BD4680BC704790B585B000AFF860B9607A60FC68BB
S32D0000E1287868FFF7D2FE03461A46B968204600F075F8FB6818461437BD4690BD80B483B000AF78607B6818460B
S32D0000E1500C37BD4680BC704780B483B000AF78607B6818460C37BD4680BC704790B585B000AFF860B9607A608C
S32D0000E178FC687868FFF70BFF03461A46B968204600F06CF8FB6818461437BD4690BDF0B587B002AFF860B96057
S32D0000E1A07A603B60FB6800221A60FB681C1DFD687868FFF749FE06463868FFF74FFE034600933346BA682946AA
S32D0000E1C8204600F06BF8FB681B681946F86800F0C4F8FB6818461437BD46F0BDB0B584B000AFF860B9607A60D0
S32D0000E1F0FB6800221A60FB681C1DFD687868FFF768FE0346BA682946204600F0B4F8FB681B681946F86800F054
S32D0000E21806F9FB6818461037BD46B0BDB0B584B000AFF860B9607A60FB6800221A60FB681C1DFD687868FFF7F8
S32D0000E24048FE0346BA682946204600F0F6F8FB681B681946F86800F048F9FB6818461037BD46B0BDB0B584B065
S32D0000E26800AFF860B9607A60FB6800221A60FB681C1DFD687868FFF78AFE0346BA682946204600F038F9FB686C
S32D0000E2901B681946F86800F08AF9FB6818461037BD46B0BD2DE9F0418AB000AFF860B9607A603B607A6807F143
S32D0000E2B818031146184600F080F907F1100307F118021146184600F091F907F11003184600F0B4F978627A68F1
S32D0000E2E007F11C031146184600F0BAF907F11C053868FFF7A9FD0646386CFFF7AFFD80467B6A19461420FEF787
S32D0000E308BBF80446434632462946204600F0CAF93C6207F11C031846FFF786FD07F110030021184600F0F8F96A
S32D0000E330FB683A6A1A60386A00F000FA0246BB681A6007F11003184600F067F907F11803184600F043F9FB6814
S32D0000E35818462837BD46BDE8F08180B483B000AF7860396000BF0C37BD4680BC7047F0B58BB000AFF860B96042
S32D0000E3807A603B607A6807F118031146184600F0E3F907F1100307F118021146184600F0F4F907F1100318466C
S32D0000E3A800F017FA78627A6807F11C031146184600F01DFA07F11C053868FFF786FD06467B6A19461020FEF7D0
S32D0000E3D057F8044632462946204600F033FA3C6207F11C031846FFF768FD07F110030021184600F05DFAFB687A
S32D0000E3F83A6A1A60386A00F065FA0246BB681A6007F11003184600F0CFF907F11803184600F0ABF9FB6818461C
S32D0000E4202C37BD46F0BD80B483B000AF7860396000BF0C37BD4680BC7047F0B58BB000AFF860B9607A603B60C7
S32D0000E4487A6807F118031146184600F049FA07F1100307F118021146184600F05AFA07F11003184600F07DFAE3
S32D0000E47078627A6807F11C031146184600F083FA07F11C053868FFF724FD06467B6A19461020FDF7F5FF0446C7
S32D0000E49832462946204600F099FA3C6207F11C031846FFF73CFD07F110030021184600F0C3FAFB683A6A1A608C
S32D0000E4C0386A00F0CBFA0246BB681A6007F11003184600F035FA07F11803184600F011FAFB6818462C37BD46D7
S32D0000E4E8F0BD80B483B000AF7860396000BF0C37BD4680BC7047F0B58BB000AFF860B9607A603B607A6807F18B
S32D0000E51018031146184600F0AFFA07F1100307F118021146184600F0C0FA07F11003184600F0E3FA78627A6806
S32D0000E53807F11C031146184600F0E9FA07F11C053868FFF724FD06467B6A19461820FDF793FF044632462946C7
S32D0000E560204600F0FFFA3C6207F11C031846FFF706FD07F110030021184600F029FBFB683A6A1A60386A00F081
S32D0000E58831FB0246BB681A6007F11003184600F09BFA07F11803184600F077FAFB6818462C37BD46F0BD80B48C
S32D0000E5B083B000AF7860396000BF0C37BD4680BC704780B582B000AF78603960786800F01BFB7B681846083705
S32D0000E5D8BD4680BD80B582B000AF7860786800F019FB7B6818460837BD4680BD80B582B000AF7860396001219A
S32D0000E600386800F015FB03461A463968786800F01EFB78680837BD4680BD80B582B000AF78607B685B68002BFB
S32D0000E62807D07B6818687B685B680122194600F01EFB7B6818460837BD4680BD80B582B000AF78607B685B6805
S32D0000E650184600F01FFB034618460837BD4680BD80B582B000AF786039603968786800F01BFB7B681846083780
S32D0000E678BD4680BD80B582B000AF78607868FFF7D3FB7B6818460837BD4680BD80B582B000AF78607868FFF71E
S32D0000E6A0EDFF7B6818460837BD4680BDB0B586B000AFF860B9607A603B60FB68184600F0FFFA164AFB681A6089
S32D0000E6C8FB6803F10C0407F11403B9681846FFF7C3FF07F114031946204600F003FB07F114031846FFF7A0FBB7
S32D0000E6F0F86800F023F804467868FFF7A5FB05463868FFF7ABFB03462A462146B86800F0FBFAFB681846183715
S32D0000E718BD46B0BDE467020080B483B000AF786039607B6800225A607B6818460C37BD4680BC704780B582B0EF
S32D0000E74000AF78607B680C33184600F0F5FA034618460837BD4680BD80B582B000AF78603960786800F0F4FA5A
S32D0000E7687B6818460837BD4680BD80B582B000AF7860786800F0F2FA7B6818460837BD4680BD80B582B000AF43
S32D0000E790786039600121386800F0EEFA03461A463968786800F0F7FA78680837BD4680BD80B582B000AF7860F8
S32D0000E7B87B685B68002B07D07B6818687B685B680122194600F0F7FA7B6818460837BD4680BD80B582B000AF49
S32D0000E7E078607B685B68184600F0F8FA034618460837BD4680BD80B582B000AF786039603968786800F0F4FA41
S32D0000E8087B6818460837BD4680BD80B582B000AF78607868FFF74DFB7B6818460837BD4680BD80B582B000AF40
S32D0000E83078607868FFF7EDFF7B6818460837BD4680BD000090B587B000AFF860B9607A60FB68184600F034FA0B
S32D0000E858144AFB681A60FB6803F10C0407F11403B9681846FFF7C3FF07F114031946204600F0C5FA07F1140318
S32D0000E8801846FFF71AFBF86800F020F804467868FFF71FFB03461A462146B86800F0C1FAFB6818461C37BD466D
S32D0000E8A890BD00BFC867020080B483B000AF786039607B6800225A607B6818460C37BD4680BC704780B582B0DE
S32D0000E8D000AF78607B680C33184600F0B5FA034618460837BD4680BD80B582B000AF78603960786800F0B4FA49
S32D0000E8F87B6818460837BD4680BD80B582B000AF7860786800F0B2FA7B6818460837BD4680BD80B582B000AFF2
S32D0000E920786039600121386800F0AEFA03461A463968786800F0B7FA78680837BD4680BD80B582B000AF7860E6
S32D0000E9487B685B68002B07D07B6818687B685B680122194600F0B7FA7B6818460837BD4680BD80B582B000AFF7
S32D0000E97078607B685B68184600F0B8FA034618460837BD4680BD80B582B000AF786039603968786800F0B4FA2F
S32D0000E9987B6818460837BD4680BD80B582B000AF78607868FFF7BBFA7B6818460837BD4680BD80B582B000AF42
S32D0000E9C078607868FFF7EDFF7B6818460837BD4680BD000090B587B000AFF860B9607A60FB68184600F06CF943
S32D0000E9E8144AFB681A60FB6803F10C0407F11403B9681846FFF7C3FF07F114031946204600F085FA07F11403C7
S32D0000EA101846FFF788FAF86800F020F804467868FFF757FA03461A462146B86800F081FAFB6818461C37BD4677
S32D0000EA3890BD00BFAC67020080B483B000AF786039607B6800225A607B6818460C37BD4680BC704780B582B068
S32D0000EA6000AF78607B680C33184600F075FA034618460837BD4680BD80B582B000AF78603960786800F074FA37
S32D0000EA887B6818460837BD4680BD80B582B000AF7860786800F072FA7B6818460837BD4680BD80B582B000AFA0
S32D0000EAB0786039600121386800F06EFA03461A463968786800F077FA78680837BD4680BD80B582B000AF7860D5
S32D0000EAD87B685B68002B07D07B6818687B685B680122194600F077FA7B6818460837BD4680BD80B582B000AFA6
S32D0000EB0078607B685B68184600F078FA034618460837BD4680BD80B582B000AF786039603968786800F074FA1D
S32D0000EB287B6818460837BD4680BD80B582B000AF78607868FFF71FFA7B6818460837BD4680BD80B582B000AF4C
S32D0000EB5078607868FFF7EDFF7B6818460837BD4680BD000090B587B000AFF860B9607A60FB68184600F0A4F87A
S32D0000EB78144AFB681A60FB6803F10C0407F11403B9681846FFF7C3FF07F114031946204600F045FA07F1140375
S32D0000EBA01846FFF7ECF9F86800F020F804467868FFF7F1F903461A462146B86800F041FAFB6818461C37BD462A
S32D0000EBC890BD00BF9067020080B483B000AF786039607B6800225A607B6818460C37BD4680BC704780B582B0F3
S32D0000EBF000AF78607B680C33184600F035FA034618460837BD4680BD80B483B000AF78607B6818460C37BD4636
S32D0000EC1880BC704780B483B000AF78607B6818460C37BD4680BC704780B582B000AF7860396000223968786849
S32D0000EC4000F01EFA034618460837BD4680BD80B584B000AFF860B9607A60B86800F031FA0246FB681A60FB6852
S32D0000EC687A685A60FB6818461037BD4680BD80B584B000AFF860B9607A607A68B968F86800F025FA00BF1037BF
S32D0000EC90BD4680BD80B483B000AF78607B6818460C37BD4680BC704780B483B000AF786039607B6818460C37A3
S32D0000ECB8BD4680BC7047000080B483B000AF7860074A7B681A607B6801225A607B6801229A607B6818460C3758
S32D0000ECE0BD4680BC704700BF0068020080B582B000AF786039603968786800F0FFF97B6818460837BD4680BD37
S32D0000ED0890B585B000AFF860B9607A603B607868FFF796F804463868FFF79CF803462246B968F86800F0F4F9E7
S32D0000ED3000BF1437BD4690BD80B582B000AF7860786800F00FFA034618460837BD4680BD80B483B000AF786080
S32D0000ED587B6818460C37BD4680BC704780B483B000AF78607B6818460C37BD4680BC704780B582B000AF7860BD
S32D0000ED80396000223968786800F0F6F9034618460837BD4680BD80B584B000AFF860B9607A60B86800F006FAB1
S32D0000EDA80246FB681A60FB687A685A60FB6818461037BD4680BD80B584B000AFF860B9607A607A68B968F8680B
S32D0000EDD000F0FAF900BF1037BD4680BD80B483B000AF78607B6818460C37BD4680BC704780B483B000AF786096
S32D0000EDF839607B6818460C37BD4680BC704780B582B000AF786039603968786800F0E8F97B6818460837BD467E
S32D0000EE2080BD80B584B000AFF860B9607A607868FFF74FF803461A46B968F86800F0E2F900BF1037BD4680BDCC
S32D0000EE4880B582B000AF7860786800F0F0F9034618460837BD4680BD80B483B000AF78607B6818460C37BD465A
S32D0000EE7080BC704780B483B000AF78607B6818460C37BD4680BC704780B582B000AF78603960002239687868EF
S32D0000EE9800F0D7F9034618460837BD4680BD80B584B000AFF860B9607A60B86800F0E7F90246FB681A60FB688B
S32D0000EEC07A685A60FB6818461037BD4680BD80B584B000AFF860B9607A607A68B968F86800F0DBF900BF1037B0
S32D0000EEE8BD4680BD80B483B000AF78607B6818460C37BD4680BC704780B483B000AF786039607B6818460C3749
S32D0000EF10BD4680BC704780B582B000AF786039603968786800F0C9F97B6818460837BD4680BD80B584B000AF4B
S32D0000EF38F860B9607A607868FEF7C7FF03461A46B968F86800F0C3F900BF1037BD4680BD80B582B000AF7860BB
S32D0000EF60786800F0D1F9034618460837BD4680BD80B483B000AF78607B6818460C37BD4680BC704780B483B0F4
S32D0000EF8800AF78607B6818460C37BD4680BC704780B582B000AF7860396000223968786800F0B8F903461846E8
S32D0000EFB00837BD4680BD80B584B000AFF860B9607A60B86800F0CBF90246FB681A60FB687A685A60FB68184698
S32D0000EFD81037BD4680BD80B584B000AFF860B9607A607A68B968F86800F0BFF900BF1037BD4680BD80B483B069
S32D0000F00000AF78607B6818460C37BD4680BC704780B483B000AF786039607B6818460C37BD4680BC704780B5AB
S32D0000F02882B000AF786039603968786800F0B0F97B6818460837BD4680BD80B584B000AFF860B9607A6078684B
S32D0000F050FEF7A1FF03461A46B968F86800F0AAF900BF1037BD4680BD80B582B000AF7860786800F0B8F9034642
S32D0000F07818460837BD4680BD80B584B000AFF860B9607A60F86800F0B5F90246BB6893428CBF01230023DBB2CD
S32D0000F0A0002B01D007F056FEBA6813469B0013449B00184607F07EFD034618461037BD4680BD80B483B000AFDF
S32D0000F0C878607B6818460C37BD4680BC704780B584B000AFF860B9607A607A6813469B0013449B001946B8681E
S32D0000F0F007F05EFD00BF1037BD4680BD80B582B000AF7860396039687868FFF7A9FA7B6818460837BD4680BDF9
S32D0000F118B0B584B000AFF860B9607A603B607868FEF78EFE03461C783868FEF793FE0346D3E90023104619465A
S32D0000F1400FF0F4F90546BB6819460820FDF798F903462A462146184600F0B2FF00BF1037BD46B0BD80B483B03F
S32D0000F16800AF78607B6818460C37BD4680BC704780B584B000AFF860B9607A60F86800F045F90246BB68934247
S32D0000F1908CBF01230023DBB2002B01D007F0DAFDBB681B01184607F005FD034618461037BD4680BD80B483B03D
S32D0000F1B800AF78607B6818460C37BD4680BC704780B584B000AFF860B9607A607B681B011946B86807F0E8FC6C
S32D0000F1E000BF1037BD4680BD80B582B000AF7860396039687868FFF7FEFA7B6818460837BD4680BD90B585B08B
S32D0000F20800AFF860B9607A607868FEF75EFE03461C78BB6819460120FDF72EF903462146184603F09FF900BFBA
S32D0000F2301437BD4690BD80B483B000AF78607B6818460C37BD4680BC704780B584B000AFF860B9607A60F868EA
S32D0000F25800F0E7F80246BB6893428CBF01230023DBB2002B01D007F071FDBB681B01184607F09CFC0346184626
S32D0000F2801037BD4680BD80B483B000AF78607B6818460C37BD4680BC704780B584B000AFF860B9607A607B682B
S32D0000F2A81B011946B86807F07FFC00BF1037BD4680BD80B582B000AF7860396039687868FFF75DFB7B6818464E
S32D0000F2D00837BD4680BD90B585B000AFF860B9607A607868FEF7F5FD03461C78BB6819460120FDF7C5F80346DC
S32D0000F2F82146184602F064FE00BF1437BD4690BD80B483B000AF78607B6818460C37BD4680BC704780B584B0A4
S32D0000F32000AFF860B9607A60F86800F089F80246BB6893428CBF01230023DBB2002B01D007F008FDBA68134622
S32D0000F3485B001344DB00184607F030FC034618461037BD4680BD80B483B000AF78607B6818460C37BD4680BCAA
S32D0000F370704780B584B000AFF860B9607A607A6813465B001344DB001946B86807F010FC00BF1037BD4680BDC5
S32D0000F39880B582B000AF7860396039687868FFF7B6FB7B6818460837BD4680BD90B585B000AFF860B9607A6064
S32D0000F3C07868FEF7E8FD03461C78BB6819460C20FDF756F803462146184603F0BBFB00BF1437BD4690BD80B453
S32D0000F3E883B000AF78607B6818460C37BD4680BC7047000080B483B000AF7860024B18460C37BD4680BC7047F1
S32D0000F4106666660680B483B000AF78606FF0784318460C37BD4680BC704780B483B000AF78606FF07843184691
S32D0000F4380C37BD4680BC704780B483B000AF7860024B18460C37BD4680BC70475555550580B582B000AF7860A9
S32D0000F460084A7B681A607B680C331846FFF76DFB7B681846FEF73CFC7B6818460837BD4680BD00BF906702000B
S32D0000F48880B582B000AF78607868FFF7E1FF1821786807F089FB7B6818460837BD4680BD90B583B000AF78605F
S32D0000F4B07B680C33184600F0FFF904467868FFF795FB03461946204600F002FA00BF0C37BD4690BD80B586B05F
S32D0000F4D800AF78607B680C33184600F0E9F9024607F1140311461846FFF7C2FA07F1140107F10C037A6818461B
S32D0000F500FFF759FD7868FFF7A7FF07F10C031846FFF7DEFA07F114031846FFF7BAFA00BF1837BD4680BD00007D
S32D0000F52880B584B000AF786039607868FFF75AFBF860FCF7EBFF02463B68934206D00949386807F0EDFB03461C
S32D0000F550002B01D0012300E00023002B01D0FB6800E0002318461037BD4680BDC469020080B582B000AF786006
S32D0000F578084A7B681A607B680C331846FFF719FA7B681846FEF7B0FB7B6818460837BD4680BD00BFAC670200B8
S32D0000F5A080B582B000AF78607868FFF7E1FF1021786807F0FDFA7B6818460837BD4680BD90B583B000AF7860DB
S32D0000F5C87B680C33184600F08CF904467868FFF741FA03461946204600F08FF900BF0C37BD4690BD80B586B082
S32D0000F5F000AF78607B680C33184600F076F9024607F1140311461846FFF76EF907F1140107F10C037A681846CA
S32D0000F618FFF745FC7868FFF7A7FF07F10C031846FFF78AF907F114031846FFF766F900BF1837BD4680BD000023
S32D0000F64080B584B000AF786039607868FFF706FAF860FCF75FFF02463B68934206D00949386807F061FB034670
S32D0000F668002B01D0012300E00023002B01D0FB6800E0002318461037BD4680BDC469020080B582B000AF7860ED
S32D0000F690084A7B681A607B680C331846FFF7C5F87B681846FEF724FB7B6818460837BD4680BD00BFC867020065
S32D0000F6B880B582B000AF78607868FFF7E1FF1021786807F071FA7B6818460837BD4680BD90B583B000AF78604E
S32D0000F6E07B680C33184600F019F904467868FFF7EDF803461946204600F01CF900BF0C37BD4690BD80B586B0A5
S32D0000F70800AF78607B680C33184600F003F9024607F1140311461846FFF71AF807F1140107F10C037A68184678
S32D0000F730FFF731FB7868FFF7A7FF07F10C031846FFF736F807F114031846FFF712F800BF1837BD4680BD0000C9
S32D0000F75880B584B000AF786039607868FFF7B2F8F860FCF7D3FE02463B68934206D00949386807F0D5FA0346C7
S32D0000F780002B01D0012300E00023002B01D0FB6800E0002318461037BD4680BDC469020080B582B000AF7860D4
S32D0000F7A8084A7B681A607B680C331846FEF76EFF7B681846FEF798FA7B6818460837BD4680BD00BFE46702000E
S32D0000F7D080B582B000AF78607868FFF7E1FF1421786807F0E5F97B6818460837BD4680BD90B583B000AF7860BE
S32D0000F7F87B680C33184600F0A6F804467868FEF799FF03461946204600F0A9F800BF0C37BD4690BD80B586B0C2
S32D0000F82000AF78607B680C33184600F090F8024607F1140311461846FEF7C3FE07F1140107F10C037A68184625
S32D0000F848FFF701FA7868FFF7A7FF07F10C031846FEF7DFFE07F114031846FEF7BBFE00BF1837BD4680BD000085
S32D0000F87080B584B000AF786039607868FEF75EFFF860FCF747FE02463B68934206D00949386807F049FA034614
S32D0000F898002B01D0012300E00023002B01D0FB6800E0002318461037BD4680BDC469020080B582B000AF7860BB
S32D0000F8C0786800F05DF8034618460837BD4680BD80B582B000AF786039603968786800F059F800BF0837BD4685
S32D0000F8E880BD80B582B000AF7860786800F058F8034618460837BD4680BD80B582B000AF786039603968786879
S32D0000F91000F054F800BF0837BD4680BD80B582B000AF7860786800F053F8034618460837BD4680BD80B582B0B9
S32D0000F93800AF786039603968786800F04FF800BF0837BD4680BD80B582B000AF7860786800F04EF803461846E0
S32D0000F9600837BD4680BD80B582B000AF786039603968786800F04AF800BF0837BD4680BD80B483B000AF786094
S32D0000F9887B6818460C37BD4680BC704780B483B000AF7860396000BF0C37BD4680BC704780B483B000AF78606A
S32D0000F9B07B6818460C37BD4680BC704780B483B000AF7860396000BF0C37BD4680BC704780B483B000AF786042
S32D0000F9D87B6818460C37BD4680BC704780B483B000AF7860396000BF0C37BD4680BC704780B483B000AF78601A
S32D0000FA007B6818460C37BD4680BC704780B483B000AF7860396000BF0C37BD4680BC704780B500AF0F4BD3F8D6
S32D0000FA28A03003F48053002B14BF01230023DBB2002B10D0094BD3F8A030084A23F48053C2F8A030064806F040
S32D0000FA50BFFF064B1B68054A23F40053136000BF80BD00BF00C00440541A0020C0F00F4080B400AF124B4FF4FB
S32D0000FA7880725A63114B5B69104A43F4005353610E4B1B680D4A43F4005313600A4B0C4A1A630C4BD3F88831C6
S32D0000FAA00A4A43F08063C2F88831084B9B68074A43F08063936000BFBD4680BC704700BF00C00440C0F00F4034
S32D0000FAC803010A0000E100E080B400AF334B00225A70324B98221A70304B9B79DBB203F01003002B14BF0123EF
S32D0000FAF00023DBB2002B00D0F2E72A4B9B79DBB29B08DBB203F00303022B14BF01230023DBB2002B00D0F0E77F
S32D0000FB18224B18221A71214B00225A71204B03F580531A461F4B53641C4B54225A711B4B9B79DBB203F02003B8
S32D0000FB40002B0CBF01230023DBB2002B00D0F2E7144B9B79DBB203F04003002B0CBF01230023DBB2002B00D0FE
S32D0000FB68F2E70E4B1B78DBB20C4A03F03F03DBB213700A4B9B79DBB29B08DBB203F00303032B14BF012300231B
S32D0000FB90DBB2002B00D0F0E700231846BD4680BC704700BF00400640007004400000130180B500AF314B03F50C
S32D0000FBB880539B6B2F4A43F4785302F580529363FFF752FFFFF780FF2B4B58221A602A4B1B684FF47A7202FBC2
S32D0000FBE003F3284A1360274B1B681A46234B03F580535B6C1B0E03F00F030133B2FBF3F31A46214B1A601D4B24
S32D0000FC0803F58053DB6B1B4A43F0225302F58052D363184B03F580531B6B164A43F0006302F580521363174B66
S32D0000FC304FF480721A61642002F05AF8134B5B69124A23F010035361104B00221A600F4B10225A610E4803F04F
S32D0000FC58C5FE02F081FD02F0DFFD0C4802F0A6F80B4806F005FF4FF4FA6002F051F900BF80BD00BF0070044004
S32D0000FC8018190020141900201C19002000D00340CC19002010190020C41A002080B500AFFCF751FB00BF80BDE5
S32D0000FCA880B500AFFCF74BFB00BF80BD80B500AFFCF745FB00BF80BD80B500AFFCF73FFB00BF80BD80B500AF11
S32D0000FCD0FCF739FB00BF80BD80B500AFFCF733FB00BF80BD80B500AFFCF72DFB00BF80BD80B500AFFCF727FBEE
S32D0000FCF800BF80BD80B500AFFCF721FB00BF80BD80B500AFFCF71BFB00BF80BD80B500AFFCF715FB00BF80BD27
S32D0000FD2080B500AFFCF70FFB00BF80BD80B500AFFCF709FB00BF80BD80B500AFFCF703FB00BF80BD80B500AF4C
S32D0000FD48FCF7FDFA00BF80BD80B500AFFCF7F7FA00BF80BD80B500AFFCF7F1FA00BF80BD80B500AFFCF7EBFA69
S32D0000FD7000BF80BD80B500AFFCF7E5FA00BF80BD80B500AFFCF7DFFA00BF80BD80B500AFFCF7D9FA00BF80BD65
S32D0000FD9880B500AFFCF7D3FA00BF80BD80B500AFFCF7CDFA00BF80BD80B500AFFCF7C7FA00BF80BD80B500AF8B
S32D0000FDC0FCF7C1FA00BF80BD80B500AFFCF7BBFA00BF80BD80B500AFFCF7B5FA00BF80BD80B500AFFCF7AFFAE1
S32D0000FDE800BF80BD80B500AFFCF7A9FA00BF80BD80B500AFFCF7A3FA00BF80BD80B500AFFCF79DFA00BF80BDA1
S32D0000FE1080B500AFFCF797FA00BF80BD80B500AFFCF791FA00BF80BD80B500AFFCF78BFA00BF80BD80B500AFC6
S32D0000FE38FCF785FA00BF80BD80B500AFFCF77FFA00BF80BD80B500AFFCF779FA00BF80BD80B500AFFCF773FA58
S32D0000FE6000BF80BD80B500AFFCF76DFA00BF80BD80B500AFFCF767FA00BF80BD80B500AFFCF761FA00BF80BDDC
S32D0000FE8880B500AFFCF75BFA00BF80BD80B500AFFCF755FA00BF80BD80B500AFFCF74FFA00BF80BD80B500AF02
S32D0000FEB0FCF749FA00BF80BD80B500AFFCF743FA00BF80BD80B500AFFCF73DFA00BF80BD80B500AFFCF737FAD0
S32D0000FED800BF80BD80B500AFFCF731FA00BF80BD80B500AFFCF72BFA00BF80BD80B500AFFCF725FA00BF80BD18
S32D0000FF0080B500AFFCF71FFA00BF80BD80B500AFFCF719FA00BF80BD80B500AFFCF713FA00BF80BD80B500AF3D
S32D0000FF28FCF70DFA00BF80BD80B500AFFCF707FA00BF80BD80B500AFFCF701FA00BF80BD80B500AFFCF7FBF948
S32D0000FF5000BF80BD80B500AFFCF7F5F900BF80BD80B500AFFCF7EFF900BF80BD80B500AFFCF7E9F900BF80BD56
S32D0000FF7880B500AFFCF7E3F900BF80BD80B500AFFCF7DDF900BF80BD80B500AFFCF7D7F900BF80BD80B500AF7C
S32D0000FFA0FCF7D1F900BF80BD80B500AFFCF7CBF900BF80BD80B500AFFCF7C5F900BF80BD80B500AFFCF7BFF9C3
S32D0000FFC800BF80BD80B500AFFCF7B9F900BF80BD80B500AFFCF7B3F900BF80BD80B500AFFCF7ADF900BF80BD92
S32D0000FFF080B500AFFCF7A7F900BF80BD80B500AFFCF7A1F900BF80BD80B500AFFCF79BF900BF80BD80B500AFB8
S32D00010018FCF795F900BF80BD80B500AFFCF78FF900BF80BD80B500AFFCF789F900BF80BD80B500AFFCF783F939
S32D0001004000BF80BD80B500AFFCF77DF900BF80BD80B500AFFCF777F900BF80BD80B500AFFCF771F900BF80BDCC
S32D0001006880B500AFFCF76BF900BF80BD80B500AFFCF765F900BF80BD80B500AFFCF75FF900BF80BD80B500AFF2
S32D00010090FCF759F900BF80BD80B500AFFCF753F900BF80BD80B500AFFCF74DF900BF80BD80B500AFFCF747F9B1
S32D000100B800BF80BD0000000080B584B000AFF8600B467A60FB72FB68FA7A1A71FB6800225A71174978680EF025
S32D000100E03FFD0346002B02D0134B7B600AE04FF07E5178680EF020FD0346002B02D04FF07E537B6078680DF035
S32D00010108D7FE09A3D3E900230DF02AFF02460B46104619460EF006FA0246FB681A60FB6818461037BD4680BD89
S32D00010130ABAAAAAAAAAA20400000404180B582B000AF78607B685B79002B09D07B6800225A717B6819791E2393
S32D000101580022034801F064FE00BF0837BD4680BD1019002080B584B000AF786039603B687F2B02DD7F23FB736C
S32D0001018008E03B6813F1800F02DA8023FB7301E03B68FB737B685B79FA7B9A4209D07B68FA7B5A717B681979DA
S32D000101A8FA7B1E23034801F03BFE00BF1037BD4680BD00BF10190020B0B584B000AF78603960374938680EF0D8
S32D000101D0A9FC0346002B02D0334B3B6008E0334938680EF0BDFC0346002B01D02F4B3B6038680DF061FE0446A1
S32D000101F80D467B681B6818460DF05AFE4FF00002294B0DF0D7FF02460B46204629460DF0A7FE02460B461046E5
S32D0001022019460EF083F903463B604FF0000138680EF08CFC0346002B10D038680DF03CFE17A3D3E900230DF0CB
S32D000102488FFE02460B46104619460EF023F90346FB6018E038680DF02BFE4FF00002134B0DF07EFE02460B467F
S32D00010270104619464FF000020D4B0DF09FFF02460B46104619460EF009F90346FB60F9687868FFF76BFF00BF24
S32D000102981037BD46B0BD00BF52B81E85EB51F43F0000C8C20000C842000059400000604080B483B000AF034679
S32D000102C00A46FB711346BB71BB79002B03D1134B00221A7002E0114B01221A703823FB710E4B1A78FB7913432A
S32D000102E8FB710D4B9B78DBB20B4A43F01003DBB29370094B9B78DBB2074A43F02003DBB29370054AFB791371E6
S32D0001031000BF0C37BD4680BC704700BFEC1600200060064080B483B000AF01237B607B68312B04DC00BF7B6869
S32D0001033801337B60F7E700BF0C37BD4680BC704780B582B000AF03460A46FB711346BB71134B1B7800211846A1
S32D00010360FFF7AAFF00F024F8104AFB79137100F01FF80E4ABB79137100F01AF80B4B9B78DBB20A4A23F02003D8
S32D00010388DBB29370074B9B78DBB2064A23F01003DBB29370FFF7C2FF00BF0837BD4680BDED1600200060064000
S32D000103B080B483B000AF174B1B78002B24D100237B60154BDB78DBB203F00203002B0CBF01230023DBB2002BC8
S32D000103D80DD07B6842F21072934203DD0B4B01221A7004E07B6801337B6000BFE5E7084BDB78DBB2064A43F0B1
S32D000104000203DBB2D37000E000BF0C37BD4680BC704700BFEE1600200060064080B582B000AF0346FB71FB7958
S32D00010428184600F05FF800BF0837BD4680BD80B582B000AF03460A46FB711346BB7100F035F8FB795B00DBB2A9
S32D000104501846FFF7E3FFBB791846FFF7DFFF00F037F800BF0837BD4680BD80B500AFFF2000F03CF803461846B6
S32D0001047880BD80B584B000AF0346FB7100F016F8FB795B005BB243F001035BB2DBB21846FFF7C0FFFFF7E5FFB3
S32D000104A00346FB7300F014F8FB7B18461037BD4680BD000080B400AF044B9B68034A43F48013936000BFBD461E
S32D000104C880BC704740F00F4080B400AF044B5B68034A43F48013536000BFBD4680BC704740F00F4080B485B037
S32D000104F000AF0346FB710023BB73164BDB6A03F00043012B0CBF01230023DBB2002B03D0FB7B0133FB73F0E794
S32D000105180E4BDB6A0D4A43F00043D3620B4AFB7953630A4BDB6A03F40033002B0CBF01230023DBB2002B00D00C
S32D00010540F3E7044B9B6BBB73BB7B18461437BD4680BC704700C00A4080B582B000AF204B03F580531B6B1E4A16
S32D0001056843F4805302F5805213631C4B4FF480721A651B4B5B691A4A43F480135361FFF7A3FF164B4FF4007246
S32D000105905A65144B4FF400729A65124B4FF40072DA65124B124A1A60104B124ADA6000237B607B68092B06DCFE
S32D000105B8FF20FFF72FFF7B6801337B60F5E704A1D1E9000101F0BAFC00BF0837BD4680BD9A9999999999B93F2F
S32D000105E00070044000A0044040F00F4000C00A40000C00800500003E90B486B000AFF860B9607A60FB68534A88
S32D0001060893420AD1524B03F580535B6B504A43F4806302F58052536345E0FB684D4A93420AD14B4B03F5805382
S32D000106305B6B494A43F4006302F58052536336E0FB68474A93420AD1434B03F580535B6B414A43F4805302F5C4
S32D000106588052536327E0FB68404A93420AD13C4B03F580535B6B3A4A43F4005302F58052536318E0FB683A4AC3
S32D0001068093420AD1344B03F580539B6A324A43F4806302F58052936209E02F4B03F580539B6A2D4A43F40063B4
S32D000106A802F580529362FB68DB78DBB223F00C03DAB2FB68DA70FB6800229A70BB684FF47A7203FB02F27B6811
S32D000106D01B0192FBF3F39CB2FB681B78DBB223F01F03FB75230A9BB2DBB203F01F03DAB2FB7D1343DAB2FB6891
S32D000106F81A70E2B2FB685A70BB684FF4FA4203FB02F27B681B0192FBF3F39AB263019BB2D31A9CB2FB689B7AD2
S32D00010720DBB223F01F03FB75E3B203F01F03DAB2FB7D1343DAB2FB689A72FB68DB78DBB243F00C03DAB2FB6805
S32D00010748DA7000BF1837BD4690BC704700A006400070044000B0064000C0064000D0064000A00E4080B483B023
S32D0001077000AF78607B681B79DBB203F02003002B0CBF01230023DBB2002B00D0F2E77B68DB79DBB218460C37B6
S32D00010798BD4680BC704780B483B000AF78600B46FB707B681B79DBB25BB2DB43DBB2DB09DBB2002B00D0F4E78F
S32D000107C07B68FA78DA7100BF0C37BD4680BC704780B487B000AFF860B9607A60FB687B617B685A1E7A60002B6E
S32D000107E814BF01230023DBB2002B06D07B695A1C7A61BA68D2B21A70EEE700BF1C37BD4680BC704780B584B08F
S32D0001081000AF786039607B681B6BFB60FA683B689A4252D07B681B79002B35D07B6858787B6803F13401012348
S32D00010838FA6801F0F7F80346002B14BF01230023DBB2002B01D001233CE07B6800221A717B685A6A7B681B6A59
S32D000108601344FA689A4217D27B68DB78FB72FB7A012B11D97B681B6AFA681344FB607B6858787B6803F1340182
S32D000108880123FA6801F0CEF8FB7A013BFB72EAE73B68002B15D07B6858787B6803F1340101233A6800F0DAFF14
S32D000108B00346002B14BF01230023DBB2002B01D0012303E07B683A681A63002318461037BD4680BD80B584B088
S32D000108D800AF786000217868FFF794FF0346FB73FB7B002B40F093807B681B78032B7DD17B685B79002B79D028
S32D000109007B6800221A637B6834334FF4007200211846FFF75DFF7B68552283F832227B68AA2283F833227B68EB
S32D00010928522283F834207B68522283F835207B68612283F836207B68412283F837207B68722283F818227B68D8
S32D00010950722283F819227B68412283F81A227B68612283F81B227B681B69DAB27B6883F81C227B681B699BB2D0
S32D000109781B0A9BB2DAB27B6883F81D227B681B691B0CDAB27B6883F81E227B681B691B0EDAB27B6883F81F2242
S32D000109A07B68DB68DAB27B6883F820227B68DB689BB21B0A9BB2DAB27B6883F821227B68DB681B0CDAB27B6808
S32D000109C883F822227B68DB681B0EDAB27B6883F823227B6858787B6803F134017B685A69012301F01FF87B684F
S32D000109F000225A717B685B7800220021184601F0E1F80346002B14BF01230023DBB2002B01D00123FB73FB7BAB
S32D00010A1818461037BD4680BD80B582B000AF78600B467B807B68002B08D07B681B78002B04D07B68DB887A88ED
S32D00010A409A4201D0092311E07B685B78184601F03BF9034603F00103002B14BF01230023DBB2002B01D0032350
S32D00010A6800E0002318460837BD4680BD80B586B000AF78607B681A687B689B8819461046FFF7CAFF0346FB75F5
S32D00010A90FB7D002B40F0AC807B689B7903F02003002B00F0A5807B689B7903F04003002B1BD07B681B68587872
S32D00010AB87B6803F128017B689A69012300F0B2FF0346002B14BF01230023DBB2002B01D001238AE07B689B79C8
S32D00010AE023F04003DAB27B689A717B681A687B68DB6919461046FFF789FE0346FB75FB7D002B75D17B681B6A4F
S32D00010B083B613B690B331A783B690B3342F02002D2B21A707B68DA683B691C33D2B21A707B68DB689BB21B0AAC
S32D00010B309AB23B691D33D2B21A707B68DB681A0C3B691E33D2B21A707B68DB681A0E3B691F33D2B21A707B68C4
S32D00010B581A693B691A33D2B21A707B681B699BB21B0A9AB23B691B33D2B21A707B681B691A0C3B691433D2B2CB
S32D00010B801A707B681B691B0C9BB21B0A9AB23B691533D2B21A700023FB603B691633FA68D2B21A70FB689BB2EB
S32D00010BA81B0A9AB23B691733D2B21A70FB681A0C3B691833D2B21A70FB681A0E3B691933D2B21A707B689B79AB
S32D00010BD023F02003DAB27B689A717B681B6801221A717B681B681846FFF774FE0346FB75FB7D18461837BD4625
S32D00010BF880BD80B584B000AF78607868FFF736FF0346FB73FB7B002B02D17B6800221A60FB7B18461037BD46CE
S32D00010C2080BD000080B588B000AF7860396080233B610F23FB604FF0FF337B610223FB61FB69B3F5807F23D83B
S32D00010C480123BB61BB69102B1AD8FB69BA6902FB03F33A6803FB02F27B68D31ABB60BB68002B09DBBB687A69BB
S32D00010C709A4205D9BB687B61FB693B61BB69FB60BB690133BB61E1E7FB695B00FB61D7E71D4BDB6A1C4A23F0E2
S32D00010C980803D3621A4BDB6A23F47F2323F47F63BB613B695B081B029AB2FB68013B1B01DBB21A43BB691343E6
S32D00010CC0114A43F46023D3620F4B5B6A03F00803002B0CBF01230023DBB2002B03D00A2001F01AF9F0E7084B7E
S32D00010CE8DB6A074A43F00803D362054B1B6B044A43F48013136300BF2037BD4680BD00BF00100B4080B582B099
S32D00010D1000AF786039607B6800221A60414B424ADA62404BDB6A03F08073002B14BF01230023DBB2002B00D03E
S32D00010D38F3E73A4B0022C3F8C020384B4FF481325A60364B28229A62344B4FF001125A643B689B683349184667
S32D00010D60FFF760FF2F4B5B6A03F00303002B14BF01230023DBB2002B00D0F3E72C4B40F243421A602A4B40F2E1
S32D00010D8843425A60284B4FF488629A60264B40F24342DA60244B40F243421A61224B40F243425A61214B03F51D
S32D00010DB080531B6B1F4A43F4003302F580521363184B4FF6FF721A63164B1B4A5A63154BDB6A144A43F00063F7
S32D00010DD8D362124BDB6A03F00063002B14BF01230023DBB2002B00D0F3E70C4B5B6A03F48033002B14BF012330
S32D00010E000023DBB2002B02D07B6801221A60054B1B6B044A43F080031363002318460837BD4680BD00100B40EB
S32D00010E280080000160CC050000D0044000700440B3007F0080B400AF064B5A6A40F207331340002B14BF012316
S32D00010E500023DBB21846BD4680BC704700100B4080B485B000AF7860074B1B6B7A681340FB60FB68002B00D15D
S32D00010E78F6E7FB6818461437BD4680BC704700BF00100B4080B584B000AF78607B681B7803F03F03764A52F8AD
S32D00010EA02330FB60FB68002B05D17B681B78002B01D00123DCE0714B1B6B704A43F0800313636E4B5B6A03F026
S32D00010EC80103002B14BF01230023DBB2002B00D0F3E7684A7B685B689360FB6823F44003FB607B685B789B0597
S32D00010EF003F44003FA681343FB607B685B78022B03D1FB6843F40013FB607B685B78042B16D1FB6803F440332E
S32D00010F18B3F5003F08D1FB6823F44033FB60FB6843F44033FB6007E0FB6823F44033FB60FB6843F40033FB60E3
S32D00010F404E4B5B684D4A9BB253607B68DB68002B2AD0FB6803F44033B3F5403F03D0FB6843F40013FB607B6892
S32D00010F681B7A002B03D0FB6843F01003FB607B68DB68012B03D9FB6843F02003FB607B68DB68B3F1FF3F0BD09E
S32D00010F903A4B5A687B68DB681B04384913434B60FB6843F00203FB60344B00221A60334AFB68D3603248FFF790
S32D00010FB853FF0346012B14BF01230023DBB2002B09D02C4B1B6B2B4A43F4702343F001031363012348E0274BF1
S32D00010FE01B6B03F08003002B14BF01230023DBB2002B07D0214B1B6B204A43F001131363012335E01D4B1B6BD2
S32D0001100803F48033002B14BF01230023DBB2002B08D0184B1B6B174A43F0011313634FF0FF3321E0FB6803F467
S32D000110304033002B15D0114B1A697B681A61FB6803F44033B3F5803F0BD10C4B5A697B685A610A4B9A697B68CE
S32D000110589A61084BDA697B68DA61064B1B6B054A43F001031363002318461037BD4680BD286A020000100B40F0
S32D0001108001000E0080B592B000AF7860396000237B643B68BB63994B7B637B6B002B02D140F601235FE3964BB5
S32D000110A83B633B6B002B02D140F60B2357E33B6B1B68FB62FB6A002B02D140F60B234EE37B6841F20932934295
S32D000110D000F23F837B68B3F5985F08D87B68032B00F01A837B68092B00F0098331E37B68A3F59853013B082BC1
S32D000110F800F22B8301A252F823F000BF2911010015140100711601002B140100691401008F150100D71501002D
S32D0001112019150100331501007649786BFFF7EEFD78647B6C002B40F01083002387F84330002387F82B300023BF
S32D0001114887F82A30002387F82930002387F84230002387F8283000233B7200237B720023FB6000233B74002343
S32D000111707B6107F108031846FFF788FE0346002B14BF01230023DBB2002B02D001237B64E8E240F24C4000F004
S32D00011198BFFE08233B7200237B724FF4D573FB6000233B7400237B6107F108031846FFF769FEF863FB6B002B22
S32D000111C009D1BA69FB689A4202D001237B64C9E2012387F84230012387F8283097F82830002B00F0A5803723B3
S32D000111E83B7200237B720023FB6000233B7400237B6107F108031846FFF744FEF863FB6B002B02D001237B6472
S32D00011210A8E269233B7200237B720023FB6000233B7400237B6107F108031846FFF72EFE0346002B14BF01239F
S32D000112380023DBB2002B02D001237B648EE2BB6903F44013002B6FD00023FB630A2000F05FFEFB6B0133FB639F
S32D0001126037233B7200237B720023FB6000233B7400237B6107F108031846FFF707FE0346002B14BF012300230F
S32D00011288DBB2002B02D001237B6428E069233B7200237B7297F84230002B02D0184BFB6002E04FF44013FB60CA
S32D000112B000233B7400237B6107F108031846FFF7E5FD0346002B14BF01230023DBB2002B02D001237B6406E004
S32D000112D8BB69002B03DBFB6B632B00D8B6E77B6C002B40F03882FB6B632B0BD9002387F8423019E00417002035
S32D00011300081900201C6A020000003040012387F8433097F84230002B0AD0002387F84230BB6903F08043002B50
S32D0001132802D0012387F8423097F82A30002B02D07B6B07221A6097F82930002B02D07B6B08221A6097F82B30E7
S32D00011350002B02D07B6B04221A6097F84330002B09D07B6B02221A6097F84230002B02D07B6B03221A6097F84F
S32D000113782B30002B0DD097F84330002B09D07B6B05221A6097F84230002B02D07B6B06221A60924B00221A6057
S32D000113A0904B00225A608F4B00229A608D4B0022DA608C4B00221A618A4B00225A61FB6A9A68FB6A5B68194629
S32D000113C81046FFF72BFC854B40F243421A60834B40F243425A60814B4FF488629A607F4B40F24342DA607D4BCD
S32D000113F040F243421A617B4B40F243425A617A4B03F580531B6B784A43F4003302F580521363A7E1B86BFFF742
S32D0001141839FDF863FB6B002B00F09F8102237B649BE1BB6B002B02D10C237B6496E16D4BDB6A1B0A5B0003F4D6
S32D00011440FF73FB63694BDB6A1B0903F00F035A1CFB6B02FB03F3FB63FB6A9A68FB6BB2FBF3F2BB6B1A607DE101
S32D00011468BB6B002B02D10C237B6477E1BB6B1B68002B02D10C237B6470E1FFF7DBFC0346002B0CBF0123002372
S32D00011490DBB2002B3CD0534B00221A60514B00225A60504B00229A604E4B0022DA604D4B00221A614B4B00221E
S32D000114B85A61FB6A9A68BB6B1B6819461046FFF7ADFB464B40F243421A60444B40F243425A60424B4FF488626B
S32D000114E09A60404B40F24342DA603E4B40F243421A613C4B40F243425A613B4B03F580531B6B394A43F40033EF
S32D0001150802F58052136329E140F60A237B6425E1BB6B002B02D10C237B641FE1314B5B68C3F30C02BB6B1A604E
S32D0001153018E1BB6B002B02D10C237B6412E1FFF77DFC0346002B0CBF01230023DBB2002B19D0BB6B1B68B3F587
S32D00011558805F02D30C237B6400E1224B5B68214A23F4FF5323F01F0353601E4B5A68BB6B1B68C3F30C031B49D8
S32D0001158013434B60EEE040F60A237B64EAE0BB6B002B02D10C237B64E4E0144B9B6A5B0803F00303FB63FB6BE7
S32D000115A8002B03D1BB6B00221A60D7E0FB6B012B03D1BB6B01221A60D0E0FB6B102B03D1BB6B02221A60C9E0E1
S32D000115D005237B64C6E0BB6B002B09D10C237B64C0E000BF00D004400070044000100B40FFF724FC0346002BFA
S32D000115F80CBF01230023DBB2002B31D0BB6B1B68002B0AD1584B9B6A574A23F006039362554B554A9B6A9362B7
S32D00011620A0E0BB6B1B68012B0CD1514B9B6A504A23F0060393624E4B9B6A4D4A43F0020393628FE0BB6B1B68A3
S32D00011648022B0AD1484B9B6A474A23F006039362454B454A9B6A936280E005237B647DE040F60A237B6479E0B9
S32D00011670BB6B002B02D10C237B6473E03C4BDB6A3B4A43F00063D362394BDB6A03F00063002B14BF0123002346
S32D00011698DBB2002B00D0F3E7334B1B6B03F08003002B14BF01230023DBB2002B08D02E4B1B6B2D4A43F0800346
S32D000116C013637B6B00221A60294B5B6A03F48033002B14BF01230023DBB2002B07D07B6B1B68002B06D17B6BFB
S32D000116E801221A6002E07B6B00221A607B6B1A68BB6B1A6032E0BB6B1C221A60BB6B043304221A60BB6B08337C
S32D000117104FF41E721A6025E00220FFF7A1FB144B1B6B03F4E003002B14BF01230023DBB2002B07D00E4B1B6B32
S32D000117380D4A43F4E003136304237B640A4B1B6B094A43F03203136308E040F609237B6404E000BF02E000BF1C
S32D0001176000E000BF7B6C18464837BD4680BD00BF00100B4080B489B000AF786039607B687B61364B3B613B6990
S32D00011788002B01D100235FE03B691B68022B0BD03B691B68032B07D03B691B68072B03D03B691B68082B0BD116
S32D000117B02B4B5B6A03F00403002B14BF01230023DBB2002B00D0F3E73B68FB61FB69002B3DD0FB69B3F5007F08
S32D000117D828BF4FF40073FB60FB6803339B08BB61BB69002B2AD01C4B1B6B03F4E003002B14BF01230023DBB2B0
S32D00011800002B09D0164B1B6B154A43F4E00343F02003136300231BE0114B5B6A03F40063002B0CBF01230023B3
S32D00011828DBB2002B00D0F3E70B497B691A1D7A610A6A1A60BB69013BBB61D1E7FA69FB68D31AFB61BEE70123EB
S32D0001185018462437BD4680BC704700BF0417002000100B4080B58EB000AFB9607A601A460346FB731346BB73B2
S32D00011878414B7B63FB7B002B02D1BB7B002B01D1042375E03D4B1B78DBB203F00103002B14BF01230023DBB243
S32D000118A0002B01D0032367E0BB68002B01D1002362E07B6B1B7B002B02D17B685B027B60BB7B012B28D1112307
S32D000118C83B7500237B757B68BB6101233B77BB7B3B6207F11403194641F20230FFF7CEFB0346002B0CBF012391
S32D000118F00023DBB2002B38D04FF40071B868FFF739FF0346002B14BF01230023DBB2002B2BD00023BB7328E04A
S32D0001191812233B7500237B757B68BB6101233B77BB7B3B6207F11403194641F20230FFF7A5FB0346002B0CBF58
S32D0001194001230023DBB2002B0FD0BB7B5B021946B868FFF70FFF0346002B14BF01230023DBB2002B01D000234A
S32D00011968BB73BB7B002B01D0012300E0002300BF18463837BD4680BDF01600200000002080B487B000AF7860C5
S32D0001199039607B68FB603B687B617B69002B3DD07B69B3F5007F28BF4FF400733B617A693B69D31A7B613B697E
S32D000119B803339B083B613B69002BEAD0184B1B6B03F4E003002B14BF01230023DBB2002B0AD0134B1B6B124A28
S32D000119E043F4E00343F0100313634FF0FF3316E00D4B5B6A03F48063002B0CBF01230023DBB2002B00D0F3E705
S32D00011A08FB681A1DFA60064A1B6813623B69013B3B61D0E7012318461C37BD4680BC704700100B4080B58EB0A7
S32D00011A3000AFB9607A601A460346FB731346BB735D4B7B63FB7B002B02D1BB7B002B01D10423ADE0594B1B782F
S32D00011A58DBB203F00103002B14BF01230023DBB2002B01D003239FE0524B1B78DBB203F00403002B14BF01238F
S32D00011A800023DBB2002B01D0022391E0BB68002B01D100238CE07B6B1B7B002B02D17B685B027B60BB7B012B4F
S32D00011AA828D118233B7500237B757B68BB6100233B77BB7B3B6207F11403194641F20230FFF7DCFA0346002B5E
S32D00011AD00CBF01230023DBB2002B38D04FF40071B868FFF751FF0346002B14BF01230023DBB2002B2BD0002397
S32D00011AF8BB7328E019233B7500237B757B68BB6100233B77BB7B3B6207F11403194641F20230FFF7B3FA034624
S32D00011B20002B0CBF01230023DBB2002B0FD0BB7B5B021946B868FFF727FF0346002B14BF01230023DBB2002B4E
S32D00011B4801D00023BB730D233B7500237B757B6B1B69BB6100233B7700233B6207F11403194641F20230FFF775
S32D00011B7089FA0346002B14BF01230023DBB2002B01D0012314E07A6A0D4B1340002B01D001230DE07B6A03F41C
S32D00011B98F853B3F5106F00D0D5E7BB7B002B01D0012300E0002300BF18463837BD4680BDF016002000000020B5
S32D00011BC00880D9FF80B58CB000AF03463A60FB710B46BB713A4BBB62FB79002B01D0042369E0012387F82F3026
S32D00011BE8364B1B78DBB203F00103002B14BF01230023DBB2002B01D0032358E0BB79032B50D801A252F823F080
S32D00011C10211C0100291C0100391C0100491C0100002387F82F3044E0BB6A9A683B681A60002387F82F303CE0DF
S32D00011C383B684FF400721A80002387F82F3034E009233B7200237B72BB6A1B69FB6000233B7400237B6107F1C0
S32D00011C600803194641F20230FFF70CFA0346002B14BF01230023DBB2002B01D001231AE07B6A03F44003002B0B
S32D00011C880CD13B6A9B0C03F07F035A1C7B6A1B0A03F00303013B9A403B681A60002387F82F3002E0042387F85A
S32D00011CB02F3097F82F3018463037BD4680BD00BFF01600200000002080B483B000AF0346FB71FB79002B01D073
S32D00011CD8012302E0034B1B78DBB218460C37BD4680BC70470000002080B483B000AF7860164B03F580539B6B92
S32D00011D00144A43F0010302F580529363124A7B689360114B05225A600F4B1B680E4A43F0010313600C4B1B6838
S32D00011D2803F08003002B0CBF01230023DBB2002B00D0F3E7064B1B68054A23F00103136000BF0C37BD4680BC89
S32D00011D50704700BF007004400000044080B582B000AF786039607B68012B07D13B684FF6FF72934202D103483C
S32D00011D7800F00EF800BF0837BD4680BD1019002080B500AF4FF6FF710120FFF7E3FF80BD80B483B000AF786002
S32D00011DA07B6800221A707B6818460C37BD4680BC7047000080B582B000AF78607B681B7883F00103DBB2002B78
S32D00011DC821D0134B03F580531A464FF400639362104B4FF440721A620E4B4FF440725A620D4B1B68DA0F1344E6
S32D00011DF05B104FF4614219460A48FEF7FDFB642000F08AF87B6801221A70012300E0002318460837BD4680BD4B
S32D00011E180070044000D004401419002000B00E4080B582B000AF7860084611461A460346FB700B46BB7013460C
S32D00011E407B707F210E48FEF7AAFC08210C48FEF7A6FCFB7819460A48FEF7A1FCBB7819460748FEF79CFC7B78CC
S32D00011E6819460548FEF797FCFF210348FEF793FC00BF0837BD4680BD00B00E4080B487B000AFF860B9607A6087
S32D00011E90FB681F4AA2FB03239B09BA6813447B61FB681B4AA2FB031292094FF47A7101FB02F29B1AFB60FB68F5
S32D00011EB8DB03154AA2FB03239B097A6813443B613B69DB0B7A6913447B613B69C3F30E033B610E4B1B687A691C
S32D00011EE09A4209D80B4B1B687A699A4206D1094B5B683A699A4201D9012300E00023002B00D0EAE700BF1C3732
S32D00011F08BD4680BC704700BFD34D621000D0034080B584B000AF7860074B1B68FB60064B5B68BB607B68BA68FC
S32D00011F30F9681846FFF7A6FF00BF1037BD4680BD00D0034080B584B000AFC7E900010E4B1B68FB600C4B5B68B5
S32D00011F58BB604FF000020B4BD7E900010CF000F802460B46104619460CF0BCFA0346BA68F9681846FFF782FF52
S32D00011F8000BF1037BD4680BD00D0034000408F4080B483B000AF0B4B1B684FF47A7202FB03F37B60074B5B68C9
S32D00011FA84FF47A7202FB03F3DB0B7A6813447B607B6818460C37BD4680BC704700D0034080B584B000AF786071
S32D00011FD00B46FB700B23FB73FA7BFB781946786800F094F87B6818461037BD4680BD000080B485B000AF78602F
S32D00011FF87B68103B002B00DA1F335B11FB60FB68022B53D0FB68022B75DCFB68002B03D0FB68012B25D06EE0A7
S32D00012020394BD3F880217B68103B594203F01F0301F01F0158BF4B42012101FA03F332491343C1F88031304B45
S32D000120481A687B68103B594203F01F0301F01F0158BF4B42012101FA03F3294913430B6049E0274BD3F8842103
S32D000120707B68103B594203F01F0301F01F0158BF4B42012101FA03F31F491343C1F884311D4B5A687B68103B17
S32D00012098594203F01F0301F01F0158BF4B42012101FA03F3164913434B6024E0144BD3F888217B68103B5942A1
S32D000120C003F01F0301F01F0158BF4B42012101FA03F30D491343C1F888310B4B9A687B68103B594203F01F03C0
S32D000120E801F01F0158BF4B42012101FA03F3044913438B6000BF00BF1437BD4680BC704700E100E080B584B08A
S32D0001211000AF78600B46FB701346BB707B68FA781A70BB78FB737B681B781A46574B9B5C042B00F2A68001A200
S32D0001213852F823F0512101009D210100E92101008122010035220100FB7B1B0403F470234D497A68127810466B
S32D000121604C4A52F8202043F4897343F0010341F82230494B5A697B681B781946454B53F8213003F01F030121AC
S32D0001218801FA03F3DB43424913404B616720FFF72BFF72E0FB7B1B0403F470233D497A6812781046394A52F862
S32D000121B0202043F4897343F0010341F82230384B5A697B681B781946324B53F8213003F01F03012101FA03F36F
S32D000121D8DB43314913404B616820FFF705FF4CE0FB7B1B0403F470232C497A6812781046264A52F8202043F40C
S32D00012200897343F0010341F82230274B5A697B681B7819461F4B53F8213003F01F03012101FA03F3DB43204932
S32D0001222813404B616920FFF7DFFE26E0FB7B1B0403F470231B497A6812781046134A52F8202043F4897343F094
S32D00012250010341F82230164B5A697B681B7819460C4B53F8213003F01F03012101FA03F3DB430F4913404B6147
S32D000122786B20FFF7B9FE00E000BF00BF1037BD4680BD00BF286B0200009004406C6B020000F00F4000A00440F6
S32D000122A040F00F4000B0044080F00F4000D0044000F10F40B0B48BB000AF224B3C1D1D460FCD0FC495E80F00D7
S32D000122C884E80F0000237B627B6A072B30DC1C4BD3F8A0207B6A9B0028333B4453F8243C012101FA03F31340EC
S32D000122F0002B14BF01230023DBB2002B18D0134A7B6A52F823305A1C10497B6A41F823200D4BD3F8A0207B6A03
S32D000123189B0028333B4453F8243C012101FA03F307491340C1F8A0307B6A01337B62CBE700BF2C37BD46B0BCFE
S32D00012340704700BF706C020000A0044040190020B0B489B000AF224B3C1D1D460FCD0FC495E8030084E80300AA
S32D000123680023FB61FB69052B30DC1C4BD3F8A020FB699B0020333B4453F81C3C012101FA03F31340002B14BF5D
S32D0001239001230023DBB2002B18D0FB690833124A52F823200132104941F823200D4BD3F8A020FB699B00203372
S32D000123B83B4453F81C3C012101FA03F307491340C1F8A030FB690133FB61CBE700BF2437BD46B0BC704700BFF0
S32D000123E0906C020000B0044040190020B0B48DB000AF234B3C461D460FCD0FC40FCD0FC495E8070084E807006B
S32D000124080023FB62FB6A0A2B30DC1C4BD3F8A020FB6A9B0030333B4453F8303C012101FA03F31340002B14BF90
S32D0001243001230023DBB2002B18D0FB6A0E33124A52F823200132104941F823200D4BD3F8A020FB6A9B003033B9
S32D000124583B4453F8303C012101FA03F307491340C1F8A030FB6A0133FB62CBE700BF3437BD46B0BC704700BF29
S32D00012480A86C02000090044040190020B0B487B000AF214B3C461D460FCD0FC42B68236000237B617B69042B58
S32D000124A830DC1C4BD3F8A0207B699B0018333B4453F8183C012101FA03F31340002B14BF01230023DBB2002BBC
S32D000124D018D07B691933124A52F823200132104941F823200D4BD3F8A0207B699B0018333B4453F8183C0121E7
S32D000124F801FA03F307491340C1F8A0307B6901337B61CBE700BF1C37BD46B0BC704700BFD46C020000D00440A5
S32D000125204019002080B483B000AF78607B681B781A46044B53F8223018460C37BD4680BC704700BF4019002094
S32D0001254880B483B000AF78607B681B781946044B002243F8212000BF0C37BD4680BC70474019002080B483B0DC
S32D0001257000AF78600B46FB707B68FA781A707B6818460C37BD4680BC704700000000000080B586B000AF7860AE
S32D000125987B681B781A463E4B53F822303B617B681B781A463B4B9B5CFB733B69DBB203F01F03DAB2384B1A72DA
S32D000125C03B69DBB203F01F03DAB2354B5A72354B1022C3F88820FB7B002B13D13049324800F05AFA304B1B68FF
S32D000125E803F08003802B14BF01230023DBB2002B00D0F3E72A4B1B697B6112E02649294800F046FA274B1B685B
S32D0001261003F08003802B14BF01230023DBB2002B00D0F3E7214B1B697B611E4BD3F888311C4A43F01003C2F8DF
S32D0001263888311A4B9B68194A43F0100393607B699BB218460BF012FC0DA3D3E900230BF087FC02460B46104622
S32D0001266019460BA3D3E900230BF0A8FD02460B46104619460BF05AFF0346BB60BB6818461837BD4680BD00BFEA
S32D00012688A4703D0AD7A30A4000000000E0FFEF40EC6B0200486B02002019002000E100E000B0034000B00B40E0
S32D000126B080B586B000AF78607B681B781A46234B53F822303B617B681B781A46204B9B5CFB733B69DBB203F0C2
S32D000126D81F03DAB21D4B1A723B69DBB203F01F03DAB21A4B5A72FB7B002B13D11749184800F0CEF9164B1B684E
S32D0001270003F08003802B14BF01230023DBB2002B00D0F3E7104B1B697B6112E00D490F4800F0BAF90D4B1B6835
S32D0001272803F08003802B14BF01230023DBB2002B00D0F3E7074B1B697B617B6918461837BD4680BDEC6B020009
S32D00012750486B02003019002000B0034000B00B4098B500AF204B5C221A701F4B10225A701D4B41F234225A80AE
S32D000127781B4B45F278629A80194B10229A71184B0722DA71164B4FF4C022DA60144B1F221A72134B1F225A72D2
S32D000127A01149124800F078F90F49114800F074F90F4800F0D2F80D4800F0CFF80A490C4800F06AF9084909482E
S32D000127C800F066F9094A064B14460FCB84E80F00064B5C221A70054B0422DA7100BF98BD2019002000B00340C6
S32D000127F000B00B403019002080B500AF064B1B680133054A136000F03DF8044B0122C3F80C2100BF80BD00BF6E
S32D00012818C41900200070034080B500AF0C4B01221A600C4800F01AF8094B0322C3F80821094BD3F88831084A2C
S32D0001284043F01003C2F88831054B9B68044A43F01003936000BF80BD00700340A086010000E100E080B483B0D8
S32D0001286800AF7860044A7B68C2F8003100BF0C37BD4680BC704700BF0070034080B584B000AF174B1B68FB60DC
S32D00012890FB68002B24D0FB685B78FB71FB689B68184600F023F80346BB71BB79002B13D0FB685B68012B0FDD31
S32D000128B8FB689B681B69BB60BB68002B08D0BB685B685A1CBB685A60BB681B69BB60F3E7FB68DB68FB60D7E732
S32D000128E000BF1037BD4680BDC019002080B584B000AF78607868FFF7DBFEF8607B689B695B78FB72FB7A002BCC
S32D000129080FD17B68DB68FA689A420ADD7B689B6901225A707B685B685A1C7B685A60012313E0FB7A012B0FD150
S32D000129307B689B68FA689A420ADA7B689B6900225A707B685B685A1C7B685A60012300E0002318461037BD4615
