S01100002E2E2F50726F746575732E73313966
S32D0000C000000000205DC2000011C3000017C300001DC3000023C3000029C3000000000000000000000000000073
S32D0000C028000000002FC3000035C30000000000003BC3000041C30000010401000D04010019040100250401009E
S32D0000C050310401003D0401004904010055040100610401006D0401007904010085040100910401009D0401008A
S32D0000C078A9040100B5040100C1040100CD040100D9040100E5040100F1040100FD0401000905010015050100B0
S32D0000C0A0210501002D0501003905010045050100510501005D0501006905010075050100810501008D050100D0
S32D0000C0C899050100A5050100B1050100BD050100C9050100D5050100E1050100ED050100F905010005060100F7
S32D0000C0F011060100156201001D0601002906010035060100410601004D06010059060100650601007106010022
S32D0000C1187D0601008906010095060100A1060100AD060100B9060100C5060100D1060100DD060100E9060100B5
S32D0000C140F5060100010701000D07010019070100592F010025070100310701003D0701004907010055070100B4
S32D0000C168610701006D0701007907010085070100910701009D070100A9070100B5070100C1070100CD07010073
S32D0000C190D9070100E5070100F10701004D2B0100152A0100B12A010085010100ED2B0100FD070100090801006E
S32D0000C1B815080100D893020000000020D0160000D89302000000FF1F00000000D0160020680400000000FF1FAD
S32D0000C1E00000000080B489B000AFF860B9607A60BB68FB61FB68BB6100237B617A697B689A420BD2BA69131DFB
S32D0000C208BB61FB69191DF96112681A607B6904337B61EFE700BF2437BD4680BC704780B485B000AF786039609E
S32D0000C2307B68FB600023BB60BA683B689A4208D2FB681A1DFA6000221A60BB680433BB60F2E700BF1437BD46FE
S32D0000C25880BC704780B586B000AF72B6234B4CF220521A80214B4DF628121A80204B4FF4E9721A801F4B7B615F
S32D0000C2807B691F4A934214D27B691A1D7A611B683B617B691A1D7A611B68FB607B691A1D7A611B68BB60BA68E9
S32D0000C2A8F9683869FFF79AFFE6E77B69134A93420ED27B691A1D7A611B68FB607B691A1D7A611B68BB60B9688B
S32D0000C2D0F868FFF7A8FFECE70B4B7B600B4A7B681A6014F0D7F962B604F014F801F008FEFEE700BF0E20054093
S32D0000C2F800200540BCC10000D4C10000E4C1000008ED00E000C0000080B400AFFEE780B400AFFEE780B400AFF4
S32D0000C320FEE780B400AFFEE780B400AFFEE780B400AFFEE780B400AFFEE780B400AFFEE780B400AFFEE780B426
S32D0000C34800AFFEE7FFFFFFFFFFFFFFFFFFFFFFFFFFFFFFFFFFFFFFFFFFFFFFFFFFFFFFFFFFFFFFFFFFFFFFFF57
S32D0000C370FFFFFFFFFFFFFFFFFFFFFFFFFFFFFFFFFFFFFFFFFFFFFFFFFFFFFFFFFFFFFFFFFFFFFFFFFFFFFFFFC7
S32D0000C398FFFFFFFFFFFFFFFFFFFFFFFFFFFFFFFFFFFFFFFFFFFFFFFFFFFFFFFFFFFFFFFFFFFFFFFFFFFFFFFF9F
S32D0000C3C0FFFFFFFFFFFFFFFFFFFFFFFFFFFFFFFFFFFFFFFFFFFFFFFFFFFFFFFFFFFFFFFFFFFFFFFFFFFFFFFF77
S32D0000C3E8FFFFFFFFFFFFFFFFFFFFFFFFFFFFFFFFFFFFFFFFFFFFFFFFFFFFFFFFFFFFFFFFFFFFFFFFFEFFFFFF50
S32D0000C44010B5054C237833B9044B13B10448AFF300800123237010BDD0160020000000003892020008B5034B4F
S32D0000C4681BB103490348AFF3008008BD00000000D41600203892020080B483B000AF786039603B6818460C37BB
S32D0000C490BD4680BC704780B483B000AF78607B685B685A1C7B685A6000BF0C37BD4680BC704780B582B000AFD3
S32D0000C4B878607B685B685A1E7B685A607B685B68002B0CBF01230023DBB2002B19D07B681B6808331B6878683B
S32D0000C4E098477B689B685A1E7B689A607B689B68002B0CBF01230023DBB2002B05D07B681B680C331B6878685C
S32D0000C508984700BF0837BD4680BD000080B400AF024B1846BD4680BC704700BF606E020080B582B000AF7860E7
S32D0000C5307B680433184601F06BFE7B6818460837BD4680BD80B582B000AF78607B681846FFF7EAFF7B681846FC
S32D0000C5580837BD4680BD80B582B000AF78607B680433184601F050FE7B6818460837BD4680BD80B582B000AFBB
S32D0000C58078607B681846FFF7EAFF7B6818460837BD4680BD80B582B000AF78607B680433184601F035FE7B6868
S32D0000C5A818460837BD4680BD80B582B000AF78607B681846FFF7EAFF7B6818460837BD4680BD80B582B000AFA4
S32D0000C5D078607B680433184601F01AFE7B6818460837BD4680BD80B582B000AF78607B681846FFF7EAFF7B6833
S32D0000C5F818460837BD4680BD80B582B000AF786039603B681A687B681A607B681A1D3B6804331946104601F095
S32D0000C62030FE7B6818460837BD4680BD80B582B000AF786039607B683A6811461846FFF7DFFF7B6818460837E9
S32D0000C648BD4680BD80B582B000AF786039603B681A687B681A607B681A1D3B6804331946104601F00AFE7B68F6
S32D0000C67018460837BD4680BD80B582B000AF786039607B683A6811461846FFF7DFFF7B6818460837BD4680BD6A
S32D0000C69880B582B000AF786039603B681A687B681A607B681A1D3B6804331946104601F0E4FD7B681846083770
S32D0000C6C0BD4680BD80B582B000AF786039607B683A6811461846FFF7DFFF7B6818460837BD4680BD80B582B050
S32D0000C6E800AF786039603B681A687B681A607B681A1D3B6804331946104601F0BEFD7B6818460837BD4680BD6D
S32D0000C71080B582B000AF786039607B683A6811461846FFF7DFFF7B6818460837BD4680BD80B584B000AFF86036
S32D0000C738B9607A603B60FB681433184601F057FDFB681C33184601F052FDFB682433184601F06CFDFB682C3374
S32D0000C760184601F074FDFB683433184601F06FFDFB683C33184601F077FDFB684433184601F072FDFB6814338F
S32D0000C788B9681846FFF74EFFFB681C3379681846FFF748FFFB68243339681846FFF768FFFB682C33B96918463B
S32D0000C7B0FFF788FFFB683433F9691846FFF782FFFB683C33396A1846FFF7A2FFFB684433796A1846FFF79CFFC7
S32D0000C7D8FB68BA6A1A60FB68FA6A5A60FB683A6B9A60FB687A6BDA60FB68BA6B1A61FB6818461037BD4680BDE2
S32D0000C800B0B586B000AFF860B9607A604FF49F737B6100233B61786912F030FB0346B968184612F07FFB0346EA
S32D0000C828184611F0E3FE04460D46786811F0DEFE0BA3D3E9002311F031FF02460B462046294612F055F8024685
S32D0000C8500B461046194612F0BFF903463B613B6918461837BD46B0BD182D4454FB21194080B586B000AFF86090
S32D0000C878B9607A603C4809F06FFB0346184611F0B5FE02460B464FF00000384912F030F802460B46104619468C
S32D0000C8A012F0E2F903467B61FB681B681946786912F038FB03467B612D4809F051FB0346184611F097FE0246A9
S32D0000C8C80B464FF00000294912F012F802460B461046194612F0C4F903463B61FB689B681946386912F01AFBC5
S32D0000C8F003463B61BB68002B17D1FB681433184601F0E3FC02467B6983F000431946104604F006F8FB681C33EC
S32D0000C918184601F0D6FC03467969184603F0FCFF19E0BB68012B16D1FB681433184601F0C8FC02463B6983F00E
S32D0000C94000431946104603F0EBFFFB681C33184601F0BBFC03463969184603F0E1FF7968F86800F0CFF800BF69
S32D0000C9681837BD4680BD00BF181A00200000274080B586B000AFF8600B467A60FB723A4809F0EAFA034618468A
S32D0000C99011F030FE02460B464FF00000354911F0ABFF02460B461046194612F05DF903467B61FB681B68194639
S32D0000C9B8786912F0B3FA03467B612B4809F0CCFA0346184611F012FE02460B464FF00000264911F08DFF024696
S32D0000C9E00B461046194612F03FF903463B61FB689B681946386912F095FA03463B61FB7A002B14D1FB681433F9
S32D0000CA08184601F05EFC03467969184603F084FFFB681C33184601F054FC03467969184603F07AFF13E0FB68BC
S32D0000CA301433184601F049FC03463969184603F06FFFFB681C33184601F03FFC03463969184603F065FF796896
S32D0000CA58F86800F029F803461946F86800F04EF800BF1837BD4680BD181A00200000274080B582B000AF78600C
S32D0000CA807B681433184601F020FC0346184603F005FF7B681C33184601F017FC0346184603F0FCFE00BF08372F
S32D0000CAA8BD4680BD0000000080B584B000AF78603960386811F09AFD4FF000020E4B11F017FF02460B461046BF
S32D0000CAD0194609A3D3E9002311F0E4FD02460B461046194612F0C0F80346FB60FB6818461037BD4680BD00BFB9
S32D0000CAF8CDCCCCCCCC4C37400080764080B584B000AF786039607B681B691A4639687868FFF772FEF8607B68A8
S32D0000CB203433184601F0F5FB0346184606F0BCF87B683433184601F0ECFB0346184606F0A1F80246FB689342BA
S32D0000CB48CCBF01230023DBB2002B00D0ECE77868FFF78EFF00BF1037BD4680BD80B584B000AFF860B9607A6086
S32D0000CB703B60FB6800221A60FB6801225A60FB68334A9A60FB68334ADA60FB68324A1A61FB68324A5A61FB6872
S32D0000CB984FF07F529A61FB680122DA61FB6800221A62FB682433184601F021FBFB682C33184601F01CFBFB68F2
S32D0000CBC03433184601F036FBFB683C33184601F03EFBFB684433184601F039FBFB684C33184601F041FBFB68D9
S32D0000CBE85433184601F03CFBFB682433B9681846FFF718FDFB682C3379681846FFF712FDFB68343339681846FF
S32D0000CC10FFF732FDFB683C33B9691846FFF752FDFB684433F9691846FFF74CFDFB684C33396A1846FFF76CFD1F
S32D0000CC38FB685433796A1846FFF766FDFB6818461037BD4680BD00BF0000204200001042000020C2000010C2DB
S32D0000CC6080B582B000AF786039603B681A687B681A607B681A1D3B6804331946104601F054FB7B681846083734
S32D0000CC88BD4680BD80B582B000AF786039607B683A6811461846FFF7DFFF7B6818460837BD4680BD80B582B082
S32D0000CCB000AF786039603B681A687B681A607B681A1D3B6804331946104601F02EFB7B6818460837BD4680BD31
S32D0000CCD880B582B000AF786039607B683A6811461846FFF7DFFF7B6818460837BD4680BD80B582B000AF7860EB
S32D0000CD0039603B681A687B681A607B681A1D3B6804331946104601F008FB7B6818460837BD4680BD80B582B026
S32D0000CD2800AF786039607B683A6811461846FFF7DFFF7B6818460837BD4680BD80B582B000AF786039603B68C5
S32D0000CD501A687B681A607B681A1D3B6804331946104601F0E2FA7B6818460837BD4680BD80B582B000AF7860B2
S32D0000CD7839607B683A6811461846FFF7DFFF7B6818460837BD4680BD80B582B000AF78607B6844331846FFF78A
S32D0000CDA022FC7B683C331846FFF71DFC7B6834331846FFF7FDFB7B682C331846FFF7F8FB7B6824331846FFF7DB
S32D0000CDC8D8FB7B681C331846FFF7B8FB7B6814331846FFF7B3FB7B6818460837BD4680BDF0B59BB00AAF7860C4
S32D0000CDF039603B6803F1240207F1080311461846FFF744FF3B6803F12C0207F1100311461846FFF73BFF3B6876
S32D0000CE1803F1340207F1180311461846FFF758FF3B6803F13C0207F1200311461846FFF775FF3B6803F14402C1
S32D0000CE4007F1280311461846FFF76CFF3B6803F14C0207F1300311461846FFF789FF3B6803F1540207F1380328
S32D0000CE6811461846FFF780FF3B689B683A68D26839680969386840693C68A46907F1180C07F1100607F10805B4
S32D0000CE900894079006910592049307F13803039307F13003029307F12803019307F120030093634632462946FE
S32D0000CEB87868FFF739FC07F138031846FFF78FFB07F130031846FFF78AFB07F128031846FFF76AFB07F1200335
S32D0000CEE01846FFF765FB07F118031846FFF745FB07F110031846FFF725FB07F108031846FFF720FB00BF786839
S32D0000CF084437BD46F0BD0000B0B5ADF5787D06AF07F57273A3F57173186007F57273A3F5727319604FF0FF3302
S32D0000CF30C7F8C4334FF00003C7F8BC334FF00003C7F8B833002387F8C333524807F06DFA07F1080303241D4624
S32D0000CF58002C05DB284608F08CFCEC35013CF7E707F108006FF07F4305934FF47F03049307F57273A3F5727302
S32D0000CF801B68039305230293052301930A2300930A230222022108F0B9FE97F8C333002B70D107F56E7207F545
S32D0000CFA86F731946394807F053FB0346002BF0D0D7F8BC13D7F8B82307F10800002308F06DFD0346002B14BF0C
S32D0000CFD001230023DBB2002B06D00023C7F8C433012387F8C333D8E7D7F8BC13D7F8B82307F1080303F1EC0002
S32D0000CFF8002308F053FD0346002B14BF01230023DBB2002B06D00123C7F8C433012387F8C333BEE7D7F8BC13CE
S32D0000D020D7F8B82307F1080303F5EC70002308F039FD0346002B14BF01230023DBB2002B06D00223C7F8C43399
S32D0000D048012387F8C333A4E7D7F8BC13D7F8B82307F1080303F53170002308F01FFD0346002B14BF01230023ED
S32D0000D070DBB2002B91D00323C7F8C433012387F8C3338AE7D7F8C433184607F57277BD46B0BD00BFCC19002056
S32D0000D09880B5E2B000AF07F5C473A3F5C273186007F5C473A3F5BE7207F5C473A3F5C27319681046FFF794FE22
S32D0000D0C007F5C473A3F5C2731B68596807F10C034A4A1846FFF7CCFB07F10C031846FFF757FE07F5C473A3F5CD
S32D0000D0E8987207F5C473A3F5C27319681046FFF777FE07F5C473A3F5C2731B68196807F158033C4A1846FFF79D
S32D0000D110AFFB07F158031846FFF73AFE07F1A40207F5C473A3F5C27319681046FFF75CFE07F5C473A3F5C273A3
S32D0000D1381B681B6A002B14BF01230023D9B207F1A4032D4A1846FFF713FC07F1A4031846FFF71AFE4FF000002E
S32D0000D160284905F09FFA07F1F00207F5C473A3F5C27319681046FFF737FE07F5C473A3F5C2731B68DB69002BC4
S32D0000D18814BF01230023D9B207F1F0031C4A1846FFF7EEFB07F1F0031846FFF7F5FD4FF000004FF0804105F0E1
S32D0000D1B079FA07F59E7207F5C473A3F5C27319681046FFF711FE07F5C473A3F5C2731B681B6A002B14BF0123CC
S32D0000D1D80023D9B207F59E730A4A1846FFF7C8FB07F59E731846FFF7CFFD00BF07F5C477BD4680BD0000A040C0
S32D0000D2000000344300000840000007430000344280B582B000AF7860074807F006F97B684C33184601F069F83C
S32D0000D2280346184606F014F900BF0837BD4680BDCC19002080B5C8B004AF07F58873A3F586731860002387F8E9
S32D0000D2500F3107F10C03184608F00FFB07F10C004FF47F0303934FF47F0302933223019364230093BD23DB2270
S32D0000D278694908F008FB694807F0D3F807F10C03184608F035FB97F80F31002B40F0BE804FF00000624905F094
S32D0000D2A001FA624808F05CFEC7F80801604BC7F80431D7F80411D7F8080111F0E7FE03465C49184611F02EFEE7
S32D0000D2C80346C7F8003100230022D7F80011534807F024F96FF07F41504807F0E8F8642300933223462287211E
S32D0000D2F04C4807F07EFD5049D7F8000111F0C4FF0346002B0DD04FF40041464807F0D3F86323009331234722E2
S32D0000D3188821424807F026FE4FE04549D7F8000111F09AFF0346002B15D04249D7F8000111F0A6FF0346002BA4
S32D0000D3400DD04FF40041374807F0B5F84A230093312360228821334807F008FE31E03749D7F8000111F07CFF67
S32D0000D3680346002B14D03449D7F8000111F088FF0346002B0CD03149284807F098F8312300933123792288212A
S32D0000D390244807F0EBFD14E02949D7F8000111F05FFF0346002B0CD04FF47F011D4807F082F818230093312384
S32D0000D3B892228821194807F0D5FD00230022D7F80011164807F0AAF807F1F80207F1FC031946124807F03CF9D6
S32D0000D3E00346002B3FF453AFD7F8FC10D7F8F82007F10C00002308F055FB0346002B14BF01230023DBB2002BFF
S32D0000D4083FF441AF012387F80F313CE700BF07F58877BD4680BD00BF686E0200CC1900200000D03F181A0020D6
S32D0000D430000038410000C84200009642000048420000C84100FFFF0090B5ADF6FC0D00AF07F6F803A3F6F403BA
S32D0000D45818600023C7F8F4380023C7F8F03807F6F803A3F6F4031B684C33184600F041FF03461A49184605F0FF
S32D0000D4806FFF07F6F803A3F6F4031B685433184600F033FF03461449184605F061FF1349134809F05DFB07F6A0
S32D0000D4A8F803A3F6F4031B683433184600F015FF0346184605F018FC0346012214464FF07E51184611F0E6FEB8
S32D0000D4D00346002B01D100231C46E3B2002B09D0E1E700BF0000F0420000BE42706E0200341A002007F6F803CB
S32D0000D4F8A3F50F6207F6F803A3F6F40319681046FFF76EFC07F6F803A3F6F4031B68196807F108034FF07E52A0
S32D0000D5201846FFF7A5F907F108031846FFF730FC07F6F803A3F6A40207F6F803A3F6F40319681046FFF750FC90
S32D0000D54807F6F803A3F6F4031B68596807F154034FF07E521846FFF787F907F154031846FFF712FC07F6F8030E
S32D0000D570A3F6580207F6F803A3F6F40319681046FFF732FC07F6F803A3F6F4031B68596807F1A003DA4A18462E
S32D0000D598FFF76AF907F1A0031846FFF7F5FB07F6F803A3F60C0207F6F803A3F6F40319681046FFF715FC07F62B
S32D0000D5C0F803A3F6F4031B681B6A002B14BF01230023D9B207F1EC03CA4A1846FFF7CCF907F1EC031846FFF78B
S32D0000D5E8D3FB07F6F803A3F5F86207F6F803A3F6F40319681046FFF7F3FB07F6F803A3F6F4031B68196807F592
S32D0000D6109C734FF082421846FFF72AF907F59C731846FFF7B5FB07F6F803A3F6F4031B682433184600F049FE5D
S32D0000D6380346B349184603F06FF907F6F803A3F6F4031B682C33184600F03BFE0346AD49184603F061F94FF0AC
S32D0000D66000004FF0804105F01DF807F6F803A3F2747207F6F803A3F6F40319681046FFF7B3FB07F5C27318468D
S32D0000D688FFF7F6F907F5C2731846FFF77DFB07F6F803A3F5E56207F6F803A3F6F40319681046FFF79DFB07F6D1
S32D0000D6B0F803A3F6F4031B68DB69002B14BF01230023D9B207F5E873914A1846FFF754F907F5E8731846FFF7AC
S32D0000D6D85BFB07F6F803A3F2DC6207F6F803A3F6F40319681046FFF77BFB07F6F803A3F6F4031B68596807F570
S32D0000D7000773844A1846FFF7B3F807F507731846FFF73EFB07F6F803A3F5D26207F6F803A3F6F403196810468E
S32D0000D728FFF75EFB07F6F803A3F6F4031B681B6A002B14BF01230023D9B207F51A73744A1846FFF715F907F57F
S32D0000D7501A731846FFF71CFB07F6F803A3F2446207F6F803A3F6F40319681046FFF73CFB07F6F803A3F6F4036C
S32D0000D7781B68596807F52D73644A1846FFF774F807F52D731846FFF7FFFA4FF00000614904F084FF07F6F803F4
S32D0000D7A0A3F5BF6207F6F803A3F6F40319681046FFF71AFB07F6F803A3F6F4031B68196807F54073564A1846FF
S32D0000D7C8FFF752F807F540731846FFF7DDFA07F6F803A3F2AC5207F6F803A3F6F40319681046FFF7FDFA07F645
S32D0000D7F0F803A3F6F4031B68DB69002B14BF01230023D9B207F55373464A1846FFF7B4F807F553731846FFF781
S32D0000D818BBFA07F6F803A3F5AC6207F6F803A3F6F40319681046FFF7DBFA07F6F803A3F6F4031B68196807F5DD
S32D0000D8406673394A1846FFF713F807F566731846FFF79EFA07F6F803A3F6F4031B684C33184600F04AFD0346D6
S32D0000D8684FF00001184605F077FD4FF000004FF0804104F013FF07F6F803A3F2145207F6F803A3F6F40319684A
S32D0000D8901046FFF7A9FA07F6F803A3F6F4031B68596807F579734FF080421846FEF7E0FF07F579731846FFF758
S32D0000D8B86BFA07F6F803A3F5996207F6F803A3F6F40319681046FFF78BFA07F6F803A3F6F4031B68DB69002BFE
S32D0000D8E014BF01230023D9B207F586630F4A1846FFF742F807F586631846FFF749FA17E0000020410000B041E4
S32D0000D9080000A0C10000A0410000A3420000D0410000A441000008400000E04000000842000060410000BE4281
S32D0000D93007F6F803A3F27C4207F6F803A3F6F40319681046FFF750FA07F6F803A3F6F4031B68596807F27C435B
S32D0000D9584FF081421846FEF787FF07F27C431846FFF712FA07F6F803A3F5866207F6F803A3F6F40319681046D7
S32D0000D980FFF732FA07F6F803A3F6F4031B68DB69002B14BF01230023D9B207F59963184A1846FEF7E9FF07F5A7
S32D0000D9A899631846FFF7F0F9D7F8F438002B04D0D7F8F438012B0FD024E007F6F803A3F6F4031B685433184624
S32D0000D9D000F093FC03460B49184605F0C1FC25E007F6F803A3F6F4031B685433184600F084FC034604491846A4
S32D0000D9F805F0B2FC16E000BF0000B442000022430000824207F6F803A3F6F4031B685433184600F06EFC0346F7
S32D0000DA204FF00001184605F09BFC00BF07F6F803A3F5797207F6F803A3F6F40319681046FFF7D2F907F6F8035C
S32D0000DA48A3F6F4031B68196807F21453D24A1846FEF70AFF07F214531846FFF795F907F6F803A3F5667207F69D
S32D0000DA70F803A3F6F40319681046FFF7B5F907F6F803A3F6F4031B68596807F5AC634FF080421846FEF7ECFE6D
S32D0000DA9807F5AC631846FFF777F94FF00000BF4904F0FCFD07F6F803A3F6F4031B682433184600F006FC034662
S32D0000DAC0B949184602F02CFF07F6F803A3F6F4031B682C33184600F0F8FB0346B349184602F01EFF4FF000001F
S32D0000DAE84FF0804104F0DAFD07F6F803A3F5537207F6F803A3F6F40319681046FFF770F907F2AC531846FEF7E7
S32D0000DB10B3FF07F2AC531846FFF73AF907F6F803A3F5407207F6F803A3F6F40319681046FFF75AF907F6F803D4
S32D0000DB38A3F6F4031B68596807F5BF634FF07F521846FEF791FE07F5BF631846FFF71CF907F6F803A3F6F403CC
S32D0000DB601B685433184600F0C8FB03469049184605F0F6FB07F6F803A3F6F4031B684C33184600F0BAFB034640
S32D0000DB888A49184605F0E8FB07F6F803A3F52D7207F6F803A3F6F40319681046FFF720F907F6F803A3F6F40341
S32D0000DBB01B68DB69002B14BF01230023D9B207F244637D4A1846FEF7D7FE07F244631846FFF7DEF807F6F8035F
S32D0000DBD8A3F51A7207F6F803A3F6F40319681046FFF7FEF807F6F803A3F6F4031B68596807F5D2634FF08042B2
S32D0000DC001846FEF735FE07F5D2631846FFF7C0F807F6F803A3F6F4031B685433184600F06CFB03466549184697
S32D0000DC2805F09AFB4FF000004FF0804104F036FD07F6F803A3F5077207F6F803A3F6F40319681046FFF7CCF8BC
S32D0000DC5007F6F803A3F6F4031B68196807F2DC634FF080421846FEF703FE07F2DC631846FFF78EF807F6F80383
S32D0000DC78A3F6F4031B685433184600F03AFB03464D49184605F068FB4FF000004B4904F005FD07F6F803A3F672
S32D0000DCA0F4031B685433184600F027FB03464349184605F055FB4FF00000424904F0F2FC07F6F803A3F5E872D7
S32D0000DCC807F6F803A3F6F40319681046FFF788F807F6F803A3F6F4031B68596807F5E563374A1846FEF7C0FDB8
S32D0000DCF007F5E5631846FFF74BF807F6F803A3F5C27207F6F803A3F6F40319681046FFF76BF807F6F803A3F61E
S32D0000DD18F4031B681B6A002B14BF01230023D9B207F27473274A1846FEF722FE07F274731846FFF729F807F6F8
S32D0000DD40F803A3F59C7207F6F803A3F6F40319681046FFF749F807F6F803A3F6F4031B68596807F5F8631A4AF7
S32D0000DD681846FEF781FD07F5F8631846FFF70CF8D7F8F038022B00F08580D7F8F038022B00F38280D7F8F038E4
S32D0000DD90002B1FD0D7F8F038012B7BD078E000BF000030410000E03F0000A0C10000A0410000BE420000F042C2
S32D0000DDB80000964200003443000070420000F03F0000604100005C420000084207F60C0207F6F803A3F6F403F1
S32D0000DDE019681046FFF700F807F6F803A3F6F4031B68DB69002B14BF01230023D9B207F60C03274A1846FEF761
S32D0000DE08B7FD07F60C031846FEF7BEFF07F6580207F6F803A3F6F40319681046FEF7E0FF07F6F803A3F6F4030A
S32D0000DE301B68196807F658031A4A1846FEF718FD07F658031846FEF7A3FF07F6A40207F6F803A3F6F4031968A3
S32D0000DE581046FEF7C5FF07F6F803A3F6F4031B68DB69002B14BF01230023D9B207F6A403094A1846FEF77CFDAB
S32D0000DE8007F6A4031846FEF783FF04E000BF02E000BF00E000BF00BF07F6FC07BD4690BD0000B44200002841AA
S32D0000DEA880B582B000AF78607B6854331846FEF796FB7B684C331846FEF791FB7B6844331846FEF771FB7B68D3
S32D0000DED03C331846FEF76CFB7B6834331846FEF74CFB7B682C331846FEF72CFB7B6824331846FEF727FB7B68C9
S32D0000DEF818460837BD4680BD90B5D7B004AFB14A07F1940311465022184612F031FF002387F8E7304FF00002C3
S32D0000DF20AB4BC7E93A2307F18C0307F1E80207F1E701184600F010FA012387F8F7304FF00002A34BC7E93E2325
S32D0000DF4807F1840307F1F80207F1F701184600F0FFF9082387F8073107F17C0307F207121146184600F017FAE3
S32D0000DF70072387F8083107F1740307F584721146184600F02AFA002387F8093107F16C0307F20912114618466B
S32D0000DF9800F01FFA002387F80A3107F1640307F585721146184600F032FA072387F80B3107F15C0307F20B1200
S32D0000DFC01146184600F027FA6FF00103C7F8443107F16403184600F090F903464FF4FA71184605F083F907F1E2
S32D0000DFE86403184600F085F903464FF4FA61184605F095F907F15C03184600F07AF903464FF4FA71184605F0AE
S32D0000E0106DF907F15C03184600F06FF903464FF41161184605F07FF907F18C0207F5867311461846FEF72AFE59
S32D0000E03807F1840207F58A7311461846FEF722FE07F17C0207F58E7311461846FEF740FE07F1740207F59273AF
S32D0000E06011461846FEF75EFE07F16C0207F5967311461846FEF756FE07F1640207F59A7311461846FEF774FEA0
S32D0000E08807F15C0207F59E7311461846FEF76CFE07F58E7407F58A7207F58671384607F59E73039307F59A73E0
S32D0000E0B0029307F59673019307F5927300932346FEF750FD07F59E731846FEF78CFA07F59A731846FEF787FA12
S32D0000E0D807F596731846FEF767FA07F592731846FEF762FA07F58E731846FEF742FA07F58A731846FEF722FABD
S32D0000E10007F586731846FEF71DFAD7F84431B3F1FF3F2DD007F194023B4611461846FEF7F7FEC7F84401D7F8EE
S32D0000E1284431032B1ED801A252F823F045E100004FE1000059E1000063E100003B461846FEF7A6FF0FE03B4673
S32D0000E1501846FFF779F90AE03B461846FFF758F805E03B461846FFF769F800E000BFCCE700243B461846FFF766
S32D0000E17897FE07F15C031846FEF731FA07F164031846FEF72CFA07F16C031846FEF70CFA07F174031846FEF7B5
S32D0000E1A007FA07F17C031846FEF7E7F907F184031846FEF7C7F907F18C031846FEF7C2F92346184607F5A6779F
S32D0000E1C8BD4690BD7C6E02000000224080B582B000AF78607B68002B05D07B681B6804331B687868984700BF1C
S32D0000E1F00837BD4680BD80B582B000AF78607B68184600F047F97B6818460837BD4680BD80B582B000AF786075
S32D0000E2187B681B68002B04D07B681B681846FEF744F97B6818460837BD4680BD80B582B000AF78607B6818468E
S32D0000E24000F039F97B6818460837BD4680BD80B582B000AF78607B68184600F03DF97B6818460837BD4680BDB9
S32D0000E26880B582B000AF78607B68184600F041F97B6818460837BD4680BD80B584B000AF786039603B681B68C0
S32D0000E290FB607B681B68FA689A4211D0FB68002B02D0F868FEF7F7F87B681B68002B04D07B681B681846FEF7BE
S32D0000E2B8FCF87B68FA681A607B6818461037BD4680BD80B582B000AF7860786800F022F9034618460837BD46FB
S32D0000E2E080BD80B582B000AF7860786800F022F9034618460837BD4680BD80B582B000AF7860786800F022F9FB
S32D0000E308034618460837BD4680BD80B582B000AF7860786800F022F9034618460837BD4680BD80B582B000AFAC
S32D0000E330786039603B681A687B681A607B681B68002B04D07B681B681846FEF7A4F87B6818460837BD4680BD52
S32D0000E35890B587B000AFF860B9607A6007F11403184600F007F9B86800F01CF90446786800F022F90346F868C1
S32D0000E38007F11401224600F025F907F11403184600F000F900BFF8681C37BD4690BD80B584B000AF786039604B
S32D0000E3A807F10C03184600F02AF9386800F03FF902467B6807F10C01184600F042F907F10C03184600F027F9D9
S32D0000E3D000BF78681037BD4680BD80B584B000AF7860396007F10C03184600F042F9386800F021F902467B680B
S32D0000E3F807F10C01184600F050F907F10C03184600F03FF900BF78681037BD4680BD80B584B000AF786039601F
S32D0000E42007F10C03184600F050F9386800F065F902467B6807F10C01184600F068F907F10C03184600F04DF9C8
S32D0000E44800BF78681037BD4680BD000080B483B000AF7860044A7B681A607B6818460C37BD4680BC704700BFAE
S32D0000E470446F020080B582B000AF78607868FFF7E9FF0C21786808F031FF7B6818460837BD4680BD80B582B0C1
S32D0000E49800AF78607B6800221A607B680433184600F045F97B6818460837BD4680BD80B582B000AF78607B6819
S32D0000E4C000221A607B680433184600F034F97B6818460837BD4680BD80B582B000AF78607B6800221A607B68ED
S32D0000E4E80433184600F023F97B6818460837BD4680BD80B582B000AF78607B6800221A607B680433184600F0D0
S32D0000E51012F97B6818460837BD4680BD80B582B000AF7860786800F013F9034618460837BD4680BD80B582B0BB
S32D0000E53800AF7860786800F012F9034618460837BD4680BD80B582B000AF7860786800F011F90346184608377F
S32D0000E560BD4680BD80B582B000AF7860786800F010F9034618460837BD4680BD80B582B000AF7860786800F0A2
S32D0000E5880FF97B6818460837BD4680BD80B582B000AF7860786800F00DF97B6818460837BD4680BD80B483B0B2
S32D0000E5B000AF78607B6818460C37BD4680BC704780B483B000AF78607B6818460C37BD4680BC7047B0B584B03B
S32D0000E5D800AFF860B9607A603B60BC687868FFF7E1FF05463868FFF7E7FF03462A462146F86800F0E9F8F8682E
S32D0000E6001037BD46B0BD80B582B000AF7860786800F0F8F87B6818460837BD4680BD80B582B000AF78607868F9
S32D0000E62800F0F6F87B6818460837BD4680BD80B483B000AF78607B6818460C37BD4680BC704790B585B000AF95
S32D0000E650F860B9607A60BC687868FFF7ECFF03461A462146F86800F0E1F8F8681437BD4690BD80B582B000AF22
S32D0000E6787860786800F0EBF87B6818460837BD4680BD80B582B000AF7860786800F0E9F87B6818460837BD4607
S32D0000E6A080BD90B585B000AFF860B9607A60BC687868FFF7C0FF03461A462146F86800F0DEF8F8681437BD46FE
S32D0000E6C890BD80B582B000AF7860786800F0E8F87B6818460837BD4680BD80B582B000AF7860786800F0E6F8DD
S32D0000E6F07B6818460837BD4680BD80B483B000AF78607B6818460C37BD4680BC704790B585B000AFF860B9603A
S32D0000E7187A60BC687868FFF7ECFF03461A462146F86800F0D1F8F8681437BD4690BD80B483B000AF78607B681F
S32D0000E74000221A607B6818460C37BD4680BC704780B483B000AF78607B681B6818460C37BD4680BC704780B476
S32D0000E76883B000AF78607B681B6818460C37BD4680BC704780B483B000AF78607B681B6818460C37BD4680BC98
S32D0000E790704780B483B000AF78607B681B6818460C37BD4680BC704780B483B000AF78607B6818460C37BD4644
S32D0000E7B880BC704780B483B000AF78607B6818460C37BD4680BC7047B0B584B000AFF860B9607A603B60FC6846
S32D0000E7E07868FFF7E3FE05463868FFF7E9FE03462A46B968204600F080F8FB6818461037BD46B0BD80B483B005
S32D0000E80800AF78607B6818460C37BD4680BC704780B483B000AF78607B6818460C37BD4680BC704790B585B0FF
S32D0000E83000AFF860B9607A60FC687868FFF7FBFE03461A46B968204600F07EF8FB6818461437BD4690BD80B467
S32D0000E85883B000AF78607B6818460C37BD4680BC704780B483B000AF78607B6818460C37BD4680BC704790B5B1
S32D0000E88085B000AFF860B9607A60FC687868FFF7D2FE03461A46B968204600F075F8FB6818461437BD4690BD48
S32D0000E8A880B483B000AF78607B6818460C37BD4680BC704780B483B000AF78607B6818460C37BD4680BC704772
S32D0000E8D090B585B000AFF860B9607A60FC687868FFF70BFF03461A46B968204600F06CF8FB6818461437BD46CF
S32D0000E8F890BDF0B587B002AFF860B9607A603B60FB6800221A60FB681C1DFD687868FFF749FE06463868FFF733
S32D0000E9204FFE034600933346BA682946204600F06BF8FB681B681946F86800F0C4F8FB6818461437BD46F0BDD0
S32D0000E948B0B584B000AFF860B9607A60FB6800221A60FB681C1DFD687868FFF768FE0346BA682946204600F0A2
S32D0000E970B4F8FB681B681946F86800F006F9FB6818461037BD46B0BDB0B584B000AFF860B9607A60FB680022A9
S32D0000E9981A60FB681C1DFD687868FFF748FE0346BA682946204600F0F6F8FB681B681946F86800F048F9FB6863
S32D0000E9C018461037BD46B0BDB0B584B000AFF860B9607A60FB6800221A60FB681C1DFD687868FFF78AFE0346DA
S32D0000E9E8BA682946204600F038F9FB681B681946F86800F08AF9FB6818461037BD46B0BD2DE9F0418AB000AF29
S32D0000EA10F860B9607A603B607A6807F118031146184600F080F907F1100307F118021146184600F091F907F19B
S32D0000EA381003184600F0B4F978627A6807F11C031146184600F0BAF907F11C053868FFF7A9FD0646386CFFF73C
S32D0000EA60AFFD80467B6A19461420FDF709FD0446434632462946204600F0CAF93C6207F11C031846FFF786FD45
S32D0000EA8807F110030021184600F0F8F9FB683A6A1A60386A00F000FA0246BB681A6007F11003184600F067F94A
S32D0000EAB007F11803184600F043F9FB6818462837BD46BDE8F08180B483B000AF7860396000BF0C37BD4680BC9A
S32D0000EAD87047F0B58BB000AFF860B9607A603B607A6807F118031146184600F0E3F907F1100307F118021146FA
S32D0000EB00184600F0F4F907F11003184600F017FA78627A6807F11C031146184600F01DFA07F11C053868FFF704
S32D0000EB2886FD06467B6A19461020FDF7A5FC044632462946204600F033FA3C6207F11C031846FFF768FD07F1CD
S32D0000EB5010030021184600F05DFAFB683A6A1A60386A00F065FA0246BB681A6007F11003184600F0CFF907F14E
S32D0000EB781803184600F0ABF9FB6818462C37BD46F0BD80B483B000AF7860396000BF0C37BD4680BC7047F0B56A
S32D0000EBA08BB000AFF860B9607A603B607A6807F118031146184600F049FA07F1100307F118021146184600F0D8
S32D0000EBC85AFA07F11003184600F07DFA78627A6807F11C031146184600F083FA07F11C053868FFF724FD0646EA
S32D0000EBF07B6A19461020FDF743FC044632462946204600F099FA3C6207F11C031846FFF73CFD07F110030021C8
S32D0000EC18184600F0C3FAFB683A6A1A60386A00F0CBFA0246BB681A6007F11003184600F035FA07F1180318460D
S32D0000EC4000F011FAFB6818462C37BD46F0BD80B483B000AF7860396000BF0C37BD4680BC7047F0B58BB000AFC9
S32D0000EC68F860B9607A603B607A6807F118031146184600F0AFFA07F1100307F118021146184600F0C0FA07F1E1
S32D0000EC901003184600F0E3FA78627A6807F11C031146184600F0E9FA07F11C053868FFF724FD06467B6A19465D
S32D0000ECB81820FDF7E1FB044632462946204600F0FFFA3C6207F11C031846FFF706FD07F110030021184600F020
S32D0000ECE029FBFB683A6A1A60386A00F031FB0246BB681A6007F11003184600F09BFA07F11803184600F077FAFE
S32D0000ED08FB6818462C37BD46F0BD80B483B000AF7860396000BF0C37BD4680BC704780B582B000AF7860396003
S32D0000ED30786800F01BFB7B6818460837BD4680BD80B582B000AF7860786800F019FB7B6818460837BD4680BD7D
S32D0000ED5880B582B000AF786039600121386800F015FB03461A463968786800F01EFB78680837BD4680BD80B57D
S32D0000ED8082B000AF78607B685B68002B07D07B6818687B685B680122194600F01EFB7B6818460837BD4680BDB0
S32D0000EDA880B582B000AF78607B685B68184600F01FFB034618460837BD4680BD80B582B000AF786039603968F3
S32D0000EDD0786800F01BFB7B6818460837BD4680BD80B582B000AF78607868FFF7D3FB7B6818460837BD4680BD1D
S32D0000EDF880B582B000AF78607868FFF7EDFF7B6818460837BD4680BDB0B586B000AFF860B9607A603B60FB68EA
S32D0000EE20184600F0FFFA164AFB681A60FB6803F10C0407F11403B9681846FFF7C3FF07F114031946204600F0CF
S32D0000EE4803FB07F114031846FFF7A0FBF86800F023F804467868FFF7A5FB05463868FFF7ABFB03462A462146CE
S32D0000EE70B86800F0FBFAFB6818461837BD46B0BD286F020080B483B000AF786039607B6800225A607B681846CF
S32D0000EE980C37BD4680BC704780B582B000AF78607B680C33184600F0F5FA034618460837BD4680BD80B582B039
S32D0000EEC000AF78603960786800F0F4FA7B6818460837BD4680BD80B582B000AF7860786800F0F2FA7B6818469B
S32D0000EEE80837BD4680BD80B582B000AF786039600121386800F0EEFA03461A463968786800F0F7FA7868083732
S32D0000EF10BD4680BD80B582B000AF78607B685B68002B07D07B6818687B685B680122194600F0F7FA7B68184650
S32D0000EF380837BD4680BD80B582B000AF78607B685B68184600F0F8FA034618460837BD4680BD80B582B000AF1C
S32D0000EF60786039603968786800F0F4FA7B6818460837BD4680BD80B582B000AF78607868FFF74DFB7B681846A6
S32D0000EF880837BD4680BD80B582B000AF78607868FFF7EDFF7B6818460837BD4680BD000090B587B000AFF860E9
S32D0000EFB0B9607A60FB68184600F034FA144AFB681A60FB6803F10C0407F11403B9681846FFF7C3FF07F114036A
S32D0000EFD81946204600F0C5FA07F114031846FFF71AFBF86800F020F804467868FFF71FFB03461A462146B8684D
S32D0000F00000F0C1FAFB6818461C37BD4690BD00BF0C6F020080B483B000AF786039607B6800225A607B68184610
S32D0000F0280C37BD4680BC704780B582B000AF78607B680C33184600F0B5FA034618460837BD4680BD80B582B0E7
S32D0000F05000AF78603960786800F0B4FA7B6818460837BD4680BD80B582B000AF7860786800F0B2FA7B68184689
S32D0000F0780837BD4680BD80B582B000AF786039600121386800F0AEFA03461A463968786800F0B7FA7868083720
S32D0000F0A0BD4680BD80B582B000AF78607B685B68002B07D07B6818687B685B680122194600F0B7FA7B681846FF
S32D0000F0C80837BD4680BD80B582B000AF78607B685B68184600F0B8FA034618460837BD4680BD80B582B000AFCB
S32D0000F0F0786039603968786800F0B4FA7B6818460837BD4680BD80B582B000AF78607868FFF7BBFA7B681846E8
S32D0000F1180837BD4680BD80B582B000AF78607868FFF7EDFF7B6818460837BD4680BD000090B587B000AFF86057
S32D0000F140B9607A60FB68184600F06CF9144AFB681A60FB6803F10C0407F11403B9681846FFF7C3FF07F11403A1
S32D0000F1681946204600F085FA07F114031846FFF788FAF86800F020F804467868FFF757FA03461A462146B86857
S32D0000F19000F081FAFB6818461C37BD4690BD00BFF06E020080B483B000AF786039607B6800225A607B681846DC
S32D0000F1B80C37BD4680BC704780B582B000AF78607B680C33184600F075FA034618460837BD4680BD80B582B096
S32D0000F1E000AF78603960786800F074FA7B6818460837BD4680BD80B582B000AF7860786800F072FA7B68184678
S32D0000F2080837BD4680BD80B582B000AF786039600121386800F06EFA03461A463968786800F077FA786808370E
S32D0000F230BD4680BD80B582B000AF78607B685B68002B07D07B6818687B685B680122194600F077FA7B681846AD
S32D0000F2580837BD4680BD80B582B000AF78607B685B68184600F078FA034618460837BD4680BD80B582B000AF79
S32D0000F280786039603968786800F074FA7B6818460837BD4680BD80B582B000AF78607868FFF71FFA7B68184632
S32D0000F2A80837BD4680BD80B582B000AF78607868FFF7EDFF7B6818460837BD4680BD000090B587B000AFF860C6
S32D0000F2D0B9607A60FB68184600F0A4F8144AFB681A60FB6803F10C0407F11403B9681846FFF7C3FF07F11403D9
S32D0000F2F81946204600F045FA07F114031846FFF7ECF9F86800F020F804467868FFF7F1F903461A462146B8680A
S32D0000F32000F041FAFB6818461C37BD4690BD00BFD46E020080B483B000AF786039607B6800225A607B681846A6
S32D0000F3480C37BD4680BC704780B582B000AF78607B680C33184600F035FA034618460837BD4680BD80B483B044
S32D0000F37000AF78607B6818460C37BD4680BC704780B483B000AF78607B6818460C37BD4680BC704780B582B09F
S32D0000F39800AF7860396000223968786800F01EFA034618460837BD4680BD80B584B000AFF860B9607A60B868D3
S32D0000F3C000F031FA0246FB681A60FB687A685A60FB6818461037BD4680BD80B584B000AFF860B9607A607A6853
S32D0000F3E8B968F86800F025FA00BF1037BD4680BD80B483B000AF78607B6818460C37BD4680BC704780B483B052
S32D0000F41000AF786039607B6818460C37BD4680BC7047000080B483B000AF7860074A7B681A607B6801225A60D8
S32D0000F4387B6801229A607B6818460C37BD4680BC704700BF446F020080B582B000AF786039603968786800F0C0
S32D0000F460FFF97B6818460837BD4680BD90B585B000AFF860B9607A603B607868FFF796F804463868FFF79CF8DF
S32D0000F48803462246B968F86800F0F4F900BF1437BD4690BD80B582B000AF7860786800F00FFA03461846083740
S32D0000F4B0BD4680BD80B483B000AF78607B6818460C37BD4680BC704780B483B000AF78607B6818460C37BD4611
S32D0000F4D880BC704780B582B000AF7860396000223968786800F0F6F9034618460837BD4680BD80B584B000AFCC
S32D0000F500F860B9607A60B86800F006FA0246FB681A60FB687A685A60FB6818461037BD4680BD80B584B000AFFE
S32D0000F528F860B9607A607A68B968F86800F0FAF900BF1037BD4680BD80B483B000AF78607B6818460C37BD4669
S32D0000F55080BC704780B483B000AF786039607B6818460C37BD4680BC704780B582B000AF786039603968786891
S32D0000F57800F0E8F97B6818460837BD4680BD80B584B000AFF860B9607A607868FFF74FF803461A46B968F8682A
S32D0000F5A000F0E2F900BF1037BD4680BD80B582B000AF7860786800F0F0F9034618460837BD4680BD80B483B0F8
S32D0000F5C800AF78607B6818460C37BD4680BC704780B483B000AF78607B6818460C37BD4680BC704780B582B045
S32D0000F5F000AF7860396000223968786800F0D7F9034618460837BD4680BD80B584B000AFF860B9607A60B868C1
S32D0000F61800F0E7F90246FB681A60FB687A685A60FB6818461037BD4680BD80B584B000AFF860B9607A607A6843
S32D0000F640B968F86800F0DBF900BF1037BD4680BD80B483B000AF78607B6818460C37BD4680BC704780B483B042
S32D0000F66800AF786039607B6818460C37BD4680BC704780B582B000AF786039603968786800F0C9F97B681846DF
S32D0000F6900837BD4680BD80B584B000AFF860B9607A607868FEF7C7FF03461A46B968F86800F0C3F900BF1037F3
S32D0000F6B8BD4680BD80B582B000AF7860786800F0D1F9034618460837BD4680BD80B483B000AF78607B68184607
S32D0000F6E00C37BD4680BC704780B483B000AF78607B6818460C37BD4680BC704780B582B000AF786039600022B2
S32D0000F7083968786800F0B8F9034618460837BD4680BD80B584B000AFF860B9607A60B86800F0CBF90246FB68A9
S32D0000F7301A60FB687A685A60FB6818461037BD4680BD80B584B000AFF860B9607A607A68B968F86800F0BFF97C
S32D0000F75800BF1037BD4680BD80B483B000AF78607B6818460C37BD4680BC704780B483B000AF786039607B686B
S32D0000F78018460C37BD4680BC704780B582B000AF786039603968786800F0B0F97B6818460837BD4680BD80B52E
S32D0000F7A884B000AFF860B9607A607868FEF7A1FF03461A46B968F86800F0AAF900BF1037BD4680BD80B582B026
S32D0000F7D000AF7860786800F0B8F9034618460837BD4680BD80B584B000AFF860B9607A60F86800F0B5F9024634
S32D0000F7F8BB6893428CBF01230023DBB2002B01D007F042FEBA6813469B0013449B00184607F06AFD034618462E
S32D0000F8201037BD4680BD80B483B000AF78607B6818460C37BD4680BC704780B584B000AFF860B9607A607A6886
S32D0000F84813469B0013449B001946B86807F04AFD00BF1037BD4680BD80B582B000AF7860396039687868FFF7AB
S32D0000F870A9FA7B6818460837BD4680BDB0B584B000AFF860B9607A603B607868FEF78EFE03461C783868FEF706
S32D0000F89893FE0346D3E90023104619460FF0E0F90546BB6819460820FCF7E6FD03462A462146184600F0B0FF14
S32D0000F8C000BF1037BD46B0BD80B483B000AF78607B6818460C37BD4680BC704780B584B000AFF860B9607A60D9
S32D0000F8E8F86800F045F90246BB6893428CBF01230023DBB2002B01D007F0C6FDBB681B01184607F0F1FC034685
S32D0000F91018461037BD4680BD80B483B000AF78607B6818460C37BD4680BC704780B584B000AFF860B9607A6019
S32D0000F9387B681B011946B86807F0D4FC00BF1037BD4680BD80B582B000AF7860396039687868FFF7FEFA7B683D
S32D0000F96018460837BD4680BD90B585B000AFF860B9607A607868FEF75EFE03461C78BB6819460120FCF77CFD0B
S32D0000F98803462146184603F09DF900BF1437BD4690BD80B483B000AF78607B6818460C37BD4680BC704780B5C3
S32D0000F9B084B000AFF860B9607A60F86800F0E7F80246BB6893428CBF01230023DBB2002B01D007F05DFDBB68FD
S32D0000F9D81B01184607F088FC034618461037BD4680BD80B483B000AF78607B6818460C37BD4680BC704780B541
S32D0000FA0084B000AFF860B9607A607B681B011946B86807F06BFC00BF1037BD4680BD80B582B000AF7860396001
S32D0000FA2839687868FFF75DFB7B6818460837BD4680BD90B585B000AFF860B9607A607868FEF7F5FD03461C7809
S32D0000FA50BB6819460120FCF713FD03462146184602F062FE00BF1437BD4690BD80B483B000AF78607B681846F9
S32D0000FA780C37BD4680BC704780B584B000AFF860B9607A60F86800F089F80246BB6893428CBF01230023DBB294
S32D0000FAA0002B01D007F0F4FCBA6813465B001344DB00184607F01CFC034618461037BD4680BD80B483B000AF9C
S32D0000FAC878607B6818460C37BD4680BC704780B584B000AFF860B9607A607A6813465B001344DB001946B86814
S32D0000FAF007F0FCFB00BF1037BD4680BD80B582B000AF7860396039687868FFF7B6FB7B6818460837BD4680BD45
S32D0000FB1890B585B000AFF860B9607A607868FEF7E8FD03461C78BB6819460C20FCF7A4FC03462146184603F072
S32D0000FB40B9FB00BF1437BD4690BD80B483B000AF78607B6818460C37BD4680BC7047000080B483B000AF786033
S32D0000FB68024B18460C37BD4680BC70476666660680B483B000AF78606FF0784318460C37BD4680BC704780B480
S32D0000FB9083B000AF78606FF0784318460C37BD4680BC704780B483B000AF7860024B18460C37BD4680BC70470A
S32D0000FBB85555550580B582B000AF7860084A7B681A607B680C331846FFF76DFB7B681846FEF73CFC7B681846F1
S32D0000FBE00837BD4680BD00BFD46E020080B582B000AF78607868FFF7E1FF1821786807F075FB7B6818460837D1
S32D0000FC08BD4680BD90B583B000AF78607B680C33184600F0FFF904467868FFF795FB03461946204600F002FA7D
S32D0000FC3000BF0C37BD4690BD80B586B000AF78607B680C33184600F0E9F9024607F1140311461846FFF7C2FA52
S32D0000FC5807F1140107F10C037A681846FFF759FD7868FFF7A7FF07F10C031846FFF7DEFA07F114031846FFF7CC
S32D0000FC80BAFA00BF1837BD4680BD000080B584B000AF786039607868FFF75AFBF860FCF739FC02463B68934260
S32D0000FCA806D00949386807F0D9FB0346002B01D0012300E00023002B01D0FB6800E0002318461037BD4680BDE8
S32D0000FCD00871020080B582B000AF7860084A7B681A607B680C331846FFF719FA7B681846FEF7B0FB7B68184643
S32D0000FCF80837BD4680BD00BFF06E020080B582B000AF78607868FFF7E1FF1021786807F0E9FA7B681846083731
S32D0000FD20BD4680BD90B583B000AF78607B680C33184600F08CF904467868FFF741FA03461946204600F08FF9A0
S32D0000FD4800BF0C37BD4690BD80B586B000AF78607B680C33184600F076F9024607F1140311461846FFF76EF901
S32D0000FD7007F1140107F10C037A681846FFF745FC7868FFF7A7FF07F10C031846FFF78AF907F114031846FFF71D
S32D0000FD9866F900BF1837BD4680BD000080B584B000AF786039607868FFF706FAF860FCF7ADFB02463B6893427E
S32D0000FDC006D00949386807F04DFB0346002B01D0012300E00023002B01D0FB6800E0002318461037BD4680BD5B
S32D0000FDE80871020080B582B000AF7860084A7B681A607B680C331846FFF7C5F87B681846FEF724FB7B6818460C
S32D0000FE100837BD4680BD00BF0C6F020080B582B000AF78607868FFF7E1FF1021786807F05DFA7B681846083786
S32D0000FE38BD4680BD90B583B000AF78607B680C33184600F019F904467868FFF7EDF803461946204600F01CF9C3
S32D0000FE6000BF0C37BD4690BD80B586B000AF78607B680C33184600F003F9024607F1140311461846FFF71AF8B0
S32D0000FE8807F1140107F10C037A681846FFF731FB7868FFF7A7FF07F10C031846FFF736F807F114031846FFF76E
S32D0000FEB012F800BF1837BD4680BD000080B584B000AF786039607868FFF7B2F8F860FCF721FB02463B6893429C
S32D0000FED806D00949386807F0C1FA0346002B01D0012300E00023002B01D0FB6800E0002318461037BD4680BDCF
S32D0000FF000871020080B582B000AF7860084A7B681A607B680C331846FEF76EFF7B681846FEF798FA7B681846D0
S32D0000FF280837BD4680BD00BF286F020080B582B000AF78607868FFF7E1FF1421786807F0D1F97B6818460837DA
S32D0000FF50BD4680BD90B583B000AF78607B680C33184600F0A6F804467868FEF799FF03461946204600F0A9F8E0
S32D0000FF7800BF0C37BD4690BD80B586B000AF78607B680C33184600F090F8024607F1140311461846FEF7C3FE5D
S32D0000FFA007F1140107F10C037A681846FFF701FA7868FFF7A7FF07F10C031846FEF7DFFE07F114031846FEF7D9
S32D0000FFC8BBFE00BF1837BD4680BD000080B584B000AF786039607868FEF75EFFF860FCF795FA02463B689342AF
S32D0000FFF006D00949386807F035FA0346002B01D0012300E00023002B01D0FB6800E0002318461037BD4680BD42
S32D000100180871020080B582B000AF7860786800F05DF8034618460837BD4680BD80B582B000AF786039603968DD
S32D00010040786800F059F800BF0837BD4680BD80B582B000AF7860786800F058F8034618460837BD4680BD80B5C9
S32D0001006882B000AF786039603968786800F054F800BF0837BD4680BD80B582B000AF7860786800F053F80346CA
S32D0001009018460837BD4680BD80B582B000AF786039603968786800F04FF800BF0837BD4680BD80B582B000AFD1
S32D000100B87860786800F04EF8034618460837BD4680BD80B582B000AF786039603968786800F04AF800BF0837CD
S32D000100E0BD4680BD80B483B000AF78607B6818460C37BD4680BC704780B483B000AF7860396000BF0C37BD46BD
S32D0001010880BC704780B483B000AF78607B6818460C37BD4680BC704780B483B000AF7860396000BF0C37BD46E1
S32D0001013080BC704780B483B000AF78607B6818460C37BD4680BC704780B483B000AF7860396000BF0C37BD46B9
S32D0001015880BC704780B483B000AF78607B6818460C37BD4680BC704780B483B000AF7860396000BF0C37BD4691
S32D0001018080BC704780B500AF0F4BD3F8A03003F48053002B14BF01230023DBB2002B10D0094BD3F8A030084A9C
S32D000101A823F48053C2F8A030064806F0ABFF064B1B68054A23F40053136000BF80BD00BF00C00440541A002079
S32D000101D0C0F00F4080B400AF124B4FF480725A63114B5B69104A43F4005353610E4B1B680D4A43F400531360E7
S32D000101F80A4B0C4A1A630C4BD3F888310A4A43F08063C2F88831084B9B68074A43F08063936000BFBD4680BC4A
S32D00010220704700BF00C00440C0F00F4003010A0000E100E080B400AF334B00225A70324B98221A70304B9B79CA
S32D00010248DBB203F01003002B14BF01230023DBB2002B00D0F2E72A4B9B79DBB29B08DBB203F00303022B14BF0F
S32D0001027001230023DBB2002B00D0F0E7224B18221A71214B00225A71204B03F580531A461F4B53641C4B54229A
S32D000102985A711B4B9B79DBB203F02003002B0CBF01230023DBB2002B00D0F2E7144B9B79DBB203F04003002B50
S32D000102C00CBF01230023DBB2002B00D0F2E70E4B1B78DBB20C4A03F03F03DBB213700A4B9B79DBB29B08DBB262
S32D000102E803F00303032B14BF01230023DBB2002B00D0F0E700231846BD4680BC704700BF0040064000700440D7
S32D000103100000130180B500AF314B03F580539B6B2F4A43F4785302F580529363FFF752FFFFF780FF2B4B582293
S32D000103381A602A4B1B684FF47A7202FB03F3284A1360274B1B681A46234B03F580535B6C1B0E03F00F03013366
S32D00010360B2FBF3F31A46214B1A601D4B03F58053DB6B1B4A43F0225302F58052D363184B03F580531B6B164AFC
S32D0001038843F0006302F580521363174B4FF480721A61642002F058F8134B5B69124A23F010035361104B0022C4
S32D000103B01A600F4B10225A610E4803F0C3FE02F07FFD02F0DDFD0C4802F0A4F80B4806F0F1FE4FF4FA6002F070
S32D000103D84FF900BF80BD00BF0070044018190020141900201C19002000D00340CC19002010190020C41A0020ED
S32D0001040080B500AFFBF79FFF00BF80BD80B500AFFBF799FF00BF80BD80B500AFFBF793FF00BF80BD80B500AFAB
S32D00010428FBF78DFF00BF80BD80B500AFFBF787FF00BF80BD80B500AFFBF781FF00BF80BD80B500AFFBF77BFF31
S32D0001045000BF80BD80B500AFFBF775FF00BF80BD80B500AFFBF76FFF00BF80BD80B500AFFBF769FF00BF80BDC1
S32D0001047880B500AFFBF763FF00BF80BD80B500AFFBF75DFF00BF80BD80B500AFFBF757FF00BF80BD80B500AFE7
S32D000104A0FBF751FF00BF80BD80B500AFFBF74BFF00BF80BD80B500AFFBF745FF00BF80BD80B500AFFBF73FFFA9
S32D000104C800BF80BD80B500AFFBF739FF00BF80BD80B500AFFBF733FF00BF80BD80B500AFFBF72DFF00BF80BDFD
S32D000104F080B500AFFBF727FF00BF80BD80B500AFFBF721FF00BF80BD80B500AFFBF71BFF00BF80BD80B500AF23
S32D00010518FBF715FF00BF80BD80B500AFFBF70FFF00BF80BD80B500AFFBF709FF00BF80BD80B500AFFBF703FF20
S32D0001054000BF80BD80B500AFFBF7FDFE00BF80BD80B500AFFBF7F7FE00BF80BD80B500AFFBF7F1FE00BF80BD3B
S32D0001056880B500AFFBF7EBFE00BF80BD80B500AFFBF7E5FE00BF80BD80B500AFFBF7DFFE00BF80BD80B500AF61
S32D00010590FBF7D9FE00BF80BD80B500AFFBF7D3FE00BF80BD80B500AFFBF7CDFE00BF80BD80B500AFFBF7C7FE9C
S32D000105B800BF80BD80B500AFFBF7C1FE00BF80BD80B500AFFBF7BBFE00BF80BD80B500AFFBF7B5FE00BF80BD77
S32D000105E080B500AFFBF7AFFE00BF80BD80B500AFFBF7A9FE00BF80BD80B500AFFBF7A3FE00BF80BD80B500AF9D
S32D00010608FBF79DFE00BF80BD80B500AFFBF797FE00BF80BD80B500AFFBF791FE00BF80BD80B500AFFBF78BFE13
S32D0001063000BF80BD80B500AFFBF785FE00BF80BD80B500AFFBF77FFE00BF80BD80B500AFFBF779FE00BF80BDB2
S32D0001065880B500AFFBF773FE00BF80BD80B500AFFBF76DFE00BF80BD80B500AFFBF767FE00BF80BD80B500AFD8
S32D00010680FBF761FE00BF80BD80B500AFFBF75BFE00BF80BD80B500AFFBF755FE00BF80BD80B500AFFBF74FFE8B
S32D000106A800BF80BD80B500AFFBF749FE00BF80BD80B500AFFBF743FE00BF80BD80B500AFFBF73DFE00BF80BDEE
S32D000106D080B500AFFBF737FE00BF80BD80B500AFFBF731FE00BF80BD80B500AFFBF72BFE00BF80BD80B500AF14
S32D000106F8FBF725FE00BF80BD80B500AFFBF71FFE00BF80BD80B500AFFBF719FE00BF80BD80B500AFFBF713FE03
S32D0001072000BF80BD80B500AFFBF70DFE00BF80BD80B500AFFBF707FE00BF80BD80B500AFFBF701FE00BF80BD29
S32D0001074880B500AFFBF7FBFD00BF80BD80B500AFFBF7F5FD00BF80BD80B500AFFBF7EFFD00BF80BD80B500AF52
S32D00010770FBF7E9FD00BF80BD80B500AFFBF7E3FD00BF80BD80B500AFFBF7DDFD00BF80BD80B500AFFBF7D7FD7E
S32D0001079800BF80BD80B500AFFBF7D1FD00BF80BD80B500AFFBF7CBFD00BF80BD80B500AFFBF7C5FD00BF80BD68
S32D000107C080B500AFFBF7BFFD00BF80BD80B500AFFBF7B9FD00BF80BD80B500AFFBF7B3FD00BF80BD80B500AF8E
S32D000107E8FBF7ADFD00BF80BD80B500AFFBF7A7FD00BF80BD80B500AFFBF7A1FD00BF80BD80B500AFFBF79BFDF6
S32D0001081000BF80BD80B500AFFBF795FD00BF80BD80B584B000AFF8600B467A60FB72FB68FA7A1A71FB6800226A
S32D000108385A71174978680EF02DFD0346002B02D0134B7B600AE04FF07E5178680EF00EFD0346002B02D04FF079
S32D000108607E537B6078680DF0C5FE09A3D3E900230DF018FF02460B46104619460EF0F4F90246FB681A60FB68BD
S32D0001088818461037BD4680BDABAAAAAAAAAA20400000404180B582B000AF78607B685B79002B09D07B680022D0
S32D000108B05A717B6819791E230022034801F064FE00BF0837BD4680BD1019002080B584B000AF786039603B6825
S32D000108D87F2B02DD7F23FB7308E03B6813F1800F02DA8023FB7301E03B68FB737B685B79FA7B9A4209D07B6897
S32D00010900FA7B5A717B681979FA7B1E23034801F03BFE00BF1037BD4680BD00BF10190020B0B584B000AF78607A
S32D000109283960374938680EF097FC0346002B02D0334B3B6008E0334938680EF0ABFC0346002B01D02F4B3B60F4
S32D0001095038680DF04FFE04460D467B681B6818460DF048FE4FF00002294B0DF0C5FF02460B46204629460DF009
S32D0001097895FE02460B46104619460EF071F903463B604FF0000138680EF07AFC0346002B10D038680DF02AFEB6
S32D000109A017A3D3E900230DF07DFE02460B46104619460EF011F90346FB6018E038680DF019FE4FF00002134BD2
S32D000109C80DF06CFE02460B46104619464FF000020D4B0DF08DFF02460B46104619460EF0F7F80346FB60F968E9
S32D000109F07868FFF76BFF00BF1037BD46B0BD00BF52B81E85EB51F43F0000C8C20000C84200005940000060407A
S32D00010A1880B483B000AF03460A46FB711346BB71BB79002B03D1134B00221A7002E0114B01221A703823FB7120
S32D00010A400E4B1A78FB791343FB710D4B9B78DBB20B4A43F01003DBB29370094B9B78DBB2074A43F02003DBB21B
S32D00010A689370054AFB79137100BF0C37BD4680BC704700BFEC1600200060064080B483B000AF01237B607B689E
S32D00010A90312B04DC00BF7B6801337B60F7E700BF0C37BD4680BC704780B582B000AF03460A46FB711346BB71D4
S32D00010AB8134B1B7800211846FFF7AAFF00F024F8104AFB79137100F01FF80E4ABB79137100F01AF80B4B9B7820
S32D00010AE0DBB20A4A23F02003DBB29370074B9B78DBB2064A23F01003DBB29370FFF7C2FF00BF0837BD4680BD53
S32D00010B08ED1600200060064080B483B000AF174B1B78002B24D100237B60154BDB78DBB203F00203002B0CBF9E
S32D00010B3001230023DBB2002B0DD07B6842F21072934203DD0B4B01221A7004E07B6801337B6000BFE5E7084BB5
S32D00010B58DB78DBB2064A43F00203DBB2D37000E000BF0C37BD4680BC704700BFEE1600200060064080B582B06E
S32D00010B8000AF0346FB71FB79184600F05FF800BF0837BD4680BD80B582B000AF03460A46FB711346BB7100F0FB
S32D00010BA835F8FB795B00DBB21846FFF7E3FFBB791846FFF7DFFF00F037F800BF0837BD4680BD80B500AFFF2099
S32D00010BD000F03CF80346184680BD80B584B000AF0346FB7100F016F8FB795B005BB243F001035BB2DBB2184618
S32D00010BF8FFF7C0FFFFF7E5FF0346FB7300F014F8FB7B18461037BD4680BD000080B400AF044B9B68034A43F478
S32D00010C208013936000BFBD4680BC704740F00F4080B400AF044B5B68034A43F48013536000BFBD4680BC704777
S32D00010C4840F00F4080B485B000AF0346FB710023BB73164BDB6A03F00043012B0CBF01230023DBB2002B03D03B
S32D00010C70FB7B0133FB73F0E70E4BDB6A0D4A43F00043D3620B4AFB7953630A4BDB6A03F40033002B0CBF012369
S32D00010C980023DBB2002B00D0F3E7044B9B6BBB73BB7B18461437BD4680BC704700C00A4080B582B000AF204BC5
S32D00010CC003F580531B6B1E4A43F4805302F5805213631C4B4FF480721A651B4B5B691A4A43F480135361FFF7E6
S32D00010CE8A3FF164B4FF400725A65144B4FF400729A65124B4FF40072DA65124B124A1A60104B124ADA600023BB
S32D00010D107B607B68092B06DCFF20FFF72FFF7B6801337B60F5E704A1D1E9000101F0BAFC00BF0837BD4680BD8A
S32D00010D389A9999999999B93F0070044000A0044040F00F4000C00A40000C00800500003E90B486B000AFF8608C
S32D00010D60B9607A60FB68534A93420AD1524B03F580535B6B504A43F4806302F58052536345E0FB684D4A93426C
S32D00010D880AD14B4B03F580535B6B494A43F4006302F58052536336E0FB68474A93420AD1434B03F580535B6BB5
S32D00010DB0414A43F4805302F58052536327E0FB68404A93420AD13C4B03F580535B6B3A4A43F4005302F580526D
S32D00010DD8536318E0FB683A4A93420AD1344B03F580539B6A324A43F4806302F58052936209E02F4B03F58053D6
S32D00010E009B6A2D4A43F4006302F580529362FB68DB78DBB223F00C03DAB2FB68DA70FB6800229A70BB684FF45C
S32D00010E287A7203FB02F27B681B0192FBF3F39CB2FB681B78DBB223F01F03FB75230A9BB2DBB203F01F03DAB22D
S32D00010E50FB7D1343DAB2FB681A70E2B2FB685A70BB684FF4FA4203FB02F27B681B0192FBF3F39AB263019BB268
S32D00010E78D31A9CB2FB689B7ADBB223F01F03FB75E3B203F01F03DAB2FB7D1343DAB2FB689A72FB68DB78DBB224
S32D00010EA043F00C03DAB2FB68DA7000BF1837BD4690BC704700A006400070044000B0064000C0064000D00640E8
S32D00010EC800A00E4080B483B000AF78607B681B79DBB203F02003002B0CBF01230023DBB2002B00D0F2E77B6884
S32D00010EF0DB79DBB218460C37BD4680BC704780B483B000AF78600B46FB707B681B79DBB25BB2DB43DBB2DB0911
S32D00010F18DBB2002B00D0F4E77B68FA78DA7100BF0C37BD4680BC704780B487B000AFF860B9607A60FB687B610B
S32D00010F407B685A1E7A60002B14BF01230023DBB2002B06D07B695A1C7A61BA68D2B21A70EEE700BF1C37BD462B
S32D00010F6880BC704780B584B000AF786039607B681B6BFB60FA683B689A4252D07B681B79002B35D07B685878BD
S32D00010F907B6803F134010123FA6801F0F7F80346002B14BF01230023DBB2002B01D001233CE07B6800221A71D9
S32D00010FB87B685A6A7B681B6A1344FA689A4217D27B68DB78FB72FB7A012B11D97B681B6AFA681344FB607B68F0
S32D00010FE058787B6803F134010123FA6801F0CEF8FB7A013BFB72EAE73B68002B15D07B6858787B6803F1340168
S32D0001100801233A6800F0DAFF0346002B14BF01230023DBB2002B01D0012303E07B683A681A6300231846103742
S32D00011030BD4680BD80B584B000AF786000217868FFF794FF0346FB73FB7B002B40F093807B681B78032B7DD14A
S32D000110587B685B79002B79D07B6800221A637B6834334FF4007200211846FFF75DFF7B68552283F832227B68E0
S32D00011080AA2283F833227B68522283F834207B68522283F835207B68612283F836207B68412283F837207B6826
S32D000110A8722283F818227B68722283F819227B68412283F81A227B68612283F81B227B681B69DAB27B6883F837
S32D000110D01C227B681B699BB21B0A9BB2DAB27B6883F81D227B681B691B0CDAB27B6883F81E227B681B691B0E1C
S32D000110F8DAB27B6883F81F227B68DB68DAB27B6883F820227B68DB689BB21B0A9BB2DAB27B6883F821227B6857
S32D00011120DB681B0CDAB27B6883F822227B68DB681B0EDAB27B6883F823227B6858787B6803F134017B685A6925
S32D00011148012301F01FF87B6800225A717B685B7800220021184601F0E1F80346002B14BF01230023DBB2002B15
S32D0001117001D00123FB73FB7B18461037BD4680BD80B582B000AF78600B467B807B68002B08D07B681B78002BD1
S32D0001119804D07B68DB887A889A4201D0092311E07B685B78184601F03BF9034603F00103002B14BF0123002384
S32D000111C0DBB2002B01D0032300E0002318460837BD4680BD80B586B000AF78607B681A687B689B88194610465F
S32D000111E8FFF7CAFF0346FB75FB7D002B40F0AC807B689B7903F02003002B00F0A5807B689B7903F04003002BBC
S32D000112101BD07B681B6858787B6803F128017B689A69012300F0B2FF0346002B14BF01230023DBB2002B01D0CC
S32D0001123801238AE07B689B7923F04003DAB27B689A717B681A687B68DB6919461046FFF789FE0346FB75FB7D43
S32D00011260002B75D17B681B6A3B613B690B331A783B690B3342F02002D2B21A707B68DA683B691C33D2B21A700C
S32D000112887B68DB689BB21B0A9AB23B691D33D2B21A707B68DB681A0C3B691E33D2B21A707B68DB681A0E3B6910
S32D000112B01F33D2B21A707B681A693B691A33D2B21A707B681B699BB21B0A9AB23B691B33D2B21A707B681B69BE
S32D000112D81A0C3B691433D2B21A707B681B691B0C9BB21B0A9AB23B691533D2B21A700023FB603B691633FA68B5
S32D00011300D2B21A70FB689BB21B0A9AB23B691733D2B21A70FB681A0C3B691833D2B21A70FB681A0E3B69193392
S32D00011328D2B21A707B689B7923F02003DAB27B689A717B681B6801221A717B681B681846FFF774FE0346FB75E8
S32D00011350FB7D18461837BD4680BD80B584B000AF78607868FFF736FF0346FB73FB7B002B02D17B6800221A6064
S32D00011378FB7B18461037BD4680BD000080B588B000AF7860396080233B610F23FB604FF0FF337B610223FB61C4
S32D000113A0FB69B3F5807F23D80123BB61BB69102B1AD8FB69BA6902FB03F33A6803FB02F27B68D31ABB60BB686B
S32D000113C8002B09DBBB687A699A4205D9BB687B61FB693B61BB69FB60BB690133BB61E1E7FB695B00FB61D7E794
S32D000113F01D4BDB6A1C4A23F00803D3621A4BDB6A23F47F2323F47F63BB613B695B081B029AB2FB68013B1B01C5
S32D00011418DBB21A43BB691343114A43F46023D3620F4B5B6A03F00803002B0CBF01230023DBB2002B03D00A20E8
S32D0001144001F01AF9F0E7084BDB6A074A43F00803D362054B1B6B044A43F48013136300BF2037BD4680BD00BFCD
S32D0001146800100B4080B582B000AF786039607B6800221A60414B424ADA62404BDB6A03F08073002B14BF0123C8
S32D000114900023DBB2002B00D0F3E73A4B0022C3F8C020384B4FF481325A60364B28229A62344B4FF001125A64DD
S32D000114B83B689B6833491846FFF760FF2F4B5B6A03F00303002B14BF01230023DBB2002B00D0F3E72C4B40F2A8
S32D000114E043421A602A4B40F243425A60284B4FF488629A60264B40F24342DA60244B40F243421A61224B40F2BC
S32D0001150843425A61214B03F580531B6B1F4A43F4003302F580521363184B4FF6FF721A63164B1B4A5A63154B2C
S32D00011530DB6A144A43F00063D362124BDB6A03F00063002B14BF01230023DBB2002B00D0F3E70C4B5B6A03F46C
S32D000115588033002B14BF01230023DBB2002B02D07B6801221A60054B1B6B044A43F08003136300231846083752
S32D00011580BD4680BD00100B400080000160CC050000D0044000700440B3007F0080B400AF064B5A6A40F2073391
S32D000115A81340002B14BF01230023DBB21846BD4680BC704700100B4080B485B000AF7860074B1B6B7A68134043
S32D000115D0FB60FB68002B00D1F6E7FB6818461437BD4680BC704700BF00100B4080B584B000AF78607B681B78D3
S32D000115F803F03F03764A52F82330FB60FB68002B05D17B681B78002B01D00123DCE0714B1B6B704A43F080036F
S32D0001162013636E4B5B6A03F00103002B14BF01230023DBB2002B00D0F3E7684A7B685B689360FB6823F4400301
S32D00011648FB607B685B789B0503F44003FA681343FB607B685B78022B03D1FB6843F40013FB607B685B78042BD1
S32D0001167016D1FB6803F44033B3F5003F08D1FB6823F44033FB60FB6843F44033FB6007E0FB6823F44033FB60F8
S32D00011698FB6843F40033FB604E4B5B684D4A9BB253607B68DB68002B2AD0FB6803F44033B3F5403F03D0FB6893
S32D000116C043F40013FB607B681B7A002B03D0FB6843F01003FB607B68DB68012B03D9FB6843F02003FB607B68B7
S32D000116E8DB68B3F1FF3F0BD03A4B5A687B68DB681B04384913434B60FB6843F00203FB60344B00221A60334A37
S32D00011710FB68D3603248FFF753FF0346012B14BF01230023DBB2002B09D02C4B1B6B2B4A43F4702343F00103BF
S32D000117381363012348E0274B1B6B03F08003002B14BF01230023DBB2002B07D0214B1B6B204A43F00113136365
S32D00011760012335E01D4B1B6B03F48033002B14BF01230023DBB2002B08D0184B1B6B174A43F0011313634FF06E
S32D00011788FF3321E0FB6803F44033002B15D0114B1A697B681A61FB6803F44033B3F5803F0BD10C4B5A697B68D8
S32D000117B05A610A4B9A697B689A61084BDA697B68DA61064B1B6B054A43F001031363002318461037BD4680BD8A
S32D000117D86C71020000100B4001000E0080B592B000AF7860396000237B643B68BB63994B7B637B6B002B02D199
S32D0001180040F601235FE3964B3B633B6B002B02D140F60B2357E33B6B1B68FB62FB6A002B02D140F60B234EE3DE
S32D000118287B6841F20932934200F23F837B68B3F5985F08D87B68032B00F01A837B68092B00F0098331E37B682D
S32D00011850A3F59853013B082B00F22B8301A252F823F000BF89180100751B0100D11D01008B1B0100C91B01006A
S32D00011878EF1C0100371D0100791C0100931C01007649786BFFF7EEFD78647B6C002B40F01083002387F8433051
S32D000118A0002387F82B30002387F82A30002387F82930002387F84230002387F8283000233B7200237B72002314
S32D000118C8FB6000233B7400237B6107F108031846FFF788FE0346002B14BF01230023DBB2002B02D001237B64CD
S32D000118F0E8E240F24C4000F0BFFE08233B7200237B724FF4D573FB6000233B7400237B6107F108031846FFF79E
S32D0001191869FEF863FB6B002B09D1BA69FB689A4202D001237B64C9E2012387F84230012387F8283097F828309A
S32D00011940002B00F0A58037233B7200237B720023FB6000233B7400237B6107F108031846FFF744FEF863FB6B78
S32D00011968002B02D001237B64A8E269233B7200237B720023FB6000233B7400237B6107F108031846FFF72EFEAB
S32D000119900346002B14BF01230023DBB2002B02D001237B648EE2BB6903F44013002B6FD00023FB630A2000F02A
S32D000119B85FFEFB6B0133FB6337233B7200237B720023FB6000233B7400237B6107F108031846FFF707FE0346A0
S32D000119E0002B14BF01230023DBB2002B02D001237B6428E069233B7200237B7297F84230002B02D0184BFB60F9
S32D00011A0802E04FF44013FB6000233B7400237B6107F108031846FFF7E5FD0346002B14BF01230023DBB2002B8C
S32D00011A3002D001237B6406E0BB69002B03DBFB6B632B00D8B6E77B6C002B40F03882FB6B632B0BD9002387F8C0
S32D00011A58423019E004170020081900206071020000003040012387F8433097F84230002B0AD0002387F8423005
S32D00011A80BB6903F08043002B02D0012387F8423097F82A30002B02D07B6B07221A6097F82930002B02D07B6B11
S32D00011AA808221A6097F82B30002B02D07B6B04221A6097F84330002B09D07B6B02221A6097F84230002B02D076
S32D00011AD07B6B03221A6097F82B30002B0DD097F84330002B09D07B6B05221A6097F84230002B02D07B6B0622D7
S32D00011AF81A60924B00221A60904B00225A608F4B00229A608D4B0022DA608C4B00221A618A4B00225A61FB6A60
S32D00011B209A68FB6A5B6819461046FFF72BFC854B40F243421A60834B40F243425A60814B4FF488629A607F4B9D
S32D00011B4840F24342DA607D4B40F243421A617B4B40F243425A617A4B03F580531B6B784A43F4003302F5805240
S32D00011B701363A7E1B86BFFF739FDF863FB6B002B00F09F8102237B649BE1BB6B002B02D10C237B6496E16D4B1C
S32D00011B98DB6A1B0A5B0003F4FF73FB63694BDB6A1B0903F00F035A1CFB6B02FB03F3FB63FB6A9A68FB6BB2FBC9
S32D00011BC0F3F2BB6B1A607DE1BB6B002B02D10C237B6477E1BB6B1B68002B02D10C237B6470E1FFF7DBFC03466D
S32D00011BE8002B0CBF01230023DBB2002B3CD0534B00221A60514B00225A60504B00229A604E4B0022DA604D4BD7
S32D00011C1000221A614B4B00225A61FB6A9A68BB6B1B6819461046FFF7ADFB464B40F243421A60444B40F243422A
S32D00011C385A60424B4FF488629A60404B40F24342DA603E4B40F243421A613C4B40F243425A613B4B03F580538E
S32D00011C601B6B394A43F4003302F58052136329E140F60A237B6425E1BB6B002B02D10C237B641FE1314B5B68E0
S32D00011C88C3F30C02BB6B1A6018E1BB6B002B02D10C237B6412E1FFF77DFC0346002B0CBF01230023DBB2002BFE
S32D00011CB019D0BB6B1B68B3F5805F02D30C237B6400E1224B5B68214A23F4FF5323F01F0353601E4B5A68BB6BEB
S32D00011CD81B68C3F30C031B4913434B60EEE040F60A237B64EAE0BB6B002B02D10C237B64E4E0144B9B6A5B0899
S32D00011D0003F00303FB63FB6B002B03D1BB6B00221A60D7E0FB6B012B03D1BB6B01221A60D0E0FB6B102B03D131
S32D00011D28BB6B02221A60C9E005237B64C6E0BB6B002B09D10C237B64C0E000BF00D004400070044000100B40B7
S32D00011D50FFF724FC0346002B0CBF01230023DBB2002B31D0BB6B1B68002B0AD1584B9B6A574A23F00603936206
S32D00011D78554B554A9B6A9362A0E0BB6B1B68012B0CD1514B9B6A504A23F0060393624E4B9B6A4D4A43F0020318
S32D00011DA093628FE0BB6B1B68022B0AD1484B9B6A474A23F006039362454B454A9B6A936280E005237B647DE0E8
S32D00011DC840F60A237B6479E0BB6B002B02D10C237B6473E03C4BDB6A3B4A43F00063D362394BDB6A03F0006391
S32D00011DF0002B14BF01230023DBB2002B00D0F3E7334B1B6B03F08003002B14BF01230023DBB2002B08D02E4B55
S32D00011E181B6B2D4A43F0800313637B6B00221A60294B5B6A03F48033002B14BF01230023DBB2002B07D07B6B53
S32D00011E401B68002B06D17B6B01221A6002E07B6B00221A607B6B1A68BB6B1A6032E0BB6B1C221A60BB6B0433B2
S32D00011E6804221A60BB6B08334FF41E721A6025E00220FFF7A1FB144B1B6B03F4E003002B14BF01230023DBB2B3
S32D00011E90002B07D00E4B1B6B0D4A43F4E003136304237B640A4B1B6B094A43F03203136308E040F609237B6420
S32D00011EB804E000BF02E000BF00E000BF7B6C18464837BD4680BD00BF00100B4080B489B000AF786039607B688A
S32D00011EE07B61364B3B613B69002B01D100235FE03B691B68022B0BD03B691B68032B07D03B691B68072B03D050
S32D00011F083B691B68082B0BD12B4B5B6A03F00403002B14BF01230023DBB2002B00D0F3E73B68FB61FB69002B0A
S32D00011F303DD0FB69B3F5007F28BF4FF40073FB60FB6803339B08BB61BB69002B2AD01C4B1B6B03F4E003002B5F
S32D00011F5814BF01230023DBB2002B09D0164B1B6B154A43F4E00343F02003136300231BE0114B5B6A03F40063EA
S32D00011F80002B0CBF01230023DBB2002B00D0F3E70B497B691A1D7A610A6A1A60BB69013BBB61D1E7FA69FB6861
S32D00011FA8D31AFB61BEE7012318462437BD4680BC704700BF0417002000100B4080B58EB000AFB9607A601A467F
S32D00011FD00346FB731346BB73414B7B63FB7B002B02D1BB7B002B01D1042375E03D4B1B78DBB203F00103002B4D
S32D00011FF814BF01230023DBB2002B01D0032367E0BB68002B01D1002362E07B6B1B7B002B02D17B685B027B6090
S32D00012020BB7B012B28D111233B7500237B757B68BB6101233B77BB7B3B6207F11403194641F20230FFF7CEFB05
S32D000120480346002B0CBF01230023DBB2002B38D04FF40071B868FFF739FF0346002B14BF01230023DBB2002BDB
S32D000120702BD00023BB7328E012233B7500237B757B68BB6101233B77BB7B3B6207F11403194641F20230FFF784
S32D00012098A5FB0346002B0CBF01230023DBB2002B0FD0BB7B5B021946B868FFF70FFF0346002B14BF01230023B8
S32D000120C0DBB2002B01D00023BB73BB7B002B01D0012300E0002300BF18463837BD4680BDF016002000000020AC
S32D000120E880B487B000AF786039607B68FB603B687B617B69002B3DD07B69B3F5007F28BF4FF400733B617A693E
S32D000121103B69D31A7B613B6903339B083B613B69002BEAD0184B1B6B03F4E003002B14BF01230023DBB2002BD1
S32D000121380AD0134B1B6B124A43F4E00343F0100313634FF0FF3316E00D4B5B6A03F48063002B0CBF01230023ED
S32D00012160DBB2002B00D0F3E7FB681A1DFA60064A1B6813623B69013B3B61D0E7012318461C37BD4680BC7047B4
S32D0001218800100B4080B58EB000AFB9607A601A460346FB731346BB735D4B7B63FB7B002B02D1BB7B002B01D1ED
S32D000121B00423ADE0594B1B78DBB203F00103002B14BF01230023DBB2002B01D003239FE0524B1B78DBB203F06E
S32D000121D80403002B14BF01230023DBB2002B01D0022391E0BB68002B01D100238CE07B6B1B7B002B02D17B6861
S32D000122005B027B60BB7B012B28D118233B7500237B757B68BB6100233B77BB7B3B6207F11403194641F20230A4
S32D00012228FFF7DCFA0346002B0CBF01230023DBB2002B38D04FF40071B868FFF751FF0346002B14BF01230023CD
S32D00012250DBB2002B2BD00023BB7328E019233B7500237B757B68BB6100233B77BB7B3B6207F11403194641F20C
S32D000122780230FFF7B3FA0346002B0CBF01230023DBB2002B0FD0BB7B5B021946B868FFF727FF0346002B14BFD0
S32D000122A001230023DBB2002B01D00023BB730D233B7500237B757B6B1B69BB6100233B7700233B6207F11403D1
S32D000122C8194641F20230FFF789FA0346002B14BF01230023DBB2002B01D0012314E07A6A0D4B1340002B01D0F0
S32D000122F001230DE07B6A03F4F853B3F5106F00D0D5E7BB7B002B01D0012300E0002300BF18463837BD4680BDAF
S32D00012318F0160020000000200880D9FF80B58CB000AF03463A60FB710B46BB713A4BBB62FB79002B01D00423CB
S32D0001234069E0012387F82F30364B1B78DBB203F00103002B14BF01230023DBB2002B01D0032358E0BB79032BFD
S32D0001236850D801A252F823F0812301008923010099230100A9230100002387F82F3044E0BB6A9A683B681A60D9
S32D00012390002387F82F303CE03B684FF400721A80002387F82F3034E009233B7200237B72BB6A1B69FB600023EA
S32D000123B83B7400237B6107F10803194641F20230FFF70CFA0346002B14BF01230023DBB2002B01D001231AE050
S32D000123E07B6A03F44003002B0CD13B6A9B0C03F07F035A1C7B6A1B0A03F00303013B9A403B681A60002387F898
S32D000124082F3002E0042387F82F3097F82F3018463037BD4680BD00BFF01600200000002080B483B000AF034608
S32D00012430FB71FB79002B01D0012302E0034B1B78DBB218460C37BD4680BC70470000002080B483B000AF786088
S32D00012458164B03F580539B6B144A43F0010302F580529363124A7B689360114B05225A600F4B1B680E4A43F0F8
S32D00012480010313600C4B1B6803F08003002B0CBF01230023DBB2002B00D0F3E7064B1B68054A23F0010313601A
S32D000124A800BF0C37BD4680BC704700BF007004400000044080B582B000AF786039607B68012B07D13B684FF600
S32D000124D0FF72934202D1034800F00EF800BF0837BD4680BD1019002080B500AF4FF6FF710120FFF7E3FF80BD2D
S32D000124F880B483B000AF78607B6800221A707B6818460C37BD4680BC7047000080B582B000AF78607B681B785A
S32D0001252083F00103DBB2002B21D0134B03F580531A464FF400639362104B4FF440721A620E4B4FF440725A6272
S32D000125480D4B1B68DA0F13445B104FF4614219460A48FEF7FDFB642000F08AF87B6801221A70012300E00023AD
S32D0001257018460837BD4680BD0070044000D004401419002000B00E4080B582B000AF7860084611461A46034610
S32D00012598FB700B46BB7013467B707F210E48FEF7AAFC08210C48FEF7A6FCFB7819460A48FEF7A1FCBB781946FC
S32D000125C00748FEF79CFC7B7819460548FEF797FCFF210348FEF793FC00BF0837BD4680BD00B00E4080B487B053
S32D000125E800AFF860B9607A60FB681F4AA2FB03239B09BA6813447B61FB681B4AA2FB031292094FF47A7101FB03
S32D0001261002F29B1AFB60FB68DB03154AA2FB03239B097A6813443B613B69DB0B7A6913447B613B69C3F30E03B0
S32D000126383B610E4B1B687A699A4209D80B4B1B687A699A4206D1094B5B683A699A4201D9012300E00023002B2A
S32D0001266000D0EAE700BF1C37BD4680BC704700BFD34D621000D0034080B584B000AF7860074B1B68FB60064BCD
S32D000126885B68BB607B68BA68F9681846FFF7A6FF00BF1037BD4680BD00D0034080B584B000AFC7E900010E4B6B
S32D000126B01B68FB600C4B5B68BB604FF000020B4BD7E900010BF0EEFF02460B46104619460CF0AAFA0346BA684F
S32D000126D8F9681846FFF782FF00BF1037BD4680BD00D0034000408F4080B483B000AF0B4B1B684FF47A7202FB1A
S32D0001270003F37B60074B5B684FF47A7202FB03F3DB0B7A6813447B607B6818460C37BD4680BC704700D003401B
S32D0001272880B584B000AF78600B46FB700B23FB73FA7BFB781946786800F094F87B6818461037BD4680BD0000CF
S32D0001275080B485B000AF78607B68103B002B00DA1F335B11FB60FB68022B53D0FB68022B75DCFB68002B03D029
S32D00012778FB68012B25D06EE0394BD3F880217B68103B594203F01F0301F01F0158BF4B42012101FA03F332494F
S32D000127A01343C1F88031304B1A687B68103B594203F01F0301F01F0158BF4B42012101FA03F3294913430B6074
S32D000127C849E0274BD3F884217B68103B594203F01F0301F01F0158BF4B42012101FA03F31F491343C1F8843105
S32D000127F01D4B5A687B68103B594203F01F0301F01F0158BF4B42012101FA03F3164913434B6024E0144BD3F85C
S32D0001281888217B68103B594203F01F0301F01F0158BF4B42012101FA03F30D491343C1F888310B4B9A687B68E9
S32D00012840103B594203F01F0301F01F0158BF4B42012101FA03F3044913438B6000BF00BF1437BD4680BC704759
S32D0001286800E100E080B584B000AF78600B46FB701346BB707B68FA781A70BB78FB737B681B781A46574B9B5C61
S32D00012890042B00F2A68001A252F823F0B1280100FD28010049290100E129010095290100FB7B1B0403F4702376
S32D000128B84D497A68127810464C4A52F8202043F4897343F0010341F82230494B5A697B681B781946454B53F87D
S32D000128E0213003F01F03012101FA03F3DB43424913404B616720FFF72BFF72E0FB7B1B0403F470233D497A6828
S32D0001290812781046394A52F8202043F4897343F0010341F82230384B5A697B681B781946324B53F8213003F097
S32D000129301F03012101FA03F3DB43314913404B616820FFF705FF4CE0FB7B1B0403F470232C497A6812781046A8
