S01100002E2E2F50726F746575732E73313966
S32D0000C000000000205DC2000011C3000017C300001DC3000023C3000029C3000000000000000000000000000073
S32D0000C028000000002FC3000035C30000000000003BC3000041C3000099030100A5030100B1030100BD03010042
S32D0000C050C9030100D5030100E1030100ED030100F903010005040100110401001D04010029040100350401009F
S32D0000C078410401004D0401005904010065040100710401007D0401008904010095040100A1040100AD040100C2
S32D0000C0A0B9040100C5040100D1040100DD040100E9040100F5040100010501000D0501001905010025050100E6
S32D0000C0C8310501003D0501004905010055050100610501006D0501007905010085050100910501009D05010008
S32D0000C0F0A90501005D5F0100B5050100C1050100CD050100D9050100E5050100F1050100FD050100090601008D
S32D0000C11815060100210601002D0601003906010045060100510601005D060100690601007506010081060100C5
S32D0000C1408D06010099060100A5060100B1060100B92E0100BD060100C9060100D5060100E1060100ED06010005
S32D0000C168F906010005070100110701001D0701002907010035070100410701004D070100590701006507010084
S32D0000C190710701007D07010089070100AD2A010075290100112A01001D0101004D2B010095070100A107010061
S32D0000C1B8AD0701009880020000000020D0160000988002000000FF1F00000000D0160020680400000000FF1FBC
S32D0000C1E00000000080B489B000AFF860B9607A60BB68FB61FB68BB6100237B617A697B689A420BD2BA69131DFB
S32D0000C208BB61FB69191DF96112681A607B6904337B61EFE700BF2437BD4680BC704780B485B000AF786039609E
S32D0000C2307B68FB600023BB60BA683B689A4208D2FB681A1DFA6000221A60BB680433BB60F2E700BF1437BD46FE
S32D0000C25880BC704780B586B000AF72B6234B4CF220521A80214B4DF628121A80204B4FF4E9721A801F4B7B615F
S32D0000C2807B691F4A934214D27B691A1D7A611B683B617B691A1D7A611B68FB607B691A1D7A611B68BB60BA68E9
S32D0000C2A8F9683869FFF79AFFE6E77B69134A93420ED27B691A1D7A611B68FB607B691A1D7A611B68BB60B9688B
S32D0000C2D0F868FFF7A8FFECE70B4B7B600B4A7B681A6013F02FFA62B603F0E0FF01F0F6FDFEE700BF0E2005407C
S32D0000C2F800200540BCC10000D4C10000E4C1000008ED00E000C0000080B400AFFEE780B400AFFEE780B400AFF4
S32D0000C320FEE780B400AFFEE780B400AFFEE780B400AFFEE780B400AFFEE780B400AFFEE780B400AFFEE780B426
S32D0000C34800AFFEE7FFFFFFFFFFFFFFFFFFFFFFFFFFFFFFFFFFFFFFFFFFFFFFFFFFFFFFFFFFFFFFFFFFFFFFFF57
S32D0000C370FFFFFFFFFFFFFFFFFFFFFFFFFFFFFFFFFFFFFFFFFFFFFFFFFFFFFFFFFFFFFFFFFFFFFFFFFFFFFFFFC7
S32D0000C398FFFFFFFFFFFFFFFFFFFFFFFFFFFFFFFFFFFFFFFFFFFFFFFFFFFFFFFFFFFFFFFFFFFFFFFFFFFFFFFF9F
S32D0000C3C0FFFFFFFFFFFFFFFFFFFFFFFFFFFFFFFFFFFFFFFFFFFFFFFFFFFFFFFFFFFFFFFFFFFFFFFFFFFFFFFF77
S32D0000C3E8FFFFFFFFFFFFFFFFFFFFFFFFFFFFFFFFFFFFFFFFFFFFFFFFFFFFFFFFFFFFFFFFFFFFFFFFFEFFFFFF50
S32D0000C44010B5054C237833B9044B13B10448AFF300800123237010BDD016002000000000F87E020008B5034BA3
S32D0000C4681BB103490348AFF3008008BD00000000D4160020F87E020080B483B000AF786039603B6818460C370F
S32D0000C490BD4680BC704780B483B000AF78607B685B685A1C7B685A6000BF0C37BD4680BC704780B582B000AFD3
S32D0000C4B878607B685B685A1E7B685A607B685B68002B0CBF01230023DBB2002B19D07B681B6808331B6878683B
S32D0000C4E098477B689B685A1E7B689A607B689B68002B0CBF01230023DBB2002B05D07B681B680C331B6878685C
S32D0000C508984700BF0837BD4680BD000080B400AF024B1846BD4680BC704700BF205F020080B582B000AF786036
S32D0000C5307B680433184601F059FE7B6818460837BD4680BD80B582B000AF78607B681846FFF7EAFF7B6818460E
S32D0000C5580837BD4680BD80B582B000AF78607B680433184601F03EFE7B6818460837BD4680BD80B582B000AFCD
S32D0000C58078607B681846FFF7EAFF7B6818460837BD4680BD80B582B000AF78607B680433184601F023FE7B687A
S32D0000C5A818460837BD4680BD80B582B000AF78607B681846FFF7EAFF7B6818460837BD4680BD80B582B000AFA4
S32D0000C5D078607B680433184601F008FE7B6818460837BD4680BD80B582B000AF78607B681846FFF7EAFF7B6845
S32D0000C5F818460837BD4680BD80B582B000AF786039603B681A687B681A607B681A1D3B6804331946104601F095
S32D0000C6201EFE7B6818460837BD4680BD80B582B000AF786039607B683A6811461846FFF7DFFF7B6818460837FB
S32D0000C648BD4680BD80B582B000AF786039603B681A687B681A607B681A1D3B6804331946104601F0F8FD7B6809
S32D0000C67018460837BD4680BD80B582B000AF786039607B683A6811461846FFF7DFFF7B6818460837BD4680BD6A
S32D0000C69880B582B000AF786039603B681A687B681A607B681A1D3B6804331946104601F0D2FD7B681846083782
S32D0000C6C0BD4680BD80B582B000AF786039607B683A6811461846FFF7DFFF7B6818460837BD4680BD80B582B050
S32D0000C6E800AF786039603B681A687B681A607B681A1D3B6804331946104601F0ACFD7B6818460837BD4680BD7F
S32D0000C71080B582B000AF786039607B683A6811461846FFF7DFFF7B6818460837BD4680BD80B584B000AFF86036
S32D0000C738B9607A603B60FB681433184601F045FDFB681C33184601F040FDFB682433184601F05AFDFB682C33AA
S32D0000C760184601F062FDFB683433184601F05DFDFB683C33184601F065FDFB684433184601F060FDFB681433D7
S32D0000C788B9681846FFF74EFFFB681C3379681846FFF748FFFB68243339681846FFF768FFFB682C33B96918463B
S32D0000C7B0FFF788FFFB683433F9691846FFF782FFFB683C33396A1846FFF7A2FFFB684433796A1846FFF79CFFC7
S32D0000C7D8FB68BA6A1A60FB68FA6A5A60FB683A6B9A60FB687A6BDA60FB68BA6B1A61FB6818461037BD4680BDE2
S32D0000C800B0B586B000AFF860B9607A604FF49F737B6100233B61786911F088FB0346B968184611F0D7FB03463C
S32D0000C828184610F03BFF04460D46786810F036FF0BA3D3E9002310F089FF02460B462046294611F0ADF8024627
S32D0000C8500B461046194611F017FA03463B613B6918461837BD46B0BD182D4454FB21194080B586B000AFF86038
S32D0000C878B9607A603C4809F0F3FA0346184610F00DFF02460B464FF00000384911F088F802460B46104619465A
S32D0000C8A011F03AFA03467B61FB681B681946786911F090FB03467B612D4809F0D5FA0346184610F0EFFE024620
S32D0000C8C80B464FF00000294911F06AF802460B461046194611F01CFA03463B61FB689B681946386911F072FBBF
S32D0000C8F003463B61BB68002B17D1FB681433184601F0D1FC02467B6983F000431946104603F0D2FFFB681C332C
S32D0000C918184601F0C4FC03467969184603F0C8FF19E0BB68012B16D1FB681433184601F0B6FC02463B6983F066
S32D0000C94000431946104603F0B7FFFB681C33184601F0A9FC03463969184603F0ADFF7968F86800F0CFF800BFE3
S32D0000C9681837BD4680BD00BF181A00200000274080B586B000AFF8600B467A60FB723A4809F06EFA0346184606
S32D0000C99010F088FE02460B464FF00000354911F003F802460B461046194611F0B5F903467B61FB681B6819463A
S32D0000C9B8786911F00BFB03467B612B4809F050FA0346184610F06AFE02460B464FF00000264910F0E5FF02460C
S32D0000C9E00B461046194611F097F903463B61FB689B681946386911F0EDFA03463B61FB7A002B14D1FB6814334B
S32D0000CA08184601F04CFC03467969184603F050FFFB681C33184601F042FC03467969184603F046FF13E0FB6848
S32D0000CA301433184601F037FC03463969184603F03BFFFB681C33184601F02DFC03463969184603F031FF796822
S32D0000CA58F86800F029F803461946F86800F04EF800BF1837BD4680BD181A00200000274080B582B000AF78600C
S32D0000CA807B681433184601F00EFC0346184603F0D1FE7B681C33184601F005FC0346184603F0C8FE00BF0837BC
S32D0000CAA8BD4680BD0000000080B584B000AF78603960386810F0F2FD4FF000020E4B10F06FFF02460B46104611
S32D0000CAD0194609A3D3E9002310F03CFE02460B461046194611F018F90346FB60FB6818461037BD4680BD00BF09
S32D0000CAF8CDCCCCCCCC4C37400080764080B584B000AF786039607B681B691A4639687868FFF772FEF8607B68A8
S32D0000CB203433184601F0D7FB0346184606F06CF87B683433184601F0CEFB0346184606F051F80246FB68934296
S32D0000CB48CCBF01230023DBB2002B00D0ECE77868FFF78EFF00BF1037BD4680BD80B584B000AFF860B9607A6086
S32D0000CB703B60FB6800221A60FB6801225A60FB68334A9A60FB68334ADA60FB68324A1A61FB68324A5A61FB6872
S32D0000CB984FF07F529A61FB680122DA61FB6800221A62FB682433184601F00FFBFB682C33184601F00AFBFB6816
S32D0000CBC03433184601F024FBFB683C33184601F02CFBFB684433184601F027FBFB684C33184601F02FFBFB6821
S32D0000CBE85433184601F02AFBFB682433B9681846FFF718FDFB682C3379681846FFF712FDFB6834333968184611
S32D0000CC10FFF732FDFB683C33B9691846FFF752FDFB684433F9691846FFF74CFDFB684C33396A1846FFF76CFD1F
S32D0000CC38FB685433796A1846FFF766FDFB6818461037BD4680BD00BF0000204200001042000020C2000010C2DB
S32D0000CC6080B582B000AF786039603B681A687B681A607B681A1D3B6804331946104601F036FB7B681846083752
S32D0000CC88BD4680BD80B582B000AF786039607B683A6811461846FFF7DFFF7B6818460837BD4680BD80B582B082
S32D0000CCB000AF786039603B681A687B681A607B681A1D3B6804331946104601F010FB7B6818460837BD4680BD4F
S32D0000CCD880B582B000AF786039607B683A6811461846FFF7DFFF7B6818460837BD4680BD80B582B000AF7860EB
S32D0000CD0039603B681A687B681A607B681A1D3B6804331946104601F0EAFA7B6818460837BD4680BD80B582B045
S32D0000CD2800AF786039607B683A6811461846FFF7DFFF7B6818460837BD4680BD80B582B000AF786039603B68C5
S32D0000CD501A687B681A607B681A1D3B6804331946104601F0C4FA7B6818460837BD4680BD80B582B000AF7860D0
S32D0000CD7839607B683A6811461846FFF7DFFF7B6818460837BD4680BD80B582B000AF78607B6844331846FFF78A
S32D0000CDA022FC7B683C331846FFF71DFC7B6834331846FFF7FDFB7B682C331846FFF7F8FB7B6824331846FFF7DB
S32D0000CDC8D8FB7B681C331846FFF7B8FB7B6814331846FFF7B3FB7B6818460837BD4680BDF0B59BB00AAF7860C4
S32D0000CDF039603B6803F1240207F1080311461846FFF744FF3B6803F12C0207F1100311461846FFF73BFF3B6876
S32D0000CE1803F1340207F1180311461846FFF758FF3B6803F13C0207F1200311461846FFF775FF3B6803F14402C1
S32D0000CE4007F1280311461846FFF76CFF3B6803F14C0207F1300311461846FFF789FF3B6803F1540207F1380328
S32D0000CE6811461846FFF780FF3B689B683A68D26839680969386840693C68A46907F1180C07F1100607F10805B4
S32D0000CE900894079006910592049307F13803039307F13003029307F12803019307F120030093634632462946FE
S32D0000CEB87868FFF739FC07F138031846FFF78FFB07F130031846FFF78AFB07F128031846FFF76AFB07F1200335
S32D0000CEE01846FFF765FB07F118031846FFF745FB07F110031846FFF725FB07F108031846FFF720FB00BF786839
S32D0000CF084437BD46F0BD0000B0B5ADF5787D06AF07F57273A3F57173186007F57273A3F5727319604FF0FF3302
S32D0000CF30C7F8C4334FF00003C7F8BC334FF00003C7F8B833002387F8C333524807F01DFA07F1080303241D4674
S32D0000CF58002C05DB284608F010FCEC35013CF7E707F108006FF07F4305934FF47F03049307F57273A3F572737E
S32D0000CF801B68039305230293052301930A2300930A230222022108F03DFE97F8C333002B70D107F56E7207F5C1
S32D0000CFA86F731946394807F003FB0346002BF0D0D7F8BC13D7F8B82307F10800002308F0F1FC0346002B14BFD9
S32D0000CFD001230023DBB2002B06D00023C7F8C433012387F8C333D8E7D7F8BC13D7F8B82307F1080303F1EC0002
S32D0000CFF8002308F0D7FC0346002B14BF01230023DBB2002B06D00123C7F8C433012387F8C333BEE7D7F8BC134B
S32D0000D020D7F8B82307F1080303F5EC70002308F0BDFC0346002B14BF01230023DBB2002B06D00223C7F8C43316
S32D0000D048012387F8C333A4E7D7F8BC13D7F8B82307F1080303F53170002308F0A3FC0346002B14BF012300236A
S32D0000D070DBB2002B91D00323C7F8C433012387F8C3338AE7D7F8C433184607F57277BD46B0BD00BFCC19002056
S32D0000D09880B5E2B000AF07F5C473A3F5C273186007F5C473A3F5BE7207F5C473A3F5C27319681046FFF794FE22
S32D0000D0C007F5C473A3F5C2731B68596807F10C034A4A1846FFF7CCFB07F10C031846FFF757FE07F5C473A3F5CD
S32D0000D0E8987207F5C473A3F5C27319681046FFF777FE07F5C473A3F5C2731B68196807F158033C4A1846FFF79D
S32D0000D110AFFB07F158031846FFF73AFE07F1A40207F5C473A3F5C27319681046FFF75CFE07F5C473A3F5C273A3
S32D0000D1381B681B6A002B14BF01230023D9B207F1A4032D4A1846FFF713FC07F1A4031846FFF71AFE4FF000002E
S32D0000D160284905F06BFA07F1F00207F5C473A3F5C27319681046FFF737FE07F5C473A3F5C2731B68DB69002BF8
S32D0000D18814BF01230023D9B207F1F0031C4A1846FFF7EEFB07F1F0031846FFF7F5FD4FF000004FF0804105F0E1
S32D0000D1B045FA07F59E7207F5C473A3F5C27319681046FFF711FE07F5C473A3F5C2731B681B6A002B14BF012300
S32D0000D1D80023D9B207F59E730A4A1846FFF7C8FB07F59E731846FFF7CFFD00BF07F5C477BD4680BD0000A040C0
S32D0000D2000000344300000840000007430000344280B582B000AF7860074807F0B6F87B684C33184601F04BF8AB
S32D0000D2280346184606F0C4F800BF0837BD4680BDCC19002080B5C8B004AF07F58873A3F586731860002387F83A
S32D0000D2500F3107F10C03184608F093FA07F10C004FF47F0303934FF47F0302933223019364230093BD23DB22ED
S32D0000D278694908F08CFA694807F083F807F10C03184608F0B9FA97F80F31002B40F0BE804FF00000624905F0DE
S32D0000D2A0CDF9624808F0E0FDC7F80801604BC7F80431D7F80411D7F8080110F03FFF03465C49184610F086FEEA
S32D0000D2C80346C7F8003100230022D7F80011534807F0D4F86FF07F41504807F098F864230093322346228721BF
S32D0000D2F04C4807F002FD5049D7F8000111F01CF80346002B0DD04FF40041464807F083F863230093312347225D
S32D0000D3188821424807F0AAFD4FE04549D7F8000110F0F2FF0346002B15D04249D7F8000110F0FEFF0346002B73
S32D0000D3400DD04FF40041374807F065F84A230093312360228821334807F08CFD31E03749D7F8000110F0D4FFDD
S32D0000D3680346002B14D03449D7F8000110F0E0FF0346002B0CD03149284807F048F83123009331237922882123
S32D0000D390244807F06FFD14E02949D7F8000110F0B7FF0346002B0CD04FF47F011D4807F032F8182300933123F9
S32D0000D3B892228821194807F059FD00230022D7F80011164807F05AF807F1F80207F1FC031946124807F0ECF8F3
S32D0000D3E00346002B3FF453AFD7F8FC10D7F8F82007F10C00002308F0D9FA0346002B14BF01230023DBB2002B7C
S32D0000D4083FF441AF012387F80F313CE700BF07F58877BD4680BD00BF285F0200CC1900200000D03F181A002025
S32D0000D430000038410000C84200009642000048420000C84100FFFF0080B5ADF6481D00AF07F64813A3F64413AE
S32D0000D45818600023C7F844390023C7F8403907F64813A3F644131B684C33184600F023FF0346DC49184605F0F9
S32D0000D4801FFF07F64813A3F644131B685433184600F015FF0346D649184605F011FF4FF00000D44905F0CAF8CE
S32D0000D4A807F64813A3F63C1207F64813A3F6441319681046FFF794FC07F64813A3F644131B68196807F10C031F
S32D0000D4D04FF07C521846FFF7CBF907F10C031846FFF756FC07F64813A3F50F6207F64813A3F6441319681046DC
S32D0000D4F8FFF776FC07F64813A3F644131B68596807F158034FF07C521846FFF7ADF907F158031846FFF738FCDD
S32D0000D52007F64813A3F6A40207F64813A3F6441319681046FFF758FC07F64813A3F644131B68596807F1A403B2
S32D0000D548AB4A1846FFF790F907F1A4031846FFF71BFC07F64813A3F6580207F64813A3F6441319681046FFF779
S32D0000D5703BFC07F64813A3F644131B681B6A002B14BF01230023D9B207F1F0039B4A1846FFF7F2F907F1F0033C
S32D0000D5981846FFF7F9FB07F64813A3F60C0207F64813A3F6441319681046FFF719FC07F64813A3F644131B6829
S32D0000D5C0196807F59E734FF082421846FFF750F907F59E731846FFF7DBFB07F64813A3F644131B682433184658
S32D0000D5E800F05DFE03468449184603F061F907F64813A3F644131B682C33184600F04FFE03467E49184603F0E3
S32D0000D61053F94FF000004FF0804105F00FF807F64813A3F5F86207F64813A3F6441319681046FFF7D9FB07F536
S32D0000D638C4731846FFF71CFA07F5C4731846FFF7A3FB07F64813A3F2747207F64813A3F6441319681046FFF716
S32D0000D660C3FB07F64813A3F644131B68DB69002B14BF01230023D9B207F5EA73624A1846FFF77AF907F5EA73DA
S32D0000D6881846FFF781FB07F64813A3F5E56207F64813A3F6441319681046FFF7A1FB07F64813A3F644131B68F1
S32D0000D6B0596807F50873554A1846FFF7D9F807F508731846FFF764FB07F64813A3F2DC6207F64813A3F64413B3
S32D0000D6D819681046FFF784FB07F64813A3F644131B681B6A002B14BF01230023D9B207F51B73454A1846FFF74B
S32D0000D7003BF907F51B731846FFF742FB07F64813A3F5D26207F64813A3F6441319681046FFF762FB07F64813BE
S32D0000D728A3F644131B68596807F52E73374A1846FFF79AF807F52E731846FFF725FB4FF000002A4904F076FF6F
S32D0000D75007F64813A3F2446207F64813A3F6441319681046FFF740FB07F64813A3F644131B68196807F54173CC
S32D0000D778274A1846FFF778F807F541731846FFF703FB07F64813A3F5BF6207F64813A3F6441319681046FFF726
S32D0000D7A023FB07F64813A3F644131B68DB69002B14BF01230023D9B207F55473174A1846FFF7DAF807F5547351
S32D0000D7C81846FFF7E1FA07F64813A3F2AC5207F64813A3F6441319681046FFF701FB07F6481319E00000F04285
S32D0000D7F00000BE4200000840000020410000C8410000A0C10000A04100009D420000D441000094410000C0414D
S32D0000D8180000104100002042A3F644131B68196807F56773614A1846FFF71EF807F567731846FFF7A9FA07F686
S32D0000D8404813A3F644131B684C33184600F037FD03464FF00001184605F032FD4FF000004FF0804104F0EAFEC5
S32D0000D86807F64813A3F5AC6207F64813A3F6441319681046FFF7B4FA07F64813A3F644131B68596807F57A735C
S32D0000D8904FF080421846FEF7EBFF07F57A731846FFF776FA07F64813A3F2145207F64813A3F64413196810460D
S32D0000D8B8FFF796FA07F64813A3F644131B68DB69002B14BF01230023D9B207F23443384A1846FFF74DF807F259
S32D0000D8E034431846FFF754FA07F64813A3F5996207F64813A3F6441319681046FFF774FA07F64813A3F644134B
S32D0000D9081B68596807F590632A4A1846FEF7ACFF07F590631846FFF737FA07F64813A3F27C4207F64813A3F63C
S32D0000D930441319681046FFF757FA07F64813A3F644131B68DB69002B14BF01230023D9B207F2CC43184A1846AD
S32D0000D958FFF70EF807F2CC431846FFF715FAD7F84439002B04D0D7F84439012B0FD027E007F64813A3F6441349
S32D0000D9801B685433184600F09AFC03460C49184605F096FC28E007F64813A3F644131B685433184600F08BFCD9
S32D0000D9A803460649184605F087FC19E0000040410000B4420000C04000001B430000824207F64813A3F6441309
S32D0000D9D01B685433184600F072FC03464FF00001184605F06DFC00BF07F64813A3F5866207F64813A3F644133F
S32D0000D9F819681046FFF7F4F907F64813A3F644131B68196807F5A363CD4A1846FEF72CFF07F5A3631846FFF70E
S32D0000DA20B7F907F64813A3F5797207F64813A3F6441319681046FFF7D7F907F64813A3F644131B68596807F2E3
S32D0000DA4864534FF080421846FEF70EFF07F264531846FFF799F907F64813A3F644131B682433184600F01BFC7B
S32D0000DA700346B649184602F01FFF07F64813A3F644131B682C33184600F00DFC0346B049184602F011FF4FF070
S32D0000DA9800004FF0804104F0CDFD07F64813A3F5667207F64813A3F6441319681046FFF797F907F5B6631846C2
S32D0000DAC0FEF7DAFF07F5B6631846FFF761F907F64813A3F5537207F64813A3F6441319681046FFF781F907F666
S32D0000DAE84813A3F644131B68596807F2FC534FF080421846FEF7B8FE07F2FC531846FFF743F907F64813A3F666
S32D0000DB1044131B685433184600F0D1FB03468D49184605F0CDFB07F64813A3F644131B684C33184600F0C3FBDC
S32D0000DB3803468749184605F0BFFB07F64813A3F5407207F64813A3F6441319681046FFF747F907F64813A3F6B1
S32D0000DB6044131B68DB69002B14BF01230023D9B207F5C963794A1846FEF7FEFE07F5C9631846FFF705F907F6F8
S32D0000DB884813A3F52D7207F64813A3F6441319681046FFF725F907F64813A3F644131B68596807F294634FF0EF
S32D0000DBB080421846FEF75CFE07F294631846FFF7E7F807F64813A3F644131B685433184600F075FB03466249B1
S32D0000DBD8184605F071FB4FF000004FF0804104F029FD07F64813A3F51A7207F64813A3F6441319681046FFF776
S32D0000DC00F3F807F64813A3F644131B68196807F5DC634FF080421846FEF72AFE07F5DC631846FFF7B5F807F6CF
S32D0000DC284813A3F644131B685433184600F043FB03464A49184605F03FFB4FF00000484904F0F8FC07F6481374
S32D0000DC50A3F644131B685433184600F030FB03463F49184605F02CFB07F64813A3F5077207F64813A3F6441337
S32D0000DC7819681046FFF7B4F807F64813A3F644131B68596807F22C73364A1846FEF7ECFD07F22C731846FFF739
S32D0000DCA077F807F64813A3F5E87207F64813A3F6441319681046FFF797F807F64813A3F644131B681B6A002B7E
S32D0000DCC814BF01230023D9B207F5EF63234A1846FEF74EFE07F5EF631846FFF755F807F64813A3F5C27207F61F
S32D0000DCF04813A3F6441319681046FFF775F807F64813A3F644131B68596807F2C473184A1846FEF7ADFD07F26D
S32D0000DD18C4731846FFF738F8D7F84039022B00F09F80D7F84039022B00F39C80D7F84039002B1BD0D7F8403974
S32D0000DD40012B00F0958091E0000040410000A0C10000A0410000BE420000F0420000964200003443000070421D
S32D0000DD680000F03F0000504100000C4207F64813A3F59C7207F64813A3F6441319681046FFF72EF807F64813EE
S32D0000DD90A3F644131B68DB69002B14BF01230023D9B207F50163354A1846FEF7E5FD07F501631846FEF7ECFF2C
S32D0000DDB807F65C0207F64813A3F6441319681046FFF70EF807F64813A3F644131B68196807F65C03284A18464F
S32D0000DDE0FEF746FD07F65C031846FEF7D1FF07F6A80207F64813A3F6441319681046FEF7F3FF07F64813A3F6C0
S32D0000DE0844131B68DB69002B14BF01230023D9B207F6A803174A1846FEF7AAFD07F6A8031846FEF7B1FF07F653
S32D0000DE30F40207F64813A3F6441319681046FEF7D3FF07F64813A3F644131B68196807F6F4034FF07C5218463D
S32D0000DE58FEF70AFD07F6F4031846FEF795FF04E000BF02E000BF00E000BF00BF07F64817BD4680BD00009642AF
S32D0000DE800000404180B582B000AF78607B6854331846FEF7A8FB7B684C331846FEF7A3FB7B6844331846FEF7A5
S32D0000DEA883FB7B683C331846FEF77EFB7B6834331846FEF75EFB7B682C331846FEF73EFB7B6824331846FEF75F
S32D0000DED039FB7B6818460837BD4680BD90B5D7B004AFB14A07F1940311465022184611F09BFF002387F8E730AC
S32D0000DEF84FF00002AB4BC7E93A2307F18C0307F1E80207F1E701184600F004FA012387F8F7304FF00002A34B2A
S32D0000DF20C7E93E2307F1840307F1F80207F1F701184600F0F3F9082387F8073107F17C0307F207121146184607
S32D0000DF4800F00BFA072387F8083107F1740307F584721146184600F01EFA002387F8093107F16C0307F209125F
S32D0000DF701146184600F013FA002387F80A3107F1640307F585721146184600F026FA072387F80B3107F15C03A1
S32D0000DF9807F20B121146184600F01BFA6FF00103C7F8443107F16403184600F084F903464FF4FA71184605F080
S32D0000DFC045F907F16403184600F079F903464FF4FA61184605F057F907F15C03184600F06EF903464FF4FA7149
S32D0000DFE8184605F02FF907F15C03184600F063F903464FF41161184605F041F907F18C0207F5867311461846D4
S32D0000E010FEF73CFE07F1840207F58A7311461846FEF734FE07F17C0207F58E7311461846FEF752FE07F1740285
S32D0000E03807F5927311461846FEF770FE07F16C0207F5967311461846FEF768FE07F1640207F59A73114618460A
S32D0000E060FEF786FE07F15C0207F59E7311461846FEF77EFE07F58E7407F58A7207F58671384607F59E73039386
S32D0000E08807F59A73029307F59673019307F5927300932346FEF762FD07F59E731846FEF79EFA07F59A73184683
S32D0000E0B0FEF799FA07F596731846FEF779FA07F592731846FEF774FA07F58E731846FEF754FA07F58A73184638
S32D0000E0D8FEF734FA07F586731846FEF72FFAD7F84431B3F1FF3F2DD007F194023B4611461846FEF709FFC7F8E3
S32D0000E1004401D7F84431032B1ED801A252F823F021E100002BE1000035E100003FE100003B461846FEF7B8FF75
S32D0000E1280FE03B461846FFF78BF90AE03B461846FFF76AF805E03B461846FFF77BF800E000BFCCE700243B463C
S32D0000E1501846FFF797FE07F15C031846FEF743FA07F164031846FEF73EFA07F16C031846FEF71EFA07F17403A6
S32D0000E1781846FEF719FA07F17C031846FEF7F9F907F184031846FEF7D9F907F18C031846FEF7D4F92346184645
S32D0000E1A007F5A677BD4690BD305F02000000224080B582B000AF78607B68002B05D07B681B6804331B68786824
S32D0000E1C8984700BF0837BD4680BD80B582B000AF78607B68184600F03BF97B6818460837BD4680BD80B582B092
S32D0000E1F000AF78607B681B68002B04D07B681B681846FEF756F97B6818460837BD4680BD80B582B000AF78605F
S32D0000E2187B68184600F02DF97B6818460837BD4680BD80B582B000AF78607B68184600F031F97B6818460837F8
S32D0000E240BD4680BD80B582B000AF78607B68184600F035F97B6818460837BD4680BD80B584B000AF78603960DA
S32D0000E2683B681B68FB607B681B68FA689A4211D0FB68002B02D0F868FEF709F97B681B68002B04D07B681B6800
S32D0000E2901846FEF70EF97B68FA681A607B6818461037BD4680BD80B582B000AF7860786800F016F9034618460B
S32D0000E2B80837BD4680BD80B582B000AF7860786800F016F9034618460837BD4680BD80B582B000AF78607868F8
S32D0000E2E000F016F9034618460837BD4680BD80B582B000AF786039603B681A687B681A607B681B68002B04D07D
S32D0000E3087B681B681846FEF7C2F87B6818460837BD4680BD90B587B000AFF860B9607A6007F11403184600F0E1
S32D0000E330FBF8B86800F010F90446786800F016F90346F86807F11401224600F019F907F11403184600F0F4F821
S32D0000E35800BFF8681C37BD4690BD80B584B000AF7860396007F10C03184600F01EF9386800F033F902467B68F9
S32D0000E38007F10C01184600F036F907F10C03184600F01BF900BF78681037BD4680BD80B584B000AF78603960D5
S32D0000E3A807F10C03184600F036F9386800F015F902467B6807F10C01184600F044F907F10C03184600F033F9E9
S32D0000E3D000BF78681037BD4680BD80B584B000AF7860396007F10C03184600F044F9386800F059F902467B68D1
S32D0000E3F807F10C01184600F05CF907F10C03184600F041F900BF78681037BD4680BD000080B483B000AF7860AC
S32D0000E420044A7B681A607B6818460C37BD4680BC704700BFF85F020080B582B000AF78607868FFF7E9FF0C21B8
S32D0000E448786807F0A7FF7B6818460837BD4680BD80B582B000AF78607B6800221A607B680433184600F039F962
S32D0000E4707B6818460837BD4680BD80B582B000AF78607B6800221A607B680433184600F028F97B681846083748
S32D0000E498BD4680BD80B582B000AF78607B6800221A607B680433184600F017F97B6818460837BD4680BD80B53C
S32D0000E4C082B000AF78607B6800221A607B680433184600F006F97B6818460837BD4680BD80B582B000AF7860E1
S32D0000E4E8786800F007F9034618460837BD4680BD80B582B000AF7860786800F006F9034618460837BD4680BD2D
S32D0000E51080B582B000AF7860786800F005F9034618460837BD4680BD80B582B000AF7860786800F004F97B685D
S32D0000E53818460837BD4680BD80B582B000AF7860786800F002F97B6818460837BD4680BD80B483B000AF786071
S32D0000E5607B6818460C37BD4680BC704780B483B000AF78607B6818460C37BD4680BC7047B0B584B000AFF8600B
S32D0000E588B9607A603B60BC687868FFF7E1FF05463868FFF7E7FF03462A462146F86800F0DEF8F8681037BD4646
S32D0000E5B0B0BD80B582B000AF7860786800F0EDF87B6818460837BD4680BD80B582B000AF7860786800F0EBF8CC
S32D0000E5D87B6818460837BD4680BD80B483B000AF78607B6818460C37BD4680BC704790B585B000AFF860B96053
S32D0000E6007A60BC687868FFF7ECFF03461A462146F86800F0D6F8F8681437BD4690BD80B582B000AF7860786836
S32D0000E62800F0E0F87B6818460837BD4680BD80B582B000AF7860786800F0DEF87B6818460837BD4680BD90B5A3
S32D0000E65085B000AFF860B9607A60BC687868FFF7C0FF03461A462146F86800F0D3F8F8681437BD4690BD80B559
S32D0000E67882B000AF7860786800F0DDF87B6818460837BD4680BD80B582B000AF7860786800F0DBF87B68184684
S32D0000E6A00837BD4680BD80B483B000AF78607B6818460C37BD4680BC704790B585B000AFF860B9607A60BC68CD
S32D0000E6C87868FFF7ECFF03461A462146F86800F0C6F8F8681437BD4690BD80B483B000AF78607B6800221A60DD
S32D0000E6F07B6818460C37BD4680BC704780B483B000AF78607B681B6818460C37BD4680BC704780B483B000AF81
S32D0000E71878607B681B6818460C37BD4680BC704780B483B000AF78607B681B6818460C37BD4680BC704780B4DF
S32D0000E74083B000AF78607B6818460C37BD4680BC704780B483B000AF78607B6818460C37BD4680BC7047B0B5AA
S32D0000E76884B000AFF860B9607A603B60FC687868FFF7EEFE05463868FFF7F4FE03462A46B968204600F080F819
S32D0000E790FB6818461037BD46B0BD80B483B000AF78607B6818460C37BD4680BC704780B483B000AF78607B68AA
S32D0000E7B818460C37BD4680BC704790B585B000AFF860B9607A60FC687868FFF706FF03461A46B968204600F0C9
S32D0000E7E07EF8FB6818461437BD4690BD80B483B000AF78607B6818460C37BD4680BC704780B483B000AF7860E3
S32D0000E8087B6818460C37BD4680BC704790B585B000AFF860B9607A60FC687868FFF7DDFE03461A46B9682046AF
S32D0000E83000F075F8FB6818461437BD4690BD80B483B000AF78607B6818460C37BD4680BC704780B483B000AF83
S32D0000E85878607B6818460C37BD4680BC704790B585B000AFF860B9607A60FC687868FFF716FF03461A46B968B3
S32D0000E880204600F06CF8FB6818461437BD4690BDF0B587B002AFF860B9607A603B60FB6800221A60FB681C1D46
S32D0000E8A8FD687868FFF754FE06463868FFF75AFE034600933346BA682946204600F06BF8FB681B681946F86837
S32D0000E8D000F0C4F8FB6818461437BD46F0BDB0B584B000AFF860B9607A60FB6800221A60FB681C1DFD6878683F
S32D0000E8F8FFF773FE0346BA682946204600F0B4F8FB681B681946F86800F006F9FB6818461037BD46B0BDB0B53E
S32D0000E92084B000AFF860B9607A60FB6800221A60FB681C1DFD687868FFF753FE0346BA682946204600F0F6F856
S32D0000E948FB681B681946F86800F048F9FB6818461037BD46B0BDB0B584B000AFF860B9607A60FB6800221A60C1
S32D0000E970FB681C1DFD687868FFF795FE0346BA682946204600F038F9FB681B681946F86800F08AF9FB681846D5
S32D0000E9981037BD46B0BD2DE9F0418AB000AFF860B9607A603B607A6807F118031146184600F080F907F1100366
S32D0000E9C007F118021146184600F091F907F11003184600F0B4F978627A6807F11C031146184600F0BAF907F1BF
S32D0000E9E81C053868FFF7B4FD0646386CFFF7BAFD80467B6A19461420FDF73EFD0446434632462946204600F07F
S32D0000EA10CBF93C6207F11C031846FFF791FD07F110030021184600F0F9F9FB683A6A1A60386A00F001FA0246BB
S32D0000EA38BB681A6007F11003184600F067F907F11803184600F043F9FB6818462837BD46BDE8F08180B483B01D
S32D0000EA6000AF7860396000BF0C37BD4680BC7047F0B58BB000AFF860B9607A603B607A6807F118031146184651
S32D0000EA8800F0E4F907F1100307F118021146184600F0F5F907F11003184600F018FA78627A6807F11C0311464E
S32D0000EAB0184600F01EFA07F11C053868FFF791FD06467B6A19461020FDF7DAFC044632462946204600F034FA56
S32D0000EAD83C6207F11C031846FFF773FD07F110030021184600F05EFAFB683A6A1A60386A00F066FA0246BB68E7
S32D0000EB001A6007F11003184600F0D0F907F11803184600F0ACF9FB6818462C37BD46F0BD80B483B000AF786083
S32D0000EB28396000BF0C37BD4680BC7047F0B58BB000AFF860B9607A603B607A6807F118031146184600F04AFADB
S32D0000EB5007F1100307F118021146184600F05BFA07F11003184600F07EFA78627A6807F11C031146184600F037
S32D0000EB7884FA07F11C053868FFF72FFD06467B6A19461020FDF778FC044632462946204600F09AFA3C6207F13D
S32D0000EBA01C031846FFF747FD07F110030021184600F0C4FAFB683A6A1A60386A00F0CCFA0246BB681A6007F1A2
S32D0000EBC81003184600F036FA07F11803184600F012FAFB6818462C37BD46F0BD80B483B000AF7860396000BF07
S32D0000EBF00C37BD4680BC7047F0B58BB000AFF860B9607A603B607A6807F118031146184600F0B0FA07F11003FA
S32D0000EC1807F118021146184600F0C1FA07F11003184600F0E4FA78627A6807F11C031146184600F0EAFA07F1D1
S32D0000EC401C053868FFF72FFD06467B6A19461820FDF716FC044632462946204600F000FB3C6207F11C03184660
S32D0000EC68FFF711FD07F110030021184600F02AFBFB683A6A1A60386A00F032FB0246BB681A6007F1100318464D
S32D0000EC9000F09CFA07F11803184600F078FAFB6818462C37BD46F0BD80B483B000AF7860396000BF0C37BD469D
S32D0000ECB880BC704780B582B000AF78603960786800F01CFB7B6818460837BD4680BD80B582B000AF786078683F
S32D0000ECE000F01AFB7B6818460837BD4680BD80B582B000AF786039600121386800F016FB03461A4639687868CD
S32D0000ED0800F01FFB78680837BD4680BD80B582B000AF78607B685B68002B07D07B6818687B685B680122194653
S32D0000ED3000F01FFB7B6818460837BD4680BD80B582B000AF78607B685B68184600F020FB034618460837BD4605
S32D0000ED5880BD80B582B000AF786039603968786800F01CFB7B6818460837BD4680BD80B582B000AF78607868B3
S32D0000ED80FFF7DEFB7B6818460837BD4680BD80B582B000AF78607868FFF7EDFF7B6818460837BD4680BD000066
S32D0000EDA8B0B586B000AFF860B9607A603B60FB68184600F0FFFA164AFB681A60FB6803F10C0407F11403B9688F
S32D0000EDD01846FFF7C2FF07F114031946204600F003FB07F114031846FFF7AAFBF86800F023F804467868FFF7AB
S32D0000EDF8AFFB05463868FFF7B5FB03462A462146B86800F0FBFAFB6818461837BD46B0BDDC5F020080B483B069
S32D0000EE2000AF786039607B6800225A607B6818460C37BD4680BC704780B582B000AF78607B680C33184600F00D
S32D0000EE48F5FA034618460837BD4680BD80B582B000AF78603960786800F0F4FA7B6818460837BD4680BD80B54D
S32D0000EE7082B000AF7860786800F0F2FA7B6818460837BD4680BD80B582B000AF786039600121386800F0EEFA1E
S32D0000EE9803461A463968786800F0F7FA78680837BD4680BD80B582B000AF78607B685B68002B07D07B681868E9
S32D0000EEC07B685B680122194600F0F7FA7B6818460837BD4680BD80B582B000AF78607B685B68184600F0F8FA87
S32D0000EEE8034618460837BD4680BD80B582B000AF786039603968786800F0F4FA7B6818460837BD4680BD80B5FB
S32D0000EF1082B000AF78607868FFF757FB7B6818460837BD4680BD80B582B000AF78607868FFF7EDFF7B68184641
S32D0000EF380837BD4680BD000090B587B000AFF860B9607A60FB68184600F034FA144AFB681A60FB6803F10C0435
S32D0000EF6007F11403B9681846FFF7C3FF07F114031946204600F0C5FA07F114031846FFF724FBF86800F020F8D0
S32D0000EF8804467868FFF729FB03461A462146B86800F0C1FAFB6818461C37BD4690BD00BFC05F020080B483B091
S32D0000EFB000AF786039607B6800225A607B6818460C37BD4680BC704780B582B000AF78607B680C33184600F07C
S32D0000EFD8B5FA034618460837BD4680BD80B582B000AF78603960786800F0B4FA7B6818460837BD4680BD80B53C
S32D0000F00082B000AF7860786800F0B2FA7B6818460837BD4680BD80B582B000AF786039600121386800F0AEFA0C
S32D0000F02803461A463968786800F0B7FA78680837BD4680BD80B582B000AF78607B685B68002B07D07B68186897
S32D0000F0507B685B680122194600F0B7FA7B6818460837BD4680BD80B582B000AF78607B685B68184600F0B8FA75
S32D0000F078034618460837BD4680BD80B582B000AF786039603968786800F0B4FA7B6818460837BD4680BD80B5A9
S32D0000F0A082B000AF78607868FFF7C5FA7B6818460837BD4680BD80B582B000AF78607868FFF7EDFF7B68184643
S32D0000F0C80837BD4680BD000090B587B000AFF860B9607A60FB68184600F06CF9144AFB681A60FB6803F10C046D
S32D0000F0F007F11403B9681846FFF7C3FF07F114031946204600F085FA07F114031846FFF792FAF86800F020F812
S32D0000F11804467868FFF761FA03461A462146B86800F081FAFB6818461C37BD4690BD00BFA45F020080B483B024
S32D0000F14000AF786039607B6800225A607B6818460C37BD4680BC704780B582B000AF78607B680C33184600F0EA
S32D0000F16875FA034618460837BD4680BD80B582B000AF78603960786800F074FA7B6818460837BD4680BD80B52A
S32D0000F19082B000AF7860786800F072FA7B6818460837BD4680BD80B582B000AF786039600121386800F06EFAFB
S32D0000F1B803461A463968786800F077FA78680837BD4680BD80B582B000AF78607B685B68002B07D07B68186846
S32D0000F1E07B685B680122194600F077FA7B6818460837BD4680BD80B582B000AF78607B685B68184600F078FA64
S32D0000F208034618460837BD4680BD80B582B000AF786039603968786800F074FA7B6818460837BD4680BD80B557
S32D0000F23082B000AF78607868FFF729FA7B6818460837BD4680BD80B582B000AF78607868FFF7EDFF7B6818464D
S32D0000F2580837BD4680BD000090B587B000AFF860B9607A60FB68184600F0A4F8144AFB681A60FB6803F10C04A4
S32D0000F28007F11403B9681846FFF7C3FF07F114031946204600F045FA07F114031846FFF7F6F9F86800F020F85D
S32D0000F2A804467868FFF7FBF903461A462146B86800F041FAFB6818461C37BD4690BD00BF885F020080B483B056
S32D0000F2D000AF786039607B6800225A607B6818460C37BD4680BC704780B582B000AF78607B680C33184600F059
S32D0000F2F835FA034618460837BD4680BD80B483B000AF78607B6818460C37BD4680BC704780B483B000AF78603D
S32D0000F3207B6818460C37BD4680BC704780B582B000AF7860396000223968786800F01EFA034618460837BD462A
S32D0000F34880BD80B584B000AFF860B9607A60B86800F031FA0246FB681A60FB687A685A60FB6818461037BD468D
S32D0000F37080BD80B584B000AFF860B9607A607A68B968F86800F025FA00BF1037BD4680BD80B483B000AF786029
S32D0000F3987B6818460C37BD4680BC704780B483B000AF786039607B6818460C37BD4680BC7047000080B483B065
S32D0000F3C000AF7860074A7B681A607B6801225A607B6801229A607B6818460C37BD4680BC704700BFF85F020098
S32D0000F3E880B582B000AF786039603968786800F0FFF97B6818460837BD4680BD90B585B000AFF860B9607A60D3
S32D0000F4103B607868FFF7A0F804463868FFF7A6F803462246B968F86800F0F4F900BF1437BD4690BD80B582B077
S32D0000F43800AF7860786800F00FFA034618460837BD4680BD80B483B000AF78607B6818460C37BD4680BC7047B8
S32D0000F46080B483B000AF78607B6818460C37BD4680BC704780B582B000AF7860396000223968786800F0F6F90D
S32D0000F488034618460837BD4680BD80B584B000AFF860B9607A60B86800F006FA0246FB681A60FB687A685A6099
S32D0000F4B0FB6818461037BD4680BD80B584B000AFF860B9607A607A68B968F86800F0FAF900BF1037BD4680BDF7
S32D0000F4D880B483B000AF78607B6818460C37BD4680BC704780B483B000AF786039607B6818460C37BD4680BC54
S32D0000F500704780B582B000AF786039603968786800F0E8F97B6818460837BD4680BD80B584B000AFF860B96004
S32D0000F5287A607868FFF759F803461A46B968F86800F0E2F900BF1037BD4680BD80B582B000AF7860786800F0BB
S32D0000F550F0F9034618460837BD4680BD80B483B000AF78607B6818460C37BD4680BC704780B483B000AF786028
S32D0000F5787B6818460C37BD4680BC704780B582B000AF7860396000223968786800F0D7F9034618460837BD4618
S32D0000F5A080BD80B584B000AFF860B9607A60B86800F0E7F90246FB681A60FB687A685A60FB6818461037BD467E
S32D0000F5C880BD80B584B000AFF860B9607A607A68B968F86800F0DBF900BF1037BD4680BD80B483B000AF78601A
S32D0000F5F07B6818460C37BD4680BC704780B483B000AF786039607B6818460C37BD4680BC704780B582B000AF5C
S32D0000F618786039603968786800F0C9F97B6818460837BD4680BD80B584B000AFF860B9607A607868FEF7D1FF58
S32D0000F64003461A46B968F86800F0C3F900BF1037BD4680BD80B582B000AF7860786800F0D1F903461846083712
S32D0000F668BD4680BD80B483B000AF78607B6818460C37BD4680BC704780B483B000AF78607B6818460C37BD4657
S32D0000F69080BC704780B582B000AF7860396000223968786800F0B8F9034618460837BD4680BD80B584B000AF50
S32D0000F6B8F860B9607A60B86800F0CBF90246FB681A60FB687A685A60FB6818461037BD4680BD80B584B000AF81
S32D0000F6E0F860B9607A607A68B968F86800F0BFF900BF1037BD4680BD80B483B000AF78607B6818460C37BD46EB
S32D0000F70880BC704780B483B000AF786039607B6818460C37BD4680BC704780B582B000AF7860396039687868D7
S32D0000F73000F0B0F97B6818460837BD4680BD80B584B000AFF860B9607A607868FEF7ABFF03461A46B968F86846
S32D0000F75800F0AAF900BF1037BD4680BD80B582B000AF7860786800F0B8F9034618460837BD4680BD80B584B0AC
S32D0000F78000AFF860B9607A60F86800F0B5F90246BB6893428CBF01230023DBB2002B01D006F0CEFEBA681346CB
S32D0000F7A89B0013449B00184606F0F6FD034618461037BD4680BD80B483B000AF78607B6818460C37BD4680BC80
S32D0000F7D0704780B584B000AFF860B9607A607A6813469B0013449B001946B86806F0D6FD00BF1037BD4680BD9B
S32D0000F7F880B582B000AF7860396039687868FFF7A8FA7B6818460837BD4680BDB0B584B000AFF860B9607A60F0
S32D0000F8203B607868FEF798FE03461C783868FEF79DFE0346D3E90023104619460EF06CFA0546BB681946082071
S32D0000F848FCF71AFE03462A462146184600F0B0FF00BF1037BD46B0BD80B483B000AF78607B6818460C37BD467F
S32D0000F87080BC704780B584B000AFF860B9607A60F86800F045F90246BB6893428CBF01230023DBB2002B01D02B
S32D0000F89806F052FEBB681B01184606F07DFD034618461037BD4680BD80B483B000AF78607B6818460C37BD464C
S32D0000F8C080BC704780B584B000AFF860B9607A607B681B011946B86806F060FD00BF1037BD4680BD80B582B046
S32D0000F8E800AF7860396039687868FFF7FEFA7B6818460837BD4680BD90B585B000AFF860B9607A607868FEF75A
S32D0000F91068FE03461C78BB6819460120FCF7B0FD03462146184603F081F900BF1437BD4690BD80B483B000AF58
S32D0000F93878607B6818460C37BD4680BC704780B584B000AFF860B9607A60F86800F0E7F80246BB6893428CBF32
S32D0000F96001230023DBB2002B01D006F0E9FDBB681B01184606F014FD034618461037BD4680BD80B483B000AFE5
S32D0000F98878607B6818460C37BD4680BC704780B584B000AFF860B9607A607B681B011946B86806F0F7FC00BF76
S32D0000F9B01037BD4680BD80B582B000AF7860396039687868FFF75DFB7B6818460837BD4680BD90B585B000AF63
S32D0000F9D8F860B9607A607868FEF7FFFD03461C78BB6819460120FCF747FD03462146184602F046FE00BF1437E0
S32D0000FA00BD4690BD80B483B000AF78607B6818460C37BD4680BC704780B584B000AFF860B9607A60F86800F06D
S32D0000FA2889F80246BB6893428CBF01230023DBB2002B01D006F080FDBA6813465B001344DB00184606F0A8FC61
S32D0000FA50034618461037BD4680BD80B483B000AF78607B6818460C37BD4680BC704780B584B000AFF860B96069
S32D0000FA787A607A6813465B001344DB001946B86806F088FC00BF1037BD4680BD80B582B000AF78603960396857
S32D0000FAA07868FFF7B6FB7B6818460837BD4680BD90B585B000AFF860B9607A607868FEF7F2FD03461C78BB68B9
S32D0000FAC819460C20FCF7D8FC03462146184603F09DFB00BF1437BD4690BD80B483B000AF78607B6818460C3759
S32D0000FAF0BD4680BC7047000080B483B000AF7860024B18460C37BD4680BC70476666660680B483B000AF7860FA
S32D0000FB186FF0784318460C37BD4680BC704780B483B000AF78606FF0784318460C37BD4680BC704780B483B008
S32D0000FB4000AF7860024B18460C37BD4680BC70475555550580B582B000AF7860084A7B681A607B680C3318460B
S32D0000FB68FFF76DFB7B681846FEF752FC7B6818460837BD4680BD00BF885F020080B582B000AF78607868FFF761
S32D0000FB90E1FF1821786806F001FC7B6818460837BD4680BD90B583B000AF78607B680C33184600F0FFF90446EA
S32D0000FBB87868FFF795FB03461946204600F002FA00BF0C37BD4690BD80B586B000AF78607B680C33184600F00B
S32D0000FBE0E9F9024607F1140311461846FFF7C2FA07F1140107F10C037A681846FFF759FD7868FFF7A7FF07F143
S32D0000FC080C031846FFF7DEFA07F114031846FFF7BAFA00BF1837BD4680BD000080B584B000AF786039607868C5
S32D0000FC30FFF75AFBF860FCF76DFC02463B68934206D00949386806F065FC0346002B01D0012300E00023002B31
S32D0000FC5801D0FB6800E0002318461037BD4680BDBC61020080B582B000AF7860084A7B681A607B680C33184626
S32D0000FC80FFF719FA7B681846FEF7C6FB7B6818460837BD4680BD00BFA45F020080B582B000AF78607868FFF70E
S32D0000FCA8E1FF1021786806F075FB7B6818460837BD4680BD90B583B000AF78607B680C33184600F08CF90446D9
S32D0000FCD07868FFF741FA03461946204600F08FF900BF0C37BD4690BD80B586B000AF78607B680C33184600F0BB
S32D0000FCF876F9024607F1140311461846FFF76EF907F1140107F10C037A681846FFF745FC7868FFF7A7FF07F107
S32D0000FD200C031846FFF78AF907F114031846FFF766F900BF1837BD4680BD000080B584B000AF78603960786856
S32D0000FD48FFF706FAF860FCF7E1FB02463B68934206D00949386806F0D9FB0346002B01D0012300E00023002B87
S32D0000FD7001D0FB6800E0002318461037BD4680BDBC61020080B582B000AF7860084A7B681A607B680C3318460D
S32D0000FD98FFF7C5F87B681846FEF73AFB7B6818460837BD4680BD00BFC05F020080B582B000AF78607868FFF7BB
S32D0000FDC0E1FF1021786806F0E9FA7B6818460837BD4680BD90B583B000AF78607B680C33184600F019F90446C0
S32D0000FDE87868FFF7EDF803461946204600F01CF900BF0C37BD4690BD80B586B000AF78607B680C33184600F06B
S32D0000FE1003F9024607F1140311461846FFF71AF807F1140107F10C037A681846FFF731FB7868FFF7A7FF07F1CA
S32D0000FE380C031846FFF736F807F114031846FFF712F800BF1837BD4680BD000080B584B000AF786039607868E7
S32D0000FE60FFF7B2F8F860FCF755FB02463B68934206D00949386806F04DFB0346002B01D0012300E00023002BDC
S32D0000FE8801D0FB6800E0002318461037BD4680BDBC61020080B582B000AF7860084A7B681A607B680C331846F4
S32D0000FEB0FEF76DFF7B681846FEF7AEFA7B6818460837BD4680BD00BFDC5F020080B582B000AF78607868FFF765
S32D0000FED8E1FF1421786806F05DFA7B6818460837BD4680BD90B583B000AF78607B680C33184600F0A6F80446A3
S32D0000FF007868FEF799FF03461946204600F0A9F800BF0C37BD4690BD80B586B000AF78607B680C33184600F013
S32D0000FF2890F8024607F1140311461846FEF7C2FE07F1140107F10C037A681846FFF701FA7868FFF7A7FF07F1A9
S32D0000FF500C031846FEF7DEFE07F114031846FEF7BAFE00BF1837BD4680BD000080B584B000AF78603960786874
S32D0000FF78FEF75EFFF860FCF7C9FA02463B68934206D00949386806F0C1FA0346002B01D0012300E00023002B2B
S32D0000FFA001D0FB6800E0002318461037BD4680BDBC61020080B582B000AF7860786800F05DF8034618460837FF
S32D0000FFC8BD4680BD80B582B000AF786039603968786800F059F800BF0837BD4680BD80B582B000AF7860786876
S32D0000FFF000F058F8034618460837BD4680BD80B582B000AF786039603968786800F054F800BF0837BD4680BDFB
S32D0001001880B582B000AF7860786800F053F8034618460837BD4680BD80B582B000AF786039603968786800F092
S32D000100404FF800BF0837BD4680BD80B582B000AF7860786800F04EF8034618460837BD4680BD80B582B000AFCC
S32D00010068786039603968786800F04AF800BF0837BD4680BD80B483B000AF78607B6818460C37BD4680BC70479F
S32D0001009080B483B000AF7860396000BF0C37BD4680BC704780B483B000AF78607B6818460C37BD4680BC70475A
S32D000100B880B483B000AF7860396000BF0C37BD4680BC704780B483B000AF78607B6818460C37BD4680BC704732
S32D000100E080B483B000AF7860396000BF0C37BD4680BC704780B483B000AF78607B6818460C37BD4680BC70470A
S32D0001010880B483B000AF7860396000BF0C37BD4680BC704780B500AF0F4BD3F8A03003F48053002B14BF012384
S32D000101300023DBB2002B10D0094BD3F8A030084A23F48053C2F8A030064806F037F8064B1B68054A23F4005330
S32D00010158136000BF80BD00BF00C00440541A0020C0F00F4080B400AF124B4FF480725A63114B5B69104A43F4D6
S32D00010180005353610E4B1B680D4A43F4005313600A4B0C4A1A630C4BD3F888310A4A43F08063C2F88831084BE6
S32D000101A89B68074A43F08063936000BFBD4680BC704700BF00C00440C0F00F4003010A0000E100E080B400AFA2
S32D000101D0334B00225A70324B98221A70304B9B79DBB203F01003002B14BF01230023DBB2002B00D0F2E72A4B98
S32D000101F89B79DBB29B08DBB203F00303022B14BF01230023DBB2002B00D0F0E7224B18221A71214B00225A71DD
S32D00010220204B03F580531A461F4B53641C4B54225A711B4B9B79DBB203F02003002B0CBF01230023DBB2002B3E
S32D0001024800D0F2E7144B9B79DBB203F04003002B0CBF01230023DBB2002B00D0F2E70E4B1B78DBB20C4A03F048
S32D000102703F03DBB213700A4B9B79DBB29B08DBB203F00303032B14BF01230023DBB2002B00D0F0E700231846C6
S32D00010298BD4680BC704700BF00400640007004400000130180B500AF314B03F580539B6B2F4A43F4785302F591
S32D000102C080529363FFF752FFFFF780FF2B4B58221A602A4B1B684FF47A7202FB03F3284A1360274B1B681A46CD
S32D000102E8234B03F580535B6C1B0E03F00F030133B2FBF3F31A46214B1A601D4B03F58053DB6B1B4A43F0225326
S32D0001031002F58052D363184B03F580531B6B164A43F0006302F580521363174B4FF480721A61642002F058F8FE
S32D00010338134B5B69124A23F010035361104B00221A600F4B10225A610E4803F0A7FE02F063FD02F0C1FD0C48BC
S32D0001036002F0A4F80B4805F07DFF4FF4FA6002F04FF900BF80BD00BF0070044018190020141900201C190020E3
S32D0001038800D00340CC19002010190020C41A002080B500AFFBF7D3FF00BF80BD80B500AFFBF7CDFF00BF80BDA5
S32D000103B080B500AFFBF7C7FF00BF80BD80B500AFFBF7C1FF00BF80BD80B500AFFBF7BBFF00BF80BD80B500AF84
S32D000103D8FBF7B5FF00BF80BD80B500AFFBF7AFFF00BF80BD80B500AFFBF7A9FF00BF80BD80B500AFFBF7A3FFE2
S32D0001040000BF80BD80B500AFFBF79DFF00BF80BD80B500AFFBF797FF00BF80BD80B500AFFBF791FF00BF80BD99
S32D0001042880B500AFFBF78BFF00BF80BD80B500AFFBF785FF00BF80BD80B500AFFBF77FFF00BF80BD80B500AFBF
S32D00010450FBF779FF00BF80BD80B500AFFBF773FF00BF80BD80B500AFFBF76DFF00BF80BD80B500AFFBF767FF59
S32D0001047800BF80BD80B500AFFBF761FF00BF80BD80B500AFFBF75BFF00BF80BD80B500AFFBF755FF00BF80BDD5
S32D000104A080B500AFFBF74FFF00BF80BD80B500AFFBF749FF00BF80BD80B500AFFBF743FF00BF80BD80B500AFFB
S32D000104C8FBF73DFF00BF80BD80B500AFFBF737FF00BF80BD80B500AFFBF731FF00BF80BD80B500AFFBF72BFFD1
S32D000104F000BF80BD80B500AFFBF725FF00BF80BD80B500AFFBF71FFF00BF80BD80B500AFFBF719FF00BF80BD11
S32D0001051880B500AFFBF713FF00BF80BD80B500AFFBF70DFF00BF80BD80B500AFFBF707FF00BF80BD80B500AF36
S32D00010540FBF701FF00BF80BD80B500AFFBF7FBFE00BF80BD80B500AFFBF7F5FE00BF80BD80B500AFFBF7EFFE4B
S32D0001056800BF80BD80B500AFFBF7E9FE00BF80BD80B500AFFBF7E3FE00BF80BD80B500AFFBF7DDFE00BF80BD4F
S32D0001059080B500AFFBF7D7FE00BF80BD80B500AFFBF7D1FE00BF80BD80B500AFFBF7CBFE00BF80BD80B500AF75
S32D000105B8FBF7C5FE00BF80BD80B500AFFBF7BFFE00BF80BD80B500AFFBF7B9FE00BF80BD80B500AFFBF7B3FEC4
S32D000105E000BF80BD80B500AFFBF7ADFE00BF80BD80B500AFFBF7A7FE00BF80BD80B500AFFBF7A1FE00BF80BD8B
S32D0001060880B500AFFBF79BFE00BF80BD80B500AFFBF795FE00BF80BD80B500AFFBF78FFE00BF80BD80B500AFB0
S32D00010630FBF789FE00BF80BD80B500AFFBF783FE00BF80BD80B500AFFBF77DFE00BF80BD80B500AFFBF777FE3B
S32D0001065800BF80BD80B500AFFBF771FE00BF80BD80B500AFFBF76BFE00BF80BD80B500AFFBF765FE00BF80BDC6
S32D0001068080B500AFFBF75FFE00BF80BD80B500AFFBF759FE00BF80BD80B500AFFBF753FE00BF80BD80B500AFEC
S32D000106A8FBF74DFE00BF80BD80B500AFFBF747FE00BF80BD80B500AFFBF741FE00BF80BD80B500AFFBF73BFEB3
S32D000106D000BF80BD80B500AFFBF735FE00BF80BD80B500AFFBF72FFE00BF80BD80B500AFFBF729FE00BF80BD02
S32D000106F880B500AFFBF723FE00BF80BD80B500AFFBF71DFE00BF80BD80B500AFFBF717FE00BF80BD80B500AF28
S32D00010720FBF711FE00BF80BD80B500AFFBF70BFE00BF80BD80B500AFFBF705FE00BF80BD80B500AFFBF7FFFD2B
S32D0001074800BF80BD80B500AFFBF7F9FD00BF80BD80B500AFFBF7F3FD00BF80BD80B500AFFBF7EDFD00BF80BD40
S32D0001077080B500AFFBF7E7FD00BF80BD80B500AFFBF7E1FD00BF80BD80B500AFFBF7DBFD00BF80BD80B500AF66
S32D00010798FBF7D5FD00BF80BD80B500AFFBF7CFFD00BF80BD80B500AFFBF7C9FD00BF80BD80B584B000AFF860CC
S32D000107C00B467A60FB72FB68FA7A1A71FB6800225A71174978680DF0B9FD0346002B02D0134B7B600AE04FF025
S32D000107E87E5178680DF09AFD0346002B02D04FF07E537B6078680CF051FF09A3D3E900230CF0A4FF02460B467F
S32D00010810104619460DF080FA0246FB681A60FB6818461037BD4680BDABAAAAAAAAAA20400000404180B582B0DB
S32D0001083800AF78607B685B79002B09D07B6800225A717B6819791E230022034801F064FE00BF0837BD4680BDCB
S32D000108601019002080B584B000AF786039603B687F2B02DD7F23FB7308E03B6813F1800F02DA8023FB7301E06F
S32D000108883B68FB737B685B79FA7B9A4209D07B68FA7B5A717B681979FA7B1E23034801F03BFE00BF1037BD4683
S32D000108B080BD00BF10190020B0B584B000AF78603960374938680DF023FD0346002B02D0334B3B6008E033491B
S32D000108D838680DF037FD0346002B01D02F4B3B6038680CF0DBFE04460D467B681B6818460CF0D4FE4FF00002E1
S32D00010900294B0DF051F802460B46204629460CF021FF02460B46104619460DF0FDF903463B604FF0000138687F
S32D000109280DF006FD0346002B10D038680CF0B6FE17A3D3E900230CF009FF02460B46104619460DF09DF9034635
S32D00010950FB6018E038680CF0A5FE4FF00002134B0CF0F8FE02460B46104619464FF000020D4B0DF019F8024618
S32D000109780B46104619460DF083F90346FB60F9687868FFF76BFF00BF1037BD46B0BD00BF52B81E85EB51F43F3B
S32D000109A00000C8C20000C842000059400000604080B483B000AF03460A46FB711346BB71BB79002B03D1134B2A
S32D000109C800221A7002E0114B01221A703823FB710E4B1A78FB791343FB710D4B9B78DBB20B4A43F01003DBB261
S32D000109F09370094B9B78DBB2074A43F02003DBB29370054AFB79137100BF0C37BD4680BC704700BFEC1600208A
S32D00010A180060064080B483B000AF01237B607B68312B04DC00BF7B6801337B60F7E700BF0C37BD4680BC70474E
S32D00010A4080B582B000AF03460A46FB711346BB71134B1B7800211846FFF7AAFF00F024F8104AFB79137100F08A
S32D00010A681FF80E4ABB79137100F01AF80B4B9B78DBB20A4A23F02003DBB29370074B9B78DBB2064A23F01003BE
S32D00010A90DBB29370FFF7C2FF00BF0837BD4680BDED1600200060064080B483B000AF174B1B78002B24D100239B
S32D00010AB87B60154BDB78DBB203F00203002B0CBF01230023DBB2002B0DD07B6842F21072934203DD0B4B012263
S32D00010AE01A7004E07B6801337B6000BFE5E7084BDB78DBB2064A43F00203DBB2D37000E000BF0C37BD4680BC50
S32D00010B08704700BFEE1600200060064080B582B000AF0346FB71FB79184600F05FF800BF0837BD4680BD80B527
S32D00010B3082B000AF03460A46FB711346BB7100F035F8FB795B00DBB21846FFF7E3FFBB791846FFF7DFFF00F026
S32D00010B5837F800BF0837BD4680BD80B500AFFF2000F03CF80346184680BD80B584B000AF0346FB7100F016F82B
S32D00010B80FB795B005BB243F001035BB2DBB21846FFF7C0FFFFF7E5FF0346FB7300F014F8FB7B18461037BD46DB
S32D00010BA880BD000080B400AF044B9B68034A43F48013936000BFBD4680BC704740F00F4080B400AF044B5B6879
S32D00010BD0034A43F48013536000BFBD4680BC704740F00F4080B485B000AF0346FB710023BB73164BDB6A03F041
S32D00010BF80043012B0CBF01230023DBB2002B03D0FB7B0133FB73F0E70E4BDB6A0D4A43F00043D3620B4AFB796A
S32D00010C2053630A4BDB6A03F40033002B0CBF01230023DBB2002B00D0F3E7044B9B6BBB73BB7B18461437BD4627
S32D00010C4880BC704700C00A4080B582B000AF204B03F580531B6B1E4A43F4805302F5805213631C4B4FF4807261
S32D00010C701A651B4B5B691A4A43F480135361FFF7A3FF164B4FF400725A65144B4FF400729A65124B4FF4007238
S32D00010C98DA65124B124A1A60104B124ADA6000237B607B68092B06DCFF20FFF72FFF7B6801337B60F5E704A11D
S32D00010CC0D1E9000101F0BAFC00BF0837BD4680BD9A9999999999B93F0070044000A0044040F00F4000C00A40B5
S32D00010CE8000C00800500003E90B486B000AFF860B9607A60FB68534A93420AD1524B03F580535B6B504A43F4EB
S32D00010D10806302F58052536345E0FB684D4A93420AD14B4B03F580535B6B494A43F4006302F58052536336E09A
S32D00010D38FB68474A93420AD1434B03F580535B6B414A43F4805302F58052536327E0FB68404A93420AD13C4B8A
S32D00010D6003F580535B6B3A4A43F4005302F58052536318E0FB683A4A93420AD1344B03F580539B6A324A43F4B5
S32D00010D88806302F58052936209E02F4B03F580539B6A2D4A43F4006302F580529362FB68DB78DBB223F00C0334
S32D00010DB0DAB2FB68DA70FB6800229A70BB684FF47A7203FB02F27B681B0192FBF3F39CB2FB681B78DBB223F0B2
S32D00010DD81F03FB75230A9BB2DBB203F01F03DAB2FB7D1343DAB2FB681A70E2B2FB685A70BB684FF4FA4203FB0A
S32D00010E0002F27B681B0192FBF3F39AB263019BB2D31A9CB2FB689B7ADBB223F01F03FB75E3B203F01F03DAB245
S32D00010E28FB7D1343DAB2FB689A72FB68DB78DBB243F00C03DAB2FB68DA7000BF1837BD4690BC704700A006401A
S32D00010E500070044000B0064000C0064000D0064000A00E4080B483B000AF78607B681B79DBB203F02003002B8C
S32D00010E780CBF01230023DBB2002B00D0F2E77B68DB79DBB218460C37BD4680BC704780B483B000AF78600B463E
S32D00010EA0FB707B681B79DBB25BB2DB43DBB2DB09DBB2002B00D0F4E77B68FA78DA7100BF0C37BD4680BC70471D
S32D00010EC880B487B000AFF860B9607A60FB687B617B685A1E7A60002B14BF01230023DBB2002B06D07B695A1CF5
S32D00010EF07A61BA68D2B21A70EEE700BF1C37BD4680BC704780B584B000AF786039607B681B6BFB60FA683B6899
S32D00010F189A4252D07B681B79002B35D07B6858787B6803F134010123FA6801F0F7F80346002B14BF0123002352
S32D00010F40DBB2002B01D001233CE07B6800221A717B685A6A7B681B6A1344FA689A4217D27B68DB78FB72FB7A84
S32D00010F68012B11D97B681B6AFA681344FB607B6858787B6803F134010123FA6801F0CEF8FB7A013BFB72EAE7DD
S32D00010F903B68002B15D07B6858787B6803F1340101233A6800F0DAFF0346002B14BF01230023DBB2002B01D01A
S32D00010FB8012303E07B683A681A63002318461037BD4680BD80B584B000AF786000217868FFF794FF0346FB73C8
S32D00010FE0FB7B002B40F093807B681B78032B7DD17B685B79002B79D07B6800221A637B6834334FF4007200213F
S32D000110081846FFF75DFF7B68552283F832227B68AA2283F833227B68522283F834207B68522283F835207B6831
S32D00011030612283F836207B68412283F837207B68722283F818227B68722283F819227B68412283F81A227B68EC
S32D00011058612283F81B227B681B69DAB27B6883F81C227B681B699BB21B0A9BB2DAB27B6883F81D227B681B69E9
S32D000110801B0CDAB27B6883F81E227B681B691B0EDAB27B6883F81F227B68DB68DAB27B6883F820227B68DB68BD
S32D000110A89BB21B0A9BB2DAB27B6883F821227B68DB681B0CDAB27B6883F822227B68DB681B0EDAB27B6883F879
S32D000110D023227B6858787B6803F134017B685A69012301F01FF87B6800225A717B685B7800220021184601F003
S32D000110F8E1F80346002B14BF01230023DBB2002B01D00123FB73FB7B18461037BD4680BD80B582B000AF7860FE
S32D000111200B467B807B68002B08D07B681B78002B04D07B68DB887A889A4201D0092311E07B685B78184601F0E2
S32D000111483BF9034603F00103002B14BF01230023DBB2002B01D0032300E0002318460837BD4680BD80B586B0C5
S32D0001117000AF78607B681A687B689B8819461046FFF7CAFF0346FB75FB7D002B40F0AC807B689B7903F0200325
S32D00011198002B00F0A5807B689B7903F04003002B1BD07B681B6858787B6803F128017B689A69012300F0B2FFC4
S32D000111C00346002B14BF01230023DBB2002B01D001238AE07B689B7923F04003DAB27B689A717B681A687B684C
S32D000111E8DB6919461046FFF789FE0346FB75FB7D002B75D17B681B6A3B613B690B331A783B690B3342F0200212
S32D00011210D2B21A707B68DA683B691C33D2B21A707B68DB689BB21B0A9AB23B691D33D2B21A707B68DB681A0C49
S32D000112383B691E33D2B21A707B68DB681A0E3B691F33D2B21A707B681A693B691A33D2B21A707B681B699BB219
S32D000112601B0A9AB23B691B33D2B21A707B681B691A0C3B691433D2B21A707B681B691B0C9BB21B0A9AB23B6978
S32D000112881533D2B21A700023FB603B691633FA68D2B21A70FB689BB21B0A9AB23B691733D2B21A70FB681A0C60
S32D000112B03B691833D2B21A70FB681A0E3B691933D2B21A707B689B7923F02003DAB27B689A717B681B68012259
S32D000112D81A717B681B681846FFF774FE0346FB75FB7D18461837BD4680BD80B584B000AF78607868FFF736FF17
S32D000113000346FB73FB7B002B02D17B6800221A60FB7B18461037BD4680BD000080B588B000AF78603960802389
S32D000113283B610F23FB604FF0FF337B610223FB61FB69B3F5807F23D80123BB61BB69102B1AD8FB69BA6902FB84
S32D0001135003F33A6803FB02F27B68D31ABB60BB68002B09DBBB687A699A4205D9BB687B61FB693B61BB69FB6089
S32D00011378BB690133BB61E1E7FB695B00FB61D7E71D4BDB6A1C4A23F00803D3621A4BDB6A23F47F2323F47F636F
S32D000113A0BB613B695B081B029AB2FB68013B1B01DBB21A43BB691343114A43F46023D3620F4B5B6A03F008030C
S32D000113C8002B0CBF01230023DBB2002B03D00A2001F01AF9F0E7084BDB6A074A43F00803D362054B1B6B044AA9
S32D000113F043F48013136300BF2037BD4680BD00BF00100B4080B582B000AF786039607B6800221A60414B424A00
S32D00011418DA62404BDB6A03F08073002B14BF01230023DBB2002B00D0F3E73A4B0022C3F8C020384B4FF4813251
S32D000114405A60364B28229A62344B4FF001125A643B689B6833491846FFF760FF2F4B5B6A03F00303002B14BF62
S32D0001146801230023DBB2002B00D0F3E72C4B40F243421A602A4B40F243425A60284B4FF488629A60264B40F2E1
S32D000114904342DA60244B40F243421A61224B40F243425A61214B03F580531B6B1F4A43F4003302F5805213631F
S32D000114B8184B4FF6FF721A63164B1B4A5A63154BDB6A144A43F00063D362124BDB6A03F00063002B14BF012304
S32D000114E00023DBB2002B00D0F3E70C4B5B6A03F48033002B14BF01230023DBB2002B02D07B6801221A60054BF3
S32D000115081B6B044A43F080031363002318460837BD4680BD00100B400080000160CC050000D0044000700440DF
S32D00011530B3007F0080B400AF064B5A6A40F207331340002B14BF01230023DBB21846BD4680BC704700100B4022
S32D0001155880B485B000AF7860074B1B6B7A681340FB60FB68002B00D1F6E7FB6818461437BD4680BC704700BF0F
S32D0001158000100B4080B584B000AF78607B681B7803F03F03764A52F82330FB60FB68002B05D17B681B78002B89
S32D000115A801D00123DCE0714B1B6B704A43F0800313636E4B5B6A03F00103002B14BF01230023DBB2002B00D0F9
S32D000115D0F3E7684A7B685B689360FB6823F44003FB607B685B789B0503F44003FA681343FB607B685B78022B29
S32D000115F803D1FB6843F40013FB607B685B78042B16D1FB6803F44033B3F5003F08D1FB6823F44033FB60FB68E4
S32D0001162043F44033FB6007E0FB6823F44033FB60FB6843F40033FB604E4B5B684D4A9BB253607B68DB68002BFB
S32D000116482AD0FB6803F44033B3F5403F03D0FB6843F40013FB607B681B7A002B03D0FB6843F01003FB607B684D
S32D00011670DB68012B03D9FB6843F02003FB607B68DB68B3F1FF3F0BD03A4B5A687B68DB681B04384913434B60FB
S32D00011698FB6843F00203FB60344B00221A60334AFB68D3603248FFF753FF0346012B14BF01230023DBB2002BF6
S32D000116C009D02C4B1B6B2B4A43F4702343F001031363012348E0274B1B6B03F08003002B14BF01230023DBB2AD
S32D000116E8002B07D0214B1B6B204A43F001131363012335E01D4B1B6B03F48033002B14BF01230023DBB2002BEA
S32D0001171008D0184B1B6B174A43F0011313634FF0FF3321E0FB6803F44033002B15D0114B1A697B681A61FB68DC
S32D0001173803F44033B3F5803F0BD10C4B5A697B685A610A4B9A697B689A61084BDA697B68DA61064B1B6B054A0D
S32D0001176043F001031363002318461037BD4680BD2062020000100B4001000E0080B592B000AF786039600023FD
S32D000117887B643B68BB63994B7B637B6B002B02D140F601235FE3964B3B633B6B002B02D140F60B2357E33B6BE9
S32D000117B01B68FB62FB6A002B02D140F60B234EE37B6841F20932934200F23F837B68B3F5985F08D87B68032BE5
S32D000117D800F01A837B68092B00F0098331E37B68A3F59853013B082B00F22B8301A252F823F000BF2118010040
S32D000118000D1B0100691D0100231B0100611B0100871C0100CF1C0100111C01002B1C01007649786BFFF7EEFDC4
S32D0001182878647B6C002B40F01083002387F84330002387F82B30002387F82A30002387F82930002387F84230C3
S32D00011850002387F8283000233B7200237B720023FB6000233B7400237B6107F108031846FFF788FE0346002BEF
S32D0001187814BF01230023DBB2002B02D001237B64E8E240F24C4000F0BFFE08233B7200237B724FF4D573FB6097
S32D000118A000233B7400237B6107F108031846FFF769FEF863FB6B002B09D1BA69FB689A4202D001237B64C9E2E2
S32D000118C8012387F84230012387F8283097F82830002B00F0A58037233B7200237B720023FB6000233B74002330
S32D000118F07B6107F108031846FFF744FEF863FB6B002B02D001237B64A8E269233B7200237B720023FB6000231F
S32D000119183B7400237B6107F108031846FFF72EFE0346002B14BF01230023DBB2002B02D001237B648EE2BB69C0
S32D0001194003F44013002B6FD00023FB630A2000F05FFEFB6B0133FB6337233B7200237B720023FB6000233B746D
S32D0001196800237B6107F108031846FFF707FE0346002B14BF01230023DBB2002B02D001237B6428E069233B7299
S32D0001199000237B7297F84230002B02D0184BFB6002E04FF44013FB6000233B7400237B6107F108031846FFF761
S32D000119B8E5FD0346002B14BF01230023DBB2002B02D001237B6406E0BB69002B03DBFB6B632B00D8B6E77B6CA0
S32D000119E0002B40F03882FB6B632B0BD9002387F8423019E004170020081900201462020000003040012387F8D7
S32D00011A08433097F84230002B0AD0002387F84230BB6903F08043002B02D0012387F8423097F82A30002B02D050
S32D00011A307B6B07221A6097F82930002B02D07B6B08221A6097F82B30002B02D07B6B04221A6097F84330002BF5
S32D00011A5809D07B6B02221A6097F84230002B02D07B6B03221A6097F82B30002B0DD097F84330002B09D07B6BA1
S32D00011A8005221A6097F84230002B02D07B6B06221A60924B00221A60904B00225A608F4B00229A608D4B0022F0
S32D00011AA8DA608C4B00221A618A4B00225A61FB6A9A68FB6A5B6819461046FFF72BFC854B40F243421A60834B7F
S32D00011AD040F243425A60814B4FF488629A607F4B40F24342DA607D4B40F243421A617B4B40F243425A617A4BD1
S32D00011AF803F580531B6B784A43F4003302F580521363A7E1B86BFFF739FDF863FB6B002B00F09F8102237B642C
S32D00011B209BE1BB6B002B02D10C237B6496E16D4BDB6A1B0A5B0003F4FF73FB63694BDB6A1B0903F00F035A1C95
S32D00011B48FB6B02FB03F3FB63FB6A9A68FB6BB2FBF3F2BB6B1A607DE1BB6B002B02D10C237B6477E1BB6B1B6827
S32D00011B70002B02D10C237B6470E1FFF7DBFC0346002B0CBF01230023DBB2002B3CD0534B00221A60514B0022DA
S32D00011B985A60504B00229A604E4B0022DA604D4B00221A614B4B00225A61FB6A9A68BB6B1B6819461046FFF755
S32D00011BC0ADFB464B40F243421A60444B40F243425A60424B4FF488629A60404B40F24342DA603E4B40F243421C
S32D00011BE81A613C4B40F243425A613B4B03F580531B6B394A43F4003302F58052136329E140F60A237B6425E105
S32D00011C10BB6B002B02D10C237B641FE1314B5B68C3F30C02BB6B1A6018E1BB6B002B02D10C237B6412E1FFF7BC
S32D00011C387DFC0346002B0CBF01230023DBB2002B19D0BB6B1B68B3F5805F02D30C237B6400E1224B5B68214A4E
S32D00011C6023F4FF5323F01F0353601E4B5A68BB6B1B68C3F30C031B4913434B60EEE040F60A237B64EAE0BB6B06
S32D00011C88002B02D10C237B64E4E0144B9B6A5B0803F00303FB63FB6B002B03D1BB6B00221A60D7E0FB6B012BCF
S32D00011CB003D1BB6B01221A60D0E0FB6B102B03D1BB6B02221A60C9E005237B64C6E0BB6B002B09D10C237B64F6
S32D00011CD8C0E000BF00D004400070044000100B40FFF724FC0346002B0CBF01230023DBB2002B31D0BB6B1B685D
S32D00011D00002B0AD1584B9B6A574A23F006039362554B554A9B6A9362A0E0BB6B1B68012B0CD1514B9B6A504AAE
S32D00011D2823F0060393624E4B9B6A4D4A43F0020393628FE0BB6B1B68022B0AD1484B9B6A474A23F006039362BF
S32D00011D50454B454A9B6A936280E005237B647DE040F60A237B6479E0BB6B002B02D10C237B6473E03C4BDB6A9B
S32D00011D783B4A43F00063D362394BDB6A03F00063002B14BF01230023DBB2002B00D0F3E7334B1B6B03F08003AC
S32D00011DA0002B14BF01230023DBB2002B08D02E4B1B6B2D4A43F0800313637B6B00221A60294B5B6A03F4803338
S32D00011DC8002B14BF01230023DBB2002B07D07B6B1B68002B06D17B6B01221A6002E07B6B00221A607B6B1A685E
S32D00011DF0BB6B1A6032E0BB6B1C221A60BB6B043304221A60BB6B08334FF41E721A6025E00220FFF7A1FB144B71
S32D00011E181B6B03F4E003002B14BF01230023DBB2002B07D00E4B1B6B0D4A43F4E003136304237B640A4B1B6BC0
S32D00011E40094A43F03203136308E040F609237B6404E000BF02E000BF00E000BF7B6C18464837BD4680BD00BF73
S32D00011E6800100B4080B489B000AF786039607B687B61364B3B613B69002B01D100235FE03B691B68022B0BD055
S32D00011E903B691B68032B07D03B691B68072B03D03B691B68082B0BD12B4B5B6A03F00403002B14BF012300231B
S32D00011EB8DBB2002B00D0F3E73B68FB61FB69002B3DD0FB69B3F5007F28BF4FF40073FB60FB6803339B08BB6123
S32D00011EE0BB69002B2AD01C4B1B6B03F4E003002B14BF01230023DBB2002B09D0164B1B6B154A43F4E00343F05A
S32D00011F082003136300231BE0114B5B6A03F40063002B0CBF01230023DBB2002B00D0F3E70B497B691A1D7A618F
S32D00011F300A6A1A60BB69013BBB61D1E7FA69FB68D31AFB61BEE7012318462437BD4680BC704700BF04170020DF
S32D00011F5800100B4080B58EB000AFB9607A601A460346FB731346BB73414B7B63FB7B002B02D1BB7B002B01D13B
S32D00011F80042375E03D4B1B78DBB203F00103002B14BF01230023DBB2002B01D0032367E0BB68002B01D1002399
S32D00011FA862E07B6B1B7B002B02D17B685B027B60BB7B012B28D111233B7500237B757B68BB6101233B77BB7BD6
S32D00011FD03B6207F11403194641F20230FFF7CEFB0346002B0CBF01230023DBB2002B38D04FF40071B868FFF7A3
S32D00011FF839FF0346002B14BF01230023DBB2002B2BD00023BB7328E012233B7500237B757B68BB6101233B771B
S32D00012020BB7B3B6207F11403194641F20230FFF7A5FB0346002B0CBF01230023DBB2002B0FD0BB7B5B02194646
S32D00012048B868FFF70FFF0346002B14BF01230023DBB2002B01D00023BB73BB7B002B01D0012300E0002300BFC5
S32D0001207018463837BD4680BDF01600200000002080B487B000AF786039607B68FB603B687B617B69002B3DD08A
S32D000120987B69B3F5007F28BF4FF400733B617A693B69D31A7B613B6903339B083B613B69002BEAD0184B1B6BFA
S32D000120C003F4E003002B14BF01230023DBB2002B0AD0134B1B6B124A43F4E00343F0100313634FF0FF3316E0C3
S32D000120E80D4B5B6A03F48063002B0CBF01230023DBB2002B00D0F3E7FB681A1DFA60064A1B6813623B69013B17
S32D000121103B61D0E7012318461C37BD4680BC704700100B4080B58EB000AFB9607A601A460346FB731346BB7374
S32D000121385D4B7B63FB7B002B02D1BB7B002B01D10423ADE0594B1B78DBB203F00103002B14BF01230023DBB20A
S32D00012160002B01D003239FE0524B1B78DBB203F00403002B14BF01230023DBB2002B01D0022391E0BB68002B46
S32D0001218801D100238CE07B6B1B7B002B02D17B685B027B60BB7B012B28D118233B7500237B757B68BB610023B7
S32D000121B03B77BB7B3B6207F11403194641F20230FFF7DCFA0346002B0CBF01230023DBB2002B38D04FF40071E2
S32D000121D8B868FFF751FF0346002B14BF01230023DBB2002B2BD00023BB7328E019233B7500237B757B68BB61DA
S32D0001220000233B77BB7B3B6207F11403194641F20230FFF7B3FA0346002B0CBF01230023DBB2002B0FD0BB7B3E
S32D000122285B021946B868FFF727FF0346002B14BF01230023DBB2002B01D00023BB730D233B7500237B757B6B4E
S32D000122501B69BB6100233B7700233B6207F11403194641F20230FFF789FA0346002B14BF01230023DBB2002B98
S32D0001227801D0012314E07A6A0D4B1340002B01D001230DE07B6A03F4F853B3F5106F00D0D5E7BB7B002B01D0A6
S32D000122A0012300E0002300BF18463837BD4680BDF0160020000000200880D9FF80B58CB000AF03463A60FB7107
S32D000122C80B46BB713A4BBB62FB79002B01D0042369E0012387F82F30364B1B78DBB203F00103002B14BF01232C
S32D000122F00023DBB2002B01D0032358E0BB79032B50D801A252F823F019230100212301003123010041230100EF
S32D00012318002387F82F3044E0BB6A9A683B681A60002387F82F303CE03B684FF400721A80002387F82F3034E009
S32D0001234009233B7200237B72BB6A1B69FB6000233B7400237B6107F10803194641F20230FFF70CFA0346002B79
S32D0001236814BF01230023DBB2002B01D001231AE07B6A03F44003002B0CD13B6A9B0C03F07F035A1C7B6A1B0A1D
S32D0001239003F00303013B9A403B681A60002387F82F3002E0042387F82F3097F82F3018463037BD4680BD00BF58
S32D000123B8F01600200000002080B483B000AF0346FB71FB79002B01D0012302E0034B1B78DBB218460C37BD465D
S32D000123E080BC70470000002080B483B000AF7860164B03F580539B6B144A43F0010302F580529363124A7B6808
S32D000124089360114B05225A600F4B1B680E4A43F0010313600C4B1B6803F08003002B0CBF01230023DBB2002B51
S32D0001243000D0F3E7064B1B68054A23F00103136000BF0C37BD4680BC704700BF007004400000044080B582B010
S32D0001245800AF786039607B68012B07D13B684FF6FF72934202D1034800F00EF800BF0837BD4680BD1019002085
S32D0001248080B500AF4FF6FF710120FFF7E3FF80BD80B483B000AF78607B6800221A707B6818460C37BD4680BC1E
S32D000124A87047000080B582B000AF78607B681B7883F00103DBB2002B21D0134B03F580531A464FF400639362A6
S32D000124D0104B4FF440721A620E4B4FF440725A620D4B1B68DA0F13445B104FF4614219460A48FEF7FDFB642079
S32D000124F800F08AF87B6801221A70012300E0002318460837BD4680BD0070044000D004401419002000B00E409C
S32D0001252080B582B000AF7860084611461A460346FB700B46BB7013467B707F210E48FEF7AAFC08210C48FEF722
S32D00012548A6FCFB7819460A48FEF7A1FCBB7819460748FEF79CFC7B7819460548FEF797FCFF210348FEF793FC88
S32D0001257000BF0837BD4680BD00B00E4080B487B000AFF860B9607A60FB681F4AA2FB03239B09BA6813447B6113
S32D00012598FB681B4AA2FB031292094FF47A7101FB02F29B1AFB60FB68DB03154AA2FB03239B097A6813443B61F5
S32D000125C03B69DB0B7A6913447B613B69C3F30E033B610E4B1B687A699A4209D80B4B1B687A699A4206D1094B06
S32D000125E85B683A699A4201D9012300E00023002B00D0EAE700BF1C37BD4680BC704700BFD34D621000D0034049
S32D0001261080B584B000AF7860074B1B68FB60064B5B68BB607B68BA68F9681846FFF7A6FF00BF1037BD4680BDA7
S32D0001263800D0034080B584B000AFC7E900010E4B1B68FB600C4B5B68BB604FF000020B4BD7E900010BF07AF866
S32D0001266002460B46104619460BF036FB0346BA68F9681846FFF782FF00BF1037BD4680BD00D0034000408F40C8
S32D0001268880B584B000AF78600B46FB700B23FB73FA7BFB781946786800F094F87B6818461037BD4680BD000070
S32D000126B080B485B000AF78607B68103B002B00DA1F335B11FB60FB68022B53D0FB68022B75DCFB68002B03D0CA
S32D000126D8FB68012B25D06EE0394BD3F880217B68103B594203F01F0301F01F0158BF4B42012101FA03F33249F0
S32D000127001343C1F88031304B1A687B68103B594203F01F0301F01F0158BF4B42012101FA03F3294913430B6014
S32D0001272849E0274BD3F884217B68103B594203F01F0301F01F0158BF4B42012101FA03F31F491343C1F88431A5
S32D000127501D4B5A687B68103B594203F01F0301F01F0158BF4B42012101FA03F3164913434B6024E0144BD3F8FC
S32D0001277888217B68103B594203F01F0301F01F0158BF4B42012101FA03F30D491343C1F888310B4B9A687B688A
S32D000127A0103B594203F01F0301F01F0158BF4B42012101FA03F3044913438B6000BF00BF1437BD4680BC7047FA
S32D000127C800E100E080B584B000AF78600B46FB701346BB707B68FA781A70BB78FB737B681B781A46574B9B5C02
S32D000127F0042B00F2A68001A252F823F0112801005D280100A928010041290100F5280100FB7B1B0403F4702339
S32D000128184D497A68127810464C4A52F8202043F4897343F0010341F82230494B5A697B681B781946454B53F81D
S32D00012840213003F01F03012101FA03F3DB43424913404B616720FFF72BFF72E0FB7B1B0403F470233D497A68C8
S32D0001286812781046394A52F8202043F4897343F0010341F82230384B5A697B681B781946324B53F8213003F038
S32D000128901F03012101FA03F3DB43314913404B616820FFF705FF4CE0FB7B1B0403F470232C497A681278104649
S32D000128B8264A52F8202043F4897343F0010341F82230274B5A697B681B7819461F4B53F8213003F01F030121BB
S32D000128E001FA03F3DB43204913404B616920FFF7DFFE26E0FB7B1B0403F470231B497A6812781046134A52F804
S32D00012908202043F4897343F0010341F82230164B5A697B681B7819460C4B53F8213003F01F03012101FA03F357
S32D00012930DB430F4913404B616B20FFF7B9FE00E000BF00BF1037BD4680BD00BF20630200009004406463020005
